:020000040000FA
:100000000C94F8000C9420010C9420010C94200115
:100010000C9420010C9420010C9420010C942001DC
:100020000C9420010C9420010C9420010C942001CC
:100030000C9420010C9420010C9420010C942001BC
:100040000C94C0100C9420010C948E100C94681029
:100050000C9420010C9420010C9420010C9420019C
:100060000C940A110C9420010000000025002800C7
:100070002B000000000023002600290000000008DB
:10008000000201000003040700000000000000005F
:100090003C2D20636830312063633030302076613E
:1000A0006C303030002D3E20636830312063633087
:1000B00030302076616C303030006D6F64653A20EE
:1000C000706572666F726D000000000024002700EA
:1000D0002A000102040810204080010204081020B8
:1000E00001020408102004040404040404040202AD
:1000F00002020202030303030303536176656421D2
:1001000000526573657420436F6D706C6574652172
:1001100000596573204E6F0052657365743A204331
:100120006F6E6669726D3F00746F206465666175FD
:100130006C742073746174650070726573732055FC
:100140005020746F207265736574006D6F64653A3A
:100150002072657365740063757272656E742073C6
:100160007461746500707265737320555020746FEC
:100170002073617665006D6F64653A207361766502
:10018000006D696469203C2D206368303120636311
:100190003030300075736220202D3E20636830318E
:1001A000206363303030006D6F64653A20656469A8
:1001B00074003C2D20636830312063633030302080
:1001C00076616C303030002D3E2063683031206322
:1001D000633030302076616C303030006D6F646594
:1001E0003A20706572666F726D003000300029121F
:1001F00011241FBECFEFD8E0DEBFCDBF24E0AAE6BA
:10020000B1E001C01D92A63EB207E1F711E0A0E007
:10021000B1E0EEEAF6E302C005900D92AA36B1070E
:10022000D9F710E0C8EFD0E004C02197FE010E948A
:10023000481BC73FD107C9F70E948F130C94551B69
:100240000C940000089508958CBD9DBD0895AF9253
:10025000BF92CF92DF92EF92FF920F931F93CF93B3
:10026000DF936C017B018B01040F151FEB015E0115
:10027000AE18BF08C017D10759F06991D601ED91AA
:10028000FC910190F081E02DC6010995892B79F749
:10029000C501DF91CF911F910F91FF90EF90DF90FB
:1002A000CF90BF90AF900895FC01538D448D252FC2
:1002B00030E0842F90E0821B930B541710F0CF9600
:1002C000089501970895FC01918D828D981761F032
:1002D000A28DAE0FBF2FB11D5D968C91928D9F5F49
:1002E0009F73928F90E008958FEF9FEF0895FC0128
:1002F000918D828D981731F0828DE80FF11D858DDB
:1003000090E008958FEF9FEF0895FC01918D228D6D
:10031000892F90E0805C9F4F821B91098F739927F2
:10032000089589E392E00E94850121E0892B09F478
:1003300020E0822F089580E090E0892B29F00E9430
:10034000910181110C9400000895FC01A48DA80F67
:10035000B92FB11DA35ABF4F2C91848D90E0019607
:100360008F739927848FA689B7892C93A089B18927
:100370008C91837080648C93938D848D981306C0C8
:100380000288F389E02D80818F7D80830895EF922C
:10039000FF920F931F93CF93DF93EC0181E0888F3F
:1003A0009B8D8C8D98131AC0E889F989808185FF0F
:1003B00015C09FB7F894EE89FF896083E889F989B1
:1003C00080818370806480839FBF81E090E0DF91B3
:1003D000CF911F910F91FF90EF900895F62E0B8D06
:1003E00010E00F5F1F4F0F731127E02E8C8D8E11C1
:1003F0000CC00FB607FCFACFE889F989808185FF28
:10040000F5CFCE010E94A501F1CFEB8DEC0FFD2FB2
:10041000F11DE35AFF4FF0829FB7F8940B8FEA89E2
:10042000FB8980818062CFCFCF93DF93EC01888DF1
:100430008823B9F0AA89BB89E889F9898C9185FD5F
:1004400003C0808186FD0DC00FB607FCF7CF8C91ED
:1004500085FFF2CF808185FFEDCFCE010E94A501FF
:10046000E9CFDF91CF910895833081F028F4813076
:1004700099F08230A9F008958730A9F08830C9F04A
:100480008430B1F4809180008F7D03C08091800022
:100490008F7780938000089584B58F7784BD089509
:1004A00084B58F7DFBCF8091B0008F778093B000B3
:1004B00008958091B0008F7DF9CFCF93DF93282FDF
:1004C00030E0F901E458FF4F8491F901EE52FF4FFB
:1004D000D491F901EA51FF4FC491CC23A1F08111CD
:1004E0000E943402EC2FF0E0EE0FFF1FEE58FF4F9A
:1004F000A591B491EC91ED2381E090E009F480E0C6
:10050000DF91CF91089580E090E0FACF1F93CF93D1
:10051000DF93282F30E0F901E458FF4F8491F9016F
:10052000EE52FF4FD491F901EA51FF4FC491CC2311
:10053000A9F0162F81110E943402EC2FF0E0EE0F8B
:10054000FF1FE859FF4FA591B4918FB7F894EC9134
:10055000111108C0D095DE23DC938FBFDF91CF91BE
:100560001F910895DE2BF8CFCF93DF9390E0FC012D
:10057000EE52FF4F24918A519F4FFC0184918823B2
:10058000D1F090E0880F991FFC01E853FF4FA5912F
:10059000B491FC01E859FF4FC591D49161110EC08F
:1005A0009FB7F8948C91E22FE0958E238C9328814D
:1005B000E223E8839FBFDF91CF9108958FB7F8942E
:1005C000EC91E22BEC938FBFF6CF3FB7F89480917C
:1005D000B3019091B401A091B501B091B60126B5D7
:1005E000A89B05C02F3F19F00196A11DB11D3FBF6B
:1005F000BA2FA92F982F8827BC01CD01620F711D3A
:10060000811D911D42E0660F771F881F991F4A9533
:10061000D1F708958F929F92AF92BF92CF92DF92BF
:10062000EF92FF924B015C010E94E5026B017C019D
:100630000E94E5026C197D098E099F09683E73408E
:1006400081059105A8F321E0821A9108A108B1085B
:1006500088EEC80E83E0D81EE11CF11C81149104C1
:10066000A104B10429F7FF90EF90DF90CF90BF90E5
:10067000AF909F908F9008952FB7F8946091AF013D
:100680007091B0018091B1019091B2012FBF089596
:1006900020918B01260F3327331F21323105ECF4D3
:1006A00020913302FC0190E080E0243069F082E088
:1006B0000895A0918B012191AC0145595E4FA40F83
:1006C000B52FB11D2C930196861798F380918B015D
:1006D000680F60938B0180E0089581E00895109287
:1006E000330281E08093120210920D0261E082E1F8
:1006F0000E94860261E083E10E948602E9EBF0E05D
:1007000080818E7F808380818D7F808388E4809349
:10071000B80085E48093BC000895CF93DF9391E007
:1007200090936A018823B9F0C091B800D091BA00C3
:100730008091BC008A7B8093BC0060E082E10E94D3
:10074000860260E083E10E9486020E946F03D093DC
:10075000BA00C093B800DF91CF910895CF92DF9295
:10076000EF92FF920F931F93CF93DF93D82FC62F53
:10077000613208F098C00E94E5026B017C01809113
:10078000330281116BC081E08093330280931202A7
:100790009FEF90931102109210029C0F90930F0202
:1007A00080930E0280910E02DD0FD82BD0930E02A3
:1007B00080910D02813009F078C010920D020E94E4
:1007C000E5026B017C0180910E028093BB00809159
:1007D000350290913602A0913702B0913802892BF0
:1007E0008A2B8B2BA1F00E94E5020091350210911B
:1007F000360220913702309138026C197D098E093A
:100800009F09061717072807390708F448C0809181
:10081000BC0083FDD8CF85EC8093BC000E94E5022C
:100820006B017C0180913302813009F440C08091DA
:1008300010028C1710F4C0911002EDEEF1E0A3E16C
:10084000B2E080E08C1355C08C2FDF91CF911F91C7
:100850000F91FF90EF90DF90CF9008958091350237
:1008600090913602A0913702B0913802892B8A2BE1
:100870008B2B09F484CF0E94E50200913502109180
:10088000360220913702309138026C197D098E09A9
:100890009F09061717072807390708F070CF8091BE
:1008A00034020E948D03C0E0CFCF85EEB5CF80919A
:1008B000350290913602A0913702B0913802892B0F
:1008C0008A2B8B2B09F4AECF0E94E50200913502F2
:1008D0001091360220913702309138026C197D094F
:1008E0008E099F09061717072807390708F09ACFBE
:1008F000D6CF91919D938F5FA5CF8F929F92AF920C
:10090000BF92CF92DF92EF92FF920F931F93CF93FC
:10091000DF93D091DA02D13208F0D7C0182FC091FE
:10092000EC010E94E5026B017C0180913302811190
:100930006BC082E080933302109312028FEF80939A
:10094000110210921002D0930F02ACECB1E0EDEE68
:10095000F1E080E0D81391C010920E0280910E0257
:10096000CC0FC82BC0930E0280910D02813009F08C
:1009700088C010920D020E94E5026B017C018091FB
:100980000E028093BB008091350290913602A091B7
:100990003702B0913802892B8A2B8B2BA1F00E9451
:1009A000E502009135021091360220913702309114
:1009B00038026C197D098E099F0906171707280749
:1009C000390708F442C08091BC0083FDD8CF85EC84
:1009D0008093BC000E94E5026B017C018091330290
:1009E000823009F450C0809111028F3F09F46FC02A
:1009F00080911102803209F46CC080911102803321
:100A000009F469C084E026C08091350290913602D5
:100A1000A0913702B0913802892B8A2B8B2B09F4D5
:100A200084CF0E94E5028090350290903602A0901B
:100A30003702B09038026C197D098E099F0986161D
:100A40009706A806B90608F070CF809134020E947C
:100A50008D0385E01092DB021092DA021092CB0136
:100A6000DF91CF911F910F91FF90EF90DF90CF908A
:100A7000BF90AF909F908F9008959D9191938F5FBD
:100A800069CF85EEA5CF8091350290913602A09175
:100A90003702B0913802892B8A2B8B2B09F49ECF19
:100AA0000E94E50200913502109136022091370232
:100AB000309138026C197D098E099F0906171707B6
:100AC0002807390708F08ACFC0CF81E0C3CF80E084
:100AD000C1CF82E0BFCF83E0BDCF0895E091DD02BA
:100AE0008091DC02E81730F4F0E0ED5EFD4F80818C
:100AF00090E008958FEF9FEF08959091DD0280912F
:100B0000DC022FEF3FEF981748F4E92FF0E0ED5E9D
:100B1000FD4F208130E09F5F9093DD02C901089571
:100B20008091DC029091DD02891B990B0895CF9290
:100B3000DF92EF92FF920F931F93CF93DF937C018D
:100B4000CB018A012091CB01222389F0EB016B01BB
:100B5000C40ED51ECC15DD0569F06991D701ED9164
:100B6000FC910190F081E02DC7010995F3CF642F2E
:100B70000E944803C801DF91CF911F910F91FF9010
:100B8000EF90DF90CF900895CF93DF931F92CDB772
:100B9000DEB769832091CB012223F9F02091DA029C
:100BA000203258F021E030E0FC013383228390E0D2
:100BB00080E00F90DF91CF9108958091DB02E82FC4
:100BC000F0E0E453FE4F998190838F5F8093DB02C6
:100BD0008093DA0281E090E0ECCF61E0CE010196F3
:100BE0000E944803F7CF682F8EED92E00C94C40565
:100BF000CF93DF93EC018A819B81DC01ED91FC9125
:100C00000480F581E02D6C81099581E08E831C8242
:100C10001F82C85ADF4F188280E0DF91CF9108957C
:100C2000FC0184810895DF92EF92FF920F931F934E
:100C3000CF93DF93EC0185E0E62EF12CFE01869F39
:100C4000E00DF11D1124908596FF24C0192F177017
:100C500001E085E0D82E8FEF800F8F3008F001E0A3
:100C6000602F70E0062FD69EF001D79EF00D112464
:100C7000EC0FFD1F808586958695869587701817E1
:100C800001F16F5F7F4F603168F38D81811302C086
:100C900011501D8385E08E9DF0018F9DF00D112474
:100CA000EC0FFD1F108681E0818712862296D78384
:100CB000C683DF91CF911F910F91FF90EF90DF904E
:100CC0000895CE010E941306C6CFFC0120812EBDDF
:100CD0009B012150310941F051810DB407FEFDCF38
:100CE0004EB55EBD4193F5CF61507109860F971FD8
:100CF0000DB407FEFDCF2EB5FC0120830895FC0145
:100D000021E0613499F49C01255B3F4F61E0AC0127
:100D10004E5F5F4F158666871786548743873596E3
:100D20002E173F07B9F7FC01158208953585631723
:100D300029F02F5F35962031C9F70895622F0C9462
:100D40001306CF93DF93FC0167FD12C0283080F4B7
:100D5000442319F08581873059F0EF01A1E0B0E01C
:100D60008D85882349F111962596A031B105C1F7EB
:100D700080E018C085E08A9FE0018B9FD00D112490
:100D8000CE0FDF1F442389F081E4888785818F5F40
:100D9000858325E02A9FC0012B9F900D1124E80F29
:100DA000F91F8085DF91CF91089581E08887F1CF89
:100DB0002770687B622B0FC06623E1F26770660FB5
:100DC000660F660F4423A1F3606485818F5F85837E
:100DD0008770687F682B25E02A9FC0012B9F900DAC
:100DE0001124E80FF91F6087862FDCCFFC0121E07A
:100DF000611102C0069608953585631739F02F5F9B
:100E000035962031C9F790E080E00895069635E0E8
:100E1000239F800D911D1124089580E0089580E0A6
:100E2000089580E0089580E0089581E00895089590
:100E30002A9808952A9A089508950F931F93CF939F
:100E4000DF9300D0CDB7DEB7182F062F80E591E0F5
:100E50000E9424010E941807126019830A8362E02D
:100E600070E0CE0101960E9465060E941A070F905D
:100E70000F90DF91CF911F910F9108958EBD0000CB
:100E80000DB407FEFDCF8EB50895FF920F931F930B
:100E9000CF93DF93182FF62EEA0180E591E00E94B0
:100EA00024010E941807812F82600E943E070F2DA7
:100EB00010E0FF2021F0B801CE010E946506C00FAE
:100EC000D11F0E941A07CE01DF91CF911F910F9180
:100ED000FF900895CF93C82F80E591E00E942401F0
:100EE0000E9418078C2F0E943E0780E00E943E0758
:100EF000C82F0E941A078C2FCF9108958F929F922E
:100F0000AF92BF92CF92DF92EF92FF920F931F9317
:100F1000CF93DF93882E962E5A010E943C036B01DB
:100F20007C0128E8C20E23E1D21EE11CF11C10E076
:100F300000E0D0E0C0E098280E943C036C197D09D5
:100F40008E099F0997FF1EC0692D80EF0E941D0723
:100F50000E943C036C197D098E099F0997FF09C007
:100F600088EC0E946A0787FFF3CF60E888EC0E9454
:100F70001D0788EF0E946A07C82FCF70C43081F028
:100F8000CE30B9F08C2FDF91CF911F910F91FF9050
:100F9000EF90DF90CF90BF90AF909F908F9008958B
:100FA0000F5F1F4FA114B10439F20A151B0521F67A
:100FB000E9CFDF5FD33009F0BFCFE4CFAF92BF926C
:100FC000CF92DF92EF92FF920F931F93CF93DF9315
:100FD000EC01B62EA42E69010E94F6067C0186ED76
:100FE000E114F10409F447C0D701ED91FC91119788
:100FF00087ED309709F43FC013969C9180E09817D5
:1010000031F02081A21629F033968F5FF8CFF0E0FF
:10101000E0E0D601ED93FC938BED309761F12281F6
:1010200026952695203108F02FE081E090E0A0E0A1
:10103000B0E004C0880F991FAA1FBB1F2A95D2F7E2
:101040000197F801918380836B2D80EE0E941D072C
:1010500088ED0E946A07D70114969C91682F697FDA
:10106000992329F0CA58DF4F68816260682B88EDA8
:101070000E941D0780E0DF91CF911F910F91FF909B
:10108000EF90DF90CF90BF90AF90089588EF0E94CF
:101090006A07807C8034B1F018F4882301F1089548
:1010A000803819F0803CC9F0089588ED0E946A07E5
:1010B00081FD0DC069EC88ED0E941D0782E08093E0
:1010C000CA01089588ED0E946A0781FDF3CF6BEC99
:1010D00088ED0E941D0783E0F2CF81E0F0CF61ED43
:1010E00088ED0E941D071092CA010895CF93DF93E7
:1010F000EC0188810E945D02892B39F4898181305D
:1011000021F41982DF91CF91089588810E945D02B8
:10111000019729F48981811102C081E0898380E0EF
:10112000F1CF089590E080E00895CF93DF93EC0134
:101130008091EB0291E09093CB018093EC011092AF
:10114000DB021092DA0290E080E00E94F305CE010B
:101150000E94F30581E00E947D0461E08091EB0232
:101160000E94AE031092DD028093DC028EED92E0CD
:101170000E947D05DF91CF910895CF92DF92FF927B
:101180000F931F93CF93DF93F62E01E0C82FD0E08B
:10119000CC0FDD1FC45ADB4F6E0188819981DC01C1
:1011A000ED91FC910280F381E02D2F2D40E060E075
:1011B0000995182F803E49F561E088EE0E941D07D1
:1011C00066E670E080E090E00E940A03F60180810C
:1011D0009181DC01ED91FC910190F081E02D2F2DAA
:1011E00040E060E00995182F8D3041F58FEF800FBA
:1011F000833088F061E088EE0E941D0766E670E0AB
:1012000080E090E00E940A0310C08D3061F48FEFFF
:10121000800F833050F464E670E080E090E00E943C
:101220000A030F5FBACF882389F2812FDF91CF9114
:101230001F910F91FF90DF90CF9008958823A9F31D
:10124000D9CFCF93DF93EC0160E08E810E948602BC
:1012500061E08E810E94860260E08E810E9486029B
:101260008BE891E00197F1F7DF91CF910895CF924C
:10127000DF92EF92FF920F931F93CF93DF936C0156
:101280007C0187E0E80EF11CD0E0C0E0062F10E002
:10129000B8010C2E02C0759567950A94E2F761704B
:1012A000F70181917F010E9486022196C430D10509
:1012B00079F7C601DF91CF911F910F91FF90EF90C9
:1012C000DF90CF900C942109CF92DF92EF92FF92A2
:1012D0000F931F93CF93DF93EC01F62E642F8C8135
:1012E0000E9486028D818F3F19F060E00E94860285
:1012F0000F2D10E08F8584FF25C06E0187E0C80E9A
:10130000D11CF12CE12CB8010E2C02C0759567950B
:101310000A94E2F76170F60181916F010E948602E2
:10132000FFEFEF1AFF0A88E0E816F10461F7CE013B
:10133000DF91CF911F910F91FF90EF90DF90CF90B1
:101340000C942109B80184E0759567958A95E1F7B9
:10135000CE010E9437096F2DCE01DF91CF911F91F1
:101360000F91FF90EF90DF90CF900C94370941E000
:101370000E94640981E090E008950F931F93CF933A
:10138000DF938C01D0E0C0E0F801EC0FFD1F649109
:10139000662339F041E08CEE93E00E9464092196C7
:1013A000F3CFCE01DF91CF911F910F910895DF927E
:1013B000EF92FF920F931F93CF93DF93EC01E62EF2
:1013C000F12C01E010E09AE0D92E2F2D30E082E0E0
:1013D000E8120DC081E090E02817390794F42097B7
:1013E00049F48CEE91E00E94BD09F394EECF82E0C7
:1013F00090E0F2CFC801D89E8001D99E100D112433
:10140000F4CF209791F0015011098AE0F82EC0170F
:10141000D1075CF48AEE91E00E94BD09CE01F89EEE
:10142000E001F99ED00D1124F2CFDF91CF911F91F1
:101430000F91FF90EF90DF90089540E00C946409C5
:1014400061E08CEE93E00E941D0A8BE39FE101971F
:10145000F1F70895CF93DF93613029F09091FB036A
:1014600098609093FB036093FF031092000490E454
:101470009093010480930204805C8093030461E0F4
:101480008091F0030E94B4028091F1038F3F19F024
:1014900061E00E94B40261E08091F2030E94B40214
:1014A000CCEED3E09E012C5E33408091FB0384FDA3
:1014B0000BC084E090E021962817390744F461E0DE
:1014C0008E810E94B402EECF88E090E0F4CF8BE3EF
:1014D0009DE00197F1F760E08091F0030E948602A1
:1014E00060E08091F2030E9486028091F1038F3FB9
:1014F00019F060E00E9486026091FB0364FD3AC02F
:1015000063E08CEE93E00E943709CBE4D6E4CE0191
:101510000197F1F763E08CEE93E00E943709219781
:10152000F1F763E08CEE93E00E94370983E592E0E7
:101530000197F1F762E08CEE93E00E943709609129
:10154000FB0360628CEE93E00E941D0A84E08093AE
:10155000FC036CE08CEE93E00E941D0A0E94200ABE
:1015600082E08093FD0366E08CEE93E0DF91CF9103
:101570000C941D0A60628CEE93E00E941D0A8BE4BD
:1015800096E40197F1F76091FB0360628CEE93E0C3
:101590000E941D0A83E592E00197F1F76091FB0339
:1015A00060628CEE93E00E941D0AC9CF443008F0BF
:1015B00043E0FC012389421710F04FEF420FFC017A
:1015C000E40FF11D2489620F60680C941D0ACF930B
:1015D000C82F0E94200AC23009F470C080F5C130C3
:1015E00009F44FC040E060E08CEE93E00E94D60A20
:1015F0008CED91E00E94BD0942E060E08CEE93E04A
:101600000E94D60A87EC91E00E94BD0943E060E0A9
:101610008CEE93E00E94D60A82EB91E00E94BD0915
:10162000E091040484E0E89FF0011124EB5FFE4F99
:10163000418160818CEE93E0CF910C94D60AC33047
:1016400009F459C0C43071F60E94200A40E062E0FB
:101650008CEE93E00E94D60A88E191E00E94BD09D9
:1016600042E065E08CEE93E00E94D60A81E191E0D1
:101670000E94BD0942E069E08CEE93E00E94D60A28
:10168000CFCF40E060E08CEE93E00E94D60A87EA7C
:1016900091E00E94BD0942E060E08CEE93E00E9480
:1016A000D60A84E991E00E94BD0943E060E08CEE37
:1016B00093E00E94D60A81E891E0B0CF40E060E07C
:1016C0008CEE93E00E94D60A86E791E00E94BD0965
:1016D00042E060E08CEE93E00E94D60A85E691E05D
:1016E0000E94BD0943E060E08CEE93E00E94D60AC0
:1016F00087E591E093CF40E060E08CEE93E00E94BC
:10170000D60A8BE491E00E94BD0942E060E08CEED5
:1017100093E00E94D60A89E391E00E94BD0943E06C
:1017200060E08CEE93E00E94D60A88E291E076CFEA
:101730002F923F924F925F926F927F928F929F92E1
:10174000AF92BF92CF92DF92EF92FF920F931F93CF
:10175000CF93DF937B013A016901F901A080B18049
:10176000FB013180F90111821082FB01828160E16D
:1017700081FD60E288EE0E941D072A2CA301F7017B
:10178000608180E00E947E07582EF6E08F1310C023
:1017900088EF0E946A07F70192819D7F84FF926023
:1017A000928360E191FD60E288EE0E941D07E6CF22
:1017B000811150C088EC0E946A0782FF5FC080E3FD
:1017C0000E946A07482E8A151B0411F008F0422C6B
:1017D000F60180819181E501C81BD90BD7FF02C0BA
:1017E000D0E0C0E0842C912C8C169D060CF4E40112
:1017F00080E591E00E9424010E94180788E00E9481
:101800003E07AE0170E060E0C8010E944E1B2097C9
:1018100021F0BE01C8010E9465060C0F1D1F0E9429
:101820001A0764E088EC0E941D07F601808191810F
:10183000880E991E91828082431420F08A149B04A2
:1018400008F49CCF88EF0E946A07F701928184FB1D
:1018500091F99283852DDF91CF911F910F91FF9088
:10186000EF90DF90CF90BF90AF909F908F907F9040
:101870006F905F904F903F902F90089580EF582E7B
:10188000E9CF2F923F924F925F926F927F928F9209
:101890009F92AF92BF92CF92DF92EF92FF920F93FF
:1018A0001F93CF93DF93CDB7DEB763970FB6F8944E
:1018B000DEBF0FBECDBF3C01542E422E302E1E8601
:1018C0001D861C861B868E01055F1F4F9E01235FB0
:1018D0003F4F40E00E94DE07F82E8111D0C05982B0
:1018E0004A823B82EC821E821D82D886CF82AE0164
:1018F0004F5F5F4F68E080E20E9445074B855C8543
:1019000060E080E10E947E07811116C1811491047C
:10191000B1F10D851E85F801828157FE36C08260C7
:101920008283EE24E394C114D10409F40AC1BA8677
:10193000A9864B855C856D857E8584019E01275F28
:101940003F4FC3010E94980BF82EF6E08F130EC094
:1019500088EF0E946A07ED85FE8585FB882780F960
:101960008E25928180FB91F99283DDCF811187C012
:1019700089859A85C81AD90A8A159B05A0F64B85D0
:101980005C8557FED5C080EAD4C081608283E18047
:101990008FEF8E0D803408F0D1C08B859C85988B9D
:1019A0008F870E943C031B012C01E8E82E0EE3E127
:1019B0003E1E411C511CF801828160E880FF60E4FA
:1019C00088EE0E941D07F12C8E2D90E09A8B898B5A
:1019D000A114B10409F446C0C988DA88AC14BD0466
:1019E00008F46501CB8AA4016C2D80E10E944507B3
:1019F0006C2D88E30E941D07F8016081606280EF12
:101A00000E941D0788EC0E946A0787FFFBCF60E8F1
:101A100088EC0E941D0788EF0E946A078F70F82EDD
:101A2000E12C712C612CFF2009F443C00E943C037F
:101A3000621973098409950997FF3BC0F6E0FF1608
:101A400009F462C02EE0F216C9F184E0F8120AC06F
:101A50009FEF691A790AEF85F889309799F1E615B1
:101A6000F70581F588EF0E946A07F801928185FBEE
:101A700090F992834B855C85FF2009F459C08F2D26
:101A800063960FB6F894DEBF0FBECDBFDF91CF9146
:101A90001F910F91FF90EF90DF90CF90BF90AF908C
:101AA0009F908F907F906F905F904F903F902F907E
:101AB0000895AC18BD088C0C9D1C8ACFE394F3E00C
:101AC000EF1681F260E088E30E941D07F401608157
:101AD00080E10E941D076B8988E30E941D07F801C1
:101AE0006081606280EF0E941D0788EC0E946A0797
:101AF00087FFFBCF60E888EC0E941D0788EF0E94FB
:101B00006A078F70F82E8FCF88EF0E946A0785FBD7
:101B1000882780F921E08227F801928180FB90F9E3
:101B2000928360E890FF60E488EE0E941D07CACFB0
:101B300080E860E00E947E07F82EA1CF8AEDF82EA3
:101B40009ECF4B855C85FF2009F41DCF98CF8F92E7
:101B50009F92AF92BF92CF92DF92EF920F93CF936B
:101B6000912C812CB12CA12CD12CC12CE12C062F35
:101B700025E040E060E00E94410CC82F6CE271E07B
:101B800080E090E00E940A038C2FCF910F91EF909C
:101B9000DF90CF90BF90AF909F908F9008954F921D
:101BA0005F926F927F928F929F92AF92BF92CF92ED
:101BB000DF92EF92FF920F931F93CF93DF93CDB7F6
:101BC000DEB7DA950FB6F894DEBF0FBECDBF3C018D
:101BD000162FF42ECE0101964C01A4E0AA2EB12CB2
:101BE000B4E0CB2ED12C02E0E02E042F26E040E81A
:101BF000D30112968D919C910E94410C811166C077
:101C00004B805C80B1E04B165B0618F0412C5524EC
:101C10005394FE0131964F0152016201E2E0EE2E33
:101C20000F2D26E040E8612FD30112968D919C91F3
:101C30000E94410C81114AC040E0F401480C591C3B
:101C4000E415F50508F042C050819181943059F0B7
:101C50009530A1F0923021F49581D30115969C9393
:101C6000E50FF11DEDCF9581913071F5268123307F
:101C700059F5D30118969C9341E0F2CF938193706C
:101C8000923071F792814423D1F021E097FF22E056
:101C9000648130E0D901AA0FBB1FA20FB31FA60DAC
:101CA000B71D9F7019969C9319971A966C93D30140
:101CB00016969C9116979F5F16969C93D1CF23E022
:101CC00097FDE6CF24E0E4CF40E0CACFD3950FB62E
:101CD000F894DEBF0FBECDBFDF91CF911F910F9162
:101CE000FF90EF90DF90CF90BF90AF909F908F903C
:101CF0007F906F905F904F9008952F923F924F92F8
:101D00005F926F927F928F929F92AF92BF92CF928B
:101D1000DF92EF92FF920F931F93CF93DF93CDB794
:101D2000DEB767970FB6F894DEBF0FBECDBFFC01DC
:101D300081E88487158686858E7F8D7F868731E052
:101D40003787108A81898E7F8D7F818B848109ED11
:101D5000811113C0122F4F8BF62E3F01428053800A
:101D6000D201ED91FC910190F081E02D60E0C20183
:101D700009951C010097D9F406ED802F67960FB6E0
:101D8000F894DEBF0FBECDBFDF91CF911F910F91B1
:101D9000FF90EF90DF90CF90BF90AF909F908F908B
:101DA0007F906F905F904F903F902F900895FC012F
:101DB0000190F081E02DFE8BED8B07EDEF2BE9F22A
:101DC0009301275F3F4F3C8B2B8BDC0111963C939B
:101DD0002E9314961C93FE0131964F0182E1A82E9A
:101DE000B12C92E1C92ED12CEE24E39400E026E040
:101DF00040E860E0D30112968D919C910E94410CC5
:101E0000082F89859A85F301E55AFF4F91838083D6
:101E10008B859C853297918380832D893E89F10142
:101E2000318320830111ABC0D201ED91FC9102807E
:101E3000F381E02D2F8940E06F2DC2010995F30158
:101E4000848304ED882309F498CF98859287682FBE
:101E5000828193810E94A70D082FD201ED91FC9100
:101E6000D10114961C92882359F00480F581E02D4D
:101E7000D30114966C91C2010995F30114827DCFB0
:101E80000190F081E02DD30114966C91C201099567
:101E9000009709F471CFFC011483D30112968D9140
:101EA0009C91139714961C91EB89FC89EF2B09F4F4
:101EB00065C0612F0E94F606FC01892B09F468C0F9
:101EC000FA8812832B893C893183208331E0338364
:101ED000D30118961C9210E01F1581F0412FF301D9
:101EE0006481C3010E94CF0D082F811148C0D30126
:101EF00016968C91823010F41F5FEECFF30186812D
:101F0000823008F447C08085811108C082898487A7
:101F100083898587858987878689808BD3011496F5
:101F20001C911497612F12968D919C910E94F60638
:101F3000FC01892B39F012832B893C893183208362
:101F400083E08383912C812CB12CA12CD12CC12C2A
:101F5000E12CD30115960C91159729E040E01496D9
:101F60006C91149712968D919C910E94410C082FB0
:101F7000811105C081E0F3018783FFCE08EDD30115
:101F8000ED91FC910480F581E02DC3010995F5CE1A
:101F900006EDF5CF0FEFF3CF8F929F92AF92BF92E6
:101FA000EF92FF920F931F93CF93DF93CDB7DEB7DE
:101FB000A1970FB6F894DEBF0FBECDBF7C01FA012A
:101FC000CB0119A2223008F42AE08E010F5D1F4FC9
:101FD000822E912CB12CA12CBF01A50194010E944D
:101FE000121BF901CA016A304CF5605DD8016E938D
:101FF0008D01232B242B252B79F790E080E010977F
:1020000061F0FD0101900020E9F73197AF014A1B13
:102010005B0BBD01C7010E942701A1960FB6F89482
:10202000DEBF0FBECDBFDF91CF911F910F91FF900B
:10203000EF90BF90AF909F908F900895695CD6CF3E
:10204000462F50E070E060E02AE00C94CC0FAC0129
:10205000990F660B770B2AE08CEE93E00C94CC0F73
:1020600085ED8093BC008091350290913602A0915D
:102070003702B09138020796A11DB11D23E0B69535
:10208000A795979587952A95D1F72091BC0024FDB7
:1020900003C01092330208954091350250913602E8
:1020A0006091370270913802452B462B472B69F31C
:1020B0000097A105B10541F025E32A95F1F700004D
:1020C0000197A109B109E1CF809134020C948D03ED
:1020D0001F920F920FB60F9211242F933F934F939D
:1020E0005F936F937F938F939F93AF93BF93EF9380
:1020F000FF9389E392E00E94A501FF91EF91BF91C8
:10210000AF919F918F917F916F915F914F913F918F
:102110002F910F900FBE0F901F9018951F920F9246
:102120000FB60F9211242F938F939F93EF93FF93EA
:10213000E0914902F0914A028081E0914F02F091D2
:10214000500282FD1BC09081809152028F5F8F737D
:1021500020915302821741F0E0915202F0E0E75CD7
:10216000FD4F958F80935202FF91EF919F918F9138
:102170002F910F900FBE0F901F9018958081F4CF74
:102180001F920F920FB60F9211242F933F938F93AC
:102190009F93AF93BF938091AF019091B001A091B5
:1021A000B101B091B2013091AE0123E0230F2D3780
:1021B00058F50196A11DB11D2093AE018093AF018A
:1021C0009093B001A093B101B093B2018091B3019B
:1021D0009091B401A091B501B091B6010196A11DF5
:1021E000B11D8093B3019093B401A093B501B09356
:1021F000B601BF91AF919F918F913F912F910F9019
:102200000FBE0F901F90189526E8230F0296A11D70
:10221000B11DD2CF1F920F920FB60F9211242F93A0
:102220003F934F935F936F937F938F939F93AF935E
:10223000BF93EF93FF938091B900887F803609F4B4
:102240004AC0F0F5883209F4A7C018F5803109F4C6
:102250009BC0B8F4882309F4F9C0883009F494C00D
:10226000FF91EF91BF91AF919F918F917F916F916E
:102270005F914F913F912F910F900FBE0F901F9044
:102280001895883109F488C0803251F78093110283
:1022900014C0803409F49DC040F48033B9F388330E
:1022A000F9F68093110285ECB0C0803509F485C041
:1022B000883509F496C0883499F60E943010D0CF42
:1022C000883909F48CC038F5883729F050F48836FD
:1022D00011F0803729F683E0809333021092AD012C
:1022E00057C0883809F47BC0803919F0803809F06C
:1022F000B7CF8091AD01803208F071C0E091AD019F
:1023000081E08E0F8093AD018091BB00F0E0E35738
:10231000FE4F80833DC0803B39F0E0F4803A09F401
:1023200079C0883A09F09CCF84E080933302109200
:102330008C0110928B01E091D802F091D90209959D
:1023400080918B0181110FC081E080938B011092ED
:102350006B0109C0803C09F4A6CF883C09F4A3CFE7
:10236000883B09F07DCFE0918C0181E08E0F809356
:102370008C01F0E0E559FE4F80818093BB00909185
:102380008C0180918B0129C080910E028093BB004B
:1023900085EC8093BC0064CF9091100280910F0275
:1023A000981758F5E091100281E08E0F809310028B
:1023B000F0E0E351FE4F8081E9CFE091100281E02F
:1023C0008E0F809310028091BB00F0E0E351FE4F2E
:1023D00080839091100280910F029817C8F285E8CF
:1023E000D8CFE091100281E08E0F8093100280918F
:1023F000BB00F0E0E351FE4F808380911202811117
:102400005CCF81E080930D0284EA8093BC0010923F
:10241000330226CF85EC8093BC001092330280916A
:10242000AD01803230F4E091AD01F0E0E357FE4FB2
:1024300010826091AD0170E0E091D602F091D70278
:102440008DE891E009951092AD010ACF109211022A
:1024500034CFCF9310923C0210923B0288EE93E06F
:10246000A0E0B0E080933D0290933E02A0933F0233
:10247000B09340022DE131E030933A0220933902CB
:1024800025EC30E0309346022093450224EC30E006
:10249000309348022093470220EC30E030934A0208
:1024A0002093490221EC30E030934C0220934B0200
:1024B00022EC30E030934E0220934D0226EC30E0C7
:1024C0003093500220934F02109252021092530206
:1024D00010925402109255021092E1021092E00202
:1024E0008093E2029093E302A093E402B093E502AA
:1024F0008FE291E09093DF028093DE0281E180938E
:10250000E40460E00E94B402C1E0C093E50480E10D
:102510008093E20460E00E94B402C093E3048EE082
:102520008093E00460E00E94B402C093E1048FE075
:102530008093DE0460E00E94B402C093DF0483E66F
:1025400091E0909307048093060410920E04C093C8
:102550000F041092100488E094E090930D0480938F
:102560000C041092080488E0809309048CE38093A3
:102570000A0410920B04E6E0F4E081E028E034E085
:1025800015868687178634872387359694E0E1354C
:10259000F907B1F710927C0491E19093EA022DE4DF
:1025A00031E030937E0420937D0426E034E03093C4
:1025B000800420937F0410928104809383041092FE
:1025C0008404109285041092D5041092860488E049
:1025D000809387048091880483708C63809388043F
:1025E0001092890410928A0480918B048370846015
:1025F00080938B0410928C0410928D0480918E0431
:102600008370846080938E0410928F0410929004E3
:10261000809191048370846080939104109292045D
:102620001092930480919404837084608093940446
:10263000ECE5F4E090E080E021913191232B09F06A
:1026400068C0880F991FFC01E45AFB4F8DE794E0A6
:102650009183808380EB8093DD041092EF031092CE
:10266000EE0381E491E09093ED038093EC0387E027
:102670008093F0038FEF8093F10386E08093F20361
:1026800085E08093F30384E08093F40383E08093F8
:10269000F50382E08093F6031092F7031092F8039B
:1026A0001092F9031092FA031092FB0361E080E1AB
:1026B0000E942A0A81E491E09093ED038093EC0359
:1026C0001092040410920504ECEEF2E090E080E039
:1026D00081939193019680389105D1F71092DD0294
:1026E0001092DC021092DB021092DA020E946F0359
:1026F00082E291E09093D9028093D80283E291E044
:102700009093D7028093D60280E58093EB02CF911D
:10271000089501968031910509F08ECF9BCFCF931C
:10272000DF93CDB7DEB767970FB6F894DEBF0FBE65
:10273000CDBF789484B5826084BD84B5816084BD4A
:1027400085B5826085BD85B5816085BD80916E004F
:10275000816080936E001092810080918100826080
:1027600080938100809181008160809381008091BD
:1027700080008160809380008091B10084608093AC
:10278000B1008091B00081608093B00080917A00A8
:10279000846080937A0080917A00826080937A00CE
:1027A00080917A00816080937A0080917A008068BD
:1027B00080937A001092C100E0914902F0914A02A0
:1027C00082E08083E0914502F09146021082E09120
:1027D0004702F09148028FE3808310925102E0910A
:1027E0004D02F0914E0286E08083E0914B02F09121
:1027F0004C02808180618083E0914B02F0914C0219
:10280000808188608083E0914B02F0914C0280814E
:1028100080688083E0914B02F0914C0280818F7D33
:10282000808364E084E10E942A0A40E060E08CEE4C
:1028300093E00E94D60A8AEB90E00E94BD0942E034
:1028400060E08CEE93E00E94D60A85EA90E00E9458
:10285000BD0943E060E08CEE93E00E94D60A80E977
:1028600090E00E94BD096091FC03862F82608093F6
:10287000FC036A608CEE93E00E941D0A6091FC03E9
:10288000862F81608093FC0369608CEE93E00E9448
:102890001D0A229A0E941A071FB7F8948091B70167
:1028A000811127C0E0EFF0E08491ECEDF0E094912D
:1028B000E82FF0E0EE0FFF1FE853FF4FA591B49112
:1028C000EC91E92321F461E08AE00E94860261E054
:1028D0008AE00E94B4028CB580618CBD8CB58064A6
:1028E0008CBD61E08DE00E94B40261E08BE00E944B
:1028F000B4028091B7018F5F8093B7011FBF229A06
:102900000E941A07219868E188E80E941D0760E28A
:1029100088E70E941D0760E088E70E941D0710E01D
:1029200000E088E60E946A070F5F1F4F80FFAFC07C
:1029300061EC88ED0E941D0760E680ED0E941D0796
:1029400064E088EE0E941D0788EE0E946A0782FFFD
:10295000FBCF0E94460860E288EC0E941D0761E000
:1029600080E80E941D0768EC70E080E090E00E9423
:102970000A03ACEECA2EA2E0DA2EB12CA12C10E094
:1029800000E099249394F12CE12C8091EB02909239
:10299000CB018093EC011092DB021092DA0290E0FE
:1029A00080E00E94F305C8010E94F30581E00E94C7
:1029B0007D0461E08091EB020E94AE031092DD0283
:1029C0008093DC028EED92E0E114F10409F068C01E
:1029D0000E947D05A82EEA94EF2809F05DC09A2D8B
:1029E0008B2DD6018D939D936D010F5F1F4F003886
:1029F000110549F690E080E00E949508082F81E0DB
:102A000090E00E949508182F40E060E08CEE93E083
:102A10000E94D60A602F8CEE93E00E94201041E0C5
:102A200060E08CEE93E00E94D60A612F8CEE93E07A
:102A30000E9420101E01B3E12B0E311C0E943C03AA
:102A40006093C6017093C7018093C8019093C90138
:102A500083B1182F127081FD0CC088EC0E946A07A8
:102A600085FF03C00E94460810E2612F88EC0E9497
:102A70001D078091CA01813009F469C008F46BC058
:102A8000823091F0833009F470C010E024C00F3F11
:102A9000100709F046CFFFCFEE24E394F12C75CF59
:102AA0000E947D05B82E97CF10E08091EA02807FCA
:102AB000803189F40E943C0368537F4F8F4F9F4FB2
:102AC0006093B8017093B9018093BA019093BB01F0
:102AD00020E22093EA02ECE56E2EE4E07E2E730104
:102AE000D7018D919D917D01009739F0DC01ED9129
:102AF000FC910680F781E02D0995ECE7F4E0EE15F6
:102B0000FF0571F78091EA02803409F465C078F519
:102B1000803209F44BC0803309F458C0813109F088
:102B20006BC010927C04D3018D919D913D01009763
:102B300039F0DC01ED91FC910480F581E02D0995DF
:102B4000E614F70481F782E18093EA0255C0E3E1DD
:102B5000E093EA029ACF8091EA02807F803109F403
:102B600094CFF1E1F093EA0290CF11E09ECF81354E
:102B700009F4C4C1803809F4D4C18035E9F588EC82
:102B80000E946A0786FF38C081E58093EA020E94AE
:102B90003C036C5E7F4F8F4F9F4F6093B8017093E3
:102BA000B9018093BA019093BB0126C00E943C03F7
:102BB0000091B8011091B9012091BA013091BB0187
:102BC000601B710B820B930B97FD16C061E088EEC2
:102BD0000E941D0780E4B8CF88EE0E946A0780FD3E
:102BE0000BC088ED0E946A07682F686088ED0E941C
:102BF0001D07B0E5B093EA0284EE94E00E947608E7
:102C0000882361F08091C50190E001968370992737
:102C10008093C501809304040E94E70A82EE94E049
:102C20000E9476088823F9F02091040430E0809116
:102C3000050490E00196F901E050FF4F608170E0DB
:102C40000E94FE1A80930504F901EE0FFF1FE80FA2
:102C5000F91FEE0FFF1FEB5FFE4F418160818CEE8D
:102C600093E00E94D60A80EE94E00E9476088823C2
:102C700051F08091C501823009F405C308F04CC2BF
:102C8000813009F478C28EED94E00E9476088823A2
:102C900009F447C08091C501813009F042C080919C
:102CA0000504811150C38091C40190E8899F90016F
:102CB00011248091C301820F932F911D880F991FBA
:102CC000FC01E451FD4F608171816038710514F0A1
:102CD0006058710984519D4FDC016D937C9377FF9F
:102CE00002C061587F4F660F672F661F770B11E098
:102CF000160F62E0812F90E00E94D709612F8CEEC1
:102D000093E00E942010E0910404B4E0EB9FF001F6
:102D10001124EB5FFE4F418160818CEE93E00E94B5
:102D2000D60A8091EA02803909F097C38091840421
:102D3000882309F492C3E091D5048FEF8E0F8F336F
:102D400008F044C3F0E0E358FB4F808D882309F47A
:102D50003AC3E091D504AE2FB0E0A358BB4F5896CC
:102D60008C91A1E0AE0FB0E0A358BB4F58969C9158
:102D70009093DA04A2E0AE0FB0E0A358BB4F589690
:102D80002C912093DB0434E03E0F3093D504ED5FAB
:102D9000F0E0E358FB4F108D1093DC04382F3C70AB
:102DA000343021F48F708450843088F0892F903F24
:102DB00008F4807F803E59F008F012C4803A39F060
:102DC00008F004C4803819F0803909F046C38091B6
:102DD000DD04981B9093C4012093C3011093C2019A
:102DE00030E8939FF0011124E20FF11DEE0FFF1F59
:102DF000E451FD4F808191816C0197FF03C0AFE7E3
:102E0000CA0ED11CCC0CCD2CCC1CDD08C092C1014B
:102E100060E870E00E94FE1AF82E8093C00160EB1B
:102E20006C0D89E392E00E94C7016F2D89E392E067
:102E30000E94C701612F89E392E00E94C70180913F
:102E4000C501813009F009C386011127E090C30153
:102E5000C090C4018091040490E0E0910504880FC3
:102E6000991FE80FF92FF11DEE0FFF1FEB5FFE4FCB
:102E7000B080A18042E06AE08CEE93E00E94D60A26
:102E8000D12C62E0C6010E94D709C60101960E94BA
:102E9000271042E06FE08CEE93E00E94D60A63E0D8
:102EA0008E2D90E00E94D7096E2D8CEE93E00E944B
:102EB000201043E06AE08CEE93E00E94D60A62E0C4
:102EC000C8010E94D709C80101960E94271043E05B
:102ED0006FE08CEE93E00E94D60A63E08F2D90E0C5
:102EE0000E94D7096F2D8CEE93E00E9420104A2D8E
:102EF0006B2D8CEE93E00E94D60AAFC20E943C0379
:102F0000C090B801D090B901E090BA01F090BB0137
:102F10006C197D098E099F0997FD6ECE80E880931C
:102F2000EA021B8AE8E0EC8B8CE38D8B40900C046A
:102F300050900D0430920D0420920C041093100454
:102F40009E012F5F3F4F490162E1A62EB12C72E135
:102F5000C72ED12CEE24E39400E026E040E860E0A8
:102F600086E094E00E94410C082F50920D0440929C
:102F70000C04811150C0C984DA84AB84BC844D80B8
:102F80009E805CE5E52E54E0F52E512CD7018D9105
:102F90009C91009709F041C05394B2E0EB0EF11CF4
:102FA000E0E15E12F3CFF30180819181009709F097
:102FB00076C00F5FF2E06F0E711C0031A1F78091B7
:102FC0000C0490910D04892B09F459C0109310043E
:102FD00020E040E060E086E094E00E94A106F82E48
:102FE000882309F44CC0682F86E094E00E94F6061E
:102FF000009709F444C0FC0114836F2D86E094E02F
:103000000E94A70D082F882309F484C06F2D86E045
:1030100094E00E947F06802F2FC0DC01ED91FC918F
:103020000084F185E02D09958111B6CFF7018081EB
:103030009181DC01ED91FC910088F189E02D692DF1
:103040000995882309F4A8CFF70180819181DC01DB
:10305000ED91FC910484F585E02DA501B60109955B
:10306000882379F0612F852D0E94BD08813D09F4E8
:1030700093CF882309F44EC0823D09F4BDCD80EA88
:1030800063CDF70180819181DC01ED91FC91068493
:10309000F785E02D642D09958111E4CF7DCFDC010A
:1030A000ED91FC910084F185E02D0995811181CF8E
:1030B000F30180819181DC01ED91FC910088F1891F
:1030C000E02D692D0995811109C0612F802F0E9483
:1030D000BD08982F977F913D61F66BCFF3018081FA
:1030E0009181DC01ED91FC910484F585E02DA50131
:1030F000B601099581115DCFF30180819181DC01D9
:10310000ED91FC910684F785E02D642D09958823C7
:10311000E1F24FCF80E918CD833009F40EC184303D
:1031200009F0B1CD8091050481110BC1ECEEF2E004
:1031300090E080E081939193019680389105D1F7DA
:103140000E94200A42E062E08CEE93E00E94D60AE0
:1031500081E091E00E94BD0968EE73E080E090E0BC
:103160000E940A0313E01093040483E00E94E70A1C
:103170001093C50188CD80910504811141C08091D3
:10318000C401F0E88F9F900111248091C301820F48
:10319000932F911D880F991FFC01E451FD4F608111
:1031A000718177FD2AC06F77772784519D4FDC01AD
:1031B0006D937C9377FF02C061587F4F660F672F36
:1031C000661F770B11E0160F62E0812F90E00E94DE
:1031D000D709612F8CEE93E00E942010E091040447
:1031E000B4E0EB9FF0011124EB5FFE4F4181608161
:1031F0008CEE93E00E94D60A46CD60587F4FD5CF23
:10320000813009F040CD4091C401E0E84E9FC001FB
:1032100011244091C301480F592F511D440F551FD0
:10322000FA01E451FD4F20813181C901019637FF38
:1032300002C021583F4F20783F7720583F4F8217D8
:1032400093071CF0C9018058910944515D4FDA0180
:103250008D939C9360E870E00E94FE1A182F63E043
:1032600090E00E94D709612F8CEE93E00E9420101D
:10327000E0910404B4E0EB9FF0011124EB5FFE4FFA
:1032800043816281B5CFBCEECB2EB2E0DB2E10E0E5
:1032900000E08091EB02E1E0E093CB018093EC0150
:1032A0001092DB021092DA0290E080E00E94F305B7
:1032B000C8010E94F3055601F12CE12CD5012D9196
:1032C0003D915D01C9019927E0FC04C0832F932F34
:1032D000990F990B0E94F305BFEFEB1AFB0AE0E18F
:1032E000EE16F10459F781E00E947D0465E070E07C
:1032F00080E090E00E940A03005F1F4FF0E2CF0ED3
:10330000D11C011521E0120721F60E94200A42E09B
:1033100065E08CEE93E00E94D60A8AEF90E00E946E
:10332000BD0968EE73E080E090E00E940A0382E04D
:10333000809304040E94E70AA6CC84E08093C50130
:10334000F7CF83E0FBCF813009F0EBCC2091C401B3
:10335000E0E82E9FC00111242091C301280F392FCE
:10336000311D220F331FF901E451FD4F80819181FE
:10337000AC0197FF02C041585F4F40785F77481714
:103380005907FCF0CA0181589F4F24513D4FD90184
:103390008D939C938C010F77112763E0C8010E94E5
:1033A000D709602F8CEE93E00E942010E091040476
:1033B000B4E0EB9FF0011124EB5FFE4F438162818B
:1033C000ACCC0197E2CF818D8111C3CC1092D50492
:1033D00080918A0490E09F8B8E8BE0907F04F09028
:1033E000800440918904609181041C8A1B8A1A829E
:1033F00019828E010F5F1F4F9101C7010E94DE07E6
:1034000081110CC049815A816B897C8905E914E0DE
:103410009E012A5E3F4FC7010E94980B2E893F896B
:103420002C33310540F4F901EB56FB4F10822A563C
:103430003B4FF9011082811110C0809195048111D8
:1034400088CC80919604811184CC8091970481115D
:1034500080CC8091980481117CCC8091C6019091A0
:10346000C701A091C801B091C9014091BC01509120
:10347000BD016091BE017091BF01841B950BA60B2D
:10348000B70B85369105A105B10508F492C080916E
:10349000C50181118EC0C090C0010091C101D090C2
:1034A000C2011091C301E090C4018091040490E036
:1034B000E0910504880F991FE80FF92FF11DEE0F19
:1034C000FF1FEB5FFE4FB080A18042E065E08CEE15
:1034D00093E00E94D60AF12C62E0C7010E94D7094E
:1034E000C70101960E94271042E06AE08CEE93E04B
:1034F0000E94D60A63E0812F90E00E94D709612FD5
:103500008CEE93E00E94201042E061E18CEE93E0AB
:103510000E94D60AED2CF12C63E0C7010E94D70966
:103520006D2D8CEE93E00E94201043E065E08CEE60
:1035300093E00E94D60A10E062E0C8010E94D70919
:10354000C80101960E94271043E06AE08CEE93E0E8
:103550000E94D60A63E08C2D90E00E94D7096C2D62
:103560008CEE93E00E94201043E061E18CEE93E04A
:103570000E94D60A63E0C7010E94D7096D2D8CEE28
:1035800093E00E9420104A2D6B2D8CEE93E00E9458
:10359000D60A8091C6019091C701A091C801B0914F
:1035A000C9018093BC019093BD01A093BE01B0936B
:1035B000BF01E0E0F0E0EF2B09F440CA0E94910166
:1035C000882309F43BCA0E94000038CA803C09F4F1
:1035D000FECB803D09F4FBCB803B09F03ECFF7CB1F
:1035E0008D3F40F4883F08F0F2CB815F833008F4D0
:1035F000EECB33CF8E3F08F0EACB2FCF97FB072ED1
:1036000016F4009407D077FD09D00E94341B07FC04
:1036100005D03EF4909581959F4F089570956195E2
:103620007F4F0895A1E21A2EAA1BBB1BFD010DC0FE
:10363000AA1FBB1FEE1FFF1FA217B307E407F50762
:1036400020F0A21BB30BE40BF50B661F771F881F3E
:10365000991F1A9469F760957095809590959B01D4
:10366000AC01BD01CF010895AA1BBB1B51E107C0EE
:10367000AA1FBB1FA617B70710F0A61BB70B881F02
:10368000991F5A95A9F780959095BC01CD01089591
:10369000EE0FFF1F0590F491E02D0994DC0101C0AD
:1036A0006D9341505040E0F70895F894FFCF020227
:1036B000020202000000000A030F030602060206CF
:1036C0000206020502090200000000C7012701549A
:1036D00001140285016301770100000000C4059711
:1036E0000592086D0590057D056E0500000000B788
:1036F00009270192089108000000007D0E1307F8C9
:10370000050F07100617070D071107150700000022
:0837100000F606A1067F060089
:107E0000112484B714BE81FFF0D085E080938100F7
:107E100082E08093C00088E18093C10086E0809377
:107E2000C20080E18093C4008EE0C9D0259A86E02C
:107E300020E33CEF91E0309385002093840096BBD3
:107E4000B09BFECF1D9AA8958150A9F7CC24DD24C4
:107E500088248394B5E0AB2EA1E19A2EF3E0BF2EE7
:107E6000A2D0813461F49FD0082FAFD0023811F036
:107E7000013811F484E001C083E08DD089C08234E0
:107E800011F484E103C0853419F485E0A6D080C0E4
:107E9000853579F488D0E82EFF2485D0082F10E0AE
:107EA000102F00270E291F29000F111F8ED06801E7
:107EB0006FC0863521F484E090D080E0DECF843638
:107EC00009F040C070D06FD0082F6DD080E0C81688
:107ED00080E7D80618F4F601B7BEE895C0E0D1E017
:107EE00062D089930C17E1F7F0E0CF16F0E7DF06D8
:107EF00018F0F601B7BEE89568D007B600FCFDCFD4
:107F0000A601A0E0B1E02C9130E011968C91119780
:107F100090E0982F8827822B932B1296FA010C0160
:107F200087BEE89511244E5F5F4FF1E0A038BF0790
:107F300051F7F601A7BEE89507B600FCFDCF97BE46
:107F4000E89526C08437B1F42ED02DD0F82E2BD052
:107F50003CD0F601EF2C8F010F5F1F4F84911BD097
:107F6000EA94F801C1F70894C11CD11CFA94CF0C13
:107F7000D11C0EC0853739F428D08EE10CD085E9AC
:107F80000AD08FE07ACF813511F488E018D01DD067
:107F900080E101D065CF982F8091C00085FFFCCF94
:107FA0009093C60008958091C00087FFFCCF809118
:107FB000C00084FD01C0A8958091C6000895E0E648
:107FC000F0E098E1908380830895EDDF803219F02E
:107FD00088E0F5DFFFCF84E1DECF1F93182FE3DFCA
:107FE0001150E9F7F2DF1F91089580E0E8DFEE27F6
:047FF000FF270994CA
:027FFE00040479
:00000001FF
