:100000000C9484000C94AC000C94AC000C94AC00E8
:100010000C94AC000C94AC000C94AC000C94AC00B0
:100020000C94AC000C94AC000C94AC000C94AC00A0
:100030000C94AC000C94AC000C94AC000C94AC0090
:100040000C94730C0C94AC000C94410C0C941B0C91
:100050000C94AC000C94AC000C94AC000C94AC0070
:100060000C94AC000C94AC000000000025002800AB
:100070002B000000000023002600290000000008DB
:10008000000201000003040700000000000000005F
:1000900000000000240027002A00010204081020AC
:1000A000408001020408102001020408102004040A
:1000B0000404040404040202020202020303030310
:1000C00003033C2D63683031636330303076303069
:1000D00030003C2D6368303163633030307630302F
:1000E00030003C2D6368303163633030307630301F
:1000F00030002D3E6368303163633030307630300D
:10010000300030003000BD0C11241FBECFEFD8E00E
:10011000DEBFCDBF26E0AEE3B1E001C01D92A83F37
:10012000B207E1F711E0A0E0B1E0EEE3F8E202C0CF
:1001300005900D92AE33B107D9F710E0C4E8D0E0D6
:1001400004C02197FE010E941014C338D107C9F7DB
:100150000E94060E0C941D140C9400008CBD9DBDD5
:100160000895AF92BF92CF92DF92EF92FF920F93DA
:100170001F93CF93DF936C017B018B01040F151F3D
:10018000EB015E01AE18BF08C017D10759F06991A5
:10019000D601ED91FC910190F081E02DC601099509
:1001A000892B79F7C501DF91CF911F910F91FF90B6
:1001B000EF90DF90CF90BF90AF900895FC01538DEA
:1001C000448D252F30E0842F90E0821B930B541731
:1001D00010F0CF96089501970895FC01918D828DBE
:1001E000981761F0A28DAE0FBF2FB11D5D968C9157
:1001F000928D9F5F9F73928F90E008958FEF9FEF96
:100200000895FC01918D828D981731F0828DE80F51
:10021000F11D858D90E008958FEF9FEF0895FC010B
:10022000918D228D892F90E0805C9F4F821B9109D8
:100230008F73992708958DE591E00E940F0121E0C9
:10024000892B09F420E0822F089580E090E0892B2B
:1002500029F00E941B0181110C9400000895FC01FB
:10026000A48DA80FB92FB11DA35ABF4F2C91848D17
:1002700090E001968F739927848FA689B7892C9374
:10028000A089B1898C91837080648C93938D848DC7
:10029000981306C00288F389E02D80818F7D8083CA
:1002A0000895EF92FF920F931F93CF93DF93EC018A
:1002B00081E0888F9B8D8C8D98131AC0E889F9890D
:1002C000808185FF15C09FB7F894EE89FF89608310
:1002D000E889F98980818370806480839FBF81E091
:1002E00090E0DF91CF911F910F91FF90EF900895D3
:1002F000F62E0B8D10E00F5F1F4F0F731127E02EAE
:100300008C8D8E110CC00FB607FCFACFE889F989E5
:10031000808185FFF5CFCE010E942F01F1CFEB8DBB
:10032000EC0FFD2FF11DE35AFF4FF0829FB7F894B9
:100330000B8FEA89FB8980818062CFCFCF93DF93D7
:10034000EC01888D8823B9F0AA89BB89E889F989ED
:100350008C9185FD03C0808186FD0DC00FB607FC22
:10036000F7CF8C9185FFF2CF808185FFEDCFCE0155
:100370000E942F01E9CFDF91CF910895833081F062
:1003800028F4813099F08230A9F008958730A9F0DF
:100390008830C9F08430B1F4809180008F7D03C033
:1003A000809180008F7780938000089584B58F7747
:1003B00084BD089584B58F7DFBCF8091B0008F7789
:1003C0008093B00008958091B0008F7DF9CFCF93D6
:1003D000DF93282F30E0F901E458FF4F8491F901B1
:1003E000E656FF4FD491F901E255FF4FC491CC235B
:1003F000A1F081110E94BE01EC2FF0E0EE0FFF1F73
:10040000EE58FF4FA591B491EC91ED2381E090E07F
:1004100009F480E0DF91CF91089580E090E0FACF79
:100420001F93CF93DF93282F30E0F901E458FF4F5B
:100430008491F901E656FF4FD491F901E255FF4F3F
:10044000C491CC23A9F0162F81110E94BE01EC2F7C
:10045000F0E0EE0FFF1FE859FF4FA591B4918FB761
:10046000F894EC91111108C0D095DE23DC938FBF76
:10047000DF91CF911F910895DE2BF8CFCF93DF93BB
:1004800090E0FC01E656FF4F249182559F4FFC01FE
:1004900084918823D1F090E0880F991FFC01E057E8
:1004A000FF4FA591B491FC01E859FF4FC591D4913C
:1004B00061110EC09FB7F8948C91E22FE0958E23C6
:1004C0008C932881E223E8839FBFDF91CF91089529
:1004D0008FB7F894EC91E22BEC938FBFF6CF3FB738
:1004E000F8948091430190914401A0914501B0910D
:1004F000460126B5A89B05C02F3F19F00196A11D06
:10050000B11D3FBFBA2FA92F982F8827BC01CD015D
:10051000620F711D811D911D42E0660F771F881FBC
:10052000991F4A95D1F708958F929F92AF92BF92EB
:10053000CF92DF92EF92FF924B015C010E946F021B
:100540006B017C010E946F026C197D098E099F0965
:10055000683E734081059105A8F321E0821A910855
:10056000A108B10888EEC80E83E0D81EE11CF11C7A
:1005700081149104A104B10429F7FF90EF90DF905A
:10058000CF90BF90AF909F908F9008952FB7F89421
:1005900060913F0170914001809141019091420131
:1005A0002FBF0895CF93DF93EC018A819B81DC01FB
:1005B000ED91FC910480F581E02D6C81099581E03D
:1005C0008E831C821F82C85ADF4F188280E0DF9121
:1005D000CF910895FC0184810895DF92EF92FF92FC
:1005E0000F931F93CF93DF93EC0185E0E62EF12C60
:1005F000FE01869FE00DF11D1124908596FF24C019
:10060000192F177001E085E0D82E8FEF800F8F3003
:1006100008F001E0602F70E0062FD69EF001D79E13
:10062000F00D1124EC0FFD1F80858695869586952B
:100630008770181701F16F5F7F4F603168F38D810C
:10064000811302C011501D8385E08E9DF0018F9DA6
:10065000F00D1124EC0FFD1F108681E081871286BA
:100660002296D783C683DF91CF911F910F91FF9080
:10067000EF90DF900895CE010E94ED02C6CFFC01FD
:1006800020812EBD9B012150310941F051810DB4D3
:1006900007FEFDCF4EB55EBD4193F5CF61507109A8
:1006A000860F971F0DB407FEFDCF2EB5FC012083EA
:1006B0000895FC0121E0613499F49C01255B3F4FD2
:1006C00061E0AC014E5F5F4F1586668717865487E1
:1006D000438735962E173F07B9F7FC011582089519
:1006E0003585631729F02F5F35962031C9F70895B6
:1006F000622F0C94ED02CF93DF93FC0167FD12C0D3
:10070000283080F4442319F08581873059F0EF01B7
:10071000A1E0B0E08D85882349F111962596A0319E
:10072000B105C1F780E018C085E08A9FE0018B9F8A
:10073000D00D1124CE0FDF1F442389F081E4888778
:1007400085818F5F858325E02A9FC0012B9F900DB7
:100750001124E80FF91F8085DF91CF91089581E082
:100760008887F1CF2770687B622B0FC06623E1F288
:100770006770660F660F660F4423A1F3606485817E
:100780008F5F85838770687F682B25E02A9FC00173
:100790002B9F900D1124E80FF91F6087862FDCCF67
:1007A000FC0121E0611102C00696089535856317AA
:1007B00039F02F5F35962031C9F790E080E0089539
:1007C000069635E0239F800D911D1124089580E049
:1007D000089580E0089580E0089580E0089581E024
:1007E000089508952A9808952A9A089508950F93D0
:1007F0001F93CF93DF9300D0CDB7DEB7182F062F0E
:1008000080E591E00E94AE000E94F203126019831D
:100810000A8362E070E0CE0101960E943F030E94CD
:10082000F4030F900F90DF91CF911F910F910895D6
:100830008EBD00000DB407FEFDCF8EB50895FF926A
:100840000F931F93CF93DF93182FF62EEA0180E5C5
:1008500091E00E94AE000E94F203812F82600E940C
:1008600018040F2D10E0FF2021F0B801CE010E94E6
:100870003F03C00FD11F0E94F403CE01DF91CF913F
:100880001F910F91FF900895CF93C82F80E591E0BD
:100890000E94AE000E94F2038C2F0E94180480E098
:1008A0000E941804C82F0E94F4038C2FCF91089542
:1008B0008F929F92AF92BF92CF92DF92EF92FF9270
:1008C0000F931F93CF93DF93882E962E5A010E9489
:1008D000C6026B017C0128E8C20E23E1D21EE11C96
:1008E000F11C10E000E0D0E0C0E098280E94C602B1
:1008F0006C197D098E099F0997FF1EC0692D80EF35
:100900000E94F7030E94C6026C197D098E099F0997
:1009100097FF09C088EC0E94440487FFF3CF60E88A
:1009200088EC0E94F70388EF0E944404C82FCF7020
:10093000C43081F0CE30B9F08C2FDF91CF911F9170
:100940000F91FF90EF90DF90CF90BF90AF909F906E
:100950008F9008950F5F1F4FA114B10439F20A154B
:100960001B0521F6E9CFDF5FD33009F0BFCFE4CF1D
:10097000AF92BF92CF92DF92EF92FF920F931F93AD
:10098000CF93DF93EC01B62EA42E69010E94D00311
:100990007C0186EDE114F10409F447C0D701ED9123
:1009A000FC91119787ED309709F43FC013969C9105
:1009B00080E0981731F02081A21629F033968F5FDE
:1009C000F8CFF0E0E0E0D601ED93FC938BED3097AB
:1009D00061F1228126952695203108F02FE081E0F3
:1009E00090E0A0E0B0E004C0880F991FAA1FBB1FD1
:1009F0002A95D2F70197F801918380836B2D80EEC1
:100A00000E94F70388ED0E944404D70114969C913C
:100A1000682F697F992329F0CA58DF4F6881626087
:100A2000682B88ED0E94F70380E0DF91CF911F9142
:100A30000F91FF90EF90DF90CF90BF90AF9008950F
:100A400088EF0E944404807C8034B1F018F488233D
:100A500001F10895803819F0803CC9F0089588EDBF
:100A60000E94440481FD0DC069EC88ED0E94F703EB
:100A700082E080935C01089588ED0E94440481FD2A
:100A8000F3CF6BEC88ED0E94F70383E0F2CF81E0B7
:100A9000F0CF61ED88ED0E94F70310925C0108959C
:100AA000CF93DF93EC0188810E94E701892B39F411
:100AB0008981813021F41982DF91CF910895888155
:100AC0000E94E701019729F48981811102C081E028
:100AD000898380E0F1CF089590E080E00895CF927F
:100AE000DF92FF920F931F93CF93DF93F62E01E0D7
:100AF000C82FD0E0CC0FDD1FCF5ADD4F6E018881AB
:100B00009981DC01ED91FC910280F381E02D2F2D84
:100B100040E060E00995182F803E49F561E088EEDD
:100B20000E94F70366E670E080E090E00E94940285
:100B3000F60180819181DC01ED91FC910190F081C1
:100B4000E02D2F2D40E060E00995182F8D3041F504
:100B50008FEF800F833088F061E088EE0E94F7030A
:100B600066E670E080E090E00E94940210C08D3054
:100B700061F48FEF800F833050F464E670E080E022
:100B800090E00E9494020F5FBACF882389F2812FF0
:100B9000DF91CF911F910F91FF90DF90CF9008953B
:100BA0008823A9F3D9CFCF93DF93EC0160E08E8146
:100BB0000E94100261E08E810E94100260E08E812E
:100BC0000E9410028BE891E00197F1F7DF91CF913D
:100BD0000895CF92DF92EF92FF920F931F93CF93DE
:100BE000DF936C017C0187E0E80EF11CD0E0C0E0EF
:100BF000062F10E0B8010C2E02C0759567950A9477
:100C0000E2F76170F70181917F010E941002219645
:100C1000C430D10579F7C601DF91CF911F910F91B3
:100C2000FF90EF90DF90CF900C94D305CF92DF929E
:100C3000EF92FF920F931F93CF93DF93EC01F62E69
:100C4000642F8C810E9410028D818F3F19F060E02B
:100C50000E9410020F2D10E08F8584FF25C06E01C9
:100C600087E0C80ED11CF12CE12CB8010E2C02C07B
:100C7000759567950A94E2F76170F60181916F01AD
:100C80000E941002FFEFEF1AFF0A88E0E816F10455
:100C900061F7CE01DF91CF911F910F91FF90EF90FF
:100CA000DF90CF900C94D305B80184E075956795DB
:100CB0008A95E1F7CE010E94E9056F2DCE01DF9103
:100CC000CF911F910F91FF90EF90DF90CF900C94F8
:100CD000E90541E00E94160681E090E00895EF9258
:100CE000FF920F931F93CF93DF938C017B01D0E092
:100CF000C0E0F701EC0FFD1F6491662331F041E085
:100D0000C8010E9416062196F4CFCE01DF91CF9143
:100D10001F910F91FF90EF900895DF92EF92FF9255
:100D20000F931F93CF93DF93EC01E62EF12C01E09C
:100D300010E09AE0D92E2F2D30E082E0E8120FC0AB
:100D400081E090E028173907A4F4209759F464E073
:100D500071E087ED96E00E946F06F394ECCF82E09D
:100D600090E0F0CFC801D89E8001D99E100D1124CB
:100D7000F4CF2097A1F0015011098AE0F82EC01796
:100D8000D1076CF462E071E087ED96E00E946F0697
:100D9000CE01F89EE001F99ED00D1124F0CFDF9135
:100DA000CF911F910F91FF90EF90DF90089540E059
:100DB0000C9416060F931F93CF93DF93EC014130F1
:100DC00019F08F8588608F874B8B1C8A80E48D8B10
:100DD0006E8B605C6F8B61E08C810E943E028D8126
:100DE0008F3F19F061E00E943E0261E08E810E9417
:100DF0003E028E0198012C1B3D0B8F8584FD0DC09A
:100E000084E090E00F5F1F4F281739074CF461E032
:100E1000F80186810E943E02EDCF88E090E0F2CF9B
:100E20008BE39DE00197F1F760E08C810E94100256
:100E300060E08E810E9410028D818F3F19F060E08A
:100E40000E9410026F8564FD39C063E0CE010E94EC
:100E5000E9050BE416E4C8010197F1F763E0CE0160
:100E60000E94E905C8010197F1F763E0CE010E94F5
:100E7000E90583E592E00197F1F762E0CE010E9477
:100E8000E9056F856062CE010E94D70684E0888BF9
:100E90006CE0CE010E94D70661E0CE010E94D70629
:100EA0008BE39FE10197F1F782E0898B66E0CE0149
:100EB000DF91CF911F910F910C94D7066062CE0104
:100EC0000E94D7068BE496E40197F1F76F85606284
:100ED000CE010E94D70683E592E00197F1F76F8576
:100EE0006062CE010E94D706CCCFFC012389421755
:100EF00010F04FEF420FFC01E40FF11D2489620F47
:100F000060680C94D7062F923F924F925F926F9237
:100F10007F928F929F92AF92BF92CF92DF92EF9289
:100F2000FF920F931F93CF93DF937B013A016901E7
:100F3000F901A080B180FB013180F901118210829A
:100F4000FB01828160E181FD60E288EE0E94F7038F
:100F50002A2CA301F701608180E00E945804582EDA
:100F6000F6E08F1310C088EF0E944404F7019281CD
:100F70009D7F84FF9260928360E191FD60E288EE44
:100F80000E94F703E6CF811150C088EC0E94440410
:100F900082FF5FC080E30E944404482E8A151B0430
:100FA00011F008F0422CF60180819181E501C81B07
:100FB000D90BD7FF02C0D0E0C0E0842C912C8C1656
:100FC0009D060CF4E40180E591E00E94AE000E94D1
:100FD000F20388E00E941804AE0170E060E0C801EE
:100FE0000E941614209721F0BE01C8010E943F0301
:100FF0000C0F1D1F0E94F40364E088EC0E94F703AD
:10100000F60180819181880E991E9182808243141D
:1010100020F08A149B0408F49CCF88EF0E944404BB
:10102000F701928184FB91F99283852DDF91CF9115
:101030001F910F91FF90EF90DF90CF90BF90AF90F6
:101040009F908F907F906F905F904F903F902F90E8
:10105000089580EF582EE9CF2F923F924F925F92E2
:101060006F927F928F929F92AF92BF92CF92DF92B8
:10107000EF92FF920F931F93CF93DF93CDB7DEB71D
:1010800063970FB6F894DEBF0FBECDBF3C01542E60
:10109000422E302E1E861D861C861B868E01055F05
:1010A0001F4F9E01235F3F4F40E00E94B804F82E7F
:1010B0008111D0C059824A823B82EC821E821D82FD
:1010C000D886CF82AE014F5F5F4F68E080E20E941A
:1010D0001F044B855C8560E080E10E94580481110B
:1010E00016C181149104B1F10D851E85F80182812C
:1010F00057FE36C082608283EE24E394C114D1048B
:1011000009F40AC1BA86A9864B855C856D857E8502
:1011100084019E01275F3F4FC3010E948307F82E81
:10112000F6E08F130EC088EF0E944404ED85FE8523
:1011300085FB882780F98E25928180FB91F9928327
:10114000DDCF811187C089859A85C81AD90A8A1589
:101150009B05A0F64B855C8557FED5C080EAD4C0C0
:1011600081608283E1808FEF8E0D803408F0D1C0E2
:101170008B859C85988B8F870E94C6021B012C0152
:10118000E8E82E0EE3E13E1E411C511CF80182816D
:1011900060E880FF60E488EE0E94F703F12C8E2D5A
:1011A00090E09A8B898BA114B10409F446C0C988D8
:1011B000DA88AC14BD0408F46501CB8AA4016C2D57
:1011C00080E10E941F046C2D88E30E94F703F80160
:1011D0006081606280EF0E94F70388EC0E94440403
:1011E00087FFFBCF60E888EC0E94F70388EF0E943E
:1011F00044048F70F82EE12C712C612CFF2009F42F
:1012000043C00E94C602621973098409950997FFB9
:101210003BC0F6E0FF1609F462C02EE0F216C9F1F9
:1012200084E0F8120AC09FEF691A790AEF85F889FD
:10123000309799F1E615F70581F588EF0E9444048F
:10124000F801928185FB90F992834B855C85FF20A4
:1012500009F459C08F2D63960FB6F894DEBF0FBE08
:10126000CDBFDF91CF911F910F91FF90EF90DF9055
:10127000CF90BF90AF909F908F907F906F905F9036
:101280004F903F902F900895AC18BD088C0C9D1C7A
:101290008ACFE394F3E0EF1681F260E088E30E94E6
:1012A000F703F401608180E10E94F7036B8988E312
:1012B0000E94F703F8016081606280EF0E94F703EB
:1012C00088EC0E94440487FFFBCF60E888EC0E9412
:1012D000F70388EF0E9444048F70F82E8FCF88EFB9
:1012E0000E94440485FB882780F921E08227F801C9
:1012F000928180FB90F9928360E890FF60E488EE31
:101300000E94F703CACF80E860E00E945804F82EDC
:10131000A1CF8AEDF82E9ECF4B855C85FF2009F486
:101320001DCF98CF8F929F92AF92BF92CF92DF92B4
:10133000EF920F93CF93912C812CB12CA12CD12C17
:10134000C12CE12C062F25E040E060E00E942C0833
:10135000C82F6CE271E080E090E00E9494028C2F34
:10136000CF910F91EF90DF90CF90BF90AF909F9073
:101370008F9008954F925F926F927F928F929F927B
:10138000AF92BF92CF92DF92EF92FF920F931F9393
:10139000CF93DF93CDB7DEB7DA950FB6F894DEBF03
:1013A0000FBECDBF3C01162FF42ECE0101964C018D
:1013B000A4E0AA2EB12CB4E0CB2ED12C02E0E02E7A
:1013C000042F26E040E8D30112968D919C910E9453
:1013D0002C08811166C04B805C80B1E04B165B0627
:1013E00018F0412C55245394FE0131964F015201BF
:1013F0006201E2E0EE2E0F2D26E040E8612FD301DE
:1014000012968D919C910E942C0881114AC040E057
:10141000F401480C591CE415F50508F042C0508150
:101420009181943059F09530A1F0923021F495815A
:10143000D30115969C93E50FF11DEDCF9581913069
:1014400071F52681233059F5D30118969C9341E01C
:10145000F2CF93819370923071F792814423D1F04F
:1014600021E097FF22E0648130E0D901AA0FBB1F81
:10147000A20FB31FA60DB71D9F7019969C931997C5
:101480001A966C93D30116969C9116979F5F1696A9
:101490009C93D1CF23E097FDE6CF24E0E4CF40E05A
:1014A000CACFD3950FB6F894DEBF0FBECDBFDF9184
:1014B000CF911F910F91FF90EF90DF90CF90BF9051
:1014C000AF909F908F907F906F905F904F90089516
:1014D0002F923F924F925F926F927F928F929F9244
:1014E000AF92BF92CF92DF92EF92FF920F931F9332
:1014F000CF93DF93CDB7DEB767970FB6F894DEBF13
:101500000FBECDBFFC0181E88487158686858E7F5E
:101510008D7F868731E03787108A81898E7F8D7F26
:10152000818B848109ED811113C0122F4F8BF62E10
:101530003F0142805380D201ED91FC910190F081F6
:10154000E02D60E0C20109951C010097D9F406ED79
:10155000802F67960FB6F894DEBF0FBECDBFDF9128
:10156000CF911F910F91FF90EF90DF90CF90BF90A0
:10157000AF909F908F907F906F905F904F903F9033
:101580002F900895FC010190F081E02DFE8BED8BF2
:1015900007EDEF2BE9F29301275F3F4F3C8B2B8B3D
:1015A000DC0111963C932E9314961C93FE01319608
:1015B0004F0182E1A82EB12C92E1C92ED12CEE244C
:1015C000E39400E026E040E860E0D30112968D91BC
:1015D0009C910E942C08082F89859A85F301E55A71
:1015E000FF4F918380838B859C8532979183808385
:1015F0002D893E89F101318320830111ABC0D201D5
:10160000ED91FC910280F381E02D2F8940E06F2D58
:10161000C2010995F301848304ED882309F498CF6E
:1016200098859287682F828193810E949209082F62
:10163000D201ED91FC91D10114961C92882359F0AE
:101640000480F581E02DD30114966C91C2010995B7
:10165000F30114827DCF0190F081E02DD301149627
:101660006C91C2010995009709F471CFFC011483B4
:10167000D30112968D919C91139714961C91EB892E
:10168000FC89EF2B09F465C0612F0E94D003FC0197
:10169000892B09F468C0FA8812832B893C8931832D
:1016A000208331E03383D30118961C9210E01F157C
:1016B00081F0412FF3016481C3010E94BA09082F10
:1016C000811148C0D30116968C91823010F41F5FAF
:1016D000EECFF3018681823008F447C08085811106
:1016E00008C08289848783898587858987878689D9
:1016F000808BD30114961C911497612F12968D91B3
:101700009C910E94D003FC01892B39F012832B8914
:101710003C893183208383E08383912C812CB12CFD
:10172000A12CD12CC12CE12CD30115960C9115972D
:1017300029E040E014966C91149712968D919C913B
:101740000E942C08082F811105C081E0F3018783D6
:10175000FFCE08EDD301ED91FC910480F581E02DE1
:10176000C3010995F5CE06EDF5CF0FEFF3CF8F92BC
:101770009F92AF92BF92EF92FF920F931F93CF93DE
:10178000DF93CDB7DEB7A1970FB6F894DEBF0FBEDB
:10179000CDBF7C01FA01CB0119A2223008F42AE066
:1017A0008E010F5D1F4F822E912CB12CA12CBF01F9
:1017B000A50194010E94DA13F901CA016A304CF5BF
:1017C000605DD8016E938D01232B242B252B79F797
:1017D00090E080E0109761F0FD0101900020E9F7B2
:1017E0003197AF014A1B5B0BBD01C7010E94B100DD
:1017F000A1960FB6F894DEBF0FBECDBFDF91CF919B
:101800001F910F91FF90EF90BF90AF909F908F909E
:101810000895695CD6CFCF93C82F62E090E00E9414
:101820008D064C2F50E070E060E02AE087ED96E0F6
:10183000CF910C94B70B1F920F920FB60F921124F9
:101840002F933F934F935F936F937F938F939F93C8
:10185000AF93BF93EF93FF938DE591E00E942F012B
:10186000FF91EF91BF91AF919F918F917F916F9178
:101870005F914F913F912F910F900FBE0F901F904E
:1018800018951F920F920FB60F9211242F938F93DA
:101890009F93EF93FF93E0916D01F0916E01808132
:1018A000E0917301F091740182FD1BC090818091E1
:1018B00076018F5F8F7320917701821741F0E0915D
:1018C0007601F0E0E35AFE4F958F80937601FF9109
:1018D000EF919F918F912F910F900FBE0F901F90BE
:1018E00018958081F4CF1F920F920FB60F9211249A
:1018F0002F933F938F939F93AF93BF9380913F011B
:1019000090914001A0914101B091420130913E017E
:1019100023E0230F2D3758F50196A11DB11D20930B
:101920003E0180933F0190934001A0934101B09309
:1019300042018091430190914401A0914501B091F1
:1019400046010196A11DB11D80934301909344016E
:10195000A0934501B0934601BF91AF919F918F91A4
:101960003F912F910F900FBE0F901F90189526E872
:10197000230F0296A11DB11DD2CFCF93109260010B
:1019800010925F0188EE93E0A0E0B0E080936101E7
:1019900090936201A0936301B093640184E091E0AD
:1019A00090935E0180935D0185EC90E090936A01D5
:1019B0008093690184EC90E090936C0180936B01BB
:1019C00080EC90E090936E0180936D0181EC90E04B
:1019D0009093700180936F0182EC90E0909372017C
:1019E0008093710186EC90E0909374018093730171
:1019F000109276011092770110927801109279017D
:101A0000C1E0C093F70681E18093F60660E00E9492
:101A10003E02C093F50680E18093F40660E00E94E8
:101A20003E02C093F30683E18093F20660E00E94D9
:101A30003E02C093F10682E18093F00660E00E94CE
:101A40003E0280EB8093EF061092DA061092D906E0
:101A500086E391E09093D8068093D70687E0809341
:101A6000DB068FEF8093DC0686E08093DD0685E061
:101A70008093DE0684E08093DF0683E08093E006B7
:101A800082E08093E1061092E2061092E306109243
:101A9000E4061092E5061092E60641E060E187ED6B
:101AA00096E00E94DA0686E391E09093D806809350
:101AB000D7061092D5061092D6068FE090E090934C
:101AC000D4068093D30660E00E943E02E3EDF2E08C
:101AD00090E080E0819391930196811522E0920736
:101AE000C9F78CE291E09093FC018093FB01109286
:101AF000030281E080930402109205028DEF91E0D1
:101B000090930202809301021092FD0188E080937D
:101B1000FE018CE38093FF0110920002EBEFF1E0F5
:101B200081E02DEF31E0158686871786348723877D
:101B3000359692E0E634F907B1F71092710291E11F
:101B40009093FA0126E131E0309373022093720200
:101B50002BEF31E0309375022093740210927602DD
:101B6000809378021092790210927A021092CA023F
:101B700010927B0288E080937C0280917D028370CA
:101B80008C6380937D0210927E0210927F0280917E
:101B90008002837084608093800210928102109290
:101BA000820280918302837084608093830210920A
:101BB00084021092850280918602837084608093F3
:101BC00086021092870210928802809189028370A7
:101BD000846080938902E1E5F2E090E080E0219169
:101BE0003191232B71F4880F991FFC01EF5AFD4F9F
:101BF00082E792E09183808380EB8093D202CF9141
:101C0000089501968031910551F7F6CFCF93DF9378
:101C1000CDB7DEB767970FB6F894DEBF0FBECDBF66
:101C2000789484B5826084BD84B5816084BD85B5B7
:101C3000826085BD85B5816085BD80916E008160C3
:101C400080936E0010928100809181008260809369
:101C5000810080918100816080938100809180006B
:101C60008160809380008091B10084608093B10096
:101C70008091B00081608093B00080917A00846090
:101C800080937A0080917A00826080937A008091BC
:101C90007A00816080937A0080917A0080688093D6
:101CA0007A001092C100E0916D01F0916E0182E026
:101CB0008083E0916901F0916A011082E0916B01EB
:101CC000F0916C018FE3808310927501E0917101B6
:101CD000F091720186E08083E0916F01F0917001D4
:101CE000808180618083E0916F01F091700180813B
:101CF00088608083E0916F01F0917001808180683D
:101D00008083E0916F01F091700180818F7D8083ED
:101D1000229A0E94F4031FB7F89480914701811121
:101D200027C0E8EBF0E08491E4EAF0E09491E82F3A
:101D3000F0E0EE0FFF1FE057FF4FA591B491EC913B
:101D4000E92321F461E08AE00E94100261E08AE068
:101D50000E943E028CB580618CBD8CB580648CBDC8
:101D600061E08DE00E943E0261E08BE00E943E0255
:101D7000809147018F5F809347011FBF229A0E9485
:101D8000F403219868E188E80E94F70360E288E79D
:101D90000E94F70360E088E70E94F70310E000E08C
:101DA00088E60E9444040F5F1F4F80FF9EC061ECD5
:101DB00088ED0E94F70360E680ED0E94F70364E07F
:101DC00088EE0E94F70388EE0E94440482FFFBCF56
:101DD0000E94200560E288EC0E94F70361E080E841
:101DE0000E94F70368EC70E080E090E00E949402AB
:101DF00044E064E187ED96E00E94DA0681E090E03D
:101E000090934D0180934C0140E060E087ED96E0B7
:101E10000E94750762EF70E087ED96E00E946F0602
:101E200041E060E087ED96E00E94750762EE70E0A9
:101E300087ED96E00E946F0642E060E087ED96E055
:101E40000E94750762ED70E087ED96E00E946F06D4
:101E500043E060E087ED96E00E94750762EC70E079
:101E600087ED96E00E946F066091E706862F8260FC
:101E70008093E7066A6087ED96E00E94D70660913E
:101E8000E706862F81608093E706696087ED96E01C
:101E90000E94D7061E0133E1230E311C0E94C602A8
:101EA000609358017093590180935A0190935B019C
:101EB00083B1182F127081FD0CC088EC0E9444047D
:101EC00085FF03C00E94200510E2612F88EC0E946C
:101ED000F70380915C01813069F080F0823009F471
:101EE00068C08330A1F010E029C00F3F100709F04F
:101EF00057CFFFCF43E14093FA01F5CF8091FA012C
:101F0000807F803181F351E15093FA01ECCF11E0F1
:101F10008091FA01807F803189F40E94C602685363
:101F20007F4F8F4F9F4F609348017093490180937B
:101F30004A0190934B0180E28093FA0191E5692E6A
:101F400092E0792E7301D7018D919D917D010097CB
:101F500039F0DC01ED91FC910680F781E02D0995C7
:101F6000E1E7F2E0EE15FF0571F78091FA018034A8
:101F700009F456C000F58032E9F1803309F44AC013
:101F8000813109F05DC010927102D3018D919D9154
:101F90003D01009739F0DC01ED91FC910480F58161
:101FA000E02D0995E614F70481F782E18093FA01A8
:101FB00047C010E0ADCF813509F428C1803809F45D
:101FC00038C18035E9F588EC0E94440486FF38C0AA
:101FD00081E58093FA010E94C6026C5E7F4F8F4FAD
:101FE0009F4F609348017093490180934A019093F9
:101FF0004B0126C00E94C602009148011091490180
:1020000020914A0130914B01601B710B820B930BA5
:1020100097FD16C061E088EE0E94F70380E4C6CF0A
:1020200088EE0E94440480FD0BC088ED0E944404A9
:10203000682F686088ED0E94F703B0E5B093FA015D
:1020400080EF96E00E945005882369F08091570147
:102050008111EAC1F1E0F093570141E068E087EDBA
:1020600096E00E94750786EF96E00E94500588234F
:10207000D1F0E091550120E8E29FC0011124E091E8
:102080005601E80FF92FF11DEE0FFF1FDF01AD52D2
:10209000BD4F0D911C9180915701882309F4C9C14E
:1020A000813009F4E7C184EF96E00E94500588234F
:1020B000D1F02091550140E8249FC00111242091C6
:1020C0005601280F392F311D220F331FF901ED5210
:1020D000FD4F0081118180915701882309F4F9C1D6
:1020E000813009F417C28091FA01803909F088C261
:1020F00080917902882309F483C2E091CA028FEFAC
:102100008E0F8F3308F035C2F0E0EE58FD4F808D12
:10211000882309F42BC2E091CA02AE2FB0E0AE587A
:10212000BD4F58963C91A1E0AE0FB0E0AE58BD4F08
:1021300058969C919093CF02A2E0AE0FB0E0AE58BB
:10214000BD4F58962C912093D00284E08E0F80933F
:10215000CA02ED5FF0E0EE58FD4F108D1093D102F2
:10216000832F8C70843021F43F703450343088F0E9
:10217000892F903F08F4807F803E59F008F0F8C224
:10218000803A39F008F0EAC2803819F0803909F055
:1021900037C28091D202981B90935501209356012B
:1021A00010935401B0E89B9FF0011124E20FF11D40
:1021B000EE0FFF1FED52FD4F808191819C0197FF33
:1021C00002C021583F4F220F232F221F330B209391
:1021D000530160E870E00E94C613082F80935201FB
:1021E0008091EF06E22FE80FFF27FF1FBF018DE56B
:1021F00091E00E945101602F8DE591E00E94510114
:10220000612F8DE591E00E945101FAC10E94C60242
:10221000C0904801D0904901E0904A01F0904B01F4
:102220006C197D098E099F0997FD0ACF80E880937C
:10223000FA011B8AE8E0EC8B8CE38D8B4090010265
:102240005090020230920202209201021093050285
:102250009E012F5F3F4F490102E1A02EB12C82E188
:10226000C82ED12CEE24E39400E026E040E860E0A4
:102270008BEF91E00E942C08082F509202024092AE
:102280000102811150C0C984DA84AB84BC844D80C2
:102290009E80B1E5EB2EB2E0FB2E512CD7018D9143
:1022A0009C91009709F041C05394B2E0EB0EF11CF1
:1022B000E0E15E12F3CFF30180819181009709F094
:1022C00076C00F5FF2E06F0E711C0031A1F78091B4
:1022D000010290910202892B09F459C01093050262
:1022E00020E040E060E08BEF91E00E947B03F82E5D
:1022F000882309F44CC0682F8BEF91E00E94D00333
:10230000009709F444C0FC0114836F2D8BEF91E01A
:102310000E949209082F882309F484C06F2D8BEF47
:1023200091E00E945903802F2FC0DC01ED91FC91B8
:102330000084F185E02D09958111B6CFF7018081E8
:102340009181DC01ED91FC910088F189E02D692DEE
:102350000995882309F4A8CFF70180819181DC01D8
:10236000ED91FC910484F585E02DA501B601099558
:10237000882379F0612F852D0E946F05813D09F436
:1023800093CF882309F44EC0823D09F459CE80EAE8
:102390000DCEF70180819181DC01ED91FC910684E5
:1023A000F785E02D642D09958111E4CF7DCFDC0107
:1023B000ED91FC910084F185E02D0995811181CF8B
:1023C000F30180819181DC01ED91FC910088F1891C
:1023D000E02D692D0995811109C0612F802F0E9480
:1023E0006F05982F977F913D61F66BCFF301808148
:1023F0009181DC01ED91FC910484F585E02DA5012E
:10240000B601099581115DCFF30180819181DC01D5
:10241000ED91FC910684F785E02D642D09958823C4
:10242000E1F24FCF80E9C2CD1092570141E064E064
:1024300016CE003831E01307D4F00F771127ED5294
:10244000FD4F1183008341E064E087ED96E00E9438
:102450007507980117FF02C021583F4F220F232F05
:10246000221F330B81E0820F0E940B0C1CCE005800
:102470001F4FE5CFC8010196980117FF02C02158F0
:102480003F4F20783F7720583F4F821793071CF02B
:10249000C90180589109ED52FD4F9183808360E816
:1024A00070E00E94C613182F41E068E087ED96E0C7
:1024B0000E94750763E0812F90E00E948D06412FF6
:1024C00050E070E060E02AE087ED96E00E94B70BF4
:1024D000EACD00381105DCF400581E4F2D523D4F57
:1024E000D9010D931C9341E064E087ED96E00E94D2
:1024F0007507A80117FF02C041585F4F440F452FD1
:10250000441F550B81E0840F0E940B0CECCD00584A
:102510001109E4CFC80117FF02C081589F4F80788E
:102520009F77AC0141585F4F801791071CF4A801B9
:10253000415051092D523D4FF901518340838A0189
:102540000F77112741E068E087ED96E00E9475075C
:1025500063E0C8010E948D06A801110F660B770B7E
:102560002AE087ED96E00E94B70BBDCD818D8111E9
:10257000D2CD1092CA0280917F0290E09F8B8E8B09
:10258000E0907402F090750240917E0260917602B4
:102590001C8A1B8A1A8219828E010F5F1F4F9101BC
:1025A000C7010E94B80481110CC049815A816B890E
:1025B0007C890AE812E09E012A5E3F4FC7010E9413
:1025C00083072E893F892C33310540F4F901E65702
:1025D000FD4F108225573D4FD9011C92811110C02B
:1025E00080918A02811197CD80918B02811193CDC8
:1025F00080918C0281118FCD80918D0281118BCDC4
:102600008091580190915901A0915A01B0915B01BC
:1026100040914E0150914F016091500170915101D4
:10262000841B950BA60BB70B85369105A105B1054B
:1026300008F487C080914C0190914D01892B09F0DD
:1026400080C0109155011F5F40E064E087ED96E087
:102650000E947507812F0E940B0C1091560140E0DB
:1026600068E087ED96E00E94750763E0812F90E0B7
:102670000E948D06412F50E070E060E02AE087ED77
:1026800096E00E94B70B1091540140E06CE087ED9A
:1026900096E00E94750763E0812F90E00E948D060E
:1026A000412F50E070E060E02AE087ED96E00E9464
:1026B000B70B109153011F5F41E064E087ED96E096
:1026C0000E947507812F0E940B0C1091520141E06E
:1026D00068E087ED96E00E94750763E0812F90E047
:1026E0000E948D06412F50E070E060E02AE087ED07
:1026F00096E00E94B70B1091540141E06CE087ED29
:1027000096E00E94750763E0812F90E00E948D069D
:10271000412F50E070E060E02AE087ED96E00E94F3
:10272000B70B8091580190915901A0915A01B09135
:102730005B0180934E0190934F01A0935001B093A1
:10274000510120E030E0232B09F4A8CB0E941B01AB
:10275000882309F4A3CB0E940000A0CB803C09F49D
:1027600018CD803D09F415CD803B09F049CF11CD3E
:102770008D3F40F4883F08F00CCD815F833008F432
:1027800008CD3ECF8E3F08F004CD3ACF97FB072E01
:1027900016F4009407D077FD09D00E94FC1307FCC3
:1027A00005D03EF4909581959F4F08957095619561
:1027B0007F4F0895A1E21A2EAA1BBB1BFD010DC07D
:1027C000AA1FBB1FEE1FFF1FA217B307E407F507E1
:1027D00020F0A21BB30BE40BF50B661F771F881FBD
:1027E000991F1A9469F760957095809590959B0153
:1027F000AC01BD01CF010895AA1BBB1B51E107C06D
:10280000AA1FBB1FA617B70710F0A61BB70B881F80
:10281000991F5A95A9F780959095BC01CD0108950F
:10282000EE0FFF1F0590F491E02D0994DC0101C02B
:0E2830006D9341505040E0F70895F894FFCFAB
:10283E00000000005101B100DE009E010F01ED000D
:10284E00010100000000680AED03D202E903EA026A
:10285E00F103E703EB03EF0300000000D0037B035B
:0E286E005903000000006906B1006C056B05FF
:00000001FF
