:100000000C9474000C949C000C949C000C949C0028
:100010000C949C000C949C000C949C000C949C00F0
:100020000C949C000C949C000C949C000C949C00E0
:100030000C949C000C949C000C949C000C949C00D0
:100040000C94640C0C949C000C94320C0C940C0CCE
:100050000C949C000C949C000C949C000C949C00B0
:100060000C949C000C949C000000000025002800CB
:100070002B000000000023002600290000000008DB
:10008000000201000003040700000000000000005F
:1000900000000000240027002A00010204081020AC
:1000A000408001020408102001020408102004040A
:1000B0000404040404040202020202020303030310
:1000C00003033C2D63683031636330303076303069
:1000D00030002D3E6368303163633030307630302D
:1000E000300030003000AE0C11241FBECFEFD8E03E
:1000F000DEBFCDBF11E0A0E0B1E0EAE7F6E202C06A
:1001000005900D92AE33B107D9F726E0AEE3B1E02A
:1001100001C01D92A73EB207E1F710E0C4E7D0E0AE
:1001200004C02197FE010E942913C337D107C9F7E4
:100130000E94E80D0C943B130C9400008CBD9DBDF7
:100140000895AF92BF92CF92DF92EF92FF920F93FA
:100150001F93CF93DF936C017B018B01040F151F5D
:10016000EB015E01AE18BF08C017D10759F06991C5
:10017000D601ED91FC910190F081E02DC601099529
:10018000892B79F7C501DF91CF911F910F91FF90D6
:10019000EF90DF90CF90BF90AF900895FC01538D0A
:1001A000448D252F30E0842F90E0821B930B541751
:1001B00010F0CF96089501970895FC01918D828DDE
:1001C000981761F0A28DAE0FBF2FB11D5D968C9177
:1001D000928D9F5F9F73928F90E008958FEF9FEFB6
:1001E0000895FC01918D828D981731F0828DE80F72
:1001F000F11D858D90E008958FEF9FEF0895FC012C
:10020000918D228D892F90E0805C9F4F821B9109F8
:100210008F739927089581E591E00E94FF0021E006
:10022000892B09F420E0822F089580E090E0892B4B
:1002300029F00E940B0181110C9400000895FC012B
:10024000A48DA80FB92FB11DA35ABF4F2C91848D37
:1002500090E001968F739927848FA689B7892C9394
:10026000A089B1898C91837080648C93938D848DE7
:10027000981306C00288F389E02D80818F7D8083EA
:100280000895EF92FF920F931F93CF93DF93EC01AA
:1002900081E0888F9B8D8C8D98131AC0E889F9892D
:1002A000808185FF15C09FB7F894EE89FF89608330
:1002B000E889F98980818370806480839FBF81E0B1
:1002C00090E0DF91CF911F910F91FF90EF900895F3
:1002D000F62E0B8D10E00F5F1F4F0F731127E02ECE
:1002E0008C8D8E110CC00FB607FCFACFE889F98906
:1002F000808185FFF5CFCE010E941F01F1CFEB8DEC
:10030000EC0FFD2FF11DE35AFF4FF0829FB7F894D9
:100310000B8FEA89FB8980818062CFCFCF93DF93F7
:10032000EC01888D8823B9F0AA89BB89E889F9890D
:100330008C9185FD03C0808186FD0DC00FB607FC42
:10034000F7CF8C9185FFF2CF808185FFEDCFCE0175
:100350000E941F01E9CFDF91CF910895833081F092
:1003600028F4813099F08230A9F008958730A9F0FF
:100370008830C9F08430B1F4809180008F7D03C053
:10038000809180008F7780938000089584B58F7767
:1003900084BD089584B58F7DFBCF8091B0008F77A9
:1003A0008093B00008958091B0008F7DF9CFCF93F6
:1003B000DF93282F30E0F901E458FF4F8491F901D1
:1003C000E656FF4FD491F901E255FF4FC491CC237B
:1003D000A1F081110E94AE01EC2FF0E0EE0FFF1FA3
:1003E000EE58FF4FA591B491EC91ED2381E090E0A0
:1003F00009F480E0DF91CF91089580E090E0FACF9A
:100400001F93CF93DF93282F30E0F901E458FF4F7B
:100410008491F901E656FF4FD491F901E255FF4F5F
:10042000C491CC23A9F0162F81110E94AE01EC2FAC
:10043000F0E0EE0FFF1FE859FF4FA591B4918FB781
:10044000F894EC91111108C0D095DE23DC938FBF96
:10045000DF91CF911F910895DE2BF8CFCF93DF93DB
:1004600090E0FC01E656FF4F249182559F4FFC011E
:1004700084918823D1F090E0880F991FFC01E05708
:10048000FF4FA591B491FC01E859FF4FC591D4915C
:1004900061110EC09FB7F8948C91E22FE0958E23E6
:1004A0008C932881E223E8839FBFDF91CF91089549
:1004B0008FB7F894EC91E22BEC938FBFF6CF3FB758
:1004C000F8948091430190914401A0914501B0912D
:1004D000460126B5A89B05C02F3F19F00196A11D26
:1004E000B11D3FBFBA2FA92F982F8827BC01CD017E
:1004F000620F711D811D911D42E0660F771F881FDD
:10050000991F4A95D1F708958F929F92AF92BF920B
:10051000CF92DF92EF92FF924B015C010E945F024B
:100520006B017C010E945F026C197D098E099F0995
:10053000683E734081059105A8F321E0821A910875
:10054000A108B10888EEC80E83E0D81EE11CF11C9A
:1005500081149104A104B10429F7FF90EF90DF907A
:10056000CF90BF90AF909F908F9008952FB7F89441
:1005700060913F0170914001809141019091420151
:100580002FBF0895CF93DF93EC018A819B81DC011B
:10059000ED91FC910480F581E02D6C81099581E05D
:1005A0008E831C821F82C85ADF4F188280E0DF9141
:1005B000CF910895FC0184810895DF92EF92FF921C
:1005C0000F931F93CF93DF93EC0185E0E62EF12C80
:1005D000FE01869FE00DF11D1124908596FF24C039
:1005E000192F177001E085E0D82E8FEF800F8F3024
:1005F00008F001E0602F70E0062FD69EF001D79E34
:10060000F00D1124EC0FFD1F80858695869586954B
:100610008770181701F16F5F7F4F603168F38D812C
:10062000811302C011501D8385E08E9DF0018F9DC6
:10063000F00D1124EC0FFD1F108681E081871286DA
:100640002296D783C683DF91CF911F910F91FF90A0
:10065000EF90DF900895CE010E94DD02C6CFFC012D
:1006600020812EBD9B012150310941F051810DB4F3
:1006700007FEFDCF4EB55EBD4193F5CF61507109C8
:10068000860F971F0DB407FEFDCF2EB5FC0120830A
:100690000895FC0121E0613499F49C01255B3F4FF2
:1006A00061E0AC014E5F5F4F158666871786548701
:1006B000438735962E173F07B9F7FC011582089539
:1006C0003585631729F02F5F35962031C9F70895D6
:1006D000622F0C94DD02CF93DF93FC0167FD12C003
:1006E000283080F4442319F08581873059F0EF01D8
:1006F000A1E0B0E08D85882349F111962596A031BF
:10070000B105C1F780E018C085E08A9FE0018B9FAA
:10071000D00D1124CE0FDF1F442389F081E4888798
:1007200085818F5F858325E02A9FC0012B9F900DD7
:100730001124E80FF91F8085DF91CF91089581E0A2
:100740008887F1CF2770687B622B0FC06623E1F2A8
:100750006770660F660F660F4423A1F3606485819E
:100760008F5F85838770687F682B25E02A9FC00193
:100770002B9F900D1124E80FF91F6087862FDCCF87
:10078000FC0121E0611102C00696089535856317CA
:1007900039F02F5F35962031C9F790E080E0089559
:1007A000069635E0239F800D911D1124089580E069
:1007B000089580E0089580E0089580E0089581E044
:1007C000089508952A9808952A9A089508950F93F0
:1007D0001F93CF93DF9300D0CDB7DEB7182F062F2E
:1007E00080E591E00E949E000E94E203126019835E
:1007F0000A8362E070E0CE0101960E942F030E94FE
:10080000E4030F900F90DF91CF911F910F91089506
:100810008EBD00000DB407FEFDCF8EB50895FF928A
:100820000F931F93CF93DF93182FF62EEA0180E5E5
:1008300091E00E949E000E94E203812F82600E944C
:1008400008040F2D10E0FF2021F0B801CE010E9416
:100850002F03C00FD11F0E94E403CE01DF91CF917F
:100860001F910F91FF900895CF93C82F80E591E0DD
:100870000E949E000E94E2038C2F0E94080480E0E8
:100880000E940804C82F0E94E4038C2FCF91089582
:100890008F929F92AF92BF92CF92DF92EF92FF9290
:1008A0000F931F93CF93DF93882E962E5A010E94A9
:1008B000B6026B017C0128E8C20E23E1D21EE11CC6
:1008C000F11C10E000E0D0E0C0E098280E94B602E1
:1008D0006C197D098E099F0997FF1EC0692D80EF55
:1008E0000E94E7030E94B6026C197D098E099F09D8
:1008F00097FF09C088EC0E94340487FFF3CF60E8BB
:1009000088EC0E94E70388EF0E943404C82FCF7060
:10091000C43081F0CE30B9F08C2FDF91CF911F9190
:100920000F91FF90EF90DF90CF90BF90AF909F908E
:100930008F9008950F5F1F4FA114B10439F20A156B
:100940001B0521F6E9CFDF5FD33009F0BFCFE4CF3D
:10095000AF92BF92CF92DF92EF92FF920F931F93CD
:10096000CF93DF93EC01B62EA42E69010E94C00341
:100970007C0186EDE114F10409F447C0D701ED9143
:10098000FC91119787ED309709F43FC013969C9125
:1009900080E0981731F02081A21629F033968F5FFE
:1009A000F8CFF0E0E0E0D601ED93FC938BED3097CB
:1009B00061F1228126952695203108F02FE081E013
:1009C00090E0A0E0B0E004C0880F991FAA1FBB1FF1
:1009D0002A95D2F70197F801918380836B2D80EEE1
:1009E0000E94E70388ED0E943404D70114969C917D
:1009F000682F697F992329F0CA58DF4F68816260A8
:100A0000682B88ED0E94E70380E0DF91CF911F9172
:100A10000F91FF90EF90DF90CF90BF90AF9008952F
:100A200088EF0E943404807C8034B1F018F488236D
:100A300001F10895803819F0803CC9F0089588EDDF
:100A40000E94340481FD0DC069EC88ED0E94E7032B
:100A500082E080935001089588ED0E94340481FD66
:100A6000F3CF6BEC88ED0E94E70383E0F2CF81E0E7
:100A7000F0CF61ED88ED0E94E703109250010895D8
:100A8000CF93DF93EC0188810E94D701892B39F441
:100A90008981813021F41982DF91CF910895888175
:100AA0000E94D701019729F48981811102C081E058
:100AB000898380E0F1CF089590E080E00895CF929F
:100AC000DF92FF920F931F93CF93DF93F62E01E0F7
:100AD000C82FD0E0CC0FDD1FC35AD94F6E018881DB
:100AE0009981DC01ED91FC910280F381E02D2F2DA5
:100AF00040E060E00995182F803E49F561E088EEFE
:100B00000E94E70366E670E080E090E00E948402C5
:100B1000F60180819181DC01ED91FC910190F081E1
:100B2000E02D2F2D40E060E00995182F8D3041F524
:100B30008FEF800F833088F061E088EE0E94E7033A
:100B400066E670E080E090E00E94840210C08D3084
:100B500061F48FEF800F833050F464E670E080E042
:100B600090E00E9484020F5FBACF882389F2812F20
:100B7000DF91CF911F910F91FF90DF90CF9008955B
:100B80008823A9F3D9CFCF93DF93EC0160E08E8166
:100B90000E94000261E08E810E94000260E08E816E
:100BA0000E9400028BE891E00197F1F7DF91CF916D
:100BB0000895CF92DF92EF92FF920F931F93CF93FE
:100BC000DF936C017C0187E0E80EF11CD0E0C0E00F
:100BD000062F10E0B8010C2E02C0759567950A9497
:100BE000E2F76170F70181917F010E940002219676
:100BF000C430D10579F7C601DF91CF911F910F91D4
:100C0000FF90EF90DF90CF900C94C305CF92DF92CE
:100C1000EF92FF920F931F93CF93DF93EC01F62E89
:100C2000642F8C810E9400028D818F3F19F060E05B
:100C30000E9400020F2D10E08F8584FF25C06E01F9
:100C400087E0C80ED11CF12CE12CB8010E2C02C09B
:100C5000759567950A94E2F76170F60181916F01CD
:100C60000E940002FFEFEF1AFF0A88E0E816F10485
:100C700061F7CE01DF91CF911F910F91FF90EF901F
:100C8000DF90CF900C94C305B80184E0759567950B
:100C90008A95E1F7CE010E94D9056F2DCE01DF9133
:100CA000CF911F910F91FF90EF90DF90CF900C9418
:100CB000D90541E00E94060681E090E00895EF9298
:100CC000FF920F931F93CF93DF938C017B01D0E0B2
:100CD000C0E0F701EC0FFD1F6491662331F041E0A5
:100CE000C8010E9406062196F4CFCE01DF91CF9174
:100CF0001F910F91FF90EF900895DF92EF92FF9276
:100D00000F931F93CF93DF93EC01E62EF12C01E0BC
:100D100010E09AE0D92E2F2D30E082E0E8120FC0CB
:100D200081E090E028173907A4F4209759F464EE85
:100D300070E08FEE95E00E945F06F394ECCF82E0C6
:100D400090E0F0CFC801D89E8001D99E100D1124EB
:100D5000F4CF2097A1F0015011098AE0F82EC017B6
:100D6000D1076CF462EE70E08FEE95E00E945F06B2
:100D7000CE01F89EE001F99ED00D1124F0CFDF9155
:100D8000CF911F910F91FF90EF90DF90089540E079
:100D90000C9406060F931F93CF93DF93EC01623000
:100DA00019F48F8588608F876B8B1C8A80E48D8B0C
:100DB00080E18E8B80E58F8B61E08C810E942E021A
:100DC0008D818F3F19F061E00E942E0261E08E81DB
:100DD0000E942E028E0198012C1B3D0B8F8584FDF5
:100DE0000DC084E090E00F5F1F4F281739074CF4C7
:100DF00061E0F80186810E942E02EDCF88E090E04C
:100E0000F2CF8BE39DE00197F1F760E08C810E94C7
:100E1000000260E08E810E9400028D818F3F19F0F8
:100E200060E00E9400026F8564FD39C063E0CE017E
:100E30000E94D9050BE416E4C8010197F1F763E0BD
:100E4000CE010E94D905C8010197F1F763E0CE01F8
:100E50000E94D90583E592E00197F1F762E0CE01A7
:100E60000E94D9056F856062CE010E94C70684E0AA
:100E7000888B6CE0CE010E94C70661E0CE010E9423
:100E8000C7068BE39FE10197F1F782E0898B66E06B
:100E9000CE01DF91CF911F910F910C94C706606234
:100EA000CE010E94C7068BE496E40197F1F76F85A7
:100EB0006062CE010E94C70683E592E00197F1F7D8
:100EC0006F856062CE010E94C706CCCFFC012389EA
:100ED000421710F04FEF420FFC01E40FF11D24897F
:100EE000620F60680C94C7062F923F924F925F92F8
:100EF0006F927F928F929F92AF92BF92CF92DF922A
:100F0000EF92FF920F931F93CF93DF937B013A01F0
:100F10006901F901A080B180FB013180F9011182E2
:100F20001082FB01828160E181FD60E288EE0E9417
:100F3000E7032A2CA301F701608180E00E944804A6
:100F4000582EF6E08F1310C088EF0E943404F7018A
:100F500092819D7F84FF9260928360E191FD60E2C7
:100F600088EE0E94E703E6CF811150C088EC0E9412
:100F7000340482FF5FC080E30E943404482E8A1547
:100F80001B0411F008F0422CF60180819181E501EB
:100F9000C81BD90BD7FF02C0D0E0C0E0842C912C35
:100FA0008C169D060CF4E40180E591E00E949E0001
:100FB0000E94E20388E00E940804AE0170E060E055
:100FC000C8010E943413209721F0BE01C8010E947D
:100FD0002F030C0F1D1F0E94E40364E088EC0E94A5
:100FE000E703F60180819181880E991E91828082AB
:100FF000431420F08A149B0408F49CCF88EF0E94CD
:101000003404F701928184FB91F99283852DDF915D
:10101000CF911F910F91FF90EF90DF90CF90BF90F5
:10102000AF909F908F907F906F905F904F903F9088
:101030002F90089580EF582EE9CF2F923F924F9234
:101040005F926F927F928F929F92AF92BF92CF9258
:10105000DF92EF92FF920F931F93CF93DF93CDB761
:10106000DEB763970FB6F894DEBF0FBECDBF3C016D
:10107000542E422E302E1E861D861C861B868E0107
:10108000055F1F4F9E01235F3F4F40E00E94A80471
:10109000F82E8111D0C059824A823B82EC821E8296
:1010A0001D82D886CF82AE014F5F5F4F68E080E23D
:1010B0000E940F044B855C8560E080E10E9448043B
:1010C000811116C181149104B1F10D851E85F801BD
:1010D000828157FE36C082608283EE24E394C1147D
:1010E000D10409F40AC1BA86A9864B855C856D8551
:1010F0007E8584019E01275F3F4FC3010E947407D4
:10110000F82EF6E08F130EC088EF0E943404ED85B0
:10111000FE8585FB882780F98E25928180FB91F9D9
:101120009283DDCF811187C089859A85C81AD90A33
:101130008A159B05A0F64B855C8557FED5C080EAD5
:10114000D4C081608283E1808FEF8E0D803408F0FF
:10115000D1C08B859C85988B8F870E94B6021B011E
:101160002C01E8E82E0EE3E13E1E411C511CF80163
:10117000828160E880FF60E488EE0E94E703F12C42
:101180008E2D90E09A8B898BA114B10409F446C08E
:10119000C988DA88AC14BD0408F46501CB8AA401BF
:1011A0006C2D80E10E940F046C2D88E30E94E70300
:1011B000F8016081606280EF0E94E70388EC0E9482
:1011C000340487FFFBCF60E888EC0E94E70388EFD8
:1011D0000E9434048F70F82EE12C712C612CFF20BA
:1011E00009F443C00E94B602621973098409950983
:1011F00097FF3BC0F6E0FF1609F462C02EE0F2163E
:10120000C9F184E0F8120AC09FEF691A790AEF85E4
:10121000F889309799F1E615F70581F588EF0E9476
:101220003404F801928185FB90F992834B855C85AB
:10123000FF2009F459C08F2D63960FB6F894DEBFD6
:101240000FBECDBFDF91CF911F910F91FF90EF9017
:10125000DF90CF90BF90AF909F908F907F906F90D6
:101260005F904F903F902F900895AC18BD088C0C64
:101270009D1C8ACFE394F3E0EF1681F260E088E3EF
:101280000E94E703F401608180E10E94E7036B891B
:1012900088E30E94E703F8016081606280EF0E94AA
:1012A000E70388EC0E94340487FFFBCF60E888ECFA
:1012B0000E94E70388EF0E9434048F70F82E8FCFCE
:1012C00088EF0E94340485FB882780F921E082277B
:1012D000F801928180FB90F9928360E890FF60E4CE
:1012E00088EE0E94E703CACF80E860E00E944804CD
:1012F000F82EA1CF8AEDF82E9ECF4B855C85FF207E
:1013000009F41DCF98CF8F929F92AF92BF92CF9248
:10131000DF92EF920F93CF93912C812CB12CA12CC3
:10132000D12CC12CE12C062F25E040E060E00E948A
:101330001D08C82F6CE271E080E090E00E948402FA
:101340008C2FCF910F91EF90DF90CF90BF90AF9007
:101350009F908F9008954F925F926F927F928F929D
:101360009F92AF92BF92CF92DF92EF92FF920F9334
:101370001F93CF93DF93CDB7DEB7DA950FB6F8940E
:10138000DEBF0FBECDBF3C01162FF42ECE0101965D
:101390004C01A4E0AA2EB12CB4E0CB2ED12C02E05B
:1013A000E02E042F26E040E8D30112968D919C9107
:1013B0000E941D08811166C04B805C80B1E04B1615
:1013C0005B0618F0412C55245394FE0131964F01D1
:1013D00052016201E2E0EE2E0F2D26E040E8612F7F
:1013E000D30112968D919C910E941D0881114AC0D3
:1013F00040E0F401480C591CE415F50508F042C022
:1014000050819181943059F09530A1F0923021F4BF
:101410009581D30115969C93E50FF11DEDCF958134
:10142000913071F52681233059F5D30118969C939C
:1014300041E0F2CF93819370923071F7928144230F
:10144000D1F021E097FF22E0648130E0D901AA0FBA
:10145000BB1FA20FB31FA60DB71D9F7019969C93BB
:1014600019971A966C93D30116969C9116979F5FC5
:1014700016969C93D1CF23E097FDE6CF24E0E4CFEE
:1014800040E0CACFD3950FB6F894DEBF0FBECDBFF4
:10149000DF91CF911F910F91FF90EF90DF90CF9050
:1014A000BF90AF909F908F907F906F905F904F9084
:1014B00008952F923F924F925F926F927F928F92F8
:1014C0009F92AF92BF92CF92DF92EF92FF920F93D3
:1014D0001F93CF93DF93CDB7DEB767970FB6F8941E
:1014E000DEBF0FBECDBFFC0181E8848715868685EF
:1014F0008E7F8D7F868731E03787108A81898E7F46
:101500008D7F818B848109ED811113C0122F4F8B48
:10151000F62E3F0142805380D201ED91FC91019063
:10152000F081E02D60E0C20109951C010097D9F41B
:1015300006ED802F67960FB6F894DEBF0FBECDBFC5
:10154000DF91CF911F910F91FF90EF90DF90CF909F
:10155000BF90AF909F908F907F906F905F904F90D3
:101560003F902F900895FC010190F081E02DFE8BBB
:10157000ED8B07EDEF2BE9F29301275F3F4F3C8B9B
:101580002B8BDC0111963C932E9314961C93FE0139
:1015900031964F0182E1A82EB12C92E1C92ED12CB7
:1015A000EE24E39400E026E040E860E0D3011296E8
:1015B0008D919C910E941D08082F89859A85F301C1
:1015C000E55AFF4F918380838B859C853297918369
:1015D00080832D893E89F101318320830111ABC0C5
:1015E000D201ED91FC910280F381E02D2F8940E042
:1015F0006F2DC2010995F301848304ED882309F45A
:1016000098CF98859287682F828193810E94830961
:10161000082FD201ED91FC91D10114961C928823E0
:1016200059F00480F581E02DD30114966C91C2012C
:101630000995F30114827DCF0190F081E02DD30153
:1016400014966C91C2010995009709F471CFFC01C1
:101650001483D30112968D919C91139714961C912B
:10166000EB89FC89EF2B09F465C0612F0E94C00350
:10167000FC01892B09F468C0FA8812832B893C8904
:101680003183208331E03383D30118961C9210E01C
:101690001F1581F0412FF3016481C3010E94AB0942
:1016A000082F811148C0D30116968C91823010F416
:1016B0001F5FEECFF3018681823008F447C080853A
:1016C000811108C082898487838985878589878776
:1016D0008689808BD30114961C911497612F1296E2
:1016E0008D919C910E94C003FC01892B39F01283DB
:1016F0002B893C893183208383E08383912C812C47
:10170000B12CA12CD12CC12CE12CD30115960C911C
:10171000159729E040E014966C91149712968D91DC
:101720009C910E941D08082F811105C081E0F301E2
:101730008783FFCE08EDD301ED91FC910480F58104
:10174000E02DC3010995F5CE06EDF5CF0FEFF3CFF0
:101750008F929F92AF92BF92EF92FF920F931F933F
:10176000CF93DF93CDB7DEB7A1970FB6F894DEBF66
:101770000FBECDBF7C01FA01CB0119A2223008F4C3
:101780002AE08E010F5D1F4F822E912CB12CA12CCF
:10179000BF01A50194010E94DF12F901CA016A305C
:1017A0004CF5605DD8016E938D01232B242B252BE6
:1017B00079F790E080E0109761F0FD010190002042
:1017C000E9F73197AF014A1B5B0BBD01C7010E94CE
:1017D000A100A1960FB6F894DEBF0FBECDBFDF917A
:1017E000CF911F910F91FF90EF90BF90AF909F907E
:1017F0008F900895695CD6CFCF93C82F62E090E0B8
:101800000E947D064C2F50E070E060E02AE08FEEF1
:1018100095E0CF910C94A80B1F920F920FB60F92E8
:1018200011242F933F934F935F936F937F938F93E5
:101830009F93AF93BF93EF93FF9381E591E00E9455
:101840001F01FF91EF91BF91AF919F918F917F9178
:101850006F915F914F913F912F910F900FBE0F901D
:101860001F9018951F920F920FB60F9211242F936D
:101870008F939F93EF93FF93E0916101F091620149
:101880008081E0916701F091680182FD1BC0908129
:1018900080916A018F5F8F7320916B01821741F0F5
:1018A000E0916A01F0E0EF5AFE4F958F80936A0154
:1018B000FF91EF919F918F912F910F900FBE0F90FD
:1018C0001F9018958081F4CF1F920F920FB60F9240
:1018D00011242F933F938F939F93AF93BF93809146
:1018E0003F0190914001A0914101B091420130919E
:1018F0003E0123E0230F2D3758F50196A11DB11DA0
:1019000020933E0180933F0190934001A0934101B9
:10191000B09342018091430190914401A09145010F
:10192000B09146010196A11DB11D80934301909392
:101930004401A0934501B0934601BF91AF919F919F
:101940008F913F912F910F900FBE0F901F90189580
:1019500026E8230F0296A11DB11DD2CFCF9310927E
:1019600054011092530188EE93E0A0E0B0E0809320
:10197000550190935601A0935701B093580184E00C
:1019800091E0909352018093510185EC90E0909307
:101990005E0180935D0184EC90E090936001809300
:1019A0005F0180EC90E0909362018093610181EC93
:1019B00090E0909364018093630182EC90E09093B7
:1019C00066018093650186EC90E0909368018093B6
:1019D000670110926A0110926B0110926C011092D3
:1019E0006D0183E18093E50660E00E942E02C1E074
:1019F000C093E60682E18093E30660E00E942E0237
:101A0000C093E40681E18093E10660E00E942E022B
:101A1000C093E20680E18093DF0660E00E942E0220
:101A2000C093E00688E391E0909308068093070650
:101A300010920F06C09310061092110689E096E0EE
:101A400090930E0680930D061092090688E080930D
:101A50000A068CE380930B0610920C06E7E0F6E092
:101A600022E536E081E049E056E015868687178654
:101A70005487438735962E173F07B9F710927D0696
:101A800091E19093EE0122E231E030937F062093C2
:101A90007E0627E036E03093810620938006109280
:101AA0008206809384061092850610928606109214
:101AB000D6061092870688E0809388068091890672
:101AC00083708C638093890610928A0610928B062D
:101AD00080918C068370846080938C0610928D06B2
:101AE00010928E0680918F068370846080938F069B
:101AF00010929006109291068091920683708460F5
:101B00008093920610929306109294068091950607
:101B10008370846080939506EDE5F6E090E080E0C8
:101B200021913191232B09F04DC0880F991FFC01A1
:101B3000E35AF94F8EE796E09183808380EB8093A0
:101B4000DE061092F2051092F10586E191E0909385
:101B5000F0058093EF0587E08093F3058FEF809386
:101B6000F40586E08093F50585E08093F60584E032
:101B70008093F70583E08093F80582E08093F90570
:101B80001092FA051092FB051092FC051092FD05CB
:101B90001092FE0561E08FEE95E00E94CA0686E194
:101BA00091E09093F0058093EF05EFEEF1E090E087
:101BB00080E0819391930196811522E09207C9F705
:101BC000CF91089501968031910509F0A9CFB6CF44
:101BD000CF93DF93CDB7DEB767970FB6F894DEBF2C
:101BE0000FBECDBF789484B5826084BD84B581601A
:101BF00084BD85B5826085BD85B5816085BD8091D8
:101C00006E00816080936E0010928100809181004F
:101C10008260809381008091810081608093810047
:101C2000809180008160809380008091B100846009
:101C30008093B1008091B00081608093B00080916A
:101C40007A00846080937A0080917A008260809329
:101C50007A0080917A00816080937A0080917A0086
:101C6000806880937A001092C100E0916101F09148
:101C7000620182E08083E0915D01F0915E0110825B
:101C8000E0915F01F09160018FE380831092690120
:101C9000E0916501F091660186E08083E091630147
:101CA000F0916401808180618083E0916301F09113
:101CB0006401808188608083E0916301F091640118
:101CC000808180688083E0916301F091640180816C
:101CD0008F7D808362E08FEE95E00E94CA0640E02F
:101CE00060E08FEE95E00E94660762ED70E08FEE97
:101CF00095E00E945F0641E060E08FEE95E00E9473
:101D0000660762EC70E08FEE95E00E945F066091DE
:101D1000FF05862F82608093FF056A608FEE95E055
:101D20000E94C7066091FF05862F81608093FF05A2
:101D300069608FEE95E00E94C706229A0E94E40334
:101D40001FB7F89480914701811127C0E8EBF0E0BC
:101D50008491E4EAF0E09491E82FF0E0EE0FFF1FA9
:101D6000E057FF4FA591B491EC91E92321F461E094
:101D70008AE00E94000261E08AE00E942E028CB597
:101D800080618CBD8CB580648CBD61E08DE00E946B
:101D90002E0261E08BE00E942E02809147018F5F4E
:101DA000809347011FBF229A0E94E403219868E1B3
:101DB00088E80E94E70360E288E70E94E70360E0AA
:101DC00088E70E94E70310E000E088E60E94340400
:101DD0000F5F1F4F80FF44C061EC88ED0E94E70356
:101DE00060E680ED0E94E70364E088EE0E94E7036E
:101DF00088EE0E94340482FFFBCF0E94100560E24F
:101E000088EC0E94E70361E080E80E94E70368EC49
:101E100070E080E090E00E9484021E0133E1230E16
:101E2000311C0E94B60283B1182F127081FD0CC0C4
:101E300088EC0E94340485FF03C00E94100510E264
:101E4000612F88EC0E94E70380915001813069F096
:101E500080F0823009F468C08330A1F010E029C01E
:101E60000F3F100709F0B1CFFFCF83E18093EE0160
:101E7000F5CF8091EE01807F803181F391E19093E5
:101E8000EE01ECCF11E08091EE01807F803189F48A
:101E90000E94B60268537F4F8F4F9F4F6093480157
:101EA0007093490180934A0190934B01A0E2A09363
:101EB000EE01ADE56A2EA6E07A2E7301F70181915D
:101EC00091917F01009739F0DC01ED91FC91068042
:101ED000F781E02D0995EDE7F6E0EE15FF0571F7C6
:101EE0008091EE01803409F456C000F58032E9F1AA
:101EF000803309F44AC0813109F05DC010927D063B
:101F0000D3018D919D913D01009739F0DC01ED9158
:101F1000FC910480F581E02D0995E614F70481F722
:101F200082E18093EE0147C010E0ADCF813509F426
:101F30004BC0803809F45BC08035E9F588EC0E941D
:101F4000340486FF38C081E58093EE010E94B6021A
:101F50006C5E7F4F8F4F9F4F609348017093490194
:101F600080934A0190934B0126C00E94B6020091D3
:101F700048011091490120914A0130914B01601BA9
:101F8000710B820B930B97FD16C061E088EE0E94E7
:101F9000E70380E4C6CF88EE0E94340480FD0BC0C6
:101FA00088ED0E943404682F686088ED0E94E70382
:101FB000B0E5B093EE0185EE96E00E9440058823DF
:101FC00009F410C10E942F130E94B602C09048016C
:101FD000D0904901E0904A01F0904B016C197D09C5
:101FE0008E099F0997FDE7CF80E88093EE011B8A59
:101FF000E8E0EC8B8CE38D8B40900D0650900E0644
:1020000030920E0620920D06109311069E012F5F4E
:102010003F4F4901E2E1AE2EB12CF2E1CF2ED12C9F
:10202000EE24E39400E026E040E860E087E096E0FC
:102030000E941D08082F50920E0640920D06811135
:1020400050C0C984DA84AB84BC844D809E807DE519
:10205000E72E76E0F72E512CD7018D919C910097B9
:1020600009F041C05394B2E0EB0EF11CE0E15E12C6
:10207000F3CFF30180819181009709F076C00F5F63
:10208000F2E06F0E711C0031A1F780910D06909166
:102090000E06892B09F459C01093110620E040E088
:1020A00060E087E096E00E946B03F82E882309F435
:1020B0004CC0682F87E096E00E94C003009709F4A7
:1020C00044C0FC0114836F2D87E096E00E948309D1
:1020D000082F882309F484C06F2D87E096E00E94C2
:1020E0004903802F2FC0DC01ED91FC910084F18524
:1020F000E02D09958111B6CFF70180819181DC0136
:10210000ED91FC910088F189E02D692D09958823D6
:1021100009F4A8CFF70180819181DC01ED91FC9158
:102120000484F585E02DA501B6010995882379F091
:10213000612F852D0E945F05813D09F493CF88238F
:1021400009F44EC0823D09F436CF80EAEACEF701A9
:1021500080819181DC01ED91FC910684F785E02D71
:10216000642D09958111E4CF7DCFDC01ED91FC91C7
:102170000084F185E02D0995811181CFF3018081E3
:102180009181DC01ED91FC910088F189E02D692DB0
:102190000995811109C0612F802F0E945F05982F3A
:1021A000977F913D61F66BCFF30180819181DC01D6
:1021B000ED91FC910484F585E02DA501B60109950A
:1021C00081115DCFF30180819181DC01ED91FC9162
:1021D0000684F785E02D642D09958823E1F24FCF21
:1021E00080E99FCE83EE96E00E944005882389F027
:1021F00080914C0190E001968170992780934C0169
:1022000041E064E0892B09F068E08FEE95E00E94E0
:10221000660781EE96E00E9440058823D1F0E091A8
:102220004F01F0E8EF9FC0011124E0914E01E80F4B
:10223000F92FF11DEE0FFF1FDF01A151BE4F0D91D0
:102240001C9180914C01882309F4AEC0813009F4BF
:10225000CCC08FED96E00E9440058823D1F02091FC
:102260004F0130E8239FC001112420914E01280F17
:10227000392F311D220F331FF901E151FE4F00812B
:10228000118180914C01882309F4DEC0813009F46A
:10229000FCC08091EE01803909F06DC18091850606
:1022A000882309F468C1E091D6068FEF8E0F8F3333
:1022B00008F01AC1F0E0E258F94F808D882309F444
:1022C00010C1E091D606AE2FB0E0A258B94F589693
:1022D0003C91A1E0AE0FB0E0A258B94F58969C9146
:1022E0009093DB06A2E0AE0FB0E0A258B94F58962B
:1022F0002C912093DC0684E08E0F8093D606ED5F50
:10230000F0E0E258F94F108D1093DD06832F8C70AA
:10231000843021F43F703450343088F0892F903F5E
:1023200008F4807F803E59F008F03BC1803A39F0D4
:1023300008F02EC1803819F0803909F01CC1809155
:10234000DE06981B90934F0120934E0110934D0190
:10235000B0E89B9FF0011124E20FF11DEE0FFF1F6B
:10236000E151FE4FE080F180B701F7FE02C06158F5
:102370007F4F660F672F661F770B772760557F4F5C
:1023800081E591E00E944101C70160E870E00E9490
:102390000113682F81E591E00E944101612F81E5E1
:1023A00091E00E944101E7C0003821E01207D4F01B
:1023B0000F771127E151FE4F1183008341E064E064
:1023C0008FEE95E00E946607980117FF02C0215822
:1023D0003F4F220F232F221F330B81E0820F0E94D9
:1023E000FC0B37CF00581F4FE5CFC801019698016D
:1023F00017FF02C021583F4F20783F7720583F4FAA
:10240000821793071CF0C90180589109E151FE4FD2
:102410009183808360E870E00E940113182F41E0EF
:1024200068E08FEE95E00E94660763E0812F90E000
:102430000E947D06412F50E070E060E02AE08FEEC0
:1024400095E00E94A80B05CF00381105DCF4005878
:102450001E4F21513E4FD9010D931C9341E064E082
:102460008FEE95E00E946607A80117FF02C0415851
:102470005F4F440F452F441F550B81E0840F0E948E
:10248000FC0B07CF00581109E4CFC80117FF02C0A9
:1024900081589F4F80789F77AC0141585F4F8017DC
:1024A00091071CF4A8014150510921513E4FF901F7
:1024B000518340838A010F77112741E068E08FEE56
:1024C00095E00E94660763E0C8010E947D06A801AE
:1024D000110F660B770B2AE08FEE95E00E94A80B98
:1024E000D8CE818D8111EDCE1092D60680918B06CB
:1024F00090E09F8B8E8BE0908006F090810640915B
:102500008A06609182061C8A1B8A1A8219828E01B1
:102510000F5F1F4F9101C7010E94A80481110CC0D9
:1025200049815A816B897C8906E916E09E012A5E01
:102530003F4FC7010E9474072E893F892C33310514
:1025400040F4F901EA56F94F10822956394FD90162
:102550001C92811110C0809196068111B2CE80919B
:1025600097068111AECE809198068111AACE8091F6
:1025700099068111A6CEE0E0F0E0EF2B09F451CCF2
:102580000E940B01882309F44CCC0E94000049CC26
:10259000803C09F4D4CE803D09F4D1CE803B59F77C
:1025A000CECE8D3F40F4883F08F0C9CE815F8330A6
:1025B00008F4C5CEE0CF8E3F08F0C1CEDCCFA1E25B
:1025C0001A2EAA1BBB1BFD010DC0AA1FBB1FEE1FAD
:1025D000FF1FA217B307E407F50720F0A21BB30BF8
:1025E000E40BF50B661F771F881F991F1A9469F774
:1025F00060957095809590959B01AC01BD01CF01D0
:10260000089597FB072E16F4009407D077FD09D0A4
:102610000E94151307FC05D03EF4909581959F4FBD
:102620000895709561957F4F0895AA1BBB1B51E1DA
:1026300007C0AA1FBB1FA617B70710F0A61BB70B32
:10264000881F991F5A95A9F780959095BC01CD01D7
:102650000895EE0FFF1F0590F491E02D099481E09D
:1026600090E0F8940C943B13DC0101C06D93415051
:0A2670005040E0F70895F894FFCF02
:10267A00000000004101A100CE008E01FF00DD0034
:10268A00F100000000005906A1005C055B0500008E
:10269A000000590ADD03C202D903DA02E103D703B3
:0E26AA00DB03DF0300000000C0036B034903E5
:00000001FF
