:100000000C94F8000C9420010C9420010C94200115
:100010000C9420010C9420010C9420010C942001DC
:100020000C9420010C9420010C9420010C942001CC
:100030000C9420010C9420010C9420010C942001BC
:100040000C94AE0D0C9420010C947C0D0C94560D68
:100050000C9420010C9420010C9420010C9420019C
:100060000C9420010C9420010000000025002800C1
:100070002B000000000023002600290000000008DB
:10008000000201000003040700000000000000005F
:100090003C2D20636830312063633030302076613E
:1000A0006C303030002D3E20636830312063633087
:1000B00030302076616C303030006D6F64653A20EE
:1000C000706572666F726D000000000024002700EA
:1000D0002A000102040810204080010204081020B8
:1000E00001020408102004040404040404040202AD
:1000F00002020202030303030303536176656421D2
:1001000000526573657420436F6D706C6574652172
:1001100000596573204E6F0052657365743A204331
:100120006F6E6669726D3F00746F206465666175FD
:100130006C742073746174650070726573732055FC
:100140005020746F207265736574006D6F64653A3A
:100150002072657365740063757272656E742073C6
:100160007461746500707265737320555020746FEC
:100170002073617665006D6F64653A207361766502
:10018000006D696469203C2D206368303120636311
:100190003030300075736220202D3E20636830318E
:1001A000206363303030006D6F64653A20656469A8
:1001B00074003C2D20636830312063633030302080
:1001C00076616C303030002D3E2063683031206322
:1001D000633030302076616C303030006D6F646594
:1001E0003A20706572666F726D0030003000F80D55
:1001F00011241FBECFEFD8E0DEBFCDBF11E0A0E0DD
:10020000B1E0E6EBFCE202C005900D92A835B10723
:10021000D9F727E0A8E5B1E001C01D92AD30B207E3
:10022000E1F710E0C8EFD0E004C02197FE010E9482
:100230004C16C73FD107C9F70E94340F0C945916CA
:100240000C9400008CBD9DBD0895AF92BF92CF92DB
:10025000DF92EF92FF920F931F93CF93DF936C0186
:100260007B018B01040F151FEB015E01AE18BF0867
:10027000C017D10759F06991D601ED91FC91019019
:10028000F081E02DC6010995892B79F7C501DF9131
:10029000CF911F910F91FF90EF90DF90CF90BF9083
:1002A000AF900895FC01538D448D252F30E0842FAD
:1002B00090E0821B930B541710F0CF96089501978E
:1002C0000895FC01918D828D981761F0A28DAE0F7B
:1002D000BF2FB11D5D968C91928D9F5F9F73928F02
:1002E00090E008958FEF9FEF0895FC01918D828D2E
:1002F000981731F0828DE80FF11D858D90E00895FB
:100300008FEF9FEF0895FC01918D228D892F90E052
:10031000805C9F4F821B91098F739927089585E711
:1003200091E00E94830121E0892B09F420E0822FD3
:10033000089580E090E0892B29F00E948F018111BF
:100340000C9400000895FC01A48DA80FB92FB11DD5
:10035000A35ABF4F2C91848D90E001968F739927FB
:10036000848FA689B7892C93A089B1898C918370D9
:1003700080648C93938D848D981306C00288F389D2
:10038000E02D80818F7D80830895EF92FF920F93FF
:100390001F93CF93DF93EC0181E0888F9B8D8C8D31
:1003A00098131AC0E889F989808185FF15C09FB725
:1003B000F894EE89FF896083E889F98980818370E8
:1003C000806480839FBF81E090E0DF91CF911F9197
:1003D0000F91FF90EF900895F62E0B8D10E00F5FB8
:1003E0001F4F0F731127E02E8C8D8E110CC00FB68E
:1003F00007FCFACFE889F989808185FFF5CFCE0126
:100400000E94A301F1CFEB8DEC0FFD2FF11DE35AFC
:10041000FF4FF0829FB7F8940B8FEA89FB898081A8
:100420008062CFCFCF93DF93EC01888D8823B9F022
:10043000AA89BB89E889F9898C9185FD03C08081EF
:1004400086FD0DC00FB607FCF7CF8C9185FFF2CF6C
:10045000808185FFEDCFCE010E94A301E9CFDF911E
:10046000CF910895833081F028F4813099F0823063
:10047000A9F008958730A9F08830C9F08430B1F42C
:10048000809180008F7D03C0809180008F77809362
:100490008000089584B58F7784BD089584B58F7DDD
:1004A000FBCF8091B0008F778093B000089580914A
:1004B000B0008F7DF9CFCF93DF93282F30E0F90183
:1004C000E458FF4F8491F901EE52FF4FD491F901A6
:1004D000EA51FF4FC491CC23A1F081110E94320256
:1004E000EC2FF0E0EE0FFF1FEE58FF4FA591B491F7
:1004F000EC91ED2381E090E009F480E0DF91CF9171
:10050000089580E090E0FACF1F93CF93DF93282FD8
:1005100030E0F901E458FF4F8491F901EE52FF4FAA
:10052000D491F901EA51FF4FC491CC23A9F0162FC1
:1005300081110E943202EC2FF0E0EE0FFF1FE8590C
:10054000FF4FA591B4918FB7F894EC91111108C0A9
:10055000D095DE23DC938FBFDF91CF911F9108955B
:10056000DE2BF8CFCF93DF9390E0FC01EE52FF4FEC
:1005700024918A519F4FFC0184918823D1F090E00F
:10058000880F991FFC01E853FF4FA591B491FC011E
:10059000E859FF4FC591D49161110EC09FB7F894EF
:1005A0008C91E22FE0958E238C932881E223E883BF
:1005B0009FBFDF91CF9108958FB7F894EC91E22B14
:1005C000EC938FBFF6CF3FB7F89480915D01909187
:1005D0005E01A0915F01B091600126B5A89B05C0A6
:1005E0002F3F19F00196A11DB11D3FBFBA2FA92FB2
:1005F000982F8827BC01CD01620F711D811D911DAF
:1006000042E0660F771F881F991F4A95D1F708951A
:100610008F929F92AF92BF92CF92DF92EF92FF9212
:100620004B015C010E94E3026B017C010E94E3022A
:100630006C197D098E099F09683E734081059105FB
:10064000A8F321E0821A9108A108B10888EEC80E2B
:1006500083E0D81EE11CF11C81149104A104B104B3
:1006600029F7FF90EF90DF90CF90BF90AF909F90D1
:100670008F9008952FB7F8946091590170915A01A5
:1006800080915B0190915C012FBF0895CF93DF9320
:10069000EC018A819B81DC01ED91FC910480F58164
:1006A000E02D6C81099581E08E831C821F82C85ADF
:1006B000DF4F188280E0DF91CF910895FC018481A3
:1006C0000895DF92EF92FF920F931F93CF93DF93E2
:1006D000EC0185E0E62EF12CFE01869FE00DF11D78
:1006E0001124908596FF24C0192F177001E085E032
:1006F000D82E8FEF800F8F3008F001E0602F70E070
:10070000062FD69EF001D79EF00D1124EC0FFD1F91
:1007100080858695869586958770181701F16F5F9D
:100720007F4F603168F38D81811302C011501D83AA
:1007300085E08E9DF0018F9DF00D1124EC0FFD1FC3
:10074000108681E0818712862296D783C683DF9147
:10075000CF911F910F91FF90EF90DF900895CE0100
:100760000E946103C6CFFC0120812EBD9B01215058
:10077000310941F051810DB407FEFDCF4EB55EBD8C
:100780004193F5CF61507109860F971F0DB407FE95
:10079000FDCF2EB5FC0120830895FC0121E06134DA
:1007A00099F49C01255B3F4F61E0AC014E5F5F4FC8
:1007B0001586668717865487438735962E173F0719
:1007C000B9F7FC01158208953585631729F02F5F6D
:1007D00035962031C9F70895622F0C946103CF93A9
:1007E000DF93FC0167FD12C0283080F4442319F028
:1007F0008581873059F0EF01A1E0B0E08D85882335
:1008000049F111962596A031B105C1F780E018C0D5
:1008100085E08A9FE0018B9FD00D1124CE0FDF1F52
:10082000442389F081E4888785818F5F858325E073
:100830002A9FC0012B9F900D1124E80FF91F80857E
:10084000DF91CF91089581E08887F1CF2770687B91
:10085000622B0FC06623E1F26770660F660F660FAA
:100860004423A1F3606485818F5F85838770687FEF
:10087000682B25E02A9FC0012B9F900D1124E80FC3
:10088000F91F6087862FDCCFFC0121E0611102C0D7
:10089000069608953585631739F02F5F3596203118
:1008A000C9F790E080E00895069635E0239F800D1B
:1008B000911D1124089580E0089580E0089580E05E
:1008C000089580E0089581E0089508952A98089594
:1008D0002A9A089508950F931F93CF93DF9300D022
:1008E000CDB7DEB7182F062F80E591E00E942201D8
:1008F0000E946604126019830A8362E070E0CE01F0
:1009000001960E94B3030E9468040F900F90DF913C
:10091000CF911F910F9108958EBD00000DB407FE79
:10092000FDCF8EB50895FF920F931F93CF93DF9362
:10093000182FF62EEA0180E591E00E9422010E9424
:100940006604812F82600E948C040F2D10E0FF202E
:1009500021F0B801CE010E94B303C00FD11F0E9445
:100960006804CE01DF91CF911F910F91FF90089500
:10097000CF93C82F80E591E00E9422010E94660477
:100980008C2F0E948C0480E00E948C04C82F0E944F
:1009900068048C2FCF9108958F929F92AF92BF924F
:1009A000CF92DF92EF92FF920F931F93CF93DF933B
:1009B000882E962E5A010E943A036B017C0128E88A
:1009C000C20E23E1D21EE11CF11C10E000E0D0E0D9
:1009D000C0E098280E943A036C197D098E099F098E
:1009E00097FF1EC0692D80EF0E946B040E943A039E
:1009F0006C197D098E099F0997FF09C088EC0E9438
:100A0000B80487FFF3CF60E888EC0E946B0488EF9E
:100A10000E94B804C82FCF70C43081F0CE30B9F036
:100A20008C2FDF91CF911F910F91FF90EF90DF906E
:100A3000CF90BF90AF909F908F9008950F5F1F4F02
:100A4000A114B10439F20A151B0521F6E9CFDF5FC5
:100A5000D33009F0BFCFE4CFAF92BF92CF92DF92F5
:100A6000EF92FF920F931F93CF93DF93EC01B62E7B
:100A7000A42E69010E9444047C0186EDE114F10476
:100A800009F447C0D701ED91FC91119787ED30979C
:100A900009F43FC013969C9180E0981731F02081B3
:100AA000A21629F033968F5FF8CFF0E0E0E0D60190
:100AB000ED93FC938BED309761F12281269526957D
:100AC000203108F02FE081E090E0A0E0B0E004C029
:100AD000880F991FAA1FBB1F2A95D2F70197F8010B
:100AE000918380836B2D80EE0E946B0488ED0E94C1
:100AF000B804D70114969C91682F697F992329F037
:100B0000CA58DF4F68816260682B88ED0E946B04D1
:100B100080E0DF91CF911F910F91FF90EF90DF90D8
:100B2000CF90BF90AF90089588EF0E94B804807C6A
:100B30008034B1F018F4882301F10895803819F059
:100B4000803CC9F0089588ED0E94B80481FD0DC075
:100B500069EC88ED0E946B0482E080937401089533
:100B600088ED0E94B80481FDF3CF6BEC88ED0E9404
:100B70006B0483E0F2CF81E0F0CF61ED88ED0E945D
:100B80006B04109274010895CF93DF93EC01888178
:100B90000E945B02892B39F48981813021F419820A
:100BA000DF91CF91089588810E945B02019729F41B
:100BB0008981811102C081E0898380E0F1CF0895AD
:100BC00090E080E00895CF92DF92FF920F931F9301
:100BD000CF93DF93F62E01E0C82FD0E0CC0FDD1FBE
:100BE000CD57D94F6E0188819981DC01ED91FC913F
:100BF0000280F381E02D2F2D40E060E00995182F51
:100C0000803E49F561E088EE0E946B0466E670E084
:100C100080E090E00E940803F60180819181DC0170
:100C2000ED91FC910190F081E02D2F2D40E060E0EE
:100C30000995182F8D3041F58FEF800F833088F0A4
:100C400061E088EE0E946B0466E670E080E090E070
:100C50000E94080310C08D3061F48FEF800F833045
:100C600050F464E670E080E090E00E9408030F5FBB
:100C7000BACF882389F2812FDF91CF911F910F91F5
:100C8000FF90DF90CF9008958823A9F3D9CFCF9319
:100C9000DF93EC0160E08E810E94840261E08E812E
:100CA0000E94840260E08E810E9484028BE891E0C1
:100CB0000197F1F7DF91CF910895CF92DF92EF92F4
:100CC000FF920F931F93CF93DF936C017C0187E01A
:100CD000E80EF11CD0E0C0E0062F10E0B8010C2EA9
:100CE00002C0759567950A94E2F76170F7018191EA
:100CF0007F010E9484022196C430D10579F7C60194
:100D0000DF91CF911F910F91FF90EF90DF90CF90E7
:100D10000C944706CF92DF92EF92FF920F931F93AE
:100D2000CF93DF93EC01F62E642F8C810E94840216
:100D30008D818F3F19F060E00E9484020F2D10E03A
:100D40008F8584FF25C06E0187E0C80ED11CF12C71
:100D5000E12CB8010E2C02C0759567950A94E2F754
:100D60006170F60181916F010E948402FFEFEF1A1A
:100D7000FF0A88E0E816F10461F7CE01DF91CF9118
:100D80001F910F91FF90EF90DF90CF900C9447064A
:100D9000B80184E0759567958A95E1F7CE010E94C8
:100DA0005D066F2DCE01DF91CF911F910F91FF90C6
:100DB000EF90DF90CF900C945D0641E00E948A0690
:100DC00081E090E008950F931F93CF93DF938C0100
:100DD000D0E0C0E0F801EC0FFD1F6491662339F00C
:100DE00041E083E196E00E948A062196F3CFCE018E
:100DF000DF91CF911F910F910895DF92EF92FF92B3
:100E00000F931F93CF93DF93EC01E62EF12C01E0BB
:100E100010E09AE0D92E2F2D30E082E0E8120DC0CC
:100E200081E090E02817390794F4209749F48CEE7C
:100E300091E00E94E306F394EECF82E090E0F2CFDF
:100E4000C801D89E8001D99E100D1124F4CF20979F
:100E500091F0015011098AE0F82EC017D1075CF417
:100E60008AEE91E00E94E306CE01F89EE001F99E31
:100E7000D00D1124F2CFDF91CF911F910F91FF90F0
:100E8000EF90DF90089540E00C948A0661E083E1E2
:100E900096E00E9443078BE39FE10197F1F70895E5
:100EA000CF93DF93613029F0909122069860909360
:100EB0002206609326061092270690E49093280657
:100EC00080932906805C80932A0661E08091170652
:100ED0000E94B202809118068F3F19F061E00E94D3
:100EE000B20261E0809119060E94B202C3E1D6E02D
:100EF0009E01235136408091220684FD0BC084E080
:100F000090E021962817390744F461E08E810E9411
:100F1000B202EECF88E090E0F4CF8BE39DE0019742
:100F2000F1F760E0809117060E94840260E08091F2
:100F300019060E948402809118068F3F19F060E024
:100F40000E9484026091220664FD3AC063E083E15E
:100F500096E00E945D06CBE4D6E4CE010197F1F75E
:100F600063E083E196E00E945D062197F1F763E07C
:100F700083E196E00E945D0683E592E00197F1F738
:100F800062E083E196E00E945D0660912206606265
:100F900083E196E00E94430784E0809323066CE09F
:100FA00083E196E00E9443070E94460782E0809317
:100FB000240666E083E196E0DF91CF910C9443072D
:100FC000606283E196E00E9443078BE496E4019718
:100FD000F1F760912206606283E196E00E94430788
:100FE00083E592E00197F1F760912206606283E168
:100FF00096E00E944307C9CF443008F043E0FC016B
:101000002389421710F04FEF420FFC01E40FF11D4E
:101010002489620F60680C944307CF93C82F0E9405
:101020004607C23009F470C080F5C13009F44FC0E2
:1010300040E060E083E196E00E94FC078CED91E0E7
:101040000E94E30642E060E083E196E00E94FC0734
:1010500087EC91E00E94E30643E060E083E196E0E4
:101060000E94FC0782EB91E00E94E306E0912B06D0
:1010700084E0E89FF0011124EB5FFE4F4181608125
:1010800083E196E0CF910C94FC07C33009F459C07A
:10109000C43071F60E94460740E062E083E196E0CA
:1010A0000E94FC0788E191E00E94E30642E065E0CF
:1010B00083E196E00E94FC0781E191E00E94E30653
:1010C00042E069E083E196E00E94FC07CFCF40E078
:1010D00060E083E196E00E94FC0787EA91E00E94CD
:1010E000E30642E060E083E196E00E94FC0784E9C9
:1010F00091E00E94E30643E060E083E196E00E9415
:10110000FC0781E891E0B0CF40E060E083E196E049
:101110000E94FC0786E791E00E94E30642E060E05F
:1011200083E196E00E94FC0785E691E00E94E306D9
:1011300043E060E083E196E00E94FC0787E591E0F0
:1011400093CF40E060E083E196E00E94FC078BE4EF
:1011500091E00E94E30642E060E083E196E00E94B5
:10116000FC0789E391E00E94E30643E060E083E14D
:1011700096E00E94FC0788E291E076CF2F923F92A2
:101180004F925F926F927F928F929F92AF92BF9297
:10119000CF92DF92EF92FF920F931F93CF93DF9343
:1011A0007B013A016901F901A080B180FB01318026
:1011B000F90111821082FB01828160E181FD60E210
:1011C00088EE0E946B042A2CA301F701608180E065
:1011D0000E94CC04582EF6E08F1310C088EF0E94B6
:1011E000B804F70192819D7F84FF9260928360E151
:1011F00091FD60E288EE0E946B04E6CF811150C041
:1012000088EC0E94B80482FF5FC080E30E94B804AB
:10121000482E8A151B0411F008F0422CF60180813B
:101220009181E501C81BD90BD7FF02C0D0E0C0E017
:10123000842C912C8C169D060CF4E40180E591E041
:101240000E9422010E94660488E00E948C04AE0184
:1012500070E060E0C8010E945216209721F0BE01A4
:10126000C8010E94B3030C0F1D1F0E94680464E0B4
:1012700088EC0E946B04F60180819181880E991E92
:1012800091828082431420F08A149B0408F49CCF3E
:1012900088EF0E94B804F701928184FB91F9928350
:1012A000852DDF91CF911F910F91FF90EF90DF90EF
:1012B000CF90BF90AF909F908F907F906F905F90F6
:1012C0004F903F902F90089580EF582EE9CF2F92A6
:1012D0003F924F925F926F927F928F929F92AF92C6
:1012E000BF92CF92DF92EF92FF920F931F93CF9313
:1012F000DF93CDB7DEB763970FB6F894DEBF0FBEAE
:10130000CDBF3C01542E422E302E1E861D861C86DB
:101310001B868E01055F1F4F9E01235F3F4F40E0FC
:101320000E942C05F82E8111D0C059824A823B823E
:10133000EC821E821D82D886CF82AE014F5F5F4F46
:1013400068E080E20E9493044B855C8560E080E168
:101350000E94CC04811116C181149104B1F10D8554
:101360001E85F801828157FE36C082608283EE249A
:10137000E394C114D10409F40AC1BA86A9864B8545
:101380005C856D857E8584019E01275F3F4FC3018B
:101390000E94BE08F82EF6E08F130EC088EF0E9460
:1013A000B804ED85FE8585FB882780F98E2592811E
:1013B00080FB91F99283DDCF811187C089859A8561
:1013C000C81AD90A8A159B05A0F64B855C8557FE7D
:1013D000D5C080EAD4C081608283E1808FEF8E0D1A
:1013E000803408F0D1C08B859C85988B8F870E94B4
:1013F0003A031B012C01E8E82E0EE3E13E1E411CDE
:10140000511CF801828160E880FF60E488EE0E9450
:101410006B04F12C8E2D90E09A8B898BA114B10472
:1014200009F446C0C988DA88AC14BD0408F4650123
:10143000CB8AA4016C2D80E10E9493046C2D88E37B
:101440000E946B04F8016081606280EF0E946B046F
:1014500088EC0E94B80487FFFBCF60E888EC0E940C
:101460006B0488EF0E94B8048F70F82EE12C712C69
:10147000612CFF2009F443C00E943A0362197309EA
:101480008409950997FF3BC0F6E0FF1609F462C096
:101490002EE0F216C9F184E0F8120AC09FEF691A33
:1014A000790AEF85F889309799F1E615F70581F506
:1014B00088EF0E94B804F801928185FB90F992832D
:1014C0004B855C85FF2009F459C08F2D63960FB6BC
:1014D000F894DEBF0FBECDBFDF91CF911F910F916A
:1014E000FF90EF90DF90CF90BF90AF909F908F9044
:1014F0007F906F905F904F903F902F900895AC1821
:10150000BD088C0C9D1C8ACFE394F3E0EF1681F2AA
:1015100060E088E30E946B04F401608180E10E9436
:101520006B046B8988E30E946B04F8016081606240
:1015300080EF0E946B0488EC0E94B80487FFFBCF09
:1015400060E888EC0E946B0488EF0E94B8048F70FA
:10155000F82E8FCF88EF0E94B80485FB882780F98A
:1015600021E08227F801928180FB90F9928360E864
:1015700090FF60E488EE0E946B04CACF80E860E0D0
:101580000E94CC04F82EA1CF8AEDF82E9ECF4B8579
:101590005C85FF2009F41DCF98CF8F929F92AF9268
:1015A000BF92CF92DF92EF920F93CF93912C812C29
:1015B000B12CA12CD12CC12CE12C062F25E040E030
:1015C00060E00E946709C82F6CE271E080E090E063
:1015D0000E9408038C2FCF910F91EF90DF90CF9056
:1015E000BF90AF909F908F9008954F925F926F92AF
:1015F0007F928F929F92AF92BF92CF92DF92EF92A3
:10160000FF920F931F93CF93DF93CDB7DEB7DA9599
:101610000FB6F894DEBF0FBECDBF3C01162FF42EDF
:10162000CE0101964C01A4E0AA2EB12CB4E0CB2E41
:10163000D12C02E0E02E042F26E040E8D3011296E0
:101640008D919C910E946709811166C04B805C80DE
:10165000B1E04B165B0618F0412C55245394FE0163
:1016600031964F0152016201E2E0EE2E0F2D26E08D
:1016700040E8612FD30112968D919C910E946709D9
:1016800081114AC040E0F401480C591CE415F505ED
:1016900008F042C050819181943059F09530A1F00A
:1016A000923021F49581D30115969C93E50FF11D9D
:1016B000EDCF9581913071F52681233059F5D30115
:1016C00018969C9341E0F2CF93819370923071F71A
:1016D00092814423D1F021E097FF22E0648130E041
:1016E000D901AA0FBB1FA20FB31FA60DB71D9F7074
:1016F00019969C9319971A966C93D30116969C9100
:1017000016979F5F16969C93D1CF23E097FDE6CF67
:1017100024E0E4CF40E0CACFD3950FB6F894DEBF03
:101720000FBECDBFDF91CF911F910F91FF90EF9032
:10173000DF90CF90BF90AF909F908F907F906F90F1
:101740005F904F9008952F923F924F925F926F92C9
:101750007F928F929F92AF92BF92CF92DF92EF9241
:10176000FF920F931F93CF93DF93CDB7DEB76797A9
:101770000FB6F894DEBF0FBECDBFFC0181E88487B1
:10178000158686858E7F8D7F868731E03787108A24
:1017900081898E7F8D7F818B848109ED811113C0BA
:1017A000122F4F8BF62E3F0142805380D201ED91D4
:1017B000FC910190F081E02D60E0C20109951C01CF
:1017C0000097D9F406ED802F67960FB6F894DEBF28
:1017D0000FBECDBFDF91CF911F910F91FF90EF9082
:1017E000DF90CF90BF90AF909F908F907F906F9041
:1017F0005F904F903F902F900895FC010190F081F1
:10180000E02DFE8BED8B07EDEF2BE9F29301275FC7
:101810003F4F3C8B2B8BDC0111963C932E931496FF
:101820001C93FE0131964F0182E1A82EB12C92E16A
:10183000C92ED12CEE24E39400E026E040E860E0DD
:10184000D30112968D919C910E946709082F89857A
:101850009A85F301E55AFF4F918380838B859C85A0
:101860003297918380832D893E89F10131832083D2
:101870000111ABC0D201ED91FC910280F381E02D0A
:101880002F8940E06F2DC2010995F301848304ED97
:10189000882309F498CF98859287682F8281938155
:1018A0000E94CD0A082FD201ED91FC91D10114962E
:1018B0001C92882359F00480F581E02DD301149601
:1018C0006C91C2010995F30114827DCF0190F081E2
:1018D000E02DD30114966C91C2010995009709F48B
:1018E00071CFFC011483D30112968D919C911397B3
:1018F00014961C91EB89FC89EF2B09F465C0612FCC
:101900000E944404FC01892B09F468C0FA88128300
:101910002B893C893183208331E03383D3011896AE
:101920001C9210E01F1581F0412FF3016481C30167
:101930000E94F50A082F811148C0D30116968C9198
:10194000823010F41F5FEECFF3018681823008F4FD
:1019500047C08085811108C08289848783898587F3
:10196000858987878689808BD30114961C9114976B
:10197000612F12968D919C910E944404FC01892B49
:1019800039F012832B893C893183208383E0838360
:10199000912C812CB12CA12CD12CC12CE12CD30168
:1019A00015960C91159729E040E014966C911497C8
:1019B00012968D919C910E946709082F811105C094
:1019C00081E0F3018783FFCE08EDD301ED91FC9117
:1019D0000480F581E02DC3010995F5CE06EDF5CF24
:1019E0000FEFF3CF8F929F92AF92BF92EF92FF9241
:1019F0000F931F93CF93DF93CDB7DEB7A1970FB6A9
:101A0000F894DEBF0FBECDBF7C01FA01CB0119A255
:101A1000223008F42AE08E010F5D1F4F822E912C98
:101A2000B12CA12CBF01A50194010E940216F9015D
:101A3000CA016A304CF5605DD8016E938D01232B8D
:101A4000242B252B79F790E080E0109761F0FD01C1
:101A500001900020E9F73197AF014A1B5B0BBD01F4
:101A6000C7010E942501A1960FB6F894DEBF0FBEF4
:101A7000CDBFDF91CF911F910F91FF90EF90BF905D
:101A8000AF909F908F900895695CD6CF462F50E01D
:101A900070E060E02AE00C94F20CAC01990F660B48
:101AA000770B2AE083E196E00C94F20C1F920F92E0
:101AB0000FB60F9211242F933F934F935F936F9321
:101AC0007F938F939F93AF93BF93EF93FF9385E79C
:101AD00091E00E94A301FF91EF91BF91AF919F917F
:101AE0008F917F916F915F914F913F912F910F90C7
:101AF0000FBE0F901F9018951F920F920FB60F9266
:101B000011242F938F939F93EF93FF93E09185017F
:101B1000F09186018081E0918B01F0918C0182FD32
:101B20001BC0908180918E018F5F8F7320918F01F8
:101B3000821741F0E0918E01F0E0EB58FE4F958F57
:101B400080938E01FF91EF919F918F912F910F9034
:101B50000FBE0F901F9018958081F4CF1F920F92A7
:101B60000FB60F9211242F933F938F939F93AF93B0
:101B7000BF938091590190915A01A0915B01B0915E
:101B80005C013091580123E0230F2D3758F5019661
:101B9000A11DB11D209358018093590190935A01C2
:101BA000A0935B01B0935C0180915D0190915E0117
:101BB000A0915F01B09160010196A11DB11D8093BC
:101BC0005D0190935E01A0935F01B0936001BF91AE
:101BD000AF919F918F913F912F910F900FBE0F90DA
:101BE0001F90189526E8230F0296A11DB11DD2CF94
:101BF000CF93109278011092770188EE93E0A0E0E5
:101C0000B0E08093790190937A01A0937B01B09327
:101C10007C018DE191E0909376018093750185ECD4
:101C200090E0909382018093810184EC90E0909306
:101C300084018093830180EC90E0909386018093EF
:101C4000850181EC90E0909388018093870182EC7C
:101C500090E090938A018093890186EC90E09093C4
:101C60008C0180938B0110928E0110928F01109243
:101C700090011092910183E180930B0760E00E9434
:101C8000B202C1E0C0930C0782E18093090760E0D3
:101C90000E94B202C0930A0780E18093070760E0C8
:101CA0000E94B202C093080781E18093050760E0BB
:101CB0000E94B202C093060781E591E090932E0640
:101CC00080932D0610923506C09336061092370683
:101CD0008FE296E0909334068093330610922F069D
:101CE00088E0809330068CE38093310610923206B0
:101CF000EDE2F6E081E02FE236E015868687178672
:101D000034872387359696E0E837F907B1F71092C4
:101D1000A30691E1909312022BE331E03093A506E4
:101D20002093A4062DE236E03093A7062093A60662
:101D30001092A8068093AA061092AB061092AC06E9
:101D40001092FC061092AD0688E08093AE0680915A
:101D5000AF0683708C638093AF061092B00610922A
:101D6000B1068091B206837084608093B2061092AF
:101D7000B3061092B4068091B50683708460809398
:101D8000B5061092B6061092B7068091B806837019
:101D900084608093B8061092B9061092BA068091BA
:101DA000BB06837084608093BB06E3E8F6E090E0B6
:101DB00080E021913191232B09F050C0880F991FA9
:101DC000FC01ED57F94F84EA96E09183808380EB24
:101DD0008093040710921606109215068FE291E088
:101DE000909314068093130687E0809317068FEF75
:101DF0008093180686E08093190685E080931A0682
:101E000084E080931B0683E080931C0682E080932D
:101E10001D0610921E0610921F06109220061092A8
:101E200021061092220661E080E10E9450078FE2B5
:101E300091E0909314068093130610922B06109253
:101E40002C06E3E1F2E090E080E08193919301962B
:101E5000811522E09207C9F7CF910895019680314C
:101E6000910509F0A6CFB3CFCF93DF93CDB7DEB7FF
:101E700067970FB6F894DEBF0FBECDBF789484B5D8
:101E8000826084BD84B5816084BD85B5826085BD76
:101E900085B5816085BD80916E00816080936E0004
:101EA00010928100809181008260809381008091F6
:101EB00081008160809381008091800081608093A7
:101EC00080008091B10084608093B1008091B00067
:101ED00081608093B00080917A00846080937A0062
:101EE00080917A00826080937A0080917A0081608C
:101EF00080937A0080917A00806880937A001092B3
:101F0000C100E0918501F091860182E08083E0913B
:101F10008101F09182011082E0918301F0918401AE
:101F20008FE3808310928D01E0918901F0918A0105
:101F300086E08083E0918701F09188018081806153
:101F40008083E0918701F09188018081886080839F
:101F5000E0918701F0918801808180688083E09121
:101F60008701F091880180818F7D808364E084E126
:101F70000E94500740E060E083E196E00E94FC0789
:101F80008AEB90E00E94E30642E060E083E196E0A5
:101F90000E94FC0785EA90E00E94E30643E060E0CF
:101FA00083E196E00E94FC0780E990E00E94E3064E
:101FB00060912306862F8260809323066A6083E106
:101FC00096E00E94430760912306862F81608093EC
:101FD0002306696083E196E00E944307229A0E94EB
:101FE00068041FB7F89480916101811127C0E0EF68
:101FF000F0E08491ECEDF0E09491E82FF0E0EE0F4A
:10200000FF1FE853FF4FA591B491EC91E92321F410
:1020100061E08AE00E94840261E08AE00E94B202EC
:102020008CB580618CBD8CB580648CBD61E08DE029
:102030000E94B20261E08BE00E94B20280916101D5
:102040008F5F809361011FBF229A0E9468042198CC
:1020500068E188E80E946B0460E288E70E946B04F4
:1020600060E088E70E946B0410E000E088E60E94D0
:10207000B8040F5F1F4F80FF4EC061EC88ED0E94D7
:102080006B0460E680ED0E946B0464E088EE0E94C1
:102090006B0488EE0E94B80482FFFBCF0E94940577
:1020A00060E288EC0E946B0461E080E80E946B04AF
:1020B00068EC70E080E090E00E9408031E0133E1CC
:1020C000230E311C0E943A036093700170937101DA
:1020D000809372019093730183B1182F127081FD68
:1020E0000CC088EC0E94B80485FF03C00E949405D0
:1020F00010E2612F88EC0E946B04809174018130A2
:1021000009F461C008F463C0823051F0833009F4EF
:1021100068C010E01CC00F3F100709F0A7CFFFCF29
:1021200010E080911202807F803189F40E943A038E
:1021300068537F4F8F4F9F4F60936201709363018D
:102140008093640190936501A0E2A093120273E86A
:10215000672E76E0772E7301F701819191917F01CF
:10216000009739F0DC01ED91FC910680F781E02DBC
:102170000995E3EAF6E0EE15FF0571F7809112028A
:10218000803409F465C078F5803209F44BC080339F
:1021900009F458C0813109F06BC01092A306D30135
:1021A0008D919D913D01009739F0DC01ED91FC91FD
:1021B0000480F581E02D0995E614F70481F782E1AA
:1021C0008093120255C083E180931202A2CF8091C6
:1021D0001202807F803109F49CCF91E1909312022A
:1021E00098CF11E09ECF813509F4D1C1803809F430
:1021F000E1C18035E9F588EC0E94B80486FF38C05B
:1022000081E5809312020E943A036C5E7F4F8F4FEC
:102210009F4F609362017093630180936401909378
:10222000650126C00E943A0300916201109163018A
:102230002091640130916501601B710B820B930B3F
:1022400097FD16C061E088EE0E946B0480E4B8CF71
:1022500088EE0E94B80480FD0BC088ED0E94B8048F
:10226000682F686088ED0E946B04B0E5B09312029D
:102270008BE097E00E94C405882361F080916F0194
:1022800090E001968370992780936F0180932B06CD
:102290000E940D0889E097E00E94C405882359F147
:1022A00040E060E083E196E00E94FC0760916F01EE
:1022B00083E196E00E94460D20912B0630E080914C
:1022C0002C0690E00196F901E050FF4F608170E02C
:1022D0000E94241680932C06F901EE0FFF1FE80FD1
:1022E000F91FEE0FFF1FEB5FFE4F4181608183E11D
:1022F00096E00E94FC0787E097E00E94C4058823CF
:1023000051F010916F01123009F4FEC208F04DC275
:10231000113009F46FC285E097E00E94C40588235C
:1023200009F448C080916F01813009F043C0809169
:102330002C0681110CC380916E01E0E88E9F900104
:10234000112480916D01820F932F911D880F991F89
:10235000FC01ED5EFD4F60817181603871050CF00C
:10236000F3C260587E4F8D5E9D4FDC016D937C9370
:1023700077FF02C061587F4F660F672F661F770B8C
:1023800011E0160F62E0812F90E00E94FD06612FA0
:1023900083E196E00E94460DE0912B06B4E0EB9FAE
:1023A000F0011124EB5FFE4F4181608183E196E0F3
:1023B0000E94FC0780911202803909F052C380917B
:1023C000AB06882309F44DC3E091FC068FEF8E0F16
:1023D0008F3308F0FFC2F0E0EC55F94F808D882371
:1023E00009F4F5C2E091FC06AE2FB0E0AC55B94F50
:1023F00058968C91A1E0AE0FB0E0AC55B94F58960D
:102400009C9190930107A2E0AE0FB0E0AC55B94F9C
:1024100058962C912093020734E03E0F3093FC062F
:10242000ED5FF0E0EC55F94F108D10930307382F56
:102430003C70343021F48F708450843088F0892FC0
:10244000903F08F4807F803E59F008F0CDC3803A79
:1024500039F008F0BFC3803819F0803909F001C3A2
:1024600080910407981B90936E0120936D01109347
:102470006C0130E8939FF0011124E20FF11DEE0F83
:10248000FF1FED5EFD4F808191816C0197FF03C0BE
:10249000AFE7CA0ED11CCC0CCD2CCC1CDD08C092F1
:1024A0006B0160E870E00E942416F82E80936A01A8
:1024B00060EB6C0D85E791E00E94C5016F2D85E70B
:1024C00091E00E94C501612F85E791E00E94C5015E
:1024D00080916F01813009F0C4C286011127E0901C
:1024E0006D01C0906E0180912B0690E0E0912C066A
:1024F000880F991FE80FF92FF11DEE0FFF1FEB5FFB
:10250000FE4FB080A18042E06AE083E196E00E9445
:10251000FC07D12C62E0C6010E94FD06C6010196AF
:102520000E944D0D42E06FE083E196E00E94FC07BF
:1025300063E08E2D90E00E94FD066E2D83E196E013
:102540000E94460D43E06AE083E196E00E94FC07AA
:1025500062E0C8010E94FD06C80101960E944D0D6F
:1025600043E06FE083E196E00E94FC0763E08F2D7B
:1025700090E00E94FD066F2D83E196E00E94460DDB
:102580004A2D6B2D83E196E00E94FC076AC20E94EF
:102590003A03C0906201D0906301E0906401F09032
:1025A00065016C197D098E099F0997FD61CE80E850
:1025B000809312021B8AE8E0EC8B8CE38D8B4090B9
:1025C000330650903406309234062092330610932E
:1025D00037069E012F5F3F4F490152E1A52EB12CD6
:1025E00062E1C62ED12CEE24E39400E026E040E820
:1025F00060E08DE296E00E946709082F5092340651
:1026000040923306811150C0C984DA84AB84BC8403
:102610004D809E8043E8E42E46E0F42E512CD701F5
:102620008D919C91009709F041C05394B2E0EB0E5C
:10263000F11CE0E15E12F3CFF301808191810097FC
:1026400009F076C00F5FF2E06F0E711C0031A1F748
:102650008091330690913406892B09F459C0109368
:10266000370620E040E060E08DE296E00E94EF0354
:10267000F82E882309F44CC0682F8DE296E00E9462
:102680004404009709F444C0FC0114836F2D8DE2CB
:1026900096E00E94CD0A082F882309F484C06F2D8C
:1026A0008DE296E00E94CD03802F2FC0DC01ED91DA
:1026B000FC910084F185E02D09958111B6CFF701D9
:1026C00080819181DC01ED91FC910088F189E02D00
:1026D000692D0995882309F4A8CFF701808191819C
:1026E000DC01ED91FC910484F585E02DA501B60196
:1026F0000995882379F0612F852D0E94E305813D9E
:1027000009F493CF882309F44EC0823D09F4B0CD7B
:1027100080EA56CDF70180819181DC01ED91FC9139
:102720000684F785E02D642D09958111E4CF7DCFD6
:10273000DC01ED91FC910084F185E02D099581117A
:1027400081CFF30180819181DC01ED91FC910088C2
:10275000F189E02D692D0995811109C0612F802F24
:102760000E94E305982F977F913D61F66BCFF301AF
:1027700080819181DC01ED91FC910484F585E02D4F
:10278000A501B601099581115DCFF3018081918189
:10279000DC01ED91FC910684F785E02D642D09950F
:1027A0008823E1F24FCF80E90BCD133009F4C4C088
:1027B000143009F0B0CD80912C068111C3C00E9465
:1027C000460742E062E083E196E00E94FC0781E078
:1027D00091E00E94E30668EE73E080E090E00E94E2
:1027E000080313E010932B0683E00E940D0810935A
:1027F0006F0191CD80912C06811143C080916E01B3
:10280000F0E88F9F9001112480916D01820F932F2A
:10281000911D880F991FFC01ED5EFD4F6081718154
:10282000603821E0720754F16F7777278D5E9D4FF6
:10283000DC016D937C9377FF02C061587F4F660F78
:10284000672F661F770B11E0160F62E0812F90E073
:102850000E94FD06612F83E196E00E94460DE09103
:102860002B06B4E0EB9FF0011124EB5FFE4F41819A
:10287000608183E196E00E94FC074DCD60587F4F58
:10288000D5CF813009F047CD40916E01E0E84E9FF1
:10289000C001112440916D01480F592F511D440F63
:1028A000551FFA01ED5EFD4F20813181C90101966E
:1028B00037FF02C021583F4F20783F7720583F4FC5
:1028C000821793071CF0C901805891094D5E5D4F36
:1028D000DA018D939C9360E870E00E942416182F13
:1028E00063E090E00E94FD06612F83E196E00E9484
:1028F000460DE0912B06B4E0EB9FF0011124EB5F55
:10290000FE4F43816281B5CF0E94460742E065E0F9
:1029100083E196E00E94FC078AEF90E00E94E306C4
:1029200068EE73E080E090E00E94080310932B06AD
:1029300082E00E940D08EFCC84E080936F018093C9
:102940002B06F7CF83E0F9CF605871090CCD8130A9
:1029500009F030CD20916E01E0E82E9FC0011124D6
:1029600020916D01280F392F311D220F331FF901DE
:10297000ED5EFD4F80819181AC0197FF02C041580F
:102980005F4F40785F7748175907FCF0CA018158BC
:102990009F4F2D5E3D4FD9018D939C938C010F77F6
:1029A000112763E0C8010E94FD06602F83E196E0D5
:1029B0000E94460DE0912B06B4E0EB9FF00111243C
:1029C000EB5FFE4F43816281F1CC0197E2CF818DB5
:1029D000811108CD1092FC068091B10690E09F8B8A
:1029E0008E8BE090A606F090A7064091B00660910D
:1029F000A8061C8A1B8A1A8219828E010F5F1F4F3C
:102A00009101C7010E942C0581110CC049815A8196
:102A10006B897C890CEB16E09E012A5E3F4FC70153
:102A20000E94BE082E893F892C33310540F4F901FC
:102A3000E454F94F10822354394FF9011082811167
:102A400010C08091BC068111CDCC8091BD06811152
:102A5000C9CC8091BE068111C5CC8091BF06811181
:102A6000C1CC8091700190917101A0917201B091DF
:102A70007301409166015091670160916801709106
:102A80006901841B950BA60BB70B85369105A10533
:102A9000B10508F492C080916F0181118EC0C09081
:102AA0006A0100916B01D0906C0110916D01E09072
:102AB0006E0180912B0690E0E0912C06880F991F03
:102AC000E80FF92FF11DEE0FFF1FEB5FFE4FB080F7
:102AD000A18042E065E083E196E00E94FC07F12CD2
:102AE00062E0C7010E94FD06C70101960E944D0DDC
:102AF00042E06AE083E196E00E94FC0763E0812FF8
:102B000090E00E94FD06612F83E196E00E94460D51
:102B100042E061E183E196E00E94FC07ED2CF12C9C
:102B200063E0C7010E94FD066D2D83E196E00E94DF
:102B3000460D43E065E083E196E00E94FC0710E06B
:102B400062E0C8010E94FD06C80101960E944D0D79
:102B500043E06AE083E196E00E94FC0763E08C2D8D
:102B600090E00E94FD066C2D83E196E00E94460DE8
:102B700043E061E183E196E00E94FC0763E0C70166
:102B80000E94FD066D2D83E196E00E94460D4A2DC0
:102B90006B2D83E196E00E94FC078091700190917B
:102BA0007101A0917201B0917301809366019093BD
:102BB0006701A0936801B0936901E0E0F0E0EF2BBA
:102BC00009F480CA0E948F01882309F47BCA0E94FD
:102BD000000078CA803C09F443CC803D09F440CC25
:102BE000803B09F03ECF3CCC8D3F40F4883F08F05D
:102BF00037CC815F833008F433CC33CF8E3F08F07D
:102C00002FCC2FCFA1E21A2EAA1BBB1BFD010DC09A
:102C1000AA1FBB1FEE1FFF1FA217B307E407F5078C
:102C200020F0A21BB30BE40BF50B661F771F881F68
:102C3000991F1A9469F760957095809590959B01FE
:102C4000AC01BD01CF01089597FB072E16F4009447
:102C500007D077FD09D00E94381607FC05D03EF456
:102C6000909581959F4F0895709561957F4F089538
:102C7000AA1BBB1B51E107C0AA1FBB1FA617B707A2
:102C800010F0A61BB70B881F991F5A95A9F78095BE
:102C90009095BC01CD010895EE0FFF1F0590F491B2
:102CA000E02D0994DC0101C06D9341505040E0F7E4
:062CB0000895F894FFCF27
:102CB6000202020202000000000A030F03060206D7
:102CC60002060206020502090200000000C50125EF
:102CD600015201120283016101750100000000DD4D
:102CE600062501E005DF0500000000A30B61044690
:102CF600035D045E0365045B045F04630400000077
:082D0600004404EF03CD0300BB
:00000001FF
