:020000040000FA
:100000000C94F8000C9420010C9420010C94200115
:100010000C9420010C9420010C9420010C942001DC
:100020000C9420010C9420010C9420010C942001CC
:100030000C9420010C9420010C9420010C942001BC
:100040000C94A4110C9420010C9472110C944C117A
:100050000C9420010C9420010C9420010C9420019C
:100060000C94EE110C9420010000000025002800E3
:100070002B000000000023002600290000000008DB
:10008000000201000003040700000000000000005F
:100090003C2D20636830312063635F5F5F207661B1
:1000A0006C5F5F5F002D3E20636830312063635FCB
:1000B0005F5F2076616C5F5F5F006D6F64653A2003
:1000C000706572666F726D000000000024002700EA
:1000D0002A000102040810204080010204081020B8
:1000E00001020408102004040404040404040202AD
:1000F00002020202030303030303536176656421D2
:1001000000526573657420436F6D706C6574652172
:1001100000596573204E6F0052657365743A204331
:100120006F6E6669726D3F00746F206465666175FD
:100130006C742073746174650070726573732055FC
:100140005020746F207265736574006D6F64653A3A
:100150002072657365740063757272656E742073C6
:100160007461746500707265737320555020746FEC
:100170002073617665006D6F64653A207361766502
:10018000006D696469203C2D2063685F5F206363B4
:100190005F5F5F0075736220202D3E2063685F5FA4
:1001A0002063635F5F5F006D6F64653A206564691B
:1001B00074003C2D20636830312063635F5F5F20F3
:1001C00076616C5F5F5F002D3E2063683031206395
:1001D000635F5F5F2076616C5F5F5F006D6F64657A
:1001E0003A20706572666F726D00300030000D133A
:1001F00011241FBECFEFD8E0DEBFCDBF25E0AAE6B9
:10020000B1E001C01D92A83FB207E1F711E0A0E004
:10021000B1E0E6EAF7E302C005900D92AA36B10715
:10022000D9F710E0C8EFD0E004C02197FE010E948A
:10023000C41BC73FD107C9F70E949D140C94D11B62
:100240000C940000089508958CBD9DBD0895809183
:10025000DC029091DD02891B990B0895AF92BF9249
:10026000CF92DF92EF92FF920F931F93CF93DF9382
:100270006C017B018B01040F151FEB015E01AE18B1
:10028000BF08C017D10759F06991D601ED91FC91D3
:100290000190F081E02DC6010995892B79F7C50100
:1002A000DF91CF911F910F91FF90EF90DF90CF9052
:1002B000BF90AF900895FC01538D448D252F30E001
:1002C000842F90E0821B930B541710F0CF96089563
:1002D00001970895FC01918D828D981761F0A28D90
:1002E000AE0FBF2FB11D5D968C91928D9F5F9F7356
:1002F000928F90E008958FEF9FEF0895FC01918D0C
:10030000828D981731F0828DE80FF11D858D90E078
:1003100008958FEF9FEF0895FC01918D228D892F15
:1003200090E0805C9F4F821B91098F7399270895FD
:1003300089E392E00E948C0121E0892B09F420E0FE
:10034000822F089580E090E0892B29F00E94980187
:1003500081110C9400000895FC01A48DA80FB92F01
:10036000B11DA35ABF4F2C91848D90E001968F73DD
:100370009927848FA689B7892C93A089B1898C91FC
:10038000837080648C93938D848D981306C002884B
:10039000F389E02D80818F7D80830895EF92FF9215
:1003A0000F931F93CF93DF93EC0181E0888F9B8D98
:1003B0008C8D98131AC0E889F989808185FF15C052
:1003C0009FB7F894EE89FF896083E889F989808175
:1003D0008370806480839FBF81E090E0DF91CF9144
:1003E0001F910F91FF90EF900895F62E0B8D10E066
:1003F0000F5F1F4F0F731127E02E8C8D8E110CC0D5
:100400000FB607FCFACFE889F989808185FFF5CF1F
:10041000CE010E94AC01F1CFEB8DEC0FFD2FF11D51
:10042000E35AFF4FF0829FB7F8940B8FEA89FB895C
:1004300080818062CFCFCF93DF93EC01888D8823BA
:10044000B9F0AA89BB89E889F9898C9185FD03C037
:10045000808186FD0DC00FB607FCF7CF8C9185FF1C
:10046000F2CF808185FFEDCFCE010E94AC01E9CFB4
:10047000DF91CF910895833081F028F4813099F095
:100480008230A9F008958730A9F08830C9F084300F
:10049000B1F4809180008F7D03C0809180008F77C0
:1004A00080938000089584B58F7784BD089584B5C6
:1004B0008F7DFBCF8091B0008F778093B00008953F
:1004C0008091B0008F7DF9CFCF93DF93282F30E05C
:1004D000F901E458FF4F8491F901EE52FF4FD49196
:1004E000F901EA51FF4FC491CC23A1F081110E9480
:1004F0003B02EC2FF0E0EE0FFF1FEE58FF4FA591EF
:10050000B491EC91ED2381E090E009F480E0DF917B
:10051000CF91089580E090E0FACF1F93CF93DF93BF
:10052000282F30E0F901E458FF4F8491F901EE5291
:10053000FF4FD491F901EA51FF4FC491CC23A9F0A8
:10054000162F81110E943B02EC2FF0E0EE0FFF1FEF
:10055000E859FF4FA591B4918FB7F894EC91111120
:1005600008C0D095DE23DC938FBFDF91CF911F9120
:100570000895DE2BF8CFCF93DF9390E0FC01EE528D
:10058000FF4F24918A519F4FFC0184918823D1F021
:1005900090E0880F991FFC01E853FF4FA591B4919B
:1005A000FC01E859FF4FC591D49161110EC09FB76E
:1005B000F8948C91E22FE0958E238C932881E2238E
:1005C000E8839FBFDF91CF9108958FB7F894EC91A6
:1005D000E22BEC938FBFF6CF3FB7F8948091B30135
:1005E0009091B401A091B501B091B60126B5A89B38
:1005F00005C02F3F19F00196A11DB11D3FBFBA2FB5
:10060000A92F982F8827BC01CD01620F711D811D74
:10061000911D42E0660F771F881F991F4A95D1F7F9
:1006200008958F929F92AF92BF92CF92DF92EF92F6
:10063000FF924B015C010E94EC026B017C010E9465
:10064000EC026C197D098E099F09683E7340810593
:100650009105A8F321E0821A9108A108B10888EE5B
:10066000C80E83E0D81EE11CF11C81149104A10482
:10067000B10429F7FF90EF90DF90CF90BF90AF903B
:100680009F908F9008952FB7F8946091AF0170916B
:10069000B0018091B1019091B2012FBF08952091D6
:1006A0008B01260F3327331F21323105ECF42091C3
:1006B0001002FC0190E080E0243069F082E00895AF
:1006C000A0918B012191AC0145595E4FA40FB52F2C
:1006D000B11D2C930196861798F380918B01680FBA
:1006E00060938B0180E0089581E0089510921002DC
:1006F00081E080930F021092EA0161E082E10E94A2
:100700008D0261E083E10E948D02E9EBF0E08081DF
:100710008E7F808380818D7F808388E48093B80082
:1007200085E48093BC000895CF93DF9391E090938C
:100730006A018823B9F0C091B800D091BA008091C5
:10074000BC008A7B8093BC0060E082E10E948D0245
:1007500060E083E10E948D020E947603D093BA008C
:10076000C093B800DF91CF9108958F929F92AF927E
:10077000BF92CF92DF92EF92FF920F931F93CF938E
:10078000DF93D091DA02D13208F0D7C0182FC09190
:1007900037020E94EC026B017C01809110028111F2
:1007A0006BC082E08093100210930F028FEF809352
:1007B0000E0210920D02D0930C02A7E1B2E0ECEE13
:1007C000F1E080E0D81391C01092EB018091EB0131
:1007D000CC0FC82BC093EB018091EA01813009F066
:1007E00088C01092EA010E94EC026B017C018091AA
:1007F000EB018093BB008091120290911302A091B3
:100800001402B0911502892B8A2B8B2BA1F00E9428
:10081000EC02009112021091130220911402309107
:1008200015026C197D098E099F09061717072807FD
:10083000390708F442C08091BC0083FDD8CF85EC15
:100840008093BC000E94EC026B017C01809110023D
:10085000823009F450C080910E028F3F09F46FC0BE
:1008600080910E02803209F46CC080910E028033B8
:1008700009F469C084E026C08091120290911302AD
:10088000A0911402B0911502892B8A2B8B2B09F4AD
:1008900084CF0E94EC028090120290901302A090EC
:1008A0001402B09015026C197D098E099F098616F5
:1008B0009706A806B90608F070CF809111020E9431
:1008C000940385E01092DB021092DA021092160275
:1008D000DF91CF911F910F91FF90EF90DF90CF901C
:1008E000BF90AF909F908F9008959D9191938F5F4F
:1008F00069CF85EEA5CF8091120290911302A0914D
:100900001402B0911502892B8A2B8B2B09F49ECFF0
:100910000E94EC0200911202109113022091140225
:10092000309115026C197D098E099F09061717076A
:100930002807390708F08ACFC0CF81E0C3CF80E015
:10094000C1CF82E0BFCF83E0BDCF0895E091DD024B
:100950008091DC02E81730F4F0E0E653FE4F80812E
:1009600090E008958FEF9FEF08959091DD028091C0
:10097000DC022FEF3FEF981748F4E92FF0E0E65341
:10098000FE4F208130E09F5F9093DD02C901089502
:10099000CF92DF92EF92FF920F931F93CF93DF934B
:1009A0007C01CB018A0120911602222389F0EB0100
:1009B0006B01C40ED51ECC15DD0569F06991D70118
:1009C000ED91FC910190F081E02DC7010995F3CFE5
:1009D000642F0E944F03C801DF91CF911F910F91A7
:1009E000FF90EF90DF90CF900895CF93DF931F9209
:1009F000CDB7DEB76983209116022223F9F020914A
:100A0000DA02203258F021E030E0FC013383228307
:100A100090E080E00F90DF91CF9108958091DB020C
:100A2000E82FF0E0E95EFD4F998190838F5F80931E
:100A3000DB028093DA0281E090E0ECCF61E0CE014E
:100A400001960E944F03F7CF682F8EED92E00C9431
:100A5000F5049F92AF92BF92CF92DF92EF92FF92F6
:100A60000F931F93CF93DF93CEEED4E0FE0130E0DF
:100A700020E0419151918417950709F48BC02F5FB5
:100A80003F4F24303105A9F78B017C018091EC02A6
:100A9000843008F45EC076EFC72E74E0D72E992418
:100AA00093948091ED0290921602809337021092F7
:100AB000DB021092DA025E0129913991220F331F75
:100AC000832F932F990F990B0E942405F5018081A4
:100AD0009181880F991F99270E9424059F81892F52
:100AE000990F990B0E9424058E819F8199270E945E
:100AF000240581E00E94B50365E070E080E090E0AD
:100B00000E941103CC16DD0661F62FE037E2309328
:100B1000EF042093EE043093F7042093F60430930F
:100B2000F1042093F0043093F9042093F8043093F7
:100B3000F3042093F2043093FB042093FA043093DF
:100B4000F5042093F4043093FD042093FC041092E8
:100B5000EC028091EC02282F30E0F901EE0FFF1F2C
:100B6000E251FB4FF182E082220F331FF901EA507C
:100B7000FB4F118300838F5F8093EC02DF91CF9155
:100B80001F910F91FF90EF90DF90CF90BF90AF90AB
:100B90009F900895220F331FF901EA50FB4F718394
:100BA0006083ECCFFF920F931F93CF93DF93D0E03E
:100BB000C0E0FF24F3948091EB02F0921602809340
:100BC00037021092DB021092DA028D2F9D2F990FBF
:100BD000990B0E942405CE0199270E94240510E05C
:100BE00000E0F801EC0FFD1FEE7FE251FD4F208188
:100BF0003181C901992700FD04C0832F932F990FDC
:100C0000990B0E9424050F5F1F4F0031110549F712
:100C100081E00E94B50365E070E080E090E00E9412
:100C200011036096C11582E0D80729F6DF91CF91B4
:100C30001F910F91FF900895CF93DF93EC018A816C
:100C40009B81DC01ED91FC910480F581E02D6C81AC
:100C5000099581E08E831C821F82C85ADF4F18825B
:100C600080E0DF91CF910895FC0184810895DF92A7
:100C7000EF92FF920F931F93CF93DF93EC0185E0E8
:100C8000E62EF12CFE01869FE00DF11D11249085CA
:100C900096FF24C0192F177001E085E0D82E8FEF42
:100CA000800F8F3008F001E0602F70E0062FD69E95
:100CB000F001D79EF00D1124EC0FFD1F8085869565
:100CC000869586958770181701F16F5F7F4F6031A9
:100CD00068F38D81811302C011501D8385E08E9DC4
:100CE000F0018F9DF00D1124EC0FFD1F108681E0A7
:100CF000818712862296D783C683DF91CF911F9179
:100D00000F91FF90EF90DF900895CE010E9437067B
:100D1000C6CFFC0120812EBD9B012150310941F03D
:100D200051810DB407FEFDCF4EB55EBD4193F5CFA9
:100D300061507109860F971F0DB407FEFDCF2EB5C8
:100D4000FC0120830895FC0121E0613499F49C01A9
:100D5000255B3F4F61E0AC014E5F5F4F15866687B4
:100D600017865487438735962E173F07B9F7FC013E
:100D7000158208953585631729F02F5F3596203148
:100D8000C9F70895622F0C943706CF93DF93FC01C7
:100D900067FD12C0283080F4442319F08581873024
:100DA00059F0EF01A1E0B0E08D85882349F111965B
:100DB0002596A031B105C1F780E018C085E08A9F73
:100DC000E0018B9FD00D1124CE0FDF1F442389F04B
:100DD00081E4888785818F5F858325E02A9FC00114
:100DE0002B9F900D1124E80FF91F8085DF91CF9183
:100DF000089581E08887F1CF2770687B622B0FC050
:100E00006623E1F26770660F660F660F4423A1F355
:100E1000606485818F5F85838770687F682B25E09C
:100E20002A9FC0012B9F900D1124E80FF91F6087A6
:100E3000862FDCCFFC0121E0611102C006960895E7
:100E40003585631739F02F5F35962031C9F790E06B
:100E500080E00895069635E0239F800D911D1124B2
:100E6000089580E0089580E0089580E0089580E08E
:100E7000089581E0089508952A9808952A9A08957A
:100E800008950F931F93CF93DF9300D0CDB7DEB7B4
:100E9000182F062F80E591E00E9424010E943C0754
:100EA000126019830A8362E070E0CE0101960E940D
:100EB00089060E943E070F900F90DF91CF911F91FE
:100EC0000F9108958EBD00000DB407FEFDCF8EB5C5
:100ED0000895FF920F931F93CF93DF93182FF62E51
:100EE000EA0180E591E00E9424010E943C07812FE5
:100EF00082600E9462070F2D10E0FF2021F0B801F0
:100F0000CE010E948906C00FD11F0E943E07CE016C
:100F1000DF91CF911F910F91FF900895CF93C82F2C
:100F200080E591E00E9424010E943C078C2F0E94E2
:100F3000620780E00E946207C82F0E943E078C2F44
:100F4000CF9108958F929F92AF92BF92CF92DF92EE
:100F5000EF92FF920F931F93CF93DF93882E962EDD
:100F60005A010E9443036B017C0128E8C20E23E171
:100F7000D21EE11CF11C10E000E0D0E0C0E0982897
:100F80000E9443036C197D098E099F0997FF1EC0BB
:100F9000692D80EF0E9441070E9443036C197D096F
:100FA0008E099F0997FF09C088EC0E948E0787FF72
:100FB000F3CF60E888EC0E94410788EF0E948E071B
:100FC000C82FCF70C43081F0CE30B9F08C2FDF91B4
:100FD000CF911F910F91FF90EF90DF90CF90BF9036
:100FE000AF909F908F9008950F5F1F4FA114B10491
:100FF00039F20A151B0521F6E9CFDF5FD33009F07E
:10100000BFCFE4CFAF92BF92CF92DF92EF92FF9229
:101010000F931F93CF93DF93EC01B62EA42E69019B
:101020000E941A077C0186EDE114F10409F447C01F
:10103000D701ED91FC91119787ED309709F43FC0EE
:1010400013969C9180E0981731F02081A21629F028
:1010500033968F5FF8CFF0E0E0E0D601ED93FC939C
:101060008BED309761F1228126952695203108F08D
:101070002FE081E090E0A0E0B0E004C0880F991F6D
:10108000AA1FBB1F2A95D2F70197F801918380838D
:101090006B2D80EE0E94410788ED0E948E07D701DC
:1010A00014969C91682F697F992329F0CA58DF4FC5
:1010B00068816260682B88ED0E94410780E0DF91C3
:1010C000CF911F910F91FF90EF90DF90CF90BF9045
:1010D000AF90089588EF0E948E07807C8034B1F035
:1010E00018F4882301F10895803819F0803CC9F084
:1010F000089588ED0E948E0781FD0DC069EC88ED92
:101100000E94410782E080933802089588ED0E9492
:101110008E0781FDF3CF6BEC88ED0E94410783E0E1
:10112000F2CF81E0F0CF61ED88ED0E94410710928F
:1011300038020895CF93DF93EC0188810E94640206
:10114000892B39F48981813021F41982DF91CF9183
:10115000089588810E946402019729F48981811190
:1011600002C081E0898380E0F1CF089590E080E0C3
:1011700008958F929F92AF92BF92CF92DF92EF929B
:10118000FF920F931F93CF932091ED0231E03093A4
:101190001602209337021092DB021092DA027C01D1
:1011A000EE0CFF1C8F2D90E00E942405C7019927AB
:1011B0000E94240581E00E94B503C091ED020E94C7
:1011C000EC026B017C0180911002811165C081E00D
:1011D0008093100280930F029FEF90930E02109263
:1011E0000D0280930C028093EB018091EB01CC0FF8
:1011F000C82BC093EB018091EA01813009F08BC0CC
:101200001092EA010E94EC026B017C018091EB01DB
:101210008093BB008091120290911302A09114025E
:10122000B0911502892B8A2B8B2BA1F00E94EC0226
:101230008090120290901302A0901402B0901502B8
:101240006C197D098E099F0986169706A806B906AE
:1012500008F443C08091BC0083FDD8CF85EC809317
:10126000BC000E94EC026B017C0180911002813075
:1012700009F453C080910D02C2E0823010F4C09195
:101280000D02ECEEF1E0AAECB1E080E08C1751F138
:1012900091919D938F5FFACF8091120290911302EA
:1012A000A0911402B0911502892B8A2B8B2B09F483
:1012B0008ACF0E94EC028090120290901302A090BC
:1012C0001402B09015026C197D098E099F098616CB
:1012D0009706A806B90608F076CF809111020E9401
:1012E0009403C0E01092DD02C093DC0290E080E045
:1012F0002091DD02C21799F18EED92E00E94B504B3
:10130000F82E8EED92E00E94B5041F2D00E09801AA
:10131000282BC901EDCF85EEA2CF809112029091CA
:101320001302A0911402B0911502892B8A2B8B2BEA
:1013300009F49BCF0E94EC0280901202909013025D
:10134000A0901402B09015026C197D098E099F09B6
:1013500086169706A806B90608F087CFBECFCF91AC
:101360001F910F91FF90EF90DF90CF90BF90AF90C3
:101370009F908F900895EEEEF4E030E020E04191F0
:1013800051918417950739F02F5F3F4F2430310575
:10139000B1F70C94B908220F331FF901EA50FB4F43
:1013A000808191810895CF92DF92FF920F931F93D6
:1013B000CF93DF93F62E01E0C82FD0E0CC0FDD1FD6
:1013C000C259DA4F6E0188819981DC01ED91FC915F
:1013D0000280F381E02D2F2D40E060E00995182F69
:1013E000803E49F561E088EE0E94410766E670E0C4
:1013F00080E090E00E941103F60180819181DC0180
:10140000ED91FC910190F081E02D2F2D40E060E006
:101410000995182F8D3041F58FEF800F833088F0BC
:1014200061E088EE0E94410766E670E080E090E0AF
:101430000E94110310C08D3061F48FEF800F833054
:1014400050F464E670E080E090E00E9411030F5FCA
:10145000BACF882389F2812FDF91CF911F910F910D
:10146000FF90DF90CF9008958823A9F3D9CFCF9331
:10147000DF93EC0160E08E810E948D0261E08E813D
:101480000E948D0260E08E810E948D028BE891E0C7
:101490000197F1F7DF91CF910895CF92DF92EF920C
:1014A000FF920F931F93CF93DF936C017C0187E032
:1014B000E80EF11CD0E0C0E0062F10E0B8010C2EC1
:1014C00002C0759567950A94E2F76170F701819102
:1014D0007F010E948D022196C430D10579F7C601A3
:1014E000DF91CF911F910F91FF90EF90DF90CF9000
:1014F0000C94370ACF92DF92EF92FF920F931F93D3
:10150000CF93DF93EC01F62E642F8C810E948D0225
:101510008D818F3F19F060E00E948D020F2D10E049
:101520008F8584FF25C06E0187E0C80ED11CF12C89
:10153000E12CB8010E2C02C0759567950A94E2F76C
:101540006170F60181916F010E948D02FFEFEF1A29
:10155000FF0A88E0E816F10461F7CE01DF91CF9130
:101560001F910F91FF90EF90DF90CF900C94370A6E
:10157000B80184E0759567958A95E1F7CE010E94E0
:101580004D0A6F2DCE01DF91CF911F910F91FF90EA
:10159000EF90DF90CF900C944D0A40E0682F8EEFD3
:1015A00094E00C947A0A81E00E94CD0A8BE39FE1DB
:1015B0000197F1F70895CF93DF93613029F090916F
:1015C0000D05986090930D0560931105109212051A
:1015D00090E49093130580931405805C8093150527
:1015E00061E0809102050E94BB02809103058F3F5C
:1015F00019F061E00E94BB0261E0809104050E9445
:10160000BB02CEEFD4E09E012E5F344080910D05E9
:1016100084FD0BC084E090E021962817390744F43C
:1016200061E08E810E94BB02EECF88E090E0F4CFB3
:101630008BE39DE00197F1F760E0809102050E9445
:101640008D0260E0809104050E948D028091030567
:101650008F3F19F060E00E948D0280910D0584FD9E
:1016600034C063E08EEF94E00E944D0ACBE4D6E4F0
:10167000CE010197F1F763E08EEF94E00E944D0AEE
:101680002197F1F763E08EEF94E00E944D0A83E525
:1016900092E00197F1F762E08EEF94E00E944D0A2C
:1016A00080910D0580620E94CD0A84E080930E0532
:1016B0008CE00E94CD0A0E94D30A82E080930F053D
:1016C00086E0DF91CF910C94CD0A80620E94CD0A12
:1016D0008BE496E40197F1F780910D0580620E94FA
:1016E000CD0A83E592E00197F1F780910D058062C4
:1016F0000E94CD0AD5CF643008F063E090911105C7
:10170000691710F06FEF690FE62FF0E0E250FB4F22
:101710009489890F80680C94CD0A41E00E947A0A6E
:1017200081E090E008950F931F93CF93DF938C0196
:10173000D0E0C0E0F801EC0FFD1F6491662339F0A2
:1017400041E08EEF94E00E947A0A2196F3CFCE0119
:10175000DF91CF911F910F910895DF92EF92FF9249
:101760000F931F93CF93DF93EC01E62EF12C01E052
:1017700010E09AE0D92E2F2D30E082E0E8120DC063
:1017800081E090E02817390794F4209749F48CEE13
:1017900091E00E94930BF394EECF82E090E0F2CFC1
:1017A000C801D89E8001D99E100D1124F4CF209736
:1017B00091F0015011098AE0F82EC017D1075CF4AE
:1017C0008AEE91E00E94930BCE01F89EE001F99E13
:1017D000D00D1124F2CFDF91CF911F910F91FF9087
:1017E000EF90DF900895CF93C82F0E94D30AC230A4
:1017F00009F45CC040F5C13009F441C060E080E00C
:101800000E947B0B8CED91E00E94930B62E080E0E4
:101810000E947B0B87EC91E00E94930B63E080E0D9
:101820000E947B0B82EB91E00E94930BE0911605E6
:1018300084E0E89FF0011124EB5FFE4F618180811D
:10184000CF910C947B0BC33009F447C0C430B1F680
:101850000E94D30A60E082E00E947B0B88E191E065
:101860000E94930B62E085E00E947B0B81E191E096
:101870000E94930B62E089E00E947B0BD7CF60E06F
:1018800080E00E947B0B87EA91E00E94930B62E06C
:1018900080E00E947B0B84E991E00E94930B63E05F
:1018A00080E00E947B0B81E891E0BECF60E080E0A9
:1018B0000E947B0B86E791E00E94930B62E080E040
:1018C0000E947B0B85E691E00E94930B63E080E031
:1018D0000E947B0B87E591E0A7CF60E080E00E944B
:1018E0007B0B8BE491E00E94930B62E080E00E940E
:1018F0007B0B89E391E00E94930B63E080E00E9400
:101900007B0B88E291E090CF8F929F92AF92BF9233
:101910000F931F93CF93DF93CDB7DEB7A1970FB689
:10192000F894DEBF0FBECDBF19A2423008F44AE0E2
:101930008E010F5D1F4F842E912CB12CA12CA5017F
:1019400094010E948E1BE62FB901CA01EA3044F5CA
:10195000E05DD801EE938D01232B242B252B79F705
:1019600090E080E0109769F0FD0101900020E9F718
:101970003197AF014A1B5B0BBD018EEF94E00E94D3
:101980002E01A1960FB6F894DEBF0FBECDBFDF913A
:10199000CF911F910F91BF90AF909F908F9008951E
:1019A000E95CD7CF682F70E090E080E04AE00C94CB
:1019B000840CBC01990F880B990B4AE00C94840CA1
:1019C0002F923F924F925F926F927F928F929F924F
:1019D000AF92BF92CF92DF92EF92FF920F931F933D
:1019E000CF93DF937B013A016901F901A080B180B7
:1019F000FB013180F90111821082FB01828160E1DB
:101A000081FD60E288EE0E9441072A2CA301F701C4
:101A1000608180E00E94A207582EF6E08F1310C06C
:101A200088EF0E948E07F70192819D7F84FF92606C
:101A3000928360E191FD60E288EE0E944107E6CF6B
:101A4000811150C088EC0E948E0782FF5FC080E346
:101A50000E948E07482E8A151B0411F008F0422CB4
:101A6000F60180819181E501C81BD90BD7FF02C027
:101A7000D0E0C0E0842C912C8C169D060CF4E4017F
:101A800080E591E00E9424010E943C0788E00E94CA
:101A90006207AE0170E060E0C8010E94CA1B209797
:101AA00021F0BE01C8010E9489060C0F1D1F0E9473
:101AB0003E0764E088EC0E944107F6018081918135
:101AC000880E991E91828082431420F08A149B0410
:101AD00008F49CCF88EF0E948E07F701928184FB67
:101AE00091F99283852DDF91CF911F910F91FF90F6
:101AF000EF90DF90CF90BF90AF909F908F907F90AE
:101B00006F905F904F903F902F90089580EF582EE8
:101B1000E9CF2F923F924F925F926F927F928F9276
:101B20009F92AF92BF92CF92DF92EF92FF920F936C
:101B30001F93CF93DF93CDB7DEB763970FB6F894BB
:101B4000DEBF0FBECDBF3C01542E422E302E1E866E
:101B50001D861C861B868E01055F1F4F9E01235F1D
:101B60003F4F40E00E940208F82E8111D0C05982F8
:101B70004A823B82EC821E821D82D886CF82AE01D1
:101B80004F5F5F4F68E080E20E9469074B855C858C
:101B900060E080E10E94A207811116C181149104C6
:101BA000B1F10D851E85F801828157FE36C0826035
:101BB0008283EE24E394C114D10409F40AC1BA86E5
:101BC000A9864B855C856D857E8584019E01275F96
:101BD0003F4FC3010E94E00CF82EF6E08F130EC0B9
:101BE00088EF0E948E07ED85FE8585FB882780F9AA
:101BF0008E25928180FB91F99283DDCF811187C080
:101C000089859A85C81AD90A8A159B05A0F64B853D
:101C10005C8557FED5C080EAD4C081608283E180B4
:101C20008FEF8E0D803408F0D1C08B859C85988B0A
:101C30008F870E9443031B012C01E8E82E0EE3E18D
:101C40003E1E411C511CF801828160E880FF60E467
:101C500088EE0E944107F12C8E2D90E09A8B898BA3
:101C6000A114B10409F446C0C988DA88AC14BD04D3
:101C700008F46501CB8AA4016C2D80E10E946907FC
:101C80006C2D88E30E944107F8016081606280EF5B
:101C90000E94410788EC0E948E0787FFFBCF60E817
:101CA00088EC0E94410788EF0E948E078F70F82E03
:101CB000E12C712C612CFF2009F443C00E944303E6
:101CC000621973098409950997FF3BC0F6E0FF1676
:101CD00009F462C02EE0F216C9F184E0F8120AC0DD
:101CE0009FEF691A790AEF85F889309799F1E6151F
:101CF000F70581F588EF0E948E07F801928185FB38
:101D000090F992834B855C85FF2009F459C08F2D93
:101D100063960FB6F894DEBF0FBECDBFDF91CF91B3
:101D20001F910F91FF90EF90DF90CF90BF90AF90F9
:101D30009F908F907F906F905F904F903F902F90EB
:101D40000895AC18BD088C0C9D1C8ACFE394F3E079
:101D5000EF1681F260E088E30E944107F4016081A0
:101D600080E10E9441076B8988E30E944107F801E6
:101D70006081606280EF0E94410788EC0E948E07BC
:101D800087FFFBCF60E888EC0E94410788EF0E9444
:101D90008E078F70F82E8FCF88EF0E948E0785FBFD
:101DA000882780F921E08227F801928180FB90F951
:101DB000928360E890FF60E488EE0E944107CACFFA
:101DC00080E860E00E94A207F82EA1CF8AEDF82EED
:101DD0009ECF4B855C85FF2009F41DCF98CF8F9255
:101DE0009F92AF92BF92CF92DF92EF920F93CF93D9
:101DF000912C812CB12CA12CD12CC12CE12C062FA3
:101E000025E040E060E00E94890DC82F6CE271E09F
:101E100080E090E00E9411038C2FCF910F91EF9002
:101E2000DF90CF90BF90AF909F908F9008954F928A
:101E30005F926F927F928F929F92AF92BF92CF925A
:101E4000DF92EF92FF920F931F93CF93DF93CDB763
:101E5000DEB7DA950FB6F894DEBF0FBECDBF3C01FA
:101E6000162FF42ECE0101964C01A4E0AA2EB12C1F
:101E7000B4E0CB2ED12C02E0E02E042F26E040E887
:101E8000D30112968D919C910E94890D811166C09B
:101E90004B805C80B1E04B165B0618F0412C55245A
:101EA0005394FE0131964F0152016201E2E0EE2EA1
:101EB0000F2D26E040E8612FD30112968D919C9161
:101EC0000E94890D81114AC040E0F401480C591C60
:101ED000E415F50508F042C050819181943059F025
:101EE0009530A1F0923021F49581D30115969C9301
:101EF000E50FF11DEDCF9581913071F526812330ED
:101F000059F5D30118969C9341E0F2CF93819370D9
:101F1000923071F792814423D1F021E097FF22E0C3
:101F2000648130E0D901AA0FBB1FA20FB31FA60D19
:101F3000B71D9F7019969C9319971A966C93D301AD
:101F400016969C9116979F5F16969C93D1CF23E08F
:101F500097FDE6CF24E0E4CF40E0CACFD3950FB69B
:101F6000F894DEBF0FBECDBFDF91CF911F910F91CF
:101F7000FF90EF90DF90CF90BF90AF909F908F90A9
:101F80007F906F905F904F9008952F923F924F9265
:101F90005F926F927F928F929F92AF92BF92CF92F9
:101FA000DF92EF92FF920F931F93CF93DF93CDB702
:101FB000DEB767970FB6F894DEBF0FBECDBFFC014A
:101FC00081E88487158686858E7F8D7F868731E0C0
:101FD0003787108A81898E7F8D7F818B848109ED7F
:101FE000811113C0122F4F8BF62E3F014280538078
:101FF000D201ED91FC910190F081E02D60E0C201F1
:1020000009951C010097D9F406ED802F67960FB64D
:10201000F894DEBF0FBECDBFDF91CF911F910F911E
:10202000FF90EF90DF90CF90BF90AF909F908F90F8
:102030007F906F905F904F903F902F900895FC019C
:102040000190F081E02DFE8BED8B07EDEF2BE9F297
:102050009301275F3F4F3C8B2B8BDC0111963C9308
:102060002E9314961C93FE0131964F0182E1A82E07
:10207000B12C92E1C92ED12CEE24E39400E026E0AD
:1020800040E860E0D30112968D919C910E94890DE9
:10209000082F89859A85F301E55AFF4F9183808344
:1020A0008B859C853297918380832D893E89F101B0
:1020B000318320830111ABC0D201ED91FC910280EC
:1020C000F381E02D2F8940E06F2DC2010995F301C6
:1020D000848304ED882309F498CF98859287682F2C
:1020E000828193810E94EF0E082FD201ED91FC9125
:1020F000D10114961C92882359F00480F581E02DBB
:10210000D30114966C91C2010995F30114827DCF1D
:102110000190F081E02DD30114966C91C2010995D4
:10212000009709F471CFFC011483D30112968D91AD
:102130009C91139714961C91EB89FC89EF2B09F461
:1021400065C0612F0E941A07FC01892B09F468C041
:10215000FA8812832B893C893183208331E03383D1
:10216000D30118961C9210E01F1581F0412FF30146
:102170006481C3010E94170F082F811148C0D30149
:1021800016968C91823010F41F5FEECFF30186819A
:10219000823008F447C08085811108C08289848715
:1021A00083898587858987878689808BD301149663
:1021B0001C911497612F12968D919C910E941A0781
:1021C000FC01892B39F012832B893C8931832083D0
:1021D00083E08383912C812CB12CA12CD12CC12C98
:1021E000E12CD30115960C91159729E040E0149647
:1021F0006C91149712968D919C910E94890D082FD5
:10220000811105C081E0F3018783FFCE08EDD30182
:10221000ED91FC910480F581E02DC3010995F5CE87
:1022200006EDF5CF0FEFF3CF85ED8093BC008091E5
:10223000120290911302A0911402B0911502079618
:10224000A11DB11D23E0B695A795979587952A9571
:10225000D1F72091BC0024FD03C010921002089514
:102260004091120250911302609114027091150274
:10227000452B462B472B69F30097A105B10541F08B
:1022800025E32A95F1F700000197A109B109E1CFF3
:10229000809111020C9494031F920F920FB60F922B
:1022A00011242F933F934F935F936F937F938F935B
:1022B0009F93AF93BF93EF93FF9389E392E00E94C4
:1022C000AC01FF91EF91BF91AF919F918F917F9161
:1022D0006F915F914F913F912F910F900FBE0F9093
:1022E0001F9018951F920F920FB60F9211242F93E3
:1022F0008F939F93EF93FF93E0914902F0914A02ED
:102300008081E0914F02F091500282FD1BC09081CC
:10231000809152028F5F8F7320915302821741F098
:10232000E0915202F0E0E75CFD4F958F80935202FE
:10233000FF91EF919F918F912F910F900FBE0F9072
:102340001F9018958081F4CF1F920F920FB60F92B5
:1023500011242F933F938F939F93AF93BF938091BB
:10236000AF019091B001A091B101B091B201309153
:10237000AE0123E0230F2D3758F50196A11DB11DA5
:102380002093AE018093AF019093B001A093B1016F
:10239000B093B2018091B3019091B401A091B501C5
:1023A000B091B6010196A11DB11D8093B301909328
:1023B000B401A093B501B093B601BF91AF919F91C5
:1023C0008F913F912F910F900FBE0F901F901895F6
:1023D00026E8230F0296A11DB11DD2CF1F920F92A6
:1023E0000FB60F9211242F933F934F935F936F93E8
:1023F0007F938F939F93AF93BF93EF93FF938091BE
:10240000B900887F803609F44AC0F0F5883209F4B3
:10241000A7C018F5803109F49BC0B8F4882309F4EB
:10242000F9C0883009F494C0FF91EF91BF91AF914A
:102430009F918F917F916F915F914F913F912F91DC
:102440000F900FBE0F901F901895883109F488C027
:10245000803251F780930E0214C0803409F49DC07D
:1024600040F48033B9F38833F9F680930E0285EC9B
:10247000B0C0803509F485C0883509F496C0883429
:1024800099F60E941411D0CF883909F48CC038F520
:10249000883729F050F4883611F0803729F683E028
:1024A000809310021092AD0157C0883809F47BC0A8
:1024B000803919F0803809F0B7CF8091AD018032B2
:1024C00008F071C0E091AD0181E08E0F8093AD0105
:1024D0008091BB00F0E0E357FE4F80833DC0803B1E
:1024E00039F0E0F4803A09F479C0883A09F09CCFD9
:1024F00084E08093100210928C0110928B01E09185
:10250000D602F091D702099580918B0181110FC0FD
:1025100081E080938B0110926B0109C0803C09F42B
:10252000A6CF883C09F4A3CF883B09F07DCFE0918A
:102530008C0181E08E0F80938C01F0E0E559FE4F15
:1025400080818093BB0090918C0180918B0129C088
:102550008091EB018093BB0085EC8093BC0064CF3D
:1025600090910D0280910C02981758F5E0910D02A0
:1025700081E08E0F80930D02F0E0E451FE4F8081E8
:10258000E9CFE0910D0281E08E0F80930D028091E2
:10259000BB00F0E0E451FE4F808390910D028091EA
:1025A0000C029817C8F285E8D8CFE0910D0281E0BF
:1025B0008E0F80930D028091BB00F0E0E451FE4F3E
:1025C000808380910F0281115CCF81E08093EA01CA
:1025D00084EA8093BC001092100226CF85EC809391
:1025E000BC00109210028091AD01803230F4E09175
:1025F000AD01F0E0E357FE4F10826091AD0170E055
:10260000E091D802F091D9028DE891E009951092FD
:10261000AD010ACF10920E0234CFCF9310923C023C
:1026200010923B0288EE93E0A0E0B0E080933D0280
:1026300090933E02A0933F02B09340022DE131E01F
:1026400030933A022093390225EC30E03093460271
:102650002093450224EC30E0309348022093470257
:1026600020EC30E030934A022093490221EC30E024
:1026700030934C0220934B0222EC30E030934E0218
:1026800020934D0226EC30E03093500220934F020D
:10269000109252021092530210925402109255025C
:1026A0001092E1021092E0028093E2029093E30222
:1026B000A093E402B093E5028FE291E09093DF02F1
:1026C0008093DE0281E18093F60560E00E94BB0208
:1026D000C1E0C093F70580E18093F40560E00E94BB
:1026E000BB02C093F5058EE08093F20560E00E9486
:1026F000BB02C093F3058FE08093F00560E00E9479
:10270000BB02C093F10583E691E090931905809395
:10271000180510922005C0932105109222058AE128
:1027200095E090931F0580931E0510921A0588E08E
:1027300080931B058CE380931C0510921D05E8E136
:10274000F5E081E02AE135E0158686871786348733
:102750002387359695E0E336F907B1F710928E0599
:1027600091E19093EA022DE431E0309390052093BB
:102770008F0528E135E03093920520939105109262
:1027800093058093950510929605109297051092E7
:10279000E7051092980588E08093990580919A0545
:1027A00083708C6380939A0510929B0510929C0510
:1027B00080919D058370846080939D0510929E0595
:1027C00010929F058091A005837084608093A0057E
:1027D0001092A1051092A2058091A30583708460D8
:1027E0008093A3051092A4051092A5058091A605DB
:1027F000837084608093A605EEE6F5E090E080E0CB
:1028000021913191232B09F092C0880F991FFC016F
:10281000E259FA4F8FE895E09183808380EB8093B3
:10282000EF05109201051092000581E491E090936C
:10283000FF048093FE0487E0809302058FEF80936E
:10284000030586E08093040585E08093050584E018
:102850008093060583E08093070582E08093080556
:102860001092090510920A0510920B0510920C05A2
:1028700010920D0561E080E10E94DB0A81E491E0A5
:102880009093FF048093FE04109216051092170592
:102890001092EC021092DD021092DC021092DB0228
:1028A0001092DA020E94760382E291E09093D702BE
:1028B0008093D60283E291E09093D9028093D8026C
:1028C00080E58093ED02EEEEF2E090E080E081930F
:1028D00091930196811521E09207C9F78FE097E265
:1028E0009093EF048093EE049093F7048093F604A2
:1028F0009093F1048093F0049093F9048093F8048A
:102900009093F3048093F2049093FB048093FA0471
:102910009093F5048093F4049093FD048093FC0459
:102920000E94760380E58093EB02CF910895019693
:102930008031910509F064CF71CFCF93DF93CDB78C
:10294000DEB767970FB6F894DEBF0FBECDBF7894A1
:1029500084B5826084BD84B5816084BD85B58260A4
:1029600085BD85B5816085BD80916E008160809355
:102970006E001092810080918100826080938100BE
:1029800080918100816080938100809180008160CE
:10299000809380008091B10084608093B100809129
:1029A000B00081608093B00080917A008460809351
:1029B0007A0080917A00826080937A0080917A0018
:1029C000816080937A0080917A00806880937A0099
:1029D0001092C100E0914902F0914A0282E08083A6
:1029E000E0914502F09146021082E0914702F09199
:1029F00048028FE3808310925102E0914D02F091E2
:102A00004E0286E08083E0914B02F0914C0280817F
:102A100080618083E0914B02F0914C02808188605C
:102A20008083E0914B02F0914C028081806880832A
:102A3000E0914B02F0914C0280818F7D808364E0B5
:102A400084E10E94DB0A60E080E00E947B0B8AEB5D
:102A500090E00E94930B62E080E00E947B0B85EA8D
:102A600090E00E94930B63E080E00E947B0B80E982
:102A700090E00E94930B80910E05982F92609093A6
:102A80000E058A600E94CD0A80910E05982F9160F4
:102A900090930E0589600E94CD0A229A0E943E07FB
:102AA0001FB7F8948091B701811127C0E0EFF0E0E3
:102AB0008491ECEDF0E09491E82FF0E0EE0FFF1F31
:102AC000E853FF4FA591B491EC91E92321F461E023
:102AD0008AE00E948D0261E08AE00E94BB028CB510
:102AE00080618CBD8CB580648CBD61E08DE00E94FE
:102AF000BB0261E08BE00E94BB028091B7018F5F57
:102B00008093B7011FBF229A0E943E07219868E177
:102B100088E80E94410760E288E70E94410760E080
:102B200088E70E94410710E000E088E60E948E07D7
:102B30000F5F1F4F80FF4EC061EC88ED0E94410780
:102B400060E680ED0E94410764E088EE0E94410744
:102B500088EE0E948E0782FFFBCF0E946A0860E227
:102B600088EC0E94410761E080E80E94410768EC20
:102B700070E080E090E00E9411031E0183E1280EC6
:102B8000311C0E9443036093C6017093C701809378
:102B9000C8019093C90183B1182F127081FD0CC038
:102BA00088EC0E948E0785FF03C00E946A0810E22D
:102BB000612F88EC0E94410780913802813009F42E
:102BC00061C008F463C0823051F0833009F468C0FA
:102BD00010E01CC00F3F100709F0A7CFFFCF10E097
:102BE0008091EA02807F803189F40E944303685318
:102BF0007F4F8F4F9F4F6093B8017093B9018093BF
:102C0000BA019093BB01B0E2B093EA027EE6672E70
:102C100075E0772E7301F701819191917F01009703
:102C200039F0DC01ED91FC910680F781E02D0995EA
:102C3000EEE8F5E0EE15FF0571F78091EA028034C9
:102C400009F465C078F5803209F44BC0803309F48B
:102C500058C0813109F06BC010928E05D3018D915F
:102C60009D913D01009739F0DC01ED91FC910480CC
:102C7000F581E02D0995E614F70481F782E1809350
:102C8000EA0255C093E19093EA02A2CF8091EA0252
:102C9000807F803109F49CCFA1E1A093EA0298CF14
:102CA00011E09ECF813509F4B4C0803809F4C4C066
:102CB0008035E9F588EC0E948E0786FF38C081E5F3
:102CC0008093EA020E9443036C5E7F4F8F4F9F4FB9
:102CD0006093B8017093B9018093BA019093BB01DE
:102CE00026C00E9443030091B8011091B9012091C0
:102CF000BA013091BB01601B710B820B930B97FDE6
:102D000016C061E088EE0E94410780E4B8CF88EEEB
:102D10000E948E0780FD0BC088ED0E948E07682FF1
:102D2000686088ED0E944107B0E5B093EA0286EF43
:102D300095E00E949A08882361F08091C50190E097
:102D40000196837099278093C501809316050E9490
:102D5000F30B84EF95E00E949A088823E9F0209114
:102D6000160530E08091170590E00196F901E050DA
:102D7000FF4F608170E00E947A1B80931705F90174
:102D8000EE0FFF1FE80FF91FEE0FFF1FEB5FFE4F67
:102D9000618180810E947B0B82EF95E00E949A08FE
:102DA000882351F01091C501123009F4B3C108F025
:102DB0003DC1113009F46AC180EF95E00E949A0884
:102DC000882309F4AFC38091C501813009F0AAC3FB
:102DD000809117058111C1C1E090C401B0E8EB9E5C
:102DE000C0011124E090C301E80EF92EF11CEEEEB3
:102DF000F4E090E080E021913191E216F30609F4CD
:102E000060C3019684309105B1F7C7010E94B908EB
:102E10005FC30E944303C090B801D090B901E09015
:102E2000BA01F090BB016C197D098E099F0997FDCD
:102E30007ECF80E88093EA021B8AE8E0EC8B8CE38B
:102E40008D8B40901E0550901F0530921F052092DB
:102E50001E0510932205CE0101964C0152E1A52ECC
:102E6000B12C62E1C62ED12CEE24E39400E026E0E2
:102E700040E860E088E195E00E94890D082F5092BB
:102E80001F0540921E05811150C0C984DA84AB84AD
:102E9000BC844D809E804EE6E42E45E0F42E512CFD
:102EA000D7018D919C91009709F041C05394B2E0F5
:102EB000EB0EF11CE0E15E12F3CFF3018081918112
:102EC000009709F076C00F5FF2E06F0E711C0031C1
:102ED000A1F780911E0590911F05892B09F459C017
:102EE0001093220520E040E060E088E195E00E9438
:102EF000C506F82E882309F44CC0682F88E195E0B8
:102F00000E941A07009709F444C0FC0114836F2D36
:102F100088E195E00E94EF0E082F882309F484C011
:102F20006F2D88E195E00E94A306802F2FC0DC0161
:102F3000ED91FC910084F185E02D09958111B6CFCA
:102F4000F70180819181DC01ED91FC910088F1898C
:102F5000E02D692D0995882309F4A8CFF701808118
:102F60009181DC01ED91FC910484F585E02DA501B2
:102F7000B6010995882379F0612F852D0E94D30928
:102F8000813D09F493CF882309F44EC0823D09F4B2
:102F9000CECE80EA74CEF70180819181DC01ED9183
:102FA000FC910684F785E02D642D09958111E4CF0D
:102FB0007DCFDC01ED91FC910084F185E02D099538
:102FC000811181CFF30180819181DC01ED91FC9130
:102FD0000088F189E02D692D0995811109C0612FC3
:102FE000802F0E94D309982F977F913D61F66BCF78
:102FF000F30180819181DC01ED91FC910484F585E0
:10300000E02DA501B601099581115DCFF301808105
:103010009181DC01ED91FC910684F785E02D642D12
:1030200009958823E1F24FCF80E929CE133009F4C6
:1030300089C0143009F0C0CE80911705811188C075
:10304000EEEEF2E090E080E081939193019681159D
:10305000A1E09A07C9F70E94D2050E94D30A62E054
:1030600082E00E947B0B81E091E00E94930B68EE6E
:1030700073E080E090E00E94110313E010931605C6
:1030800083E00E94F30B1093C50196CE8091170543
:10309000811120C0E090C401F0E8EF9EC00111242E
:1030A000E090C301E80EF92EF11CEEEEF4E090E0A2
:1030B00080E021913191E216F30609F49AC101965C
:1030C00084309105B1F7C7010E94B90899C1005831
:1030D0001F4F9DC1813009F06FCE0091C401A0E85F
:1030E0000A9FC00111240091C301080F192F111D5F
:1030F000EEEEF4E090E080E02191319102171307A9
:1031000009F4A9C1019684309105B1F7C8010E9464
:10311000B908A8C10E94D2050E94D30A62E085E0E6
:103120000E947B0B8AEF90E00E94930B68EE73E0A5
:1031300080E090E00E9411031093160582E00E9447
:10314000F30B3ACE84E08093C50180931605F7CF48
:1031500083E0F9CF00581109C2C1813009F0E2C102
:10316000E090C401A0E8EA9EC0011124E090C301F0
:10317000E80EF92EF11CEEEEF4E090E080E02191F3
:103180003191E216F30609F462C20196843091058A
:10319000B1F7C7010E94B9088C0197FF02C001581E
:1031A0001F4F00781F7708171907D4F001581F4FD9
:1031B000B801C7010E9429050F77112763E0C801F4
:1031C0000E94AD0B802F0E94D20CE0911605B4E056
:1031D000EB9FF0011124EB5FFE4F63818281A0C160
:1031E0008C0101501109E4CF818D8111B3C110927E
:1031F000E70580919C0590E09F8B8E8BE090910578
:10320000F090920540919B05609193051C8A1B8A62
:103210001A8219828E010F5F1F4F9101C7010E9410
:10322000020881110CC049815A816B897C8907EAA7
:1032300015E09E012A5E3F4FC7010E94E00C2E89D7
:103240003F892C33310540F4F901E955FA4F1082DA
:1032500028553A4FF9011082811110C08091A705BD
:10326000811178C18091A805811174C18091A9054F
:10327000811170C18091AA0581116CC18091C60134
:103280009091C701A091C801B091C9014091BC01C2
:103290005091BD016091BE017091BF01841B950BDF
:1032A000A60BB70B85369105A105B10508F47CC0C6
:1032B0008091C501811178C0C090C0010091C10109
:1032C000D090C2011091C301E090C4018091160515
:1032D00090E0E0911705880F991FE80FF92FF11D75
:1032E000EE0FFF1FEB5FFE4FB080A18062E085E034
:1032F0000E947B0BF12C62E0C7010E94AD0BC7015D
:1033000001960E94D90C62E08AE00E947B0B63E088
:10331000812F90E00E94AD0B812F0E94D20C62E0C1
:1033200081E10E947B0BED2CF12C63E0C7010E9430
:10333000AD0B8D2D0E94D20C63E085E00E947B0BCB
:1033400010E062E0C8010E94AD0BC80101960E9426
:10335000D90C63E08AE00E947B0B63E08C2D90E047
:103360000E94AD0B8C2D0E94D20C63E081E10E9483
:103370007B0B63E0C7010E94AD0B8D2D0E94D20C28
:103380006A2D8B2D0E947B0B8091C6019091C70105
:10339000A091C801B091C9018093BC019093BD0177
:1033A000A093BE01B093BF0180E090E0892B09F4A7
:1033B000E8CB0E949801882309F4E3CB0E94000027
:1033C000E0CB903C09F404C1903D09F401C1903B6D
:1033D00009F054CFFDC09D3F40F4983F08F0F8C07D
:1033E000915F933008F4F4C049CF9E3F08F0F0C0DD
:1033F00045CF880F991FFC01EA50FB4F80819181D6
:103400008C01803891050CF462CE0F771127B8013A
:10341000C7010E942905C80117FF02C081589F4FAC
:10342000880F892F881F990B11E0180F62E0812FF8
:1034300090E00E94AD0B812F0E94D20CE091160506
:1034400024E0E29FF0011124EB5FFE4F6181808157
:103450000E947B0BB1CC880F991FFC01EA50FB4FF7
:10346000808191817C01BFEFEB1AFB0A97FF02C0BC
:1034700081589F4F80789F7780589F4FE816F906B4
:1034800024F07C01E0E8EE1AF108B701C8010E94BF
:103490002905C70160E870E00E947A1B182F63E0DD
:1034A00090E00E94AD0B812F0E94D20CE091160596
:1034B00024E0E29FF0011124EB5FFE4F63818281E3
:1034C000C7CF880F991FFC01EA50FB4F8081918183
:1034D0008C01803891050CF03DCE00581F4FB8018B
:1034E000C7010E942905C80117FF02C081589F4FDC
:1034F000880F892F881F990B11E0180F62E0812F28
:1035000090E00E94AD0B812F0E94D20CE091160535
:1035100024E0E29FF0011124EB5FFE4F6181808186
:103520000E947B0B8091EA02803909F0A7CE80913E
:103530009605882309F4A2CEE091E7058FEF8E0F60
:103540008F3308F054CEF0E0E157FA4F808D882396
:1035500009F44ACEE091E705AE2FB0E0A157BA4F8B
:1035600058968C91A1E0AE0FB0E0A157BA4F589693
:103570002C912093EC05A2E0AE0FB0E0A157BA4F1A
:103580005896EC90E092ED0594E09E0F9093E7053D
:10359000ED5FF0E0E157FA4F308D3093EE05982F54
:1035A0009C70943021F48F708450843088F0922F76
:1035B000203F08F4907F903E59F008F00CCF903AED
:1035C00039F008F0FECE903819F0903909F056CE57
:1035D0008091EF05281B2093C401E092C301309332
:1035E000C201F0E82F9F90011124E20EF32EF11C8E
:1035F000C7010E94BB0997FF02C081589F4F8C01F1
:10360000000F012F001F110B0093C101C7010E9481
:10361000BB0960E870E00E947A1BF82E8093C0011D
:103620008091C5018130D9F01091C20160EB600F2B
:1036300089E392E00E94CE016F2D89E392E00E941F
:10364000CE01612F89E392E00E94CE0117CE880F50
:10365000991FFC01EA50FB4F808191819DCDE09044
:10366000C301C090C4018091160590E0E091170558
:10367000880F991FE80FF92FF11DEE0FFF1FEB5F69
:10368000FE4FB080A18062E08AE00E947B0BD12CCB
:1036900062E0C6010E94AD0BC60101960E94D90CE2
:1036A00062E08FE00E947B0B63E08E2D90E00E9431
:1036B000AD0B8E2D0E94D20C63E08AE00E947B0B42
:1036C000112762E0C8010E94AD0BC80101960E945B
:1036D000D90C63E08FE00E947B0B63E08F2D90E0BC
:1036E0000E94AD0B8F2D0E94D20C6A2D8B2D0E9453
:1036F0007B0BC4CD97FB072E16F4009407D077FD03
:1037000009D00E94B01B07FC05D03EF4909581952E
:103710009F4F0895709561957F4F0895A1E21A2EED
:10372000AA1BBB1BFD010DC0AA1FBB1FEE1FFF1F65
:10373000A217B307E407F50720F0A21BB30BE40BB5
:10374000F50B661F771F881F991F1A9469F76095FC
:103750007095809590959B01AC01BD01CF010895B6
:10376000AA1BBB1B51E107C0AA1FBB1FA617B707A7
:1037700010F0A61BB70B881F991F5A95A9F78095C3
:103780009095BC01CD010895EE0FFF1F0590F491B7
:10379000E02D0994DC0101C06D9341505040E0F7E9
:1037A0000895F894FFCF0202020202000000000A0E
:1037B000030F0306020602060206020502090200C2
:1037C000000000CE012E015B011B028C016A017E0C
:1037D0000100000000F504C804B608A5042701B5DF
:1037E00004A604000000008D0B2E01B608B50800E9
:1037F000000000C50F37071C06330734063B0731AE
:103800000735073907000000001A07C506A30600A0
:107E0000112484B714BE81FFF0D085E080938100F7
:107E100082E08093C00088E18093C10086E0809377
:107E2000C20080E18093C4008EE0C9D0259A86E02C
:107E300020E33CEF91E0309385002093840096BBD3
:107E4000B09BFECF1D9AA8958150A9F7CC24DD24C4
:107E500088248394B5E0AB2EA1E19A2EF3E0BF2EE7
:107E6000A2D0813461F49FD0082FAFD0023811F036
:107E7000013811F484E001C083E08DD089C08234E0
:107E800011F484E103C0853419F485E0A6D080C0E4
:107E9000853579F488D0E82EFF2485D0082F10E0AE
:107EA000102F00270E291F29000F111F8ED06801E7
:107EB0006FC0863521F484E090D080E0DECF843638
:107EC00009F040C070D06FD0082F6DD080E0C81688
:107ED00080E7D80618F4F601B7BEE895C0E0D1E017
:107EE00062D089930C17E1F7F0E0CF16F0E7DF06D8
:107EF00018F0F601B7BEE89568D007B600FCFDCFD4
:107F0000A601A0E0B1E02C9130E011968C91119780
:107F100090E0982F8827822B932B1296FA010C0160
:107F200087BEE89511244E5F5F4FF1E0A038BF0790
:107F300051F7F601A7BEE89507B600FCFDCF97BE46
:107F4000E89526C08437B1F42ED02DD0F82E2BD052
:107F50003CD0F601EF2C8F010F5F1F4F84911BD097
:107F6000EA94F801C1F70894C11CD11CFA94CF0C13
:107F7000D11C0EC0853739F428D08EE10CD085E9AC
:107F80000AD08FE07ACF813511F488E018D01DD067
:107F900080E101D065CF982F8091C00085FFFCCF94
:107FA0009093C60008958091C00087FFFCCF809118
:107FB000C00084FD01C0A8958091C6000895E0E648
:107FC000F0E098E1908380830895EDDF803219F02E
:107FD00088E0F5DFFFCF84E1DECF1F93182FE3DFCA
:107FE0001150E9F7F2DF1F91089580E0E8DFEE27F6
:047FF000FF270994CA
:027FFE00040479
:00000001FF
