:020000040000FA
:100000000C94DF000C9407010C9407010C94070179
:100010000C9407010C9407010C9407010C94070140
:100020000C9407010C9407010C9407010C94070130
:100030000C9407010C9407010C9407010C94070120
:100040000C942D0C0C9407010C94FB0B0C94D50B09
:100050000C9407010C9407010C9407010C94070100
:100060000C9407010C9407010000000025002800F3
:100070002B000000000023002600290000000008DB
:10008000000201000003040700000000000000005F
:100090003C2D20636830312063633030302076613E
:1000A0006C303030002D3E20636830312063633087
:1000B00030302076616C303030006D6F64653A20EE
:1000C000706572666F726D000000000024002700EA
:1000D0002A000102040810204080010204081020B8
:1000E00001020408102004040404040404040202AD
:1000F00002020202030303030303746F20646566B4
:1001000061756C74207374617465007072657373CB
:1001100020555020746F207265736574006D6F6494
:10012000653A2072657365740063757272656E74EA
:10013000207374617465007072657373205550206C
:10014000746F2073617665006D6F64653A2073612A
:100150007665006D696469203C2D2063683031202C
:10016000636330303000757362202D3E2063683049
:1001700031206363303030006D6F64653A20656410
:100180006974003C2D206368303120636330303067
:100190002076616C303030002D3E20636830312095
:1001A00063633030302076616C303030006D6F64C6
:1001B000653A20706572666F726D0000770C1124CD
:1001C0001FBECFEFD8E0DEBFCDBF11E0A0E0B1E0B1
:1001D000E8ECF5E202C005900D92A235B107D9F71F
:1001E00027E0A2E5B1E001C01D92A131B207E1F71D
:1001F00010E0CFEDD0E004C02197FE010E94D5129F
:10020000CE3DD107C9F70E94CC0D0C94E2120C949C
:1002100000008CBD9DBD0895AF92BF92CF92DF923A
:10022000EF92FF920F931F93CF93DF936C017B01AB
:100230008B01040F151FEB015E01AE18BF08C0173C
:10024000D10759F06991D601ED91FC910190F081AF
:10025000E02DC6010995892B79F7C501DF91CF9172
:100260001F910F91FF90EF90DF90CF90BF90AF90D4
:100270000895FC01538D448D252F30E0842F90E0AC
:10028000821B930B541710F0CF9608950197089591
:10029000FC01918D828D981761F0A28DAE0FBF2F5A
:1002A000B11D5D968C91928D9F5F9F73928F90E0B0
:1002B00008958FEF9FEF0895FC01918D828D98171F
:1002C00031F0828DE80FF11D858D90E008958FEF5C
:1002D0009FEF0895FC01918D228D892F90E0805C25
:1002E0009F4F821B91098F739927089585E691E0AE
:1002F0000E946A0121E0892B09F420E0822F0895F1
:1003000080E090E0892B29F00E94760181110C9405
:1003100000000895FC01A48DA80FB92FB11DA35AA8
:10032000BF4F2C91848D90E001968F739927848F15
:10033000A689B7892C93A089B1898C918370806438
:100340008C93938D848D981306C00288F389E02DD9
:1003500080818F7D80830895EF92FF920F931F938A
:10036000CF93DF93EC0181E0888F9B8D8C8D981368
:100370001AC0E889F989808185FF15C09FB7F89474
:10038000EE89FF896083E889F989808183708064C0
:1003900080839FBF81E090E0DF91CF911F910F910B
:1003A000FF90EF900895F62E0B8D10E00F5F1F4F1A
:1003B0000F731127E02E8C8D8E110CC00FB607FC29
:1003C000FACFE889F989808185FFF5CFCE010E94B7
:1003D0008A01F1CFEB8DEC0FFD2FF11DE35AFF4F9A
:1003E000F0829FB7F8940B8FEA89FB898081806245
:1003F000CFCFCF93DF93EC01888D8823B9F0AA8902
:10040000BB89E889F9898C9185FD03C0808186FDCF
:100410000DC00FB607FCF7CF8C9185FFF2CF80811E
:1004200085FFEDCFCE010E948A01E9CFDF91CF9108
:100430000895833081F028F4813099F08230A9F05A
:1004400008958730A9F08830C9F08430B1F48091E4
:1004500080008F7D03C0809180008F778093800023
:10046000089584B58F7784BD089584B58F7DFBCFC3
:100470008091B0008F778093B00008958091B00094
:100480008F7DF9CFCF93DF93282F30E0F901E45827
:10049000FF4F8491F901EE52FF4FD491F901EA51D7
:1004A000FF4FC491CC23A1F081110E941902EC2FBF
:1004B000F0E0EE0FFF1FEE58FF4FA591B491EC91C5
:1004C000ED2381E090E009F480E0DF91CF91089581
:1004D00080E090E0FACF1F93CF93DF93282F30E096
:1004E000F901E458FF4F8491F901EE52FF4FD49186
:1004F000F901EA51FF4FC491CC23A9F0162F8111C5
:100500000E941902EC2FF0E0EE0FFF1FE859FF4F99
:10051000A591B4918FB7F894EC91111108C0D095C2
:10052000DE23DC938FBFDF91CF911F910895DE2BE7
:10053000F8CFCF93DF9390E0FC01EE52FF4F249170
:100540008A519F4FFC0184918823D1F090E0880F5D
:10055000991FFC01E853FF4FA591B491FC01E859A4
:10056000FF4FC591D49161110EC09FB7F8948C9143
:10057000E22FE0958E238C932881E223E8839FBFAE
:10058000DF91CF9108958FB7F894EC91E22BEC9323
:100590008FBFF6CF3FB7F8948091570190915801E3
:1005A000A0915901B0915A0126B5A89B05C02F3FD3
:1005B00019F00196A11DB11D3FBFBA2FA92F982F89
:1005C0008827BC01CD01620F711D811D911D42E084
:1005D000660F771F881F991F4A95D1F708958F924C
:1005E0009F92AF92BF92CF92DF92EF92FF924B0118
:1005F0005C010E94CA026B017C010E94CA026C1954
:100600007D098E099F09683E734081059105A8F315
:1006100021E0821A9108A108B10888EEC80E83E093
:10062000D81EE11CF11C81149104A104B10429F726
:10063000FF90EF90DF90CF90BF90AF909F908F9002
:1006400008952FB7F89460915301709154018091EF
:100650005501909156012FBF0895CF93DF93EC0180
:100660008A819B81DC01ED91FC910480F581E02D74
:100670006C81099581E08E831C821F82C85ADF4FEE
:10068000188280E0DF91CF910895FC018481089564
:10069000DF92EF92FF920F931F93CF93DF93EC01C2
:1006A00085E0E62EF12CFE01869FE00DF11D112460
:1006B000908596FF24C0192F177001E085E0D82E91
:1006C0008FEF800F8F3008F001E0602F70E0062F71
:1006D000D69EF001D79EF00D1124EC0FFD1F8085F2
:1006E0008695869586958770181701F16F5F7F4F05
:1006F000603168F38D81811302C011501D8385E044
:100700008E9DF0018F9DF00D1124EC0FFD1F1086C2
:1007100081E0818712862296D783C683DF91CF91AD
:100720001F910F91FF90EF90DF900895CE010E94EE
:100730004803C6CFFC0120812EBD9B012150310909
:1007400041F051810DB407FEFDCF4EB55EBD419322
:10075000F5CF61507109860F971F0DB407FEFDCFCD
:100760002EB5FC0120830895FC0121E0613499F449
:100770009C01255B3F4F61E0AC014E5F5F4F1586EA
:10078000668717865487438735962E173F07B9F734
:10079000FC01158208953585631729F02F5F359682
:1007A0002031C9F70895622F0C944803CF93DF934B
:1007B000FC0167FD12C0283080F4442319F08581C4
:1007C000873059F0EF01A1E0B0E08D85882349F131
:1007D00011962596A031B105C1F780E018C085E0DB
:1007E0008A9FE0018B9FD00D1124CE0FDF1F442381
:1007F00089F081E4888785818F5F858325E02A9F42
:10080000C0012B9F900D1124E80FF91F8085DF9107
:10081000CF91089581E08887F1CF2770687B622BA4
:100820000FC06623E1F26770660F660F660F442300
:10083000A1F3606485818F5F85838770687F682BF3
:1008400025E02A9FC0012B9F900D1124E80FF91F6E
:100850006087862FDCCFFC0121E0611102C0069683
:1008600008953585631739F02F5F35962031C9F724
:1008700090E080E00895069635E0239F800D911D5D
:100880001124089580E0089580E0089580E008959F
:1008900080E0089581E0089508952A9808952A9A9D
:1008A000089508950F931F93CF93DF9300D0CDB792
:1008B000DEB7182F062F80E591E00E9409010E9403
:1008C0004D04126019830A8362E070E0CE01019644
:1008D0000E949A030E944F040F900F90DF91CF91D6
:1008E0001F910F9108958EBD00000DB407FEFDCF3E
:1008F0008EB50895FF920F931F93CF93DF93182F18
:10090000F62EEA0180E591E00E9409010E944D0463
:10091000812F82600E9473040F2D10E0FF2021F0D0
:10092000B801CE010E949A03C00FD11F0E944F044C
:10093000CE01DF91CF911F910F91FF900895CF933A
:10094000C82F80E591E00E9409010E944D048C2F80
:100950000E94730480E00E947304C82F0E944F0419
:100960008C2FCF9108958F929F92AF92BF92CF928A
:10097000DF92EF92FF920F931F93CF93DF93882E16
:10098000962E5A010E9421036B017C0128E8C20EB9
:1009900023E1D21EE11CF11C10E000E0D0E0C0E039
:1009A00098280E9421036C197D098E099F0997FFE1
:1009B0001EC0692D80EF0E9452040E9421036C1911
:1009C0007D098E099F0997FF09C088EC0E949F044A
:1009D00087FFF3CF60E888EC0E94520488EF0E9402
:1009E0009F04C82FCF70C43081F0CE30B9F08C2F67
:1009F000DF91CF911F910F91FF90EF90DF90CF90FB
:100A0000BF90AF909F908F9008950F5F1F4FA114DC
:100A1000B10439F20A151B0521F6E9CFDF5FD330A7
:100A200009F0BFCFE4CFAF92BF92CF92DF92EF92A7
:100A3000FF920F931F93CF93DF93EC01B62EA42E5A
:100A400069010E942B047C0186EDE114F10409F494
:100A500047C0D701ED91FC91119787ED309709F4CC
:100A60003FC013969C9180E0981731F02081A21628
:100A700029F033968F5FF8CFF0E0E0E0D601ED93F8
:100A8000FC938BED309761F12281269526952031DC
:100A900008F02FE081E090E0A0E0B0E004C0880F13
:100AA000991FAA1FBB1F2A95D2F70197F8019183BE
:100AB00080836B2D80EE0E94520488ED0E949F047B
:100AC000D70114969C91682F697F992329F0CA5801
:100AD000DF4F68816260682B88ED0E94520480E0DD
:100AE000DF91CF911F910F91FF90EF90DF90CF900A
:100AF000BF90AF90089588EF0E949F04807C80345F
:100B0000B1F018F4882301F10895803819F0803C81
:100B1000C9F0089588ED0E949F0481FD0DC069EC25
:100B200088ED0E94520482E080936401089588ED6C
:100B30000E949F0481FDF3CF6BEC88ED0E9452046C
:100B400083E0F2CF81E0F0CF61ED88ED0E945204A6
:100B5000109264010895CF93DF93EC0188810E9485
:100B60004202892B39F48981813021F41982DF9185
:100B7000CF91089588810E944202019729F48981CA
:100B8000811102C081E0898380E0F1CF089590E077
:100B900080E00895CF92DF92FF920F931F93CF933F
:100BA000DF93F62E01E0C82FD0E0CC0FDD1FC95730
:100BB000D94F6E0188819981DC01ED91FC91028011
:100BC000F381E02D2F2D40E060E00995182F803E45
:100BD00049F561E088EE0E94520466E670E080E02C
:100BE00090E00E94EF02F60180819181DC01ED919D
:100BF000FC910190F081E02D2F2D40E060E00995FF
:100C0000182F8D3041F58FEF800F833088F061E031
:100C100088EE0E94520466E670E080E090E00E9458
:100C2000EF0210C08D3061F48FEF800F833050F4ED
:100C300064E670E080E090E00E94EF020F5FBACFC0
:100C4000882389F2812FDF91CF911F910F91FF901F
:100C5000DF90CF9008958823A9F3D9CFCF93DF9366
:100C6000EC0160E08E810E946B0261E08E810E9447
:100C70006B0260E08E810E946B028BE891E001972D
:100C8000F1F7DF91CF910895CF92DF92EF92FF922B
:100C90000F931F93CF93DF936C017C0187E0E80EE5
:100CA000F11CD0E0C0E0062F10E0B8010C2E02C00D
:100CB000759567950A94E2F76170F70181917F015C
:100CC0000E946B022196C430D10579F7C601DF91ED
:100CD000CF911F910F91FF90EF90DF90CF900C94E8
:100CE0002E06CF92DF92EF92FF920F931F93CF9336
:100CF000DF93EC01F62E642F8C810E946B028D81B4
:100D00008F3F19F060E00E946B020F2D10E08F857D
:100D100084FF25C06E0187E0C80ED11CF12CE12CA8
:100D2000B8010E2C02C0759567950A94E2F76170C0
:100D3000F60181916F010E946B02FFEFEF1AFF0A2B
:100D400088E0E816F10461F7CE01DF91CF911F91A1
:100D50000F91FF90EF90DF90CF900C942E06B8018A
:100D600084E0759567958A95E1F7CE010E94440667
:100D70006F2DCE01DF91CF911F910F91FF90EF90DA
:100D8000DF90CF900C94440640E0682F83E096E01B
:100D90000C947106CF93DF93613029F09091120685
:100DA000986090931206609316061092170690E4CE
:100DB0009093180680931906805C80931A0661E070
:100DC000809107060E949902809108068F3F19F0D2
:100DD00061E00E94990261E0809109060E949902F7
:100DE000C3E0D6E09E01235036408091120684FD78
:100DF0000BC084E090E021962817390744F461E0A5
:100E00008E810E949902EECF88E090E0F4CF8BE3D0
:100E10009DE00197F1F760E0809107060E946B0268
:100E200060E0809109060E946B02809108068F3F66
:100E300019F060E00E946B028091120684FD39C0B7
:100E400063E083E096E00E944406CBE4D6E4CE0162
:100E50000197F1F763E083E096E00E944406219752
:100E6000F1F763E083E096E00E94440683E592E0B8
:100E70000197F1F762E083E096E00E9444068091DA
:100E8000120680620E94C40684E0809313068CE000
:100E90000E94C40681E00E94C4068BE39FE1019793
:100EA000F1F782E08093140686E0DF91CF910C94F5
:100EB000C40680620E94C4068BE496E40197F1F7B1
:100EC0008091120680620E94C40683E592E0019739
:100ED000F1F78091120680620E94C406D0CF643080
:100EE00008F063E090911606691710F06FEF690F34
:100EF000E62FF0E0ED5FF94F9489890F80680C943C
:100F0000C40641E00E94710681E090E008950F93CD
:100F10001F93CF93DF938C01D0E0C0E0F801EC0F7A
:100F2000FD1F6491662339F041E083E096E00E9462
:100F300071062196F3CFCE01DF91CF911F910F91D2
:100F400008952F923F924F925F926F927F928F926D
:100F50009F92AF92BF92CF92DF92EF92FF920F9348
:100F60001F93CF93DF937B013A016901F901A080C0
:100F7000B180FB013180F90111821082FB01828175
:100F800060E181FD60E288EE0E9452042A2CA301F8
:100F9000F701608180E00E94B304582EF6E08F13C1
:100FA00010C088EF0E949F04F70192819D7F84FF0B
:100FB0009260928360E191FD60E288EE0E945204AB
:100FC000E6CF811150C088EC0E949F0482FF5FC071
:100FD00080E30E949F04482E8A151B0411F008F03C
:100FE000422CF60180819181E501C81BD90BD7FF06
:100FF00002C0D0E0C0E0842C912C8C169D060CF42D
:10100000E40180E591E00E9409010E944D0488E01E
:101010000E947304AE0170E060E0C8010E94DB1220
:10102000209721F0BE01C8010E949A030C0F1D1FDA
:101030000E944F0464E088EC0E945204F601808113
:101040009181880E991E91828082431420F08A1427
:101050009B0408F49CCF88EF0E949F04F7019281C3
:1010600084FB91F99283852DDF91CF911F910F9190
:10107000FF90EF90DF90CF90BF90AF909F908F90B8
:101080007F906F905F904F903F902F90089580EFEA
:10109000582EE9CF2F923F924F925F926F927F929C
:1010A0008F929F92AF92BF92CF92DF92EF92FF9278
:1010B0000F931F93CF93DF93CDB7DEB763970FB630
:1010C000F894DEBF0FBECDBF3C01542E422E302E11
:1010D0001E861D861C861B868E01055F1F4F9E0186
:1010E000235F3F4F40E00E941305F82E8111D0C0CE
:1010F00059824A823B82EC821E821D82D886CF8230
:10110000AE014F5F5F4F68E080E20E947A044B853A
:101110005C8560E080E10E94B304811116C18114F6
:101120009104B1F10D851E85F801828157FE36C00C
:1011300082608283EE24E394C114D10409F40AC1CD
:10114000BA86A9864B855C856D857E8584019E0166
:10115000275F3F4FC3010E94A107F82EF6E08F13CF
:101160000EC088EF0E949F04ED85FE8585FB8827D1
:1011700080F98E25928180FB91F99283DDCF8111D8
:1011800087C089859A85C81AD90A8A159B05A0F651
:101190004B855C8557FED5C080EAD4C081608283D0
:1011A000E1808FEF8E0D803408F0D1C08B859C8557
:1011B000988B8F870E9421031B012C01E8E82E0EDB
:1011C000E3E13E1E411C511CF801828160E880FF72
:1011D00060E488EE0E945204F12C8E2D90E09A8BF0
:1011E000898BA114B10409F446C0C988DA88AC140B
:1011F000BD0408F46501CB8AA4016C2D80E10E9436
:101200007A046C2D88E30E945204F80160816062C8
:1012100080EF0E94520488EC0E949F0487FFFBCF5E
:1012200060E888EC0E94520488EF0E949F048F704F
:10123000F82EE12C712C612CFF2009F443C00E9490
:101240002103621973098409950997FF3BC0F6E0F1
:10125000FF1609F462C02EE0F216C9F184E0F8121C
:101260000AC09FEF691A790AEF85F889309799F1DA
:10127000E615F70581F588EF0E949F04F801928139
:1012800085FB90F992834B855C85FF2009F459C05A
:101290008F2D63960FB6F894DEBF0FBECDBFDF91E2
:1012A000CF911F910F91FF90EF90DF90CF90BF9063
:1012B000AF909F908F907F906F905F904F903F90F6
:1012C0002F900895AC18BD088C0C9D1C8ACFE39418
:1012D000F3E0EF1681F260E088E30E945204F4012B
:1012E000608180E10E9452046B8988E30E9452046D
:1012F000F8016081606280EF0E94520488EC0E94D5
:101300009F0487FFFBCF60E888EC0E94520488EFBF
:101310000E949F048F70F82E8FCF88EF0E949F0449
:1013200085FB882780F921E08227F801928180FBE4
:1013300090F9928360E890FF60E488EE0E94520486
:10134000CACF80E860E00E94B304F82EA1CF8AEDF6
:10135000F82E9ECF4B855C85FF2009F41DCF98CFDA
:101360008F929F92AF92BF92CF92DF92EF920F93A4
:10137000CF93912C812CB12CA12CD12CC12CE12C00
:10138000062F25E040E060E00E944A08C82F6CE28A
:1013900071E080E090E00E94EF028C2FCF910F91DE
:1013A000EF90DF90CF90BF90AF909F908F90089577
:1013B0004F925F926F927F928F929F92AF92BF9265
:1013C000CF92DF92EF92FF920F931F93CF93DF9311
:1013D000CDB7DEB7DA950FB6F894DEBF0FBECDBF3E
:1013E0003C01162FF42ECE0101964C01A4E0AA2E4A
:1013F000B12CB4E0CB2ED12C02E0E02E042F26E05D
:1014000040E8D30112968D919C910E944A08811167
:1014100066C04B805C80B1E04B165B0618F0412C37
:1014200055245394FE0131964F0152016201E2E0CE
:10143000EE2E0F2D26E040E8612FD30112968D91FC
:101440009C910E944A0881114AC040E0F401480C76
:10145000591CE415F50508F042C050819181943083
:1014600059F09530A1F0923021F49581D301159671
:101470009C93E50FF11DEDCF9581913071F526819B
:10148000233059F5D30118969C9341E0F2CF938114
:101490009370923071F792814423D1F021E097FF4D
:1014A00022E0648130E0D901AA0FBB1FA20FB31F55
:1014B000A60DB71D9F7019969C9319971A966C9359
:1014C000D30116969C9116979F5F16969C93D1CF49
:1014D00023E097FDE6CF24E0E4CF40E0CACFD395E8
:1014E0000FB6F894DEBF0FBECDBFDF91CF911F9135
:1014F0000F91FF90EF90DF90CF90BF90AF909F90B3
:101500008F907F906F905F904F9008952F923F92B1
:101510004F925F926F927F928F929F92AF92BF9203
:10152000CF92DF92EF92FF920F931F93CF93DF93AF
:10153000CDB7DEB767970FB6F894DEBF0FBECDBF4D
:10154000FC0181E88487158686858E7F8D7F86875E
:1015500031E03787108A81898E7F8D7F818B8481EE
:1015600009ED811113C0122F4F8BF62E3F014280DF
:101570005380D201ED91FC910190F081E02D60E06B
:10158000C20109951C010097D9F406ED802F6796DA
:101590000FB6F894DEBF0FBECDBFDF91CF911F9184
:1015A0000F91FF90EF90DF90CF90BF90AF909F9002
:1015B0008F907F906F905F904F903F902F90089505
:1015C000FC010190F081E02DFE8BED8B07EDEF2B00
:1015D000E9F29301275F3F4F3C8B2B8BDC01119687
:1015E0003C932E9314961C93FE0131964F0182E199
:1015F000A82EB12C92E1C92ED12CEE24E39400E068
:1016000026E040E860E0D30112968D919C910E9403
:101610004A08082F89859A85F301E55AFF4F91837F
:1016200080838B859C853297918380832D893E8929
:10163000F101318320830111ABC0D201ED91FC9106
:101640000280F381E02D2F8940E06F2DC2010995C2
:10165000F301848304ED882309F498CF9885928759
:10166000682F828193810E94B009082FD201ED91E9
:10167000FC91D10114961C92882359F00480F581C5
:10168000E02DD30114966C91C2010995F3011482E7
:101690007DCF0190F081E02DD30114966C91C201B1
:1016A0000995009709F471CFFC011483D3011296B8
:1016B0008D919C91139714961C91EB89FC89EF2BCB
:1016C00009F465C0612F0E942B04FC01892B09F4E9
:1016D00068C0FA8812832B893C893183208331E0EA
:1016E0003383D30118961C9210E01F1581F0412F0F
:1016F000F3016481C3010E94D809082F811148C0F9
:10170000D30116968C91823010F41F5FEECFF30157
:101710008681823008F447C08085811108C08289A3
:10172000848783898587858987878689808BD3018C
:1017300014961C911497612F12968D919C910E9482
:101740002B04FC01892B39F012832B893C893183CE
:10175000208383E08383912C812CB12CA12CD12C6C
:10176000C12CE12CD30115960C91159729E040E08E
:1017700014966C91149712968D919C910E944A0830
:10178000082F811105C081E0F3018783FFCE08EDAA
:10179000D301ED91FC910480F581E02DC301099501
:1017A000F5CE06EDF5CF0FEFF3CF1F920F920FB6E8
:1017B0000F9211242F933F934F935F936F937F93D7
:1017C0008F939F93AF93BF93EF93FF9385E691E041
:1017D0000E948A01FF91EF91BF91AF919F918F91EC
:1017E0007F916F915F914F913F912F910F900FBE1D
:1017F0000F901F9018951F920F920FB60F92112401
:101800002F938F939F93EF93FF93E0917501F09146
:1018100076018081E0917B01F0917C0182FD1BC00B
:10182000908180917E018F5F8F7320917F0182175D
:1018300041F0E0917E01F0E0EB59FE4F958F8093EF
:101840007E01FF91EF919F918F912F910F900FBE8D
:101850000F901F9018958081F4CF1F920F920FB6B2
:101860000F9211242F933F938F939F93AF93BF9326
:101870008091530190915401A0915501B09156016E
:101880003091520123E0230F2D3758F50196A11D09
:10189000B11D209352018093530190935401A09362
:1018A0005501B09356018091570190915801A09134
:1018B0005901B0915A010196A11DB11D80935701A4
:1018C00090935801A0935901B0935A01BF91AF91E1
:1018D0009F918F913F912F910F900FBE0F901F906E
:1018E000189526E8230F0296A11DB11DD2CFCF93E4
:1018F000109268011092670188EE93E0A0E0B0E0DA
:101900008093690190936A01A0936B01B0936C017D
:1019100088E191E0909366018093650185EC90E009
:10192000909372018093710184EC90E09093740124
:101930008093730180EC90E0909376018093750121
:1019400081EC90E0909378018093770182EC90E0B5
:1019500090937A018093790186EC90E090937C01DA
:1019600080937B0110927E0110927F011092800182
:101970001092810183E180930F0760E00E94990239
:10198000C1E0C093100782E180930D0760E00E94E0
:101990009902C0930E0780E180930B0760E00E94DC
:1019A0009902C0930C0781E18093090760E00E94CF
:1019B0009902C0930A078CE491E0909332068093D9
:1019C000310610923906C0933A0610923B0683E323
:1019D00096E090933806809337061092330688E09D
:1019E000809334068CE38093350610923606E1E34B
:1019F000F6E081E023E336E0158686871786348794
:101A00002387359696E0EC37F907B1F71092A706D1
:101A100091E19093020226E331E03093A9062093EE
:101A2000A80621E336E03093AB062093AA06109275
:101A3000AC068093AE061092AF061092B0061092DC
:101A400000071092B10688E08093B2068091B30639
:101A500083708C638093B3061092B4061092B5061F
:101A60008091B606837084608093B6061092B706A4
:101A70001092B8068091B906837084608093B9068D
:101A80001092BA061092BB068091BC0683708460E7
:101A90008093BC061092BD061092BE068091BF06D0
:101AA000837084608093BF06E7E8F6E090E080E012
:101AB00021913191232B09F069C0880F991FFC01F6
:101AC000E957F94F88EA96E09183808380EB809311
:101AD000080710920606109205068AE291E090939C
:101AE00004068093030687E0809307068FEF8093B8
:101AF000080686E08093090685E080930A0684E064
:101B000080930B0683E080930C0682E080930D06A1
:101B100010920E0610920F061092100610921106E7
:101B20001092120661E080E10E94CA068AE291E00A
:101B3000909304068093030610921B0680E1E0E078
:101B4000F1E0ACE1B6E001900D928A95E1F7809169
:101B5000100190911101A0911201B0911301809395
:101B60002C0690932D06A0932E06B0932F0610926C
:101B70003006E3E0F2E090E080E0819391930196FB
:101B8000811522E09207C9F7CF910895019680311F
:101B9000910509F08DCF9ACFCF93DF93CDB7DEB704
:101BA00067970FB6F894DEBF0FBECDBF789484B5AB
:101BB000826084BD84B5816084BD85B5826085BD49
:101BC00085B5816085BD80916E00816080936E00D7
:101BD00010928100809181008260809381008091C9
:101BE000810081608093810080918000816080937A
:101BF00080008091B10084608093B1008091B0003A
:101C000081608093B00080917A00846080937A0034
:101C100080917A00826080937A0080917A0081605E
:101C200080937A0080917A00806880937A00109285
:101C3000C100E0917501F091760182E08083E0912E
:101C40007101F09172011082E0917301F0917401C1
:101C50008FE3808310927D01E0917901F0917A0108
:101C600086E08083E0917701F09178018081806146
:101C70008083E0917701F091780180818860808392
:101C8000E0917701F0917801808180688083E09114
:101C90007701F091780180818F7D808364E084E119
:101CA0000E94CA0660E080E00E946F078AEB90E025
:101CB0000E94870762E080E00E946F0785EA90E05B
:101CC0000E94870763E080E00E946F0780E990E050
:101CD0000E94870780911306982F926090931306B5
:101CE0008A600E94C40680911306982F9160909399
:101CF000130689600E94C406229A0E944F041FB7EF
:101D0000F89480915B01811127C0E0EFF0E08491AD
:101D1000ECEDF0E09491E82FF0E0EE0FFF1FE853B8
:101D2000FF4FA591B491EC91E92321F461E08AE0A1
:101D30000E946B0261E08AE00E9499028CB580618A
:101D40008CBD8CB580648CBD61E08DE00E949902F1
:101D500061E08BE00E94990280915B018F5F80932C
:101D60005B011FBF229A0E944F04219868E188E816
:101D70000E94520460E288E70E94520460E088E713
:101D80000E94520410E000E088E60E949F040F5F6A
:101D90001F4F80FF44C061EC88ED0E94520460E652
:101DA00080ED0E94520464E088EE0E94520488EEA6
:101DB0000E949F0482FFFBCF0E947B0560E288ECBB
:101DC0000E94520461E080E80E94520468EC70E0D6
:101DD00080E090E00E94EF021E0183E1280E311C9A
:101DE0000E94210383B1182F127081FD0CC088EC72
:101DF0000E949F0485FF03C00E947B0510E2612FB3
:101E000088EC0E94520480916401813069F080F076
:101E1000823009F468C08330A1F010E029C00F3F80
:101E2000100709F0B1CFFFCF93E190930202F5CFF5
:101E300080910202807F803181F3A1E1A0930202B0
:101E4000ECCF11E080910202807F803189F40E9402
:101E5000210368537F4F8F4F9F4F60935C017093B6
:101E60005D0180935E0190935F01B0E2B093020246
:101E7000A7E86A2EA6E07A2E7301F701819191916D
:101E80007F01009739F0DC01ED91FC910680F7812C
:101E9000E02D0995B7EAEB16B6E0FB0671F78091E5
:101EA0000202803409F456C000F58032E9F1803333
:101EB00009F44AC0813109F05DC01092A706F30110
:101EC000819191913F01009739F0DC01ED91FC91F6
:101ED0000480F581E02D0995E614F70481F782E18D
:101EE0008093020247C010E0ADCF813509F475C17F
:101EF000803809F485C18035E9F588EC0E949F049B
:101F000086FF38C081E5809302020E9421036C5E47
:101F10007F4F8F4F9F4F60935C0170935D01809363
:101F20005E0190935F0126C00E94210300915C0135
:101F300010915D0120915E0130915F01601B710B7A
:101F4000820B930B97FD16C061E088EE0E9452044D
:101F500080E4C6CF88EE0E949F0480FD0BC088ED10
:101F60000E949F04682F686088ED0E945204B0E5CB
:101F7000B09302028FE097E00E94AB05882399F1AD
:101F80008091630190E0019683709927182F8093C8
:101F9000630180931B0681E00E94C4068BE39FE1EE
:101FA0000197F1F760E080E0123009F438C2133095
:101FB00009F44AC2113009F41DC20E946F078DEA6C
:101FC00091E00E94870762E080E00E946F0788E945
:101FD00091E00E94870763E080E00E946F0783E83A
:101FE00091E00E9487078DE097E00E94AB0588236F
:101FF00011F120911B0630E08091300690E00196AF
:10200000F901ED5FF94F61A570E00E94AD12809378
:102010003006220F331F820F931FDC01AA0FBB1F54
:10202000A35EB94F880F991FFC01ED5FF94F6C91CA
:10203000818D0E946F078BE097E00E94AB0588239B
:10204000F1F080916201F0E88F9F9001112480915E
:102050006101820F932F911D880F991FFC01ED5F85
:10206000FD4F20813181203841E034070CF401C25A
:102070002F7733278D5F9D4FDC012D933C9389E0B3
:1020800097E00E94AB058823E9F080916201B0E8F7
:102090008B9F9001112480916101820F932F911DDC
:1020A000880F991FFC01ED5FFD4F208131812038A1
:1020B00031050CF0E1C120583E4F8D5F9D4FFC0172
:1020C0003183208380910202803909F022C28091FD
:1020D000AF06882309F41DC2E09100078FEF8E0F31
:1020E0008F3308F0CFC1F0E0E855F94F808D882399
:1020F00009F4C5C1E0910007AE2FB0E0A855B94F73
:1021000058968C91A1E0AE0FB0E0A855B94F589603
:102110009C9190930507A2E0AE0FB0E0A855B94F8F
:1021200058962C912093060734E03E0F3093000719
:10213000ED5FF0E0E855F94F108D10930707382F49
:102140003C70343021F48F708450843088F0892FB3
:10215000903F08F4807F803E59F008F0F0C1803A4B
:1021600039F008F0E3C1803819F0803909F0D1C1A5
:1021700080910807981B909362012093610110934E
:102180006001B0E89B9FF0011124E20FF11DEE0FFA
:10219000FF1FED5FFD4FE080F180B701F7FE02C049
:1021A00061587F4F660F672F661F770B7727605543
:1021B0007F4F85E691E00E94AC01C70160E870E0C6
:1021C0000E94AD12682F85E691E00E94AC01612F5C
:1021D00085E691E00E94AC019CC10E942103C09061
:1021E0005C01D0905D01E0905E01F0905F016C19A0
:1021F0007D098E099F0997FDBDCE80E8809302027C
:102200001B8AE8E0EC8B8CE38D8B40903706509076
:102210003806309238062092370610933B06CE01DE
:1022200001964C01E2E1AE2EB12CF2E1CF2ED12C81
:10223000EE24E39400E026E040E860E081E396E0ED
:102240000E944A08082F50923806409237068111A2
:1022500050C0C984DA84AB84BC844D809E8077E80A
:10226000E72E76E0F72E512CD7018D919C910097A7
:1022700009F041C05394B2E0EB0EF11CE0E15E12B4
:10228000F3CFF30180819181009709F076C00F5F51
:10229000F2E06F0E711C0031A1F78091370690912A
:1022A0003806892B09F459C010933B0620E040E022
:1022B00060E081E396E00E94D603F82E882309F4BB
:1022C0004CC0682F81E396E00E942B04009709F42C
:1022D00044C0FC0114836F2D81E396E00E94B00995
:1022E000082F882309F484C06F2D81E396E00E94B3
:1022F000B403802F2FC0DC01ED91FC910084F185A7
:10230000E02D09958111B6CFF70180819181DC0123
:10231000ED91FC910088F189E02D692D09958823C4
:1023200009F4A8CFF70180819181DC01ED91FC9146
:102330000484F585E02DA501B6010995882379F07F
:10234000612F852D0E94CA05813D09F493CF882312
:1023500009F44EC0823D09F40DCE80EAC1CDF701EB
:1023600080819181DC01ED91FC910684F785E02D5F
:10237000642D09958111E4CF7DCFDC01ED91FC91B5
:102380000084F185E02D0995811181CFF3018081D1
:102390009181DC01ED91FC910088F189E02D692D9E
:1023A0000995811109C0612F802F0E94CA05982FBD
:1023B000977F913D61F66BCFF30180819181DC01C4
:1023C000ED91FC910484F585E02DA501B6010995F8
:1023D00081115DCFF30180819181DC01ED91FC9150
:1023E0000684F785E02D642D09958823E1F24FCF0F
:1023F00080E976CD0E946F0788E791E00E94870709
:1024000062E080E00E946F0786E691E00E94870705
:1024100063E080E00E946F0783E591E0E2CD0E94D7
:102420006F0788E491E00E94870762E080E00E94E5
:102430006F0787E391E00E94870763E080E00E94D6
:102440006F0789E291E0CDCD0E946F078DE191E0A9
:102450000E94870762E080E00E946F078BE091E0B6
:102460000E94870763E080E00E946F078AEF90E098
:10247000B8CD20583F4FFECD205831091ECE818D5A
:10248000811138CE109200078091B50690E09F8BA5
:102490008E8BE090AA06F090AB064091B406609156
:1024A000AC061C8A1B8A1A8219828E010F5F1F4F8D
:1024B0009101C7010E94130581110CC049815A8105
:1024C0006B897C8900EC16E09E012A5E3F4FC701B4
:1024D0000E94A1072E893F892C33310540F4F90170
:1024E000E054F94F10822F53394FD9011C928111BA
:1024F00010C08091C0068111FDCD8091C10681116F
:10250000F9CD8091C2068111F5CD8091C30681116C
:10251000F1CDE0E0F0E0EF2B09F462CC0E9476010F
:10252000882309F45DCC0E9400005ACC803C09F459
:102530001FCE803D09F41CCE803B59F719CE8D3F4C
:1025400040F4883F08F014CE815F833008F410CE49
:10255000E0CF8E3F08F00CCEDCCF97FB072E16F4B1
:10256000009407D077FD09D00E94C11207FC05D066
:102570003EF4909581959F4F0895709561957F4F9A
:102580000895AA1BBB1B51E107C0AA1FBB1FA617BA
:10259000B70710F0A61BB70B881F991F5A95A9F70C
:1025A00080959095BC01CD010895EE0FFF1F059019
:1025B000F491E02D0994DC0101C06D93415050402D
:1025C000E0F70895F894FFCF000001000100010139
:1025D00000020102000301030202020200000000E7
:1025E000AC010C013901F9016A0148015C010000EC
:1025F000000081070C01C705C60500000000860A1F
:1026000048042D03440445034C04420446044A0490
:0A261000000000002B04D603B40301
:107E0000112484B714BE81FFF0D085E080938100F7
:107E100082E08093C00088E18093C10086E0809377
:107E2000C20080E18093C4008EE0C9D0259A86E02C
:107E300020E33CEF91E0309385002093840096BBD3
:107E4000B09BFECF1D9AA8958150A9F7CC24DD24C4
:107E500088248394B5E0AB2EA1E19A2EF3E0BF2EE7
:107E6000A2D0813461F49FD0082FAFD0023811F036
:107E7000013811F484E001C083E08DD089C08234E0
:107E800011F484E103C0853419F485E0A6D080C0E4
:107E9000853579F488D0E82EFF2485D0082F10E0AE
:107EA000102F00270E291F29000F111F8ED06801E7
:107EB0006FC0863521F484E090D080E0DECF843638
:107EC00009F040C070D06FD0082F6DD080E0C81688
:107ED00080E7D80618F4F601B7BEE895C0E0D1E017
:107EE00062D089930C17E1F7F0E0CF16F0E7DF06D8
:107EF00018F0F601B7BEE89568D007B600FCFDCFD4
:107F0000A601A0E0B1E02C9130E011968C91119780
:107F100090E0982F8827822B932B1296FA010C0160
:107F200087BEE89511244E5F5F4FF1E0A038BF0790
:107F300051F7F601A7BEE89507B600FCFDCF97BE46
:107F4000E89526C08437B1F42ED02DD0F82E2BD052
:107F50003CD0F601EF2C8F010F5F1F4F84911BD097
:107F6000EA94F801C1F70894C11CD11CFA94CF0C13
:107F7000D11C0EC0853739F428D08EE10CD085E9AC
:107F80000AD08FE07ACF813511F488E018D01DD067
:107F900080E101D065CF982F8091C00085FFFCCF94
:107FA0009093C60008958091C00087FFFCCF809118
:107FB000C00084FD01C0A8958091C6000895E0E648
:107FC000F0E098E1908380830895EDDF803219F02E
:107FD00088E0F5DFFFCF84E1DECF1F93182FE3DFCA
:107FE0001150E9F7F2DF1F91089580E0E8DFEE27F6
:047FF000FF270994CA
:027FFE00040479
:00000001FF
