:100000000C94F8000C9420010C9420010C94200115
:100010000C9420010C9420010C9420010C942001DC
:100020000C9420010C9420010C9420010C942001CC
:100030000C9420010C9420010C9420010C942001BC
:100040000C94EF100C9420010C94BD100C9497109C
:100050000C9420010C9420010C9420010C9420019C
:100060000C9439110C942001000000002500280098
:100070002B000000000023002600290000000008DB
:10008000000201000003040700000000000000005F
:100090003C2D20636830312063635F5F5F207661B1
:1000A0006C5F5F5F002D3E20636830312063635FCB
:1000B0005F5F2076616C5F5F5F006D6F64653A2003
:1000C000706572666F726D000000000024002700EA
:1000D0002A000102040810204080010204081020B8
:1000E00001020408102004040404040404040202AD
:1000F00002020202030303030303536176656421D2
:1001000000526573657420436F6D706C6574652172
:1001100000596573204E6F0052657365743A204331
:100120006F6E6669726D3F00746F206465666175FD
:100130006C742073746174650070726573732055FC
:100140005020746F207265736574006D6F64653A3A
:100150002072657365740063757272656E742073C6
:100160007461746500707265737320555020746FEC
:100170002073617665006D6F64653A207361766502
:10018000006D696469203C2D2063685F5F206363B4
:100190005F5F5F0075736220202D3E2063685F5FA4
:1001A0002063635F5F5F006D6F64653A206564691B
:1001B00074003C2D20636830312063635F5F5F20F3
:1001C00076616C5F5F5F002D3E2063683031206395
:1001D000635F5F5F2076616C5F5F5F006D6F64657A
:1001E0003A20706572666F726D00300030005812F0
:1001F00011241FBECFEFD8E0DEBFCDBF24E0AAE6BA
:10020000B1E001C01D92A63EB207E1F711E0A0E007
:10021000B1E0ECEDF5E302C005900D92AA36B1070E
:10022000D9F710E0C8EFD0E004C02197FE010E948A
:10023000DF1AC73FD107C9F70E94BE130C94EC1A0E
:100240000C940000089508958CBD9DBD0895809183
:10025000DC029091DD02891B990B0895AF92BF9249
:10026000CF92DF92EF92FF920F931F93CF93DF9382
:100270006C017B018B01040F151FEB015E01AE18B1
:10028000BF08C017D10759F06991D601ED91FC91D3
:100290000190F081E02DC6010995892B79F7C50100
:1002A000DF91CF911F910F91FF90EF90DF90CF9052
:1002B000BF90AF900895FC01538D448D252F30E001
:1002C000842F90E0821B930B541710F0CF96089563
:1002D00001970895FC01918D828D981761F0A28D90
:1002E000AE0FBF2FB11D5D968C91928D9F5F9F7356
:1002F000928F90E008958FEF9FEF0895FC01918D0C
:10030000828D981731F0828DE80FF11D858D90E078
:1003100008958FEF9FEF0895FC01918D228D892F15
:1003200090E0805C9F4F821B91098F7399270895FD
:1003300089E392E00E948C0121E0892B09F420E0FE
:10034000822F089580E090E0892B29F00E94980187
:1003500081110C9400000895FC01A48DA80FB92F01
:10036000B11DA35ABF4F2C91848D90E001968F73DD
:100370009927848FA689B7892C93A089B1898C91FC
:10038000837080648C93938D848D981306C002884B
:10039000F389E02D80818F7D80830895EF92FF9215
:1003A0000F931F93CF93DF93EC0181E0888F9B8D98
:1003B0008C8D98131AC0E889F989808185FF15C052
:1003C0009FB7F894EE89FF896083E889F989808175
:1003D0008370806480839FBF81E090E0DF91CF9144
:1003E0001F910F91FF90EF900895F62E0B8D10E066
:1003F0000F5F1F4F0F731127E02E8C8D8E110CC0D5
:100400000FB607FCFACFE889F989808185FFF5CF1F
:10041000CE010E94AC01F1CFEB8DEC0FFD2FF11D51
:10042000E35AFF4FF0829FB7F8940B8FEA89FB895C
:1004300080818062CFCFCF93DF93EC01888D8823BA
:10044000B9F0AA89BB89E889F9898C9185FD03C037
:10045000808186FD0DC00FB607FCF7CF8C9185FF1C
:10046000F2CF808185FFEDCFCE010E94AC01E9CFB4
:10047000DF91CF910895833081F028F4813099F095
:100480008230A9F008958730A9F08830C9F084300F
:10049000B1F4809180008F7D03C0809180008F77C0
:1004A00080938000089584B58F7784BD089584B5C6
:1004B0008F7DFBCF8091B0008F778093B00008953F
:1004C0008091B0008F7DF9CFCF93DF93282F30E05C
:1004D000F901E458FF4F8491F901EE52FF4FD49196
:1004E000F901EA51FF4FC491CC23A1F081110E9480
:1004F0003B02EC2FF0E0EE0FFF1FEE58FF4FA591EF
:10050000B491EC91ED2381E090E009F480E0DF917B
:10051000CF91089580E090E0FACF1F93CF93DF93BF
:10052000282F30E0F901E458FF4F8491F901EE5291
:10053000FF4FD491F901EA51FF4FC491CC23A9F0A8
:10054000162F81110E943B02EC2FF0E0EE0FFF1FEF
:10055000E859FF4FA591B4918FB7F894EC91111120
:1005600008C0D095DE23DC938FBFDF91CF911F9120
:100570000895DE2BF8CFCF93DF9390E0FC01EE528D
:10058000FF4F24918A519F4FFC0184918823D1F021
:1005900090E0880F991FFC01E853FF4FA591B4919B
:1005A000FC01E859FF4FC591D49161110EC09FB76E
:1005B000F8948C91E22FE0958E238C932881E2238E
:1005C000E8839FBFDF91CF9108958FB7F894EC91A6
:1005D000E22BEC938FBFF6CF3FB7F8948091B30135
:1005E0009091B401A091B501B091B60126B5A89B38
:1005F00005C02F3F19F00196A11DB11D3FBFBA2FB5
:10060000A92F982F8827BC01CD01620F711D811D74
:10061000911D42E0660F771F881F991F4A95D1F7F9
:1006200008958F929F92AF92BF92CF92DF92EF92F6
:10063000FF924B015C010E94EC026B017C010E9465
:10064000EC026C197D098E099F09683E7340810593
:100650009105A8F321E0821A9108A108B10888EE5B
:10066000C80E83E0D81EE11CF11C81149104A10482
:10067000B10429F7FF90EF90DF90CF90BF90AF903B
:100680009F908F9008952FB7F8946091AF0170916B
:10069000B0018091B1019091B2012FBF08952091D6
:1006A0008B01260F3327331F21323105ECF42091C3
:1006B0003302FC0190E080E0243069F082E008958C
:1006C000A0918B012191AC0145595E4FA40FB52F2C
:1006D000B11D2C930196861798F380918B01680FBA
:1006E00060938B0180E0089581E0089510923302B9
:1006F00081E08093120210920D0261E082E10E947B
:100700008D0261E083E10E948D02E9EBF0E08081DF
:100710008E7F808380818D7F808388E48093B80082
:1007200085E48093BC000895CF93DF9391E090938C
:100730006A018823B9F0C091B800D091BA008091C5
:10074000BC008A7B8093BC0060E082E10E948D0245
:1007500060E083E10E948D020E947603D093BA008C
:10076000C093B800DF91CF910895CF92DF92EF92BE
:10077000FF920F931F93CF93DF93D82FC62F613231
:1007800008F098C00E94EC026B017C01809133025A
:1007900081116BC081E080933302809312029FEF3E
:1007A00090931102109210029C0F90930F0280936D
:1007B0000E0280910E02DD0FD82BD0930E02809195
:1007C0000D02813009F078C010920D020E94EC02F7
:1007D0006B017C0180910E028093BB0080913502F9
:1007E00090913602A0913702B0913802892B8A2B62
:1007F0008B2BA1F00E94EC02009135021091360281
:1008000020913702309138026C197D098E099F09B9
:10081000061717072807390708F448C08091BC005D
:1008200083FDD8CF85EC8093BC000E94EC026B0165
:100830007C0180913302813009F440C08091100224
:100840008C1710F4C0911002EDEEF1E0A3E1B2E0DC
:1008500080E08C1355C08C2FDF91CF911F910F91A9
:10086000FF90EF90DF90CF900895809135029091A6
:100870003602A0913702B0913802892B8A2B8B2B3C
:1008800009F484CF0E94EC020091350210913602E7
:1008900020913702309138026C197D098E099F0929
:1008A000061717072807390708F070CF8091340220
:1008B0000E949403C0E0CFCF85EEB5CF8091350282
:1008C00090913602A0913702B0913802892B8A2B81
:1008D0008B2B09F4AECF0E94EC02009135021091EF
:1008E000360220913702309138026C197D098E0949
:1008F0009F09061717072807390708F09ACFD6CFA0
:1009000091919D938F5FA5CF8F929F92AF92BF924F
:10091000CF92DF92EF92FF920F931F93CF93DF93CB
:10092000D091DA02D13208F0D7C0182FC091EC0173
:100930000E94EC026B017C018091330281116BC03B
:1009400082E080933302109312028FEF80931102A2
:1009500010921002D0930F02ACECB1E0EDEEF1E09A
:1009600080E0D81391C010920E0280910E02CC0F3D
:10097000C82BC0930E0280910D02813009F088C00F
:1009800010920D020E94EC026B017C0180910E021C
:100990008093BB008091350290913602A09137027E
:1009A000B0913802892B8A2B8B2BA1F00E94EC028C
:1009B00000913502109136022091370230913802B1
:1009C0006C197D098E099F09061717072807390733
:1009D00008F442C08091BC0083FDD8CF85EC8093A1
:1009E000BC000E94EC026B017C01809133028230DA
:1009F00009F450C0809111028F3F09F46FC08091BB
:100A00001102803209F46CC080911102803309F424
:100A100069C084E026C08091350290913602A09191
:100A20003702B0913802892B8A2B8B2B09F484CFA3
:100A30000E94EC028090350290903602A09037021E
:100A4000B09038026C197D098E099F0986169706A9
:100A5000A806B90608F070CF809134020E94940372
:100A600085E01092DB021092DA021092CB01DF9146
:100A7000CF911F910F91FF90EF90DF90CF90BF909B
:100A8000AF909F908F9008959D9191938F5F69CFC4
:100A900085EEA5CF8091350290913602A091370264
:100AA000B0913802892B8A2B8B2B09F49ECF0E94A0
:100AB000EC020091350210913602209137023091FC
:100AC00038026C197D098E099F0906171707280738
:100AD000390708F08ACFC0CF81E0C3CF80E0C1CF13
:100AE00082E0BFCF83E0BDCF0895E091DD02809129
:100AF000DC02E81730F4F0E0ED5EFD4F808190E01D
:100B000008958FEF9FEF08959091DD028091DC02B0
:100B10002FEF3FEF981748F4E92FF0E0ED5EFD4F1F
:100B2000208130E09F5F9093DD02C9010895CF924C
:100B3000DF92EF92FF920F931F93CF93DF937C018D
:100B4000CB018A012091CB01222389F0EB016B01BB
:100B5000C40ED51ECC15DD0569F06991D701ED9164
:100B6000FC910190F081E02DC7010995F3CF642F2E
:100B70000E944F03C801DF91CF911F910F91FF9009
:100B8000EF90DF90CF900895CF93DF931F92CDB772
:100B9000DEB769832091CB012223F9F02091DA029C
:100BA000203258F021E030E0FC013383228390E0D2
:100BB00080E00F90DF91CF9108958091DB02E82FC4
:100BC000F0E0E453FE4F998190838F5F8093DB02C6
:100BD0008093DA0281E090E0ECCF61E0CE010196F3
:100BE0000E944F03F7CF682F8EED92E00C94C4055E
:100BF000FF920F931F93CF93DF93D0E0C0E0FF24C9
:100C0000F3948091EB02F092CB018093EC0110926F
:100C1000DB021092DA0290E080E00E94F305CE0140
:100C20000E94F30510E000E0F801EC0FFD1FEE7FDD
:100C3000E451FD4F20813181C901992700FD04C095
:100C4000832F932F990F990B0E94F3050F5F1F4F6E
:100C50000031110549F781E00E94840465E070E0ED
:100C600080E090E00E9411036096C11581E0D807F2
:100C700041F6DF91CF911F910F91FF900895CF938F
:100C8000DF93EC018A819B81DC01ED91FC91048072
:100C9000F581E02D6C81099581E08E831C821F8295
:100CA000C85ADF4F188280E0DF91CF910895FC0190
:100CB00084810895DF92EF92FF920F931F93CF9359
:100CC000DF93EC0185E0E62EF12CFE01869FE00D1E
:100CD000F11D1124908596FF24C0192F177001E093
:100CE00085E0D82E8FEF800F8F3008F001E0602F65
:100CF00070E0062FD69EF001D79EF00D1124EC0F68
:100D0000FD1F80858695869586958770181701F159
:100D10006F5F7F4F603168F38D81811302C0115086
:100D20001D8385E08E9DF0018F9DF00D1124EC0F49
:100D3000FD1F108681E0818712862296D783C683A5
:100D4000DF91CF911F910F91FF90EF90DF90089569
:100D5000CE010E945A06C6CFFC0120812EBD9B0108
:100D60002150310941F051810DB407FEFDCF4EB540
:100D70005EBD4193F5CF61507109860F971F0DB489
:100D800007FEFDCF2EB5FC0120830895FC0121E074
:100D9000613499F49C01255B3F4F61E0AC014E5FEB
:100DA0005F4F1586668717865487438735962E17BB
:100DB0003F07B9F7FC01158208953585631729F0BF
:100DC0002F5F35962031C9F70895622F0C945A068B
:100DD000CF93DF93FC0167FD12C0283080F44423D9
:100DE00019F08581873059F0EF01A1E0B0E08D85E1
:100DF000882349F111962596A031B105C1F780E00D
:100E000018C085E08A9FE0018B9FD00D1124CE0F82
:100E1000DF1F442389F081E4888785818F5F858384
:100E200025E02A9FC0012B9F900D1124E80FF91F88
:100E30008085DF91CF91089581E08887F1CF277079
:100E4000687B622B0FC06623E1F26770660F660F46
:100E5000660F4423A1F3606485818F5F858387706B
:100E6000687F682B25E02A9FC0012B9F900D1124DD
:100E7000E80FF91F6087862FDCCFFC0121E06111AC
:100E800002C0069608953585631739F02F5F3596B1
:100E90002031C9F790E080E00895069635E0239F61
:100EA000800D911D1124089580E0089580E008953B
:100EB00080E0089580E0089581E0089508952A98DB
:100EC00008952A9A089508950F931F93CF93DF935F
:100ED00000D0CDB7DEB7182F062F80E591E00E9435
:100EE00024010E945F07126019830A8362E070E0A8
:100EF000CE0101960E94AC060E9461070F900F90F0
:100F0000DF91CF911F910F9108958EBD00000DB418
:100F100007FEFDCF8EB50895FF920F931F93CF93D9
:100F2000DF93182FF62EEA0180E591E00E9424015C
:100F30000E945F07812F82600E9485070F2D10E0BD
:100F4000FF2021F0B801CE010E94AC06C00FD11FD6
:100F50000E946107CE01DF91CF911F910F91FF9009
:100F60000895CF93C82F80E591E00E9424010E944C
:100F70005F078C2F0E94850780E00E948507C82F9D
:100F80000E9461078C2FCF9108958F929F92AF920C
:100F9000BF92CF92DF92EF92FF920F931F93CF9366
:100FA000DF93882E962E5A010E9443036B017C0129
:100FB00028E8C20E23E1D21EE11CF11C10E000E083
:100FC000D0E0C0E098280E9443036C197D098E0987
:100FD0009F0997FF1EC0692D80EF0E9464070E9441
:100FE00043036C197D098E099F0997FF09C088EC9E
:100FF0000E94B10787FFF3CF60E888EC0E94640786
:1010000088EF0E94B107C82FCF70C43081F0CE3076
:10101000B9F08C2FDF91CF911F910F91FF90EF903E
:10102000DF90CF90BF90AF909F908F9008950F5F0B
:101030001F4FA114B10439F20A151B0521F6E9CF9F
:10104000DF5FD33009F0BFCFE4CFAF92BF92CF9232
:10105000DF92EF92FF920F931F93CF93DF93EC01F8
:10106000B62EA42E69010E943D077C0186EDE11495
:10107000F10409F447C0D701ED91FC91119787ED78
:10108000309709F43FC013969C9180E0981731F097
:101090002081A21629F033968F5FF8CFF0E0E0E0D0
:1010A000D601ED93FC938BED309761F1228126956B
:1010B0002695203108F02FE081E090E0A0E0B0E03C
:1010C00004C0880F991FAA1FBB1F2A95D2F701974A
:1010D000F801918380836B2D80EE0E94640788ED78
:1010E0000E94B107D70114969C91682F697F9923BC
:1010F00029F0CA58DF4F68816260682B88ED0E9432
:10110000640780E0DF91CF911F910F91FF90EF90E6
:10111000DF90CF90BF90AF90089588EF0E94B10705
:10112000807C8034B1F018F4882301F10895803870
:1011300019F0803CC9F0089588ED0E94B10781FD47
:101140000DC069EC88ED0E94640782E08093CA01BB
:10115000089588ED0E94B10781FDF3CF6BEC88ED17
:101160000E94640783E0F2CF81E0F0CF61ED88ED6B
:101170000E9464071092CA010895CF93DF93EC0197
:1011800088810E946402892B39F48981813021F49D
:101190001982DF91CF91089588810E94640201979E
:1011A00029F48981811102C081E0898380E0F1CF37
:1011B000089590E080E008950F931F93CF93DF93FD
:1011C0002091EB0231E03093CB012093EC0110929F
:1011D000DB021092DA028C01000F111F812F90E0C8
:1011E0000E94F305C80199270E94F30581E00E943F
:1011F000840462E08091EB020E94B503182F1092E4
:10120000DD028093DC0290E080E02091DD02121785
:1012100081F08EED92E00E948405082F8EED92E021
:101220000E948405D02F20E0C22F9E01282BC901E7
:10123000ECCFDF91CF911F910F910895CF92DF9264
:10124000FF920F931F93CF93DF93F62E01E0C82FE9
:10125000D0E0CC0FDD1FC45ADB4F6E01888199812D
:10126000DC01ED91FC910280F381E02D2F2D40E017
:1012700060E00995182F803E49F561E088EE0E94F4
:10128000640766E670E080E090E00E941103F601DA
:1012900080819181DC01ED91FC910190F081E02D44
:1012A0002F2D40E060E00995182F8D3041F58FEF2C
:1012B000800F833088F061E088EE0E94640766E664
:1012C00070E080E090E00E94110310C08D3061F466
:1012D0008FEF800F833050F464E670E080E090E0A0
:1012E0000E9411030F5FBACF882389F2812FDF910B
:1012F000CF911F910F91FF90DF90CF900895882399
:10130000A9F3D9CFCF93DF93EC0160E08E810E94E7
:101310008D0261E08E810E948D0260E08E810E94CC
:101320008D028BE891E00197F1F7DF91CF9108955D
:10133000CF92DF92EF92FF920F931F93CF93DF93A1
:101340006C017C0187E0E80EF11CD0E0C0E0062FC4
:1013500010E0B8010C2E02C0759567950A94E2F76B
:101360006170F70181917F010E948D022196C43046
:10137000D10579F7C601DF91CF911F910F91FF90B1
:10138000EF90DF90CF900C948209CF92DF92EF9292
:10139000FF920F931F93CF93DF93EC01F62E642FF0
:1013A0008C810E948D028D818F3F19F060E00E9438
:1013B0008D020F2D10E08F8584FF25C06E0187E020
:1013C000C80ED11CF12CE12CB8010E2C02C0759571
:1013D00067950A94E2F76170F60181916F010E94AE
:1013E0008D02FFEFEF1AFF0A88E0E816F10461F7BB
:1013F000CE01DF91CF911F910F91FF90EF90DF9081
:10140000CF900C948209B80184E0759567958A9510
:10141000E1F7CE010E9498096F2DCE01DF91CF91A7
:101420001F910F91FF90EF90DF90CF900C9498094F
:1014300040E0682F8CEE93E00C94C50981E00E9497
:10144000180A8BE39FE10197F1F70895CF93DF939B
:10145000613029F09091FB0398609093FB036093B7
:10146000FF031092000490E490930104809302041F
:10147000805C8093030461E08091F0030E94BB02D2
:101480008091F1038F3F19F061E00E94BB0261E09F
:101490008091F2030E94BB02CCEED3E09E012C5E51
:1014A00033408091FB0384FD0BC084E090E02196E3
:1014B0002817390744F461E08E810E94BB02EECF09
:1014C00088E090E0F4CF8BE39DE00197F1F760E0D6
:1014D0008091F0030E948D0260E08091F2030E94EF
:1014E0008D028091F1038F3F19F060E00E948D0220
:1014F0008091FB0384FD34C063E08CEE93E00E9496
:101500009809CBE4D6E4CE010197F1F763E08CEEC5
:1015100093E00E9498092197F1F763E08CEE93E045
:101520000E94980983E592E00197F1F762E08CEE62
:1015300093E00E9498098091FB0380620E94180A40
:1015400084E08093FC038CE00E94180A0E941E0A2B
:1015500082E08093FD0386E0DF91CF910C94180A1E
:1015600080620E94180A8BE496E40197F1F780915B
:10157000FB0380620E94180A83E592E00197F1F76D
:101580008091FB0380620E94180AD5CF643008F076
:1015900063E09091FF03691710F06FEF690FE62F7A
:1015A000F0E0E451FC4F9489890F80680C94180A8C
:1015B00041E00E94C50981E090E008950F931F93D8
:1015C000CF93DF938C01D0E0C0E0F801EC0FFD1F5A
:1015D0006491662339F041E08CEE93E00E94C509E6
:1015E0002196F3CFCE01DF91CF911F910F910895F6
:1015F000DF92EF92FF920F931F93CF93DF93EC0153
:10160000E62EF12C01E010E09AE0D92E2F2D30E0EB
:1016100082E0E8120DC081E090E02817390794F4C9
:10162000209749F48CEE91E00E94DE0AF394EECF0D
:1016300082E090E0F2CFC801D89E8001D99E100DC3
:101640001124F4CF209791F0015011098AE0F82E6F
:10165000C017D1075CF48AEE91E00E94DE0ACE0149
:10166000F89EE001F99ED00D1124F2CFDF91CF91C9
:101670001F910F91FF90EF90DF900895CF93C82FA7
:101680000E941E0AC23009F45CC040F5C13009F462
:1016900041C060E080E00E94C60A8CED91E00E94AB
:1016A000DE0A62E080E00E94C60A87EC91E00E94B8
:1016B000DE0A63E080E00E94C60A82EB91E00E94AD
:1016C000DE0AE091040484E0E89FF0011124EB5F5E
:1016D000FE4F61818081CF910C94C60AC33009F41A
:1016E00047C0C430B1F60E941E0A60E082E00E944A
:1016F000C60A88E191E00E94DE0A62E085E00E946D
:10170000C60A81E191E00E94DE0A62E089E00E945F
:10171000C60AD7CF60E080E00E94C60A87EA91E05F
:101720000E94DE0A62E080E00E94C60A84E991E03D
:101730000E94DE0A63E080E00E94C60A81E891E030
:10174000BECF60E080E00E94C60A86E791E00E947A
:10175000DE0A62E080E00E94C60A85E691E00E940F
:10176000DE0A63E080E00E94C60A87E591E0A7CF29
:1017700060E080E00E94C60A8BE491E00E94DE0AED
:1017800062E080E00E94C60A89E391E00E94DE0ADE
:1017900063E080E00E94C60A88E291E090CF8F92D9
:1017A0009F92AF92BF920F931F93CF93DF93CDB7CA
:1017B000DEB7A1970FB6F894DEBF0FBECDBF19A25A
:1017C000423008F44AE08E010F5D1F4F842E912CA9
:1017D000B12CA12CA50194010E94A91AE62FB901F0
:1017E000CA01EA3044F5E05DD801EE938D01232B68
:1017F000242B252B79F790E080E0109769F0FD010C
:1018000001900020E9F73197AF014A1B5B0BBD0146
:101810008CEE93E00E942E01A1960FB6F894DEBFE5
:101820000FBECDBFDF91CF911F910F91BF90AF90B1
:101830009F908F900895E95CD7CF682F70E090E07B
:1018400080E04AE00C94CF0BBC01990F880B990BF8
:101850004AE00C94CF0B2F923F924F925F926F927F
:101860007F928F929F92AF92BF92CF92DF92EF9230
:10187000FF920F931F93CF93DF937B013A0169018E
:10188000F901A080B180FB013180F9011182108241
:10189000FB01828160E181FD60E288EE0E946407C5
:1018A0002A2CA301F701608180E00E94C507582E11
:1018B000F6E08F1310C088EF0E94B107F701928104
:1018C0009D7F84FF9260928360E191FD60E288EEEB
:1018D0000E946407E6CF811150C088EC0E94B107D6
:1018E00082FF5FC080E30E94B107482E8A151B0467
:1018F00011F008F0422CF60180819181E501C81BAE
:10190000D90BD7FF02C0D0E0C0E0842C912C8C16FC
:101910009D060CF4E40180E591E00E9424010E9400
:101920005F0788E00E948507AE0170E060E0C801B3
:101930000E94E51A209721F0BE01C8010E94AC0662
:101940000C0F1D1F0E94610764E088EC0E94640771
:10195000F60180819181880E991E918280824314C4
:1019600020F08A149B0408F49CCF88EF0E94B107F2
:10197000F701928184FB91F99283852DDF91CF91BC
:101980001F910F91FF90EF90DF90CF90BF90AF909D
:101990009F908F907F906F905F904F903F902F908F
:1019A000089580EF582EE9CF2F923F924F925F9289
:1019B0006F927F928F929F92AF92BF92CF92DF925F
:1019C000EF92FF920F931F93CF93DF93CDB7DEB7C4
:1019D00063970FB6F894DEBF0FBECDBF3C01542E07
:1019E000422E302E1E861D861C861B868E01055FAC
:1019F0001F4F9E01235F3F4F40E00E942508F82EB5
:101A00008111D0C059824A823B82EC821E821D82A3
:101A1000D886CF82AE014F5F5F4F68E080E20E94C0
:101A20008C074B855C8560E080E10E94C5078111D1
:101A300016C181149104B1F10D851E85F8018281D2
:101A400057FE36C082608283EE24E394C114D10431
:101A500009F40AC1BA86A9864B855C856D857E85A9
:101A600084019E01275F3F4FC3010E942B0CF82E7B
:101A7000F6E08F130EC088EF0E94B107ED85FE855A
:101A800085FB882780F98E25928180FB91F99283CE
:101A9000DDCF811187C089859A85C81AD90A8A1530
:101AA0009B05A0F64B855C8557FED5C080EAD4C067
:101AB00081608283E1808FEF8E0D803408F0D1C089
:101AC0008B859C85988B8F870E9443031B012C017B
:101AD000E8E82E0EE3E13E1E411C511CF801828114
:101AE00060E880FF60E488EE0E946407F12C8E2D90
:101AF00090E09A8B898BA114B10409F446C0C9887F
:101B0000DA88AC14BD0408F46501CB8AA4016C2DFD
:101B100080E10E948C076C2D88E30E946407F80125
:101B20006081606280EF0E94640788EC0E94B107C8
:101B300087FFFBCF60E888EC0E94640788EF0E9473
:101B4000B1078F70F82EE12C712C612CFF2009F465
:101B500043C00E944303621973098409950997FFE2
:101B60003BC0F6E0FF1609F462C02EE0F216C9F1A0
:101B700084E0F8120AC09FEF691A790AEF85F889A4
:101B8000309799F1E615F70581F588EF0E94B107C6
:101B9000F801928185FB90F992834B855C85FF204B
:101BA00009F459C08F2D63960FB6F894DEBF0FBEAF
:101BB000CDBFDF91CF911F910F91FF90EF90DF90FC
:101BC000CF90BF90AF909F908F907F906F905F90DD
:101BD0004F903F902F900895AC18BD088C0C9D1C21
:101BE0008ACFE394F3E0EF1681F260E088E30E948D
:101BF0006407F401608180E10E9464076B8988E3D7
:101C00000E946407F8016081606280EF0E946407AF
:101C100088EC0E94B10787FFFBCF60E888EC0E9448
:101C2000640788EF0E94B1078F70F82E8FCF88EF7E
:101C30000E94B10785FB882780F921E08227F801FF
:101C4000928180FB90F9928360E890FF60E488EED7
:101C50000E946407CACF80E860E00E94C507F82EA2
:101C6000A1CF8AEDF82E9ECF4B855C85FF2009F42D
:101C70001DCF98CF8F929F92AF92BF92CF92DF925B
:101C8000EF920F93CF93912C812CB12CA12CD12CBE
:101C9000C12CE12C062F25E040E060E00E94D40C2E
:101CA000C82F6CE271E080E090E00E9411038C2F5D
:101CB000CF910F91EF90DF90CF90BF90AF909F901A
:101CC0008F9008954F925F926F927F928F929F9222
:101CD000AF92BF92CF92DF92EF92FF920F931F933A
:101CE000CF93DF93CDB7DEB7DA950FB6F894DEBFAA
:101CF0000FBECDBF3C01162FF42ECE0101964C0134
:101D0000A4E0AA2EB12CB4E0CB2ED12C02E0E02E20
:101D1000042F26E040E8D30112968D919C910E94F9
:101D2000D40C811166C04B805C80B1E04B165B0621
:101D300018F0412C55245394FE0131964F01520165
:101D40006201E2E0EE2E0F2D26E040E8612FD30184
:101D500012968D919C910E94D40C81114AC040E052
:101D6000F401480C591CE415F50508F042C05081F7
:101D70009181943059F09530A1F0923021F4958101
:101D8000D30115969C93E50FF11DEDCF9581913010
:101D900071F52681233059F5D30118969C9341E0C3
:101DA000F2CF93819370923071F792814423D1F0F6
:101DB00021E097FF22E0648130E0D901AA0FBB1F28
:101DC000A20FB31FA60DB71D9F7019969C9319976C
:101DD0001A966C93D30116969C9116979F5F169650
:101DE0009C93D1CF23E097FDE6CF24E0E4CF40E001
:101DF000CACFD3950FB6F894DEBF0FBECDBFDF912B
:101E0000CF911F910F91FF90EF90DF90CF90BF90F7
:101E1000AF909F908F907F906F905F904F900895BC
:101E20002F923F924F925F926F927F928F929F92EA
:101E3000AF92BF92CF92DF92EF92FF920F931F93D8
:101E4000CF93DF93CDB7DEB767970FB6F894DEBFB9
:101E50000FBECDBFFC0181E88487158686858E7F05
:101E60008D7F868731E03787108A81898E7F8D7FCD
:101E7000818B848109ED811113C0122F4F8BF62EB7
:101E80003F0142805380D201ED91FC910190F0819D
:101E9000E02D60E0C20109951C010097D9F406ED20
:101EA000802F67960FB6F894DEBF0FBECDBFDF91CF
:101EB000CF911F910F91FF90EF90DF90CF90BF9047
:101EC000AF909F908F907F906F905F904F903F90DA
:101ED0002F900895FC010190F081E02DFE8BED8B99
:101EE00007EDEF2BE9F29301275F3F4F3C8B2B8BE4
:101EF000DC0111963C932E9314961C93FE013196AF
:101F00004F0182E1A82EB12C92E1C92ED12CEE24F2
:101F1000E39400E026E040E860E0D30112968D9162
:101F20009C910E94D40C082F89859A85F301E55A6B
:101F3000FF4F918380838B859C853297918380832B
:101F40002D893E89F101318320830111ABC0D2017B
:101F5000ED91FC910280F381E02D2F8940E06F2DFF
:101F6000C2010995F301848304ED882309F498CF15
:101F700098859287682F828193810E943A0E082F5C
:101F8000D201ED91FC91D10114961C92882359F055
:101F90000480F581E02DD30114966C91C20109955E
:101FA000F30114827DCF0190F081E02DD3011496CE
:101FB0006C91C2010995009709F471CFFC0114835B
:101FC000D30112968D919C91139714961C91EB89D5
:101FD000FC89EF2B09F465C0612F0E943D07FC01CD
:101FE000892B09F468C0FA8812832B893C893183D4
:101FF000208331E03383D30118961C9210E01F1523
:1020000081F0412FF3016481C3010E94620E082F09
:10201000811148C0D30116968C91823010F41F5F55
:10202000EECFF3018681823008F447C080858111AC
:1020300008C082898487838985878589878786897F
:10204000808BD30114961C911497612F12968D9159
:102050009C910E943D07FC01892B39F012832B894A
:102060003C893183208383E08383912C812CB12CA4
:10207000A12CD12CC12CE12CD30115960C911597D4
:1020800029E040E014966C91149712968D919C91E2
:102090000E94D40C082F811105C081E0F3018783D1
:1020A000FFCE08EDD301ED91FC910480F581E02D88
:1020B000C3010995F5CE06EDF5CF0FEFF3CF85ED12
:1020C0008093BC008091350290913602A091370236
:1020D000B09138020796A11DB11D23E0B695A795D2
:1020E000979587952A95D1F72091BC0024FD03C0D0
:1020F000109233020895409135025091360260915A
:10210000370270913802452B462B472B69F3009715
:10211000A105B10541F025E32A95F1F700000197EB
:10212000A109B109E1CF809134020C9494031F926C
:102130000F920FB60F9211242F933F934F935F93FB
:102140006F937F938F939F93AF93BF93EF93FF937F
:1021500089E392E00E94AC01FF91EF91BF91AF91B2
:102160009F918F917F916F915F914F913F912F91AF
:102170000F900FBE0F901F9018951F920F920FB6E1
:102180000F9211242F938F939F93EF93FF93E091DE
:102190004902F0914A028081E0914F02F091500291
:1021A00082FD1BC09081809152028F5F8F732091BE
:1021B0005302821741F0E0915202F0E0E75CFD4FDC
:1021C000958F80935202FF91EF919F918F912F9164
:1021D0000F900FBE0F901F9018958081F4CF1F9223
:1021E0000F920FB60F9211242F933F938F939F93CB
:1021F000AF93BF938091AF019091B001A091B101D5
:10220000B091B2013091AE0123E0230F2D3758F584
:102210000196A11DB11D2093AE018093AF01909353
:10222000B001A093B101B093B2018091B30190913C
:10223000B401A091B501B091B6010196A11DB11DE7
:102240008093B3019093B401A093B501B093B6010C
:10225000BF91AF919F918F913F912F910F900FBEA2
:102260000F901F90189526E8230F0296A11DB11D0F
:10227000D2CF1F920F920FB60F9211242F933F933C
:102280004F935F936F937F938F939F93AF93BF937E
:10229000EF93FF938091B900887F803609F44AC09C
:1022A000F0F5883209F4A7C018F5803109F49BC015
:1022B000B8F4882309F4F9C0883009F494C0FF9178
:1022C000EF91BF91AF919F918F917F916F915F91AE
:1022D0004F913F912F910F900FBE0F901F90189527
:1022E000883109F488C0803251F78093110214C0FC
:1022F000803409F49DC040F48033B9F38833F9F693
:102300008093110285ECB0C0803509F485C0883512
:1023100009F496C0883499F60E945F10D0CF8839AE
:1023200009F48CC038F5883729F050F4883611F05C
:10233000803729F683E0809333021092AD0157C0B5
:10234000883809F47BC0803919F0803809F0B7CF9C
:102350008091AD01803208F071C0E091AD0181E063
:102360008E0F8093AD018091BB00F0E0E357FE4FEC
:1023700080833DC0803B39F0E0F4803A09F479C0B5
:10238000883A09F09CCF84E08093330210928C014C
:1023900010928B01E091D802F091D90209958091B9
:1023A0008B0181110FC081E080938B0110926B0132
:1023B00009C0803C09F4A6CF883C09F4A3CF883B30
:1023C00009F07DCFE0918C0181E08E0F80938C012C
:1023D000F0E0E559FE4F80818093BB0090918C0125
:1023E00080918B0129C080910E028093BB0085EC07
:1023F0008093BC0064CF9091100280910F029817D7
:1024000058F5E091100281E08E0F80931002F0E009
:10241000E351FE4F8081E9CFE091100281E08E0F01
:10242000809310028091BB00F0E0E351FE4F808367
:102430009091100280910F029817C8F285E8D8CFCA
:10244000E091100281E08E0F809310028091BB001A
:10245000F0E0E351FE4F80838091120281115CCF46
:1024600081E080930D0284EA8093BC0010923302D5
:1024700026CF85EC8093BC00109233028091AD0191
:10248000803230F4E091AD01F0E0E357FE4F10826E
:102490006091AD0170E0E091D602F091D7028DE835
:1024A00091E009951092AD010ACF1092110234CF3C
:1024B000CF9310923C0210923B0288EE93E0A0E092
:1024C000B0E080933D0290933E02A0933F02B09310
:1024D00040022DE131E030933A022093390225EC9D
:1024E00030E0309346022093450224EC30E03093F4
:1024F00048022093470220EC30E030934A022093B8
:10250000490221EC30E030934C0220934B0222EC44
:1025100030E030934E0220934D0226EC30E03093B1
:10252000500220934F0210925202109253021092C6
:102530005402109255021092E1021092E002809330
:10254000E2029093E302A093E402B093E5028FE2EB
:1025500091E09093DF028093DE0281E18093E404B6
:1025600060E00E94BB02C1E0C093E50480E180937B
:10257000E20460E00E94BB02C093E3048EE080931B
:10258000E00460E00E94BB02C093E1048FE080930E
:10259000DE0460E00E94BB02C093DF0483E691E0AA
:1025A000909307048093060410920E04C0930F04C6
:1025B0001092100488E094E090930D0480930C0432
:1025C0001092080488E0809309048CE380930A0445
:1025D00010920B04E6E0F4E081E028E034E0158698
:1025E0008687178634872387359694E0E135F90787
:1025F000B1F710927C0491E19093EA022DE431E06E
:1026000030937E0420937D0426E034E030938004F0
:1026100020937F0410928104809383041092840499
:10262000109285041092D5041092860488E080935D
:1026300087048091880483708C638093880410924F
:10264000890410928A0480918B0483708460809343
:102650008B0410928C0410928D0480918E048370F0
:10266000846080938E0410928F0410929004809165
:10267000910483708460809391041092920410926C
:102680009304809194048370846080939404ECE5B7
:10269000F4E090E080E021913191232B09F068C0B3
:1026A000880F991FFC01E45AFB4F8DE794E091835A
:1026B000808380EB8093DD041092EF031092EE0391
:1026C00081E491E09093ED038093EC0387E08093A5
:1026D000F0038FEF8093F10386E08093F20385E0AF
:1026E0008093F30384E08093F40383E08093F50305
:1026F00082E08093F6031092F7031092F803109291
:10270000F9031092FA031092FB0361E080E10E944A
:10271000260A81E491E09093ED038093EC031092FC
:10272000040410920504ECEEF2E090E080E0819366
:102730009193019680389105D1F71092DD021092A5
:10274000DC021092DB021092DA020E94760382E22F
:1027500091E09093D9028093D80283E291E0909324
:10276000D7028093D60280E58093EB02CF91089543
:1027700001968031910509F08ECF9BCFCF93DF93E7
:10278000CDB7DEB767970FB6F894DEBF0FBECDBFEB
:10279000789484B5826084BD84B5816084BD85B53C
:1027A000826085BD85B5816085BD80916E00816048
:1027B00080936E00109281008091810082608093EE
:1027C00081008091810081608093810080918000F0
:1027D0008160809380008091B10084608093B1001B
:1027E0008091B00081608093B00080917A00846015
:1027F00080937A0080917A00826080937A00809141
:102800007A00816080937A0080917A00806880935A
:102810007A001092C100E0914902F0914A0282E0F0
:102820008083E0914502F09146021082E0914702D8
:10283000F09148028FE3808310925102E0914D02A3
:10284000F0914E0286E08083E0914B02F0914C02C1
:10285000808180618083E0914B02F0914C02808105
:1028600088608083E0914B02F0914C028081806807
:102870008083E0914B02F0914C0280818F7D8083B8
:1028800064E084E10E94260A60E080E00E94C60ABB
:102890008AEB90E00E94DE0A62E080E00E94C60AB5
:1028A00085EA90E00E94DE0A63E080E00E94C60AAA
:1028B00080E990E00E94DE0A8091FC03982F9260EC
:1028C0009093FC038A600E94180A8091FC03982F61
:1028D00091609093FC0389600E94180A229A0E94DA
:1028E0006107FFB6F8948091B701811127C0E0EF2E
:1028F000F0E08491ECEDF0E09491E82FF0E0EE0F41
:10290000FF1FE853FF4FA591B491EC91E92321F407
:1029100061E08AE00E948D0261E08AE00E94BB02D1
:102920008CB580618CBD8CB580648CBD61E08DE020
:102930000E94BB0261E08BE00E94BB028091B70164
:102940008F5F8093B701FFBE229A0E946107219892
:1029500068E188E80E94640760E288E70E946407F3
:1029600060E088E70E946407F12CE12C88E60E9471
:10297000B1073FEFE31AF30A80FF61C061EC88ED15
:102980000E94640760E680ED0E94640764E088EEC0
:102990000E94640788EE0E94B10782FFFBCF0E946D
:1029A0008D0860E288EC0E94640761E080E80E9484
:1029B000640768EC70E080E090E00E9411035CEE38
:1029C000A52E53E0B52E6CEEE62E62E0F62ED12C4D
:1029D000992493948091EB029092CB018093EC0127
:1029E0001092DB021092DA0290E080E00E94F30580
:1029F0008D2D90E00E94F30581E00E94840462E046
:102A00008091EB020E94B503C82E1092DD028093E4
:102A1000DC028091DD02C816C1F08EED92E00E94CA
:102A20008405782E8EED92E00E948405172D00E03B
:102A3000D801A82BCD01F70191838083EACF2FEF36
:102A4000E216F20609F092CFFFCFD394D394F2E0CE
:102A5000EF0EF11CAE14BF0409F0BCCF1E0123E140
:102A6000220E311C0E9443036093C6017093C7017C
:102A70008093C8019093C90183B1182F127081FD12
:102A80000CC088EC0E94B10785FF03C00E948D082E
:102A900010E2612F88EC0E9464078091CA018130A6
:102AA00009F45CC008F45EC0823029F0833009F478
:102AB00063C010E017C010E08091EA02807F80318F
:102AC00089F40E94430368537F4F8F4F9F4F609359
:102AD000B8017093B9018093BA019093BB0190E261
:102AE0009093EA024CE5642E44E0742E7301D70102
:102AF0008D919D917D01009739F0DC01ED91FC9164
:102B00000680F781E02D0995ECE7F4E0EE15FF056E
:102B100071F78091EA02803409F465C078F580325B
:102B200009F44BC0803309F458C0813109F06BC0FF
:102B300010927C04D3018D919D913D01009739F055
:102B4000DC01ED91FC910480F581E02D0995E614FE
:102B5000F70481F782E18093EA0255C033E13093B4
:102B6000EA02A7CF8091EA02807F803109F4A1CFE9
:102B700081E18093EA029DCF11E09ECF813509F477
:102B800067C1803809F477C18035E9F588EC0E9487
:102B9000B10786FF38C081E58093EA020E944303B3
:102BA0006C5E7F4F8F4F9F4F6093B8017093B90158
:102BB0008093BA019093BB0126C00E944303009109
:102BC000B8011091B9012091BA013091BB01601B8D
:102BD000710B820B930B97FD16C061E088EE0E948B
:102BE000640780E4B8CF88EE0E94B10780FD0BC077
:102BF00088ED0E94B107682F686088ED0E94640725
:102C0000B0E5B093EA0284EE94E00E94BD08882308
:102C100061F08091C50190E00196837099278093BF
:102C2000C501809304040E943E0B82EE94E00E9452
:102C3000BD088823E9F02091040430E08091050468
:102C400090E00196F901E050FF4F608170E00E9432
:102C5000951A80930504F901EE0FFF1FE80FF91F85
:102C6000EE0FFF1FEB5FFE4F618180810E94C60A5D
:102C700080EE94E00E94BD08882351F01091C501B8
:102C8000123009F4A4C208F0F1C1113009F41DC2D8
:102C90008EED94E00E94BD08882309F443C0809122
:102CA000C501813009F03EC0809105048111AFC299
:102CB0002091C401E0E82E9FC00111242091C3019E
:102CC000280F392F311D220F331FF901E451FD4F19
:102CD000808191818038910514F0805891092451A8
:102CE0003D4FD9018D939C9397FF02C081589F4F10
:102CF000880F892F881F990B11E0180F62E0812F30
:102D000090E00E94F80A812F0E941D0CE0910404BB
:102D1000B4E0EB9FF0011124EB5FFE4F61818081F5
:102D20000E94C60A8091EA02803909F0F8C28091B7
:102D30008404882309F4F3C2E091D5048FEF8E0F49
:102D40008F3308F0A5C2F0E0E358FB4F808D882355
:102D500009F49BC2E091D504AE2FB0E0A358BB4F5D
:102D600058968C91A1E0AE0FB0E0A358BB4F589697
:102D70002C912093DA04A2E0AE0FB0E0A358BB4F31
:102D80005896EC90E092DB0494E09E0F9093D5046B
:102D9000ED5FF0E0E358FB4F308D3093DC04982F6B
:102DA0009C70943021F48F708450843088F0922F7E
:102DB000203F08F4907F903E59F008F05DC3903AB0
:102DC00039F008F04FC3903819F0903909F0A7C2D4
:102DD0008091DD04281B2093C401E092C30130934D
:102DE000C201F0E82F9F90011124E20EF32EF11C96
:102DF000C7010E94DC0897FF02C081589F4F8C01D9
:102E0000000F012F001F110B0093C101C7010E9489
:102E1000DC0860E870E00E94951AF82E8093C001EB
:102E20008091C501813009F435C31091C20160EB76
:102E3000600F89E392E00E94CE016F2D89E392E05A
:102E40000E94CE01612F89E392E00E94CE0167C209
:102E50000E944303C090B801D090B901E090BA013C
:102E6000F090BB016C197D098E099F0997FDCBCEAF
:102E700080E88093EA021B8AE8E0EC8B8CE38D8B80
:102E800040900C0450900D0430920D0420920C04DC
:102E9000109310049E012F5F3F4F490122E1A22EA3
:102EA000B12C32E1C32ED12CEE24E39400E026E0D5
:102EB00040E860E086E094E00E94D40C082F509235
:102EC0000D0440920C04811150C0C984DA84AB8493
:102ED000BC844D809E809CE5E92E94E0F92E512C17
:102EE000D7018D919C91009709F041C05394B2E0B5
:102EF000EB0EF11CE0E15E12F3CFF30180819181D2
:102F0000009709F076C00F5FF2E06F0E711C003180
:102F1000A1F780910C0490910D04892B09F459C0FC
:102F20001093100420E040E060E086E094E00E940E
:102F3000E806F82E882309F44CC0682F86E094E058
:102F40000E943D07009709F444C0FC0114836F2DD3
:102F500086E094E00E943A0E082F882309F484C08A
:102F60006F2D86E094E00E94C606802F2FC0DC0102
:102F7000ED91FC910084F185E02D09958111B6CF8A
:102F8000F70180819181DC01ED91FC910088F1894C
:102F9000E02D692D0995882309F4A8CFF7018081D8
:102FA0009181DC01ED91FC910484F585E02DA50172
:102FB000B6010995882379F0612F852D0E941E099D
:102FC000813D09F493CF882309F44EC0823D09F472
:102FD0001ACE80EAC0CDF70180819181DC01ED91AC
:102FE000FC910684F785E02D642D09958111E4CFCD
:102FF0007DCFDC01ED91FC910084F185E02D0995F8
:10300000811181CFF30180819181DC01ED91FC91EF
:103010000088F189E02D692D0995811109C0612F82
:10302000802F0E941E09982F977F913D61F66BCFEC
:10303000F30180819181DC01ED91FC910484F5859F
:10304000E02DA501B601099581115DCFF3018081C5
:103050009181DC01ED91FC910684F785E02D642DD2
:1030600009958823E1F24FCF80E975CD133009F43B
:10307000C6C0143009F00CCE809105048111C5C082
:10308000ECEEF2E090E080E081939193019680383D
:103090009105D1F70E94F8050E941E0A62E082E0C5
:1030A0000E94C60A81E091E00E94DE0A68EE73E0A9
:1030B00080E090E00E94110313E01093040483E089
:1030C0000E943E0B1093C501E3CD80910504811150
:1030D0003DC02091C401F0E82F9FC0011124209130
:1030E000C301280F392F311D220F331FF901E4517D
:1030F000FD4F8081918197FD26C08F7799272451BC
:103100003D4FD9018D939C9397FF02C081589F4FEB
:10311000880F892F881F990B11E0180F62E0812F0B
:1031200090E00E94F80A812F0E941D0CE091040497
:10313000B4E0EB9FF0011124EB5FFE4F61818081D1
:103140000E94C60AA5CD80589F4FD9CF813009F083
:103150009FCD4091C401E0E84E9FC00111244091F1
:10316000C301480F592F511D440F551FFA01E45157
:10317000FD4F20813181C901019637FF02C02158DE
:103180003F4F20783F7720583F4F821793071CF01E
:10319000C9018058910944515D4FDA018D939C9388
:1031A00060E870E00E94951A182F63E090E00E949A
:1031B000F80A812F0E941D0CE0910404B4E0EB9FFB
:1031C000F0011124EB5FFE4F63818281B9CF0E9431
:1031D000F8050E941E0A62E085E00E94C60A8AEF96
:1031E00090E00E94DE0A68EE73E080E090E00E94CA
:1031F00011031093040482E00E943E0B49CD84E049
:103200008093C50180930404F7CF83E0F9CF813028
:1032100009F088CD2091C401E0E82E9FC00111245F
:103220002091C301280F392F311D220F331FF901BF
:10323000E451FD4F80819181AC0197FF02C041585C
:103240005F4F40785F7748175907ECF0CA01815803
:103250009F4F24513D4FD9018D939C938C010F7743
:10326000112763E0C8010E94F80A802F0E941D0CFC
:10327000E0910404B4E0EB9FF0011124EB5FFE4FFA
:10328000638182814DCD0197E4CF818D811162CD23
:103290001092D50480918A0490E09F8B8E8BE090F1
:1032A0007F04F090800440918904609181041C8A1D
:1032B0001B8A1A8219828E010F5F1F4F9101C7016D
:1032C0000E94250881110CC049815A816B897C8933
:1032D00005E914E09E012A5E3F4FC7010E942B0CB6
:1032E0002E893F892C33310540F4F901EB56FB4F11
:1032F00010822A563B4FF9011082811110C0809133
:103300009504811127CD80919604811123CD809160
:10331000970481111FCD8091980481111BCD80915C
:10332000C6019091C701A091C801B091C901409117
:10333000BC015091BD016091BE017091BF01841B21
:10334000950BA60BB70B85369105A105B10508F4C1
:103350007CC08091C501811178C0C090C0010091EE
:10336000C101D090C2011091C301E090C4018091CD
:10337000040490E0E0910504880F991FE80FF92FED
:10338000F11DEE0FFF1FEB5FFE4FB080A18062E0EA
:1033900085E00E94C60AF12C62E0C7010E94F80A8B
:1033A000C70101960E94240C62E08AE00E94C60ACE
:1033B00063E0812F90E00E94F80A812F0E941D0C8B
:1033C00062E081E10E94C60AED2CF12C63E0C701A6
:1033D0000E94F80A8D2D0E941D0C63E085E00E947A
:1033E000C60A10E062E0C8010E94F80AC80101960E
:1033F0000E94240C63E08AE00E94C60A63E08C2DE0
:1034000090E00E94F80A8C2D0E941D0C63E081E17F
:103410000E94C60A63E0C7010E94F80A8D2D0E942F
:103420001D0C6A2D8B2D0E94C60A8091C6019091B9
:10343000C701A091C801B091C9018093BC019093CC
:10344000BD01A093BE01B093BF0120E030E0232B6B
:1034500009F408CB0E949801882309F403CB0E9449
:10346000000000CB903C09F4B3CC903D09F4B0CC03
:10347000903B09F054CFACCC9D3F40F4983F08F00E
:10348000A7CC915F933008F4A3CC49CF9E3F08F0BE
:103490009FCC45CFE090C301C090C401809104044B
:1034A00090E0E0910504880F991FE80FF92FF11DB6
:1034B000EE0FFF1FEB5FFE4FB080A18062E08AE05D
:1034C0000E94C60AD12C62E0C6010E94F80AC60119
:1034D00001960E94240C62E08FE00E94C60A63E01D
:1034E0008E2D90E00E94F80A8E2D0E941D0C63E044
:1034F0008AE00E94C60A112762E0C8010E94F80A09
:10350000C80101960E94240C63E08FE00E94C60A65
:1035100063E08F2D90E00E94F80A8F2D0E941D0C11
:103520006A2D8B2D0E94C60AFACE97FB072E16F441
:10353000009407D077FD09D00E94CB1A07FC05D074
:103540003EF4909581959F4F0895709561957F4FBA
:103550000895A1E21A2EAA1BBB1BFD010DC0AA1FD4
:10356000BB1FEE1FFF1FA217B307E407F50720F0EC
:10357000A21BB30BE40BF50B661F771F881F991F67
:103580001A9469F760957095809590959B01AC01B0
:10359000BD01CF010895AA1BBB1B51E107C0AA1FA3
:1035A000BB1FA617B70710F0A61BB70B881F991FE4
:1035B0005A95A9F780959095BC01CD010895EE0F1D
:1035C000FF1F0590F491E02D0994DC0101C06D937B
:0C35D00041505040E0F70895F894FFCF00
:1035DC000202020202000000000A030F03060206A8
:1035EC0002060206020502090200000000CE012EAE
:1035FC00015B011B028C016A017E0100000000C40A
:10360C00059705D908740527018405750500000088
:10361C0000D80A2E01D908D80800000000100F5A53
:10362C00073F06560757065E07540758075C070006
:0A363C000000003D07E806C6060086
:00000001FF
