:020000040000FA
:100000000C94E1000C9409010C9409010C94090171
:100010000C9409010C9409010C9409010C94090138
:100020000C9409010C9409010C9409010C94090128
:100030000C9409010C9409010C9409010C94090118
:100040000C94E00C0C9409010C94AE0C0C94880CEC
:100050000C9409010C9409010C9409010C940901F8
:100060000C9409010C9409010000000025002800EF
:100070002B000000000023002600290000000008DB
:10008000000201000003040700000000000000005F
:100090003C2D20636830312063633030302076613E
:1000A0006C303030002D3E20636830312063633087
:1000B00030302076616C303030006D6F64653A20EE
:1000C000706572666F726D000000000024002700EA
:1000D0002A000102040810204080010204081020B8
:1000E00001020408102004040404040404040202AD
:1000F00002020202030303030303746F20646566B4
:1001000061756C74207374617465007072657373CB
:1001100020555020746F207265736574006D6F6494
:10012000653A2072657365740063757272656E74EA
:10013000207374617465007072657373205550206C
:10014000746F2073617665006D6F64653A2073612A
:100150007665006D696469203C2D2063683031202C
:10016000636330303000757362202D3E2063683049
:1001700031206363303030006D6F64653A20656410
:100180006974003C2D206368303120636330303067
:100190002076616C303030002D3E20636830312095
:1001A00063633030302076616C303030006D6F64C6
:1001B000653A20706572666F726D00300030000025
:1001C0002A0D11241FBECFEFD8E0DEBFCDBF11E056
:1001D000A0E0B1E0E0E7F8E202C005900D92AE3396
:1001E000B107D9F726E0AEE3B1E001C01D92A83E09
:1001F000B207E1F710E0C1EED0E004C02197FE01A4
:100200000E942914C03ED107C9F70E94630E0C94C6
:1002100036140C9400008CBD9DBD0895AF92BF9222
:10022000CF92DF92EF92FF920F931F93CF93DF93C2
:100230006C017B018B01040F151FEB015E01AE18F1
:10024000BF08C017D10759F06991D601ED91FC9113
:100250000190F081E02DC6010995892B79F7C50140
:10026000DF91CF911F910F91FF90EF90DF90CF9092
:10027000BF90AF900895FC01538D448D252F30E041
:10028000842F90E0821B930B541710F0CF960895A3
:1002900001970895FC01918D828D981761F0A28DD0
:1002A000AE0FBF2FB11D5D968C91928D9F5F9F7396
:1002B000928F90E008958FEF9FEF0895FC01918D4C
:1002C000828D981731F0828DE80FF11D858D90E0B9
:1002D00008958FEF9FEF0895FC01918D228D892F56
:1002E00090E0805C9F4F821B91098F73992708953E
:1002F00082E591E00E946C0121E0892B09F420E065
:10030000822F089580E090E0892B29F00E947801E7
:1003100081110C9400000895FC01A48DA80FB92F41
:10032000B11DA35ABF4F2C91848D90E001968F731D
:100330009927848FA689B7892C93A089B1898C913C
:10034000837080648C93938D848D981306C002888B
:10035000F389E02D80818F7D80830895EF92FF9255
:100360000F931F93CF93DF93EC0181E0888F9B8DD8
:100370008C8D98131AC0E889F989808185FF15C092
:100380009FB7F894EE89FF896083E889F9898081B5
:100390008370806480839FBF81E090E0DF91CF9184
:1003A0001F910F91FF90EF900895F62E0B8D10E0A6
:1003B0000F5F1F4F0F731127E02E8C8D8E110CC015
:1003C0000FB607FCFACFE889F989808185FFF5CF60
:1003D000CE010E948C01F1CFEB8DEC0FFD2FF11DB2
:1003E000E35AFF4FF0829FB7F8940B8FEA89FB899D
:1003F00080818062CFCFCF93DF93EC01888D8823FB
:10040000B9F0AA89BB89E889F9898C9185FD03C077
:10041000808186FD0DC00FB607FCF7CF8C9185FF5C
:10042000F2CF808185FFEDCFCE010E948C01E9CF14
:10043000DF91CF910895833081F028F4813099F0D5
:100440008230A9F008958730A9F08830C9F084304F
:10045000B1F4809180008F7D03C0809180008F7700
:1004600080938000089584B58F7784BD089584B506
:100470008F7DFBCF8091B0008F778093B00008957F
:100480008091B0008F7DF9CFCF93DF93282F30E09C
:10049000F901E458FF4F8491F901EE52FF4FD491D6
:1004A000F901EA51FF4FC491CC23A1F081110E94C0
:1004B0001B02EC2FF0E0EE0FFF1FEE58FF4FA5914F
:1004C000B491EC91ED2381E090E009F480E0DF91BC
:1004D000CF91089580E090E0FACF1F93CF93DF9300
:1004E000282F30E0F901E458FF4F8491F901EE52D2
:1004F000FF4FD491F901EA51FF4FC491CC23A9F0E9
:10050000162F81110E941B02EC2FF0E0EE0FFF1F4F
:10051000E859FF4FA591B4918FB7F894EC91111160
:1005200008C0D095DE23DC938FBFDF91CF911F9160
:100530000895DE2BF8CFCF93DF9390E0FC01EE52CD
:10054000FF4F24918A519F4FFC0184918823D1F061
:1005500090E0880F991FFC01E853FF4FA591B491DB
:10056000FC01E859FF4FC591D49161110EC09FB7AE
:10057000F8948C91E22FE0958E238C932881E223CE
:10058000E8839FBFDF91CF9108958FB7F894EC91E6
:10059000E22BEC938FBFF6CF3FB7F89480914301E5
:1005A00090914401A0914501B091460126B5A89BC8
:1005B00005C02F3F19F00196A11DB11D3FBFBA2FF5
:1005C000A92F982F8827BC01CD01620F711D811DB5
:1005D000911D42E0660F771F881F991F4A95D1F73A
:1005E00008958F929F92AF92BF92CF92DF92EF9237
:1005F000FF924B015C010E94CC026B017C010E94C6
:10060000CC026C197D098E099F09683E73408105F3
:100610009105A8F321E0821A9108A108B10888EE9B
:10062000C80E83E0D81EE11CF11C81149104A104C2
:10063000B10429F7FF90EF90DF90CF90BF90AF907B
:100640009F908F9008952FB7F89460913F0170911B
:10065000400180914101909142012FBF0895CF93B5
:10066000DF93EC018A819B81DC01ED91FC91048098
:10067000F581E02D6C81099581E08E831C821F82BB
:10068000C85ADF4F188280E0DF91CF910895FC01B6
:1006900084810895DF92EF92FF920F931F93CF937F
:1006A000DF93EC0185E0E62EF12CFE01869FE00D44
:1006B000F11D1124908596FF24C0192F177001E0B9
:1006C00085E0D82E8FEF800F8F3008F001E0602F8B
:1006D00070E0062FD69EF001D79EF00D1124EC0F8E
:1006E000FD1F80858695869586958770181701F180
:1006F0006F5F7F4F603168F38D81811302C01150AD
:100700001D8385E08E9DF0018F9DF00D1124EC0F6F
:10071000FD1F108681E0818712862296D783C683CB
:10072000DF91CF911F910F91FF90EF90DF9008958F
:10073000CE010E944A03C6CFFC0120812EBD9B0141
:100740002150310941F051810DB407FEFDCF4EB566
:100750005EBD4193F5CF61507109860F971F0DB4AF
:1007600007FEFDCF2EB5FC0120830895FC0121E09A
:10077000613499F49C01255B3F4F61E0AC014E5F11
:100780005F4F1586668717865487438735962E17E1
:100790003F07B9F7FC01158208953585631729F0E5
:1007A0002F5F35962031C9F70895622F0C944A03C4
:1007B000CF93DF93FC0167FD12C0283080F44423FF
:1007C00019F08581873059F0EF01A1E0B0E08D8507
:1007D000882349F111962596A031B105C1F780E033
:1007E00018C085E08A9FE0018B9FD00D1124CE0FA9
:1007F000DF1F442389F081E4888785818F5F8583AB
:1008000025E02A9FC0012B9F900D1124E80FF91FAE
:100810008085DF91CF91089581E08887F1CF27709F
:10082000687B622B0FC06623E1F26770660F660F6C
:10083000660F4423A1F3606485818F5F8583877091
:10084000687F682B25E02A9FC0012B9F900D112403
:10085000E80FF91F6087862FDCCFFC0121E06111D2
:1008600002C0069608953585631739F02F5F3596D7
:100870002031C9F790E080E00895069635E0239F87
:10088000800D911D1124089580E0089580E0089561
:1008900080E0089580E0089581E0089508952A9801
:1008A00008952A9A089508950F931F93CF93DF9385
:1008B00000D0CDB7DEB7182F062F80E591E00E945B
:1008C0000B010E944F04126019830A8362E070E0FA
:1008D000CE0101960E949C030E9451040F900F903C
:1008E000DF91CF911F910F9108958EBD00000DB43F
:1008F00007FEFDCF8EB50895FF920F931F93CF9300
:10090000DF93182FF62EEA0180E591E00E940B019B
:100910000E944F04812F82600E9475040F2D10E009
:10092000FF2021F0B801CE010E949C03C00FD11F0F
:100930000E945104CE01DF91CF911F910F91FF9042
:100940000895CF93C82F80E591E00E940B010E948B
:100950004F048C2F0E94750480E00E947504C82FFC
:100960000E9451048C2FCF9108958F929F92AF9245
:10097000BF92CF92DF92EF92FF920F931F93CF938C
:10098000DF93882E962E5A010E9423036B017C016F
:1009900028E8C20E23E1D21EE11CF11C10E000E0A9
:1009A000D0E0C0E098280E9423036C197D098E09CD
:1009B0009F0997FF1EC0692D80EF0E9454040E947A
:1009C00023036C197D098E099F0997FF09C088ECE4
:1009D0000E94A10487FFF3CF60E888EC0E945404D2
:1009E00088EF0E94A104C82FCF70C43081F0CE30B0
:1009F000B9F08C2FDF91CF911F910F91FF90EF9065
:100A0000DF90CF90BF90AF909F908F9008950F5F31
:100A10001F4FA114B10439F20A151B0521F6E9CFC5
:100A2000DF5FD33009F0BFCFE4CFAF92BF92CF9258
:100A3000DF92EF92FF920F931F93CF93DF93EC011E
:100A4000B62EA42E69010E942D047C0186EDE114CE
:100A5000F10409F447C0D701ED91FC91119787ED9E
:100A6000309709F43FC013969C9180E0981731F0BD
:100A70002081A21629F033968F5FF8CFF0E0E0E0F6
:100A8000D601ED93FC938BED309761F12281269591
:100A90002695203108F02FE081E090E0A0E0B0E062
:100AA00004C0880F991FAA1FBB1F2A95D2F7019770
:100AB000F801918380836B2D80EE0E94540488EDB1
:100AC0000E94A104D70114969C91682F697F9923F5
:100AD00029F0CA58DF4F68816260682B88ED0E9458
:100AE000540480E0DF91CF911F910F91FF90EF9020
:100AF000DF90CF90BF90AF90089588EF0E94A1043F
:100B0000807C8034B1F018F4882301F10895803896
:100B100019F0803CC9F0089588ED0E94A10481FD80
:100B20000DC069EC88ED0E94540482E0809351016D
:100B3000089588ED0E94A10481FDF3CF6BEC88ED50
:100B40000E94540483E0F2CF81E0F0CF61ED88EDA4
:100B50000E945404109251010895CF93DF93EC0149
:100B600088810E944402892B39F48981813021F4E3
:100B70001982DF91CF91089588810E9444020197E4
:100B800029F48981811102C081E0898380E0F1CF5D
:100B9000089590E080E00895CF92DF92FF920F9346
:100BA0001F93CF93DF93F62E01E0C82FD0E0CC0F38
:100BB000DD1FC25AD94F6E0188819981DC01ED9108
:100BC000FC910280F381E02D2F2D40E060E009953B
:100BD000182F803E49F561E088EE0E94540466E6D5
:100BE00070E080E090E00E94F102F6018081918146
:100BF000DC01ED91FC910190F081E02D2F2D40E082
:100C000060E00995182F8D3041F58FEF800F83300C
:100C100088F061E088EE0E94540466E670E080E0AF
:100C200090E00E94F10210C08D3061F48FEF800FD0
:100C3000833050F464E670E080E090E00E94F102BE
:100C40000F5FBACF882389F2812FDF91CF911F9157
:100C50000F91FF90DF90CF9008958823A9F3D9CF0B
:100C6000CF93DF93EC0160E08E810E946D0261E022
:100C70008E810E946D0260E08E810E946D028BE881
:100C800091E00197F1F7DF91CF910895CF92DF9234
:100C9000EF92FF920F931F93CF93DF936C017C0130
:100CA00087E0E80EF11CD0E0C0E0062F10E0B801AC
:100CB0000C2E02C0759567950A94E2F76170F701F2
:100CC00081917F010E946D022196C430D10579F790
:100CD000C601DF91CF911F910F91FF90EF90DF90B0
:100CE000CF900C943006CF92DF92EF92FF920F9349
:100CF0001F93CF93DF93EC01F62E642F8C810E941B
:100D00006D028D818F3F19F060E00E946D020F2D02
:100D100010E08F8584FF25C06E0187E0C80ED11CCE
:100D2000F12CE12CB8010E2C02C0759567950A9440
:100D3000E2F76170F60181916F010E946D02FFEF91
:100D4000EF1AFF0A88E0E816F10461F7CE01DF919F
:100D5000CF911F910F91FF90EF90DF90CF900C9467
:100D60003006B80184E0759567958A95E1F7CE0164
:100D70000E9446066F2DCE01DF91CF911F910F91FA
:100D8000FF90EF90DF90CF900C94460641E00E94D8
:100D9000730681E090E008950F931F93CF93DF9344
:100DA0008C01D0E0C0E0F801EC0FFD1F64916623D8
:100DB00039F041E080EF95E00E9473062196F3CF71
:100DC000CE01DF91CF911F910F910895DF92EF92A5
:100DD000FF920F931F93CF93DF93EC01E62EF12C3C
:100DE00001E010E09AE0D92E2F2D30E082E0E812E9
:100DF0000DC081E090E02817390794F4209749F45A
:100E00008DEB91E00E94CC06F394EECF82E090E06F
:100E1000F2CFC801D89E8001D99E100D1124F4CFC5
:100E2000209791F0015011098AE0F82EC017D107E0
:100E30005CF48BEB91E00E94CC06CE01F89EE001C1
:100E4000F99ED00D1124F2CFDF91CF911F910F9118
:100E5000FF90EF90DF90089540E00C947306CF93DD
:100E6000DF93613029F09091FF0598609093FF0522
:100E7000609303061092040690E490930506809315
:100E80000606805C8093070661E08091F4050E946D
:100E90009B028091F5058F3F19F061E00E949B0253
:100EA00061E08091F6050E949B02C0EFD5E09E01B3
:100EB000205F35408091FF0584FD0BC084E090E009
:100EC00021962817390744F461E08E810E949B0225
:100ED000EECF88E090E0F4CF8BE39DE00197F1F74F
:100EE00060E08091F4050E946D0260E08091F6055B
:100EF0000E946D028091F5058F3F19F060E00E941D
:100F00006D026091FF0564FD41C063E080EF95E0F4
:100F10000E944606CBE4D6E4CE010197F1F763E0E8
:100F200080EF95E00E9446062197F1F763E080EF9D
:100F300095E00E94460683E592E00197F1F762E0B2
:100F400080EF95E00E9446066091FF05606280EFA9
:100F500095E00E942C0784E0809300066CE080EF0F
:100F600095E00E942C0761E080EF95E00E942C073D
:100F70008BE39FE10197F1F782E08093010666E041
:100F800080EF95E0DF91CF910C942C07606280EFA9
:100F900095E00E942C078BE496E40197F1F76091AD
:100FA000FF05606280EF95E00E942C0783E592E0E8
:100FB0000197F1F76091FF05606280EF95E00E9474
:100FC0002C07C2CFFC012389421710F04FEF420FCC
:100FD000FC01E40FF11D2489620F60680C942C075A
:100FE0002F923F924F925F926F927F928F929F9239
:100FF000AF92BF92CF92DF92EF92FF920F931F9327
:10100000CF93DF937B013A016901F901A080B180A0
:10101000FB013180F90111821082FB01828160E1C4
:1010200081FD60E288EE0E9454042A2CA301F7019E
:10103000608180E00E94B504582EF6E08F1310C046
:1010400088EF0E94A104F70192819D7F84FF926046
:10105000928360E191FD60E288EE0E945404E6CF45
:10106000811150C088EC0E94A10482FF5FC080E320
:101070000E94A104482E8A151B0411F008F0422C8E
:10108000F60180819181E501C81BD90BD7FF02C011
:10109000D0E0C0E0842C912C8C169D060CF4E40169
:1010A00080E591E00E940B010E944F0488E00E94BD
:1010B0007504AE0170E060E0C8010E942F14209713
:1010C00021F0BE01C8010E949C030C0F1D1F0E944D
:1010D000510464E088EC0E945404F60180819181FF
:1010E000880E991E91828082431420F08A149B04FA
:1010F00008F49CCF88EF0E94A104F701928184FB41
:1011000091F99283852DDF91CF911F910F91FF90DF
:10111000EF90DF90CF90BF90AF909F908F907F9097
:101120006F905F904F903F902F90089580EF582ED2
:10113000E9CF2F923F924F925F926F927F928F9260
:101140009F92AF92BF92CF92DF92EF92FF920F9356
:101150001F93CF93DF93CDB7DEB763970FB6F894A5
:10116000DEBF0FBECDBF3C01542E422E302E1E8658
:101170001D861C861B868E01055F1F4F9E01235F07
:101180003F4F40E00E941505F82E8111D0C05982D2
:101190004A823B82EC821E821D82D886CF82AE01BB
:1011A0004F5F5F4F68E080E20E947C044B855C8566
:1011B00060E080E10E94B504811116C181149104A0
:1011C000B1F10D851E85F801828157FE36C082601F
:1011D0008283EE24E394C114D10409F40AC1BA86CF
:1011E000A9864B855C856D857E8584019E01275F80
:1011F0003F4FC3010E94F007F82EF6E08F130EC098
:1012000088EF0E94A104ED85FE8585FB882780F983
:101210008E25928180FB91F99283DDCF811187C069
:1012200089859A85C81AD90A8A159B05A0F64B8527
:101230005C8557FED5C080EAD4C081608283E1809E
:101240008FEF8E0D803408F0D1C08B859C85988BF4
:101250008F870E9423031B012C01E8E82E0EE3E197
:101260003E1E411C511CF801828160E880FF60E451
:1012700088EE0E945404F12C8E2D90E09A8B898B7D
:10128000A114B10409F446C0C988DA88AC14BD04BD
:1012900008F46501CB8AA4016C2D80E10E947C04D6
:1012A0006C2D88E30E945404F8016081606280EF35
:1012B0000E94540488EC0E94A10487FFFBCF60E8E1
:1012C00088EC0E94540488EF0E94A1048F70F82ECD
:1012D000E12C712C612CFF2009F443C00E942303F0
:1012E000621973098409950997FF3BC0F6E0FF1660
:1012F00009F462C02EE0F216C9F184E0F8120AC0C7
:101300009FEF691A790AEF85F889309799F1E61508
:10131000F70581F588EF0E94A104F801928185FB11
:1013200090F992834B855C85FF2009F459C08F2D7D
:1013300063960FB6F894DEBF0FBECDBFDF91CF919D
:101340001F910F91FF90EF90DF90CF90BF90AF90E3
:101350009F908F907F906F905F904F903F902F90D5
:101360000895AC18BD088C0C9D1C8ACFE394F3E063
:10137000EF1681F260E088E30E945404F40160817A
:1013800080E10E9454046B8988E30E945404F801B0
:101390006081606280EF0E94540488EC0E94A10486
:1013A00087FFFBCF60E888EC0E94540488EF0E941E
:1013B000A1048F70F82E8FCF88EF0E94A10485FBC7
:1013C000882780F921E08227F801928180FB90F93B
:1013D000928360E890FF60E488EE0E945404CACFD4
:1013E00080E860E00E94B504F82EA1CF8AEDF82EC7
:1013F0009ECF4B855C85FF2009F41DCF98CF8F923F
:101400009F92AF92BF92CF92DF92EF920F93CF93C2
:10141000912C812CB12CA12CD12CC12CE12C062F8C
:1014200025E040E060E00E949908C82F6CE271E07E
:1014300080E090E00E94F1028C2FCF910F91EF900D
:10144000DF90CF90BF90AF909F908F9008954F9274
:101450005F926F927F928F929F92AF92BF92CF9244
:10146000DF92EF92FF920F931F93CF93DF93CDB74D
:10147000DEB7DA950FB6F894DEBF0FBECDBF3C01E4
:10148000162FF42ECE0101964C01A4E0AA2EB12C09
:10149000B4E0CB2ED12C02E0E02E042F26E040E871
:1014A000D30112968D919C910E949908811166C07A
:1014B0004B805C80B1E04B165B0618F0412C552444
:1014C0005394FE0131964F0152016201E2E0EE2E8B
:1014D0000F2D26E040E8612FD30112968D919C914B
:1014E0000E94990881114AC040E0F401480C591C3F
:1014F000E415F50508F042C050819181943059F00F
:101500009530A1F0923021F49581D30115969C93EA
:10151000E50FF11DEDCF9581913071F526812330D6
:1015200059F5D30118969C9341E0F2CF93819370C3
:10153000923071F792814423D1F021E097FF22E0AD
:10154000648130E0D901AA0FBB1FA20FB31FA60D03
:10155000B71D9F7019969C9319971A966C93D30197
:1015600016969C9116979F5F16969C93D1CF23E079
:1015700097FDE6CF24E0E4CF40E0CACFD3950FB685
:10158000F894DEBF0FBECDBFDF91CF911F910F91B9
:10159000FF90EF90DF90CF90BF90AF909F908F9093
:1015A0007F906F905F904F9008952F923F924F924F
:1015B0005F926F927F928F929F92AF92BF92CF92E3
:1015C000DF92EF92FF920F931F93CF93DF93CDB7EC
:1015D000DEB767970FB6F894DEBF0FBECDBFFC0134
:1015E00081E88487158686858E7F8D7F868731E0AA
:1015F0003787108A81898E7F8D7F818B848109ED69
:10160000811113C0122F4F8BF62E3F014280538061
:10161000D201ED91FC910190F081E02D60E0C201DA
:1016200009951C010097D9F406ED802F67960FB637
:10163000F894DEBF0FBECDBFDF91CF911F910F9108
:10164000FF90EF90DF90CF90BF90AF909F908F90E2
:101650007F906F905F904F903F902F900895FC0186
:101660000190F081E02DFE8BED8B07EDEF2BE9F281
:101670009301275F3F4F3C8B2B8BDC0111963C93F2
:101680002E9314961C93FE0131964F0182E1A82EF1
:10169000B12C92E1C92ED12CEE24E39400E026E097
:1016A00040E860E0D30112968D919C910E949908C8
:1016B000082F89859A85F301E55AFF4F918380832E
:1016C0008B859C853297918380832D893E89F1019A
:1016D000318320830111ABC0D201ED91FC910280D6
:1016E000F381E02D2F8940E06F2DC2010995F301B0
:1016F000848304ED882309F498CF98859287682F16
:10170000828193810E94FF09082FD201ED91FC9103
:10171000D10114961C92882359F00480F581E02DA4
:10172000D30114966C91C2010995F30114827DCF07
:101730000190F081E02DD30114966C91C2010995BE
:10174000009709F471CFFC011483D30112968D9197
:101750009C91139714961C91EB89FC89EF2B09F44B
:1017600065C0612F0E942D04FC01892B09F468C01B
:10177000FA8812832B893C893183208331E03383BB
:10178000D30118961C9210E01F1581F0412FF30130
:101790006481C3010E94270A082F811148C0D30128
:1017A00016968C91823010F41F5FEECFF301868184
:1017B000823008F447C08085811108C082898487FF
:1017C00083898587858987878689808BD30114964D
:1017D0001C911497612F12968D919C910E942D045B
:1017E000FC01892B39F012832B893C8931832083BA
:1017F00083E08383912C812CB12CA12CD12CC12C82
:10180000E12CD30115960C91159729E040E0149630
:101810006C91149712968D919C910E949908082FB3
:10182000811105C081E0F3018783FFCE08EDD3016C
:10183000ED91FC910480F581E02DC3010995F5CE71
:1018400006EDF5CF0FEFF3CF8F929F92AF92BF923D
:10185000EF92FF920F931F93CF93DF93CDB7DEB735
:10186000A1970FB6F894DEBF0FBECDBF7C01FA0181
:10187000CB0119A2223008F42AE08E010F5D1F4F20
:10188000822E912CB12CA12CBF01A50194010E94A4
:10189000DF13F901CA016A304CF5605DD8016E931F
:1018A0008D01232B242B252B79F790E080E01097D6
:1018B00061F0FD0101900020E9F73197AF014A1B6B
:1018C0005B0BBD01C7010E940E01A1960FB6F894F3
:1018D000DEBF0FBECDBFDF91CF911F910F91FF9063
:1018E000EF90BF90AF909F908F900895695CD6CF96
:1018F000CF93C82F62E090E00E94E6064C2F50E0A4
:1019000070E060E02AE080EF95E0CF910C94240C29
:101910001F920F920FB60F9211242F933F934F9364
:101920005F936F937F938F939F93AF93BF93EF9347
:10193000FF9382E591E00E948C01FF91EF91BF91AE
:10194000AF919F918F917F916F915F914F913F9157
:101950002F910F900FBE0F901F9018951F920F920E
:101960000FB60F9211242F938F939F93EF93FF93B2
:10197000E0916201F09163018081E0916801F09152
:10198000690182FD1BC0908180916B018F5F8F7315
:1019900020916C01821741F0E0916B01F0E0EE5A6A
:1019A000FE4F958F80936B01FF91EF919F918F91E7
:1019B0002F910F900FBE0F901F9018958081F4CF3C
:1019C0001F920F920FB60F9211242F933F938F9374
:1019D0009F93AF93BF9380913F0190914001A0915D
:1019E0004101B091420130913E0123E0230F2D3798
:1019F00058F50196A11DB11D20933E0180933F0132
:101A000090934001A0934101B09342018091430122
:101A100090914401A0914501B09146010196A11D0C
:101A2000B11D8093430190934401A0934501B0936D
:101A30004601BF91AF919F918F913F912F910F9050
:101A40000FBE0F901F90189526E8230F0296A11D38
:101A5000B11DD2CFCF93109255011092540188EE50
:101A600093E0A0E0B0E08093560190935701A093DB
:101A70005801B093590184E091E090935301809311
:101A8000520185EC90E090935F0180935E0184ECBD
:101A900090E0909361018093600180EC90E09093DE
:101AA00063018093620181EC90E0909365018093E3
:101AB000640182EC90E0909367018093660186EC6C
:101AC00090E0909369018093680110926B011092ED
:101AD0006C0110926D0110926E0183E18093E60615
:101AE00060E00E949B02C1E0C093E70682E1809320
:101AF000E40660E00E949B02C093E50680E18093CB
:101B0000E20660E00E949B02C093E30681E18093BD
:101B1000E00660E00E949B02C093E10688E391E04A
:101B2000909309068093080610921006C093110640
:101B3000109212068AE096E090930F0680930E06AC
:101B400010920A0688E080930B068CE380930C06C3
:101B500010920D06E8E0F6E023E536E081E04AE089
:101B600056E01586868717865487438735962E1745
:101B70003F07B9F710927E0691E19093EF0122E2C0
:101B800031E03093800620937F0628E036E03093E2
:101B90008206209381061092830680938506109218
:101BA0008606109287061092D7061092880688E063
:101BB0008093890680918A0683708C6380938A065D
:101BC00010928B0610928C0680918D068370846033
:101BD00080938D0610928E0610928F06809190064B
:101BE0008370846080939006109291061092920602
:101BF000809193068370846080939306109294067C
:101C00001092950680919606837084608093960664
:101C1000EEE5F6E090E080E021913191232B09F090
:101C20004CC0880F991FFC01E25AF94F8FE796E0EC
:101C30009183808380EB8093DF061092F3051092EE
:101C4000F20586E191E09093F1058093F00587E03D
:101C50008093F4058FEF8093F50586E08093F60579
:101C600085E08093F70584E08093F80583E0809316
:101C7000F90582E08093FA051092FB051092FC05AD
:101C80001092FD051092FE051092FF0561E080E1C3
:101C90000E942F0786E191E09093F1058093F00573
:101CA000E0EFF1E090E080E081939193019681155F
:101CB00022E09207C9F7CF910895019680319105EE
:101CC00009F0AACFB7CFCF93DF93CDB7DEB7679731
:101CD0000FB6F894DEBF0FBECDBF789484B5826096
:101CE00084BD84B5816084BD85B5826085BD85B5C0
:101CF000816085BD80916E00816080936E0010923E
:101D000081008091810082608093810080918100B8
:101D10008160809381008091800081608093800049
:101D20008091B10084608093B1008091B0008160A7
:101D30008093B00080917A00846080937A008091D3
:101D40007A00826080937A0080917A00816080932B
:101D50007A0080917A00806880937A001092C100A6
:101D6000E0916201F091630182E08083E0915E0185
:101D7000F0915F011082E0916001F09161018FE3C9
:101D8000808310926A01E0916601F091670186E01C
:101D90008083E0916401F09165018081806180839E
:101DA000E0916401F0916501808188608083E09119
:101DB0006401F0916501808180688083E091640115
:101DC000F091650180818F7D808364E084E10E94D1
:101DD0002F0740E060E080EF95E00E94E2078AEB89
:101DE00090E00E94CC0642E060E080EF95E00E9427
:101DF000E20785EA90E00E94CC0643E060E080EFD5
:101E000095E00E94E20780E990E00E94CC06609194
:101E10000006862F8260809300066A6080EF95E05E
:101E20000E942C0760910006862F81608093000637
:101E3000696080EF95E00E942C07229A0E9451046D
:101E40001FB7F89480914701811127C0E0EFF0E0BF
:101E50008491ECEDF0E09491E82FF0E0EE0FFF1F9D
:101E6000E853FF4FA591B491EC91E92321F461E08F
:101E70008AE00E946D0261E08AE00E949B028CB5BC
:101E800080618CBD8CB580648CBD61E08DE00E946A
:101E90009B0261E08BE00E949B02809147018F5F73
:101EA000809347011FBF229A0E945104219868E144
:101EB00088E80E94540460E288E70E94540460E0CD
:101EC00088E70E94540410E000E088E60E94A10424
:101ED0000F5F1F4F80FF44C061EC88ED0E945404E7
:101EE00060E680ED0E94540464E088EE0E94540491
:101EF00088EE0E94A10482FFFBCF0E947D0560E274
:101F000088EC0E94540461E080E80E94540468EC6C
:101F100070E080E090E00E94F1021E0133E1230EA8
:101F2000311C0E94230383B1182F127081FD0CC055
:101F300088EC0E94A10485FF03C00E947D0510E289
:101F4000612F88EC0E94540480915101813069F026
:101F500080F0823009F468C08330A1F010E029C01D
:101F60000F3F100709F0B1CFFFCF83E18093EF015E
:101F7000F5CF8091EF01807F803181F391E19093E3
:101F8000EF01ECCF11E08091EF01807F803189F487
:101F90000E94230368537F4F8F4F9F4F60934801E8
:101FA0007093490180934A0190934B01A0E2A09362
:101FB000EF01AEE56A2EA6E07A2E7301F70181915A
:101FC00091917F01009739F0DC01ED91FC91068041
:101FD000F781E02D0995EEE7F6E0EE15FF0571F7C4
:101FE0008091EF01803409F456C000F58032E9F1A8
:101FF000803309F44AC0813109F05DC010927E0639
:10200000D3018D919D913D01009739F0DC01ED9157
:10201000FC910480F581E02D0995E614F70481F721
:1020200082E18093EF0147C010E0ADCF813509F424
:1020300063C1803809F473C18035E9F588EC0E94EA
:10204000A10486FF38C081E58093EF010E9423033D
:102050006C5E7F4F8F4F9F4F609348017093490193
:1020600080934A0190934B0126C00E942303009164
:1020700048011091490120914A0130914B01601BA8
:10208000710B820B930B97FD16C061E088EE0E94E6
:10209000540480E4C6CF88EE0E94A10480FD0BC0EA
:1020A00088ED0E94A104682F686088ED0E945404A6
:1020B000B0E5B093EF0186EE96E00E94AD0588236F
:1020C000C9F18091500190E0019683709927182FF3
:1020D0008093500161E080EF95E00E942C078BE334
:1020E0009FE10197F1F740E060E080EF95E012306A
:1020F00009F428C2133009F43EC2113009F409C2B0
:102100000E94E2078DEA91E00E94CC0642E060E086
:1021100080EF95E00E94E20788E991E00E94CC06FA
:1021200043E060E080EF95E00E94E20783E891E001
:102130000E94CC0684EE96E00E94AD05882389F0CB
:1021400080914C0190E001968170992780934C0119
:1021500041E064E0892B09F068E080EF95E00E949F
:10216000E20782EE96E00E94AD058823D1F0E0916F
:102170004F01F0E8EF9FC0011124E0914E01E80FFC
:10218000F92FF11DEE0FFF1FDF01A051BE4F0D9182
:102190001C9180914C01882309F406C2813009F416
:1021A00024C280EE96E00E94AD058823D1F02091F4
:1021B0004F0130E8239FC001112420914E01280FC8
:1021C000392F311D220F331FF901E051FE4F0081DD
:1021D000118180914C01882309F436C2813009F4C1
:1021E00054C28091EF01803909F0C5C28091860602
:1021F000882309F4C0C2E091D7068FEF8E0F8F338A
:1022000008F072C2F0E0E158F94F808D882309F49C
:1022100068C2E091D706AE2FB0E0A158B94F5896EA
:102220003C91A1E0AE0FB0E0A158B94F58969C91F7
:102230009093DC06A2E0AE0FB0E0A158B94F5896DB
:102240002C912093DD0684E08E0F8093D706ED5FFE
:10225000F0E0E158F94F108D1093DE06832F8C705B
:10226000843021F43F703450343088F0892F903F0F
:1022700008F4807F803E59F008F093C2803A39F02C
:1022800008F086C2803819F0803909F074C2809154
:10229000DF06981B90934F0120934E0110934D0140
:1022A000B0E89B9FF0011124E20FF11DEE0FFF1F1C
:1022B000E051FE4FE080F180B701F7FE02C06158A7
:1022C0007F4F660F672F661F770B772760557F4F0D
:1022D00082E591E00E94AE01C70160E870E00E94D3
:1022E0000114682F82E591E00E94AE01612F82E522
:1022F00091E00E94AE013FC20E942303C0904801BA
:10230000D0904901E0904A01F0904B016C197D0991
:102310008E099F0997FDCFCE80E88093EF011B8A3D
:1023200088E08C8B8CE38D8B40900E0650900F06CE
:1023300030920F0620920E0610931206FE0131967F
:102340004F01E2E1AE2EB12CF2E1CF2ED12CEE24E2
:10235000E39400E026E040E860E088E096E00E9438
:102360009908082F50920F0640920E06811150C016
:10237000C984DA84AB84BC844D809E807EE5E72EE0
:1023800076E0F72E512CD7018D919C91009709F0A2
:1023900041C05394B2E0EB0EF11CE0E15E12F3CFCA
:1023A000F30180819181009709F076C00F5FF2E020
:1023B0006F0E711C0031A1F780910E0690910F06EF
:1023C000892B09F459C01093120620E040E060E028
:1023D00088E096E00E94D803F82E882309F44CC0C8
:1023E000682F88E096E00E942D04009709F444C00D
:1023F000FC0114836F2D88E096E00E94FF09082FEE
:10240000882309F484C06F2D88E096E00E94B6030B
:10241000802F2FC0DC01ED91FC910084F185E02D2F
:1024200009958111B6CFF70180819181DC01ED9191
:10243000FC910088F189E02D692D0995882309F424
:10244000A8CFF70180819181DC01ED91FC9104849A
:10245000F585E02DA501B6010995882379F0612F56
:10246000852D0E94CC05813D09F493CF882309F482
:102470004EC0823D09F41FCE80EAD3CDF7018081A2
:102480009181DC01ED91FC910684F785E02D642DAE
:1024900009958111E4CF7DCFDC01ED91FC910084A1
:1024A000F185E02D0995811181CFF3018081918122
:1024B000DC01ED91FC910088F189E02D692D0995F1
:1024C000811109C0612F802F0E94CC05982F977F22
:1024D000913D61F66BCFF30180819181DC01ED913B
:1024E000FC910484F585E02DA501B60109958111C3
:1024F0005DCFF30180819181DC01ED91FC91068437
:10250000F785E02D642D09958823E1F24FCF80E90E
:1025100088CD0E94E20788E791E00E94CC0642E065
:1025200060E080EF95E00E94E20786E691E00E947D
:10253000CC0643E060E080EF95E00E94E20783E58F
:1025400091E0F6CD0E94E20788E491E00E94CC067B
:1025500042E060E080EF95E00E94E20787E391E0CF
:102560000E94CC0643E060E080EF95E00E94E20725
:1025700089E291E0DDCD0E94E2078DE191E00E94C9
:10258000CC0642E060E080EF95E00E94E2078BE03D
:1025900091E00E94CC0643E060E080EF95E00E946D
:1025A000E2078AEF90E0C4CD003821E01207D4F0B2
:1025B0000F771127E051FE4F1183008341E064E063
:1025C00080EF95E00E94E207980117FF02C02158B2
:1025D0003F4F220F232F221F330B81E0820F0E94D7
:1025E000780CDFCD00581F4FE5CFC8010196980148
:1025F00017FF02C021583F4F20783F7720583F4FA8
:10260000821793071CF0C90180589109E051FE4FD1
:102610009183808360E870E00E940114182F41E0EC
:1026200068E080EF95E00E94E20763E0812F90E090
:102630000E94E606412F50E070E060E02AE080EF63
:1026400095E00E94240CADCD00381105DCF4005853
:102650001E4F20513E4FD9010D931C9341E064E081
:1026600080EF95E00E94E207A80117FF02C04158E1
:102670005F4F440F452F441F550B81E0840F0E948C
:10268000780CAFCD00581109E4CFC80117FF02C084
:1026900081589F4F80789F77AC0141585F4F8017DA
:1026A00091071CF4A8014150510920513E4FF901F6
:1026B000518340838A010F77112741E068E080EF62
:1026C00095E00E94E20763E0C8010E94E606A801C7
:1026D000110F660B770B2AE080EF95E00E94240C27
:1026E00080CD818D811195CD1092D70680918C0679
:1026F00090E09F8B8E8BE0908106F0908206409157
:102700008B06609183061C8A1B8A1A8219828E01AD
:102710000F5F1F4F9101C7010E94150581110CC069
:1027200049815A816B897C8907E916E09E012A5EFE
:102730003F4FC7010E94F0072E893F892C33310596
:1027400040F4F901E956F94F10822856394FD90162
:102750001C92811110C08091970681115ACD8091F1
:102760009806811156CD80919906811152CD8091A4
:102770009A0681114ECDE0E0F0E0EF2B09F4D1CBC9
:102780000E947801882309F4CCCB0E940000C9CBB9
:10279000803C09F47CCD803D09F479CD803B59F72C
:1027A00076CD8D3F40F4883F08F071CD815F833056
:1027B00008F46DCDE0CF8E3F08F069CDDCCFA1E20B
:1027C0001A2EAA1BBB1BFD010DC0AA1FBB1FEE1FAB
:1027D000FF1FA217B307E407F50720F0A21BB30BF6
:1027E000E40BF50B661F771F881F991F1A9469F772
:1027F00060957095809590959B01AC01BD01CF01CE
:10280000089597FB072E16F4009407D077FD09D0A2
:102810000E94151407FC05D03EF4909581959F4FBA
:102820000895709561957F4F0895AA1BBB1B51E1D8
:1028300007C0AA1FBB1FA617B70710F0A61BB70B30
:10284000881F991F5A95A9F780959095BC01CD01D5
:102850000895EE0FFF1F0590F491E02D0994DC011F
:1028600001C06D9341505040E0F70895F894FFCFB8
:1028700000000000AE010E013B01FB016C014A01AA
:102880005E0100000000C6060E01C905C805000073
:102890000000D50A4A042F03460447034E044404AB
:0E28A00048044C04000000002D04D803B603C9
:107E0000112484B714BE81FFF0D085E080938100F7
:107E100082E08093C00088E18093C10086E0809377
:107E2000C20080E18093C4008EE0C9D0259A86E02C
:107E300020E33CEF91E0309385002093840096BBD3
:107E4000B09BFECF1D9AA8958150A9F7CC24DD24C4
:107E500088248394B5E0AB2EA1E19A2EF3E0BF2EE7
:107E6000A2D0813461F49FD0082FAFD0023811F036
:107E7000013811F484E001C083E08DD089C08234E0
:107E800011F484E103C0853419F485E0A6D080C0E4
:107E9000853579F488D0E82EFF2485D0082F10E0AE
:107EA000102F00270E291F29000F111F8ED06801E7
:107EB0006FC0863521F484E090D080E0DECF843638
:107EC00009F040C070D06FD0082F6DD080E0C81688
:107ED00080E7D80618F4F601B7BEE895C0E0D1E017
:107EE00062D089930C17E1F7F0E0CF16F0E7DF06D8
:107EF00018F0F601B7BEE89568D007B600FCFDCFD4
:107F0000A601A0E0B1E02C9130E011968C91119780
:107F100090E0982F8827822B932B1296FA010C0160
:107F200087BEE89511244E5F5F4FF1E0A038BF0790
:107F300051F7F601A7BEE89507B600FCFDCF97BE46
:107F4000E89526C08437B1F42ED02DD0F82E2BD052
:107F50003CD0F601EF2C8F010F5F1F4F84911BD097
:107F6000EA94F801C1F70894C11CD11CFA94CF0C13
:107F7000D11C0EC0853739F428D08EE10CD085E9AC
:107F80000AD08FE07ACF813511F488E018D01DD067
:107F900080E101D065CF982F8091C00085FFFCCF94
:107FA0009093C60008958091C00087FFFCCF809118
:107FB000C00084FD01C0A8958091C6000895E0E648
:107FC000F0E098E1908380830895EDDF803219F02E
:107FD00088E0F5DFFFCF84E1DECF1F93182FE3DFCA
:107FE0001150E9F7F2DF1F91089580E0E8DFEE27F6
:047FF000FF270994CA
:027FFE00040479
:00000001FF
