:100000000C94E1000C9409010C9409010C94090171
:100010000C9409010C9409010C9409010C94090138
:100020000C9409010C9409010C9409010C94090128
:100030000C9409010C9409010C9409010C94090118
:100040000C94A00C0C9409010C946E0C0C94480CAC
:100050000C9409010C9409010C9409010C940901F8
:100060000C9409010C9409010000000025002800EF
:100070002B000000000023002600290000000008DB
:10008000000201000003040700000000000000005F
:100090003C2D20636830312063633030302076613E
:1000A0006C303030002D3E20636830312063633087
:1000B00030302076616C303030006D6F64653A20EE
:1000C000706572666F726D000000000024002700EA
:1000D0002A000102040810204080010204081020B8
:1000E00001020408102004040404040404040202AD
:1000F00002020202030303030303746F20646566B4
:1001000061756C74207374617465007072657373CB
:1001100020555020746F207265736574006D6F6494
:10012000653A2072657365740063757272656E74EA
:10013000207374617465007072657373205550206C
:10014000746F2073617665006D6F64653A2073612A
:100150007665006D696469203C2D2063683031202C
:10016000636330303000757362202D3E2063683049
:1001700031206363303030006D6F64653A20656410
:100180006974003C2D206368303120636330303067
:100190002076616C303030002D3E20636830312095
:1001A00063633030302076616C303030006D6F64C6
:1001B000653A20706572666F726D00300030000025
:1001C000EA0C11241FBECFEFD8E0DEBFCDBF11E097
:1001D000A0E0B1E0ECE1F7E202C005900D92A2359B
:1001E000B107D9F726E0A2E5B1E001C01D92AD3F0D
:1001F000B207E1F710E0C1EED0E004C02197FE01A4
:100200000E947F13C03ED107C9F70E94260E0C94AE
:100210008C130C9400008CBD9DBD0895AF92BF92CD
:10022000CF92DF92EF92FF920F931F93CF93DF93C2
:100230006C017B018B01040F151FEB015E01AE18F1
:10024000BF08C017D10759F06991D601ED91FC9113
:100250000190F081E02DC6010995892B79F7C50140
:10026000DF91CF911F910F91FF90EF90DF90CF9092
:10027000BF90AF900895FC01538D448D252F30E041
:10028000842F90E0821B930B541710F0CF960895A3
:1002900001970895FC01918D828D981761F0A28DD0
:1002A000AE0FBF2FB11D5D968C91928D9F5F9F7396
:1002B000928F90E008958FEF9FEF0895FC01918D4C
:1002C000828D981731F0828DE80FF11D858D90E0B9
:1002D00008958FEF9FEF0895FC01918D228D892F56
:1002E00090E0805C9F4F821B91098F73992708953E
:1002F00085E691E00E946C0121E0892B09F420E061
:10030000822F089580E090E0892B29F00E947801E7
:1003100081110C9400000895FC01A48DA80FB92F41
:10032000B11DA35ABF4F2C91848D90E001968F731D
:100330009927848FA689B7892C93A089B1898C913C
:10034000837080648C93938D848D981306C002888B
:10035000F389E02D80818F7D80830895EF92FF9255
:100360000F931F93CF93DF93EC0181E0888F9B8DD8
:100370008C8D98131AC0E889F989808185FF15C092
:100380009FB7F894EE89FF896083E889F9898081B5
:100390008370806480839FBF81E090E0DF91CF9184
:1003A0001F910F91FF90EF900895F62E0B8D10E0A6
:1003B0000F5F1F4F0F731127E02E8C8D8E110CC015
:1003C0000FB607FCFACFE889F989808185FFF5CF60
:1003D000CE010E948C01F1CFEB8DEC0FFD2FF11DB2
:1003E000E35AFF4FF0829FB7F8940B8FEA89FB899D
:1003F00080818062CFCFCF93DF93EC01888D8823FB
:10040000B9F0AA89BB89E889F9898C9185FD03C077
:10041000808186FD0DC00FB607FCF7CF8C9185FF5C
:10042000F2CF808185FFEDCFCE010E948C01E9CF14
:10043000DF91CF910895833081F028F4813099F0D5
:100440008230A9F008958730A9F08830C9F084304F
:10045000B1F4809180008F7D03C0809180008F7700
:1004600080938000089584B58F7784BD089584B506
:100470008F7DFBCF8091B0008F778093B00008957F
:100480008091B0008F7DF9CFCF93DF93282F30E09C
:10049000F901E458FF4F8491F901EE52FF4FD491D6
:1004A000F901EA51FF4FC491CC23A1F081110E94C0
:1004B0001B02EC2FF0E0EE0FFF1FEE58FF4FA5914F
:1004C000B491EC91ED2381E090E009F480E0DF91BC
:1004D000CF91089580E090E0FACF1F93CF93DF9300
:1004E000282F30E0F901E458FF4F8491F901EE52D2
:1004F000FF4FD491F901EA51FF4FC491CC23A9F0E9
:10050000162F81110E941B02EC2FF0E0EE0FFF1F4F
:10051000E859FF4FA591B4918FB7F894EC91111160
:1005200008C0D095DE23DC938FBFDF91CF911F9160
:100530000895DE2BF8CFCF93DF9390E0FC01EE52CD
:10054000FF4F24918A519F4FFC0184918823D1F061
:1005500090E0880F991FFC01E853FF4FA591B491DB
:10056000FC01E859FF4FC591D49161110EC09FB7AE
:10057000F8948C91E22FE0958E238C932881E223CE
:10058000E8839FBFDF91CF9108958FB7F894EC91E6
:10059000E22BEC938FBFF6CF3FB7F89480915701D1
:1005A00090915801A0915901B0915A0126B5A89B8C
:1005B00005C02F3F19F00196A11DB11D3FBFBA2FF5
:1005C000A92F982F8827BC01CD01620F711D811DB5
:1005D000911D42E0660F771F881F991F4A95D1F73A
:1005E00008958F929F92AF92BF92CF92DF92EF9237
:1005F000FF924B015C010E94CC026B017C010E94C6
:10060000CC026C197D098E099F09683E73408105F3
:100610009105A8F321E0821A9108A108B10888EE9B
:10062000C80E83E0D81EE11CF11C81149104A104C2
:10063000B10429F7FF90EF90DF90CF90BF90AF907B
:100640009F908F9008952FB7F89460915301709107
:10065000540180915501909156012FBF0895CF9379
:10066000DF93EC018A819B81DC01ED91FC91048098
:10067000F581E02D6C81099581E08E831C821F82BB
:10068000C85ADF4F188280E0DF91CF910895FC01B6
:1006900084810895DF92EF92FF920F931F93CF937F
:1006A000DF93EC0185E0E62EF12CFE01869FE00D44
:1006B000F11D1124908596FF24C0192F177001E0B9
:1006C00085E0D82E8FEF800F8F3008F001E0602F8B
:1006D00070E0062FD69EF001D79EF00D1124EC0F8E
:1006E000FD1F80858695869586958770181701F180
:1006F0006F5F7F4F603168F38D81811302C01150AD
:100700001D8385E08E9DF0018F9DF00D1124EC0F6F
:10071000FD1F108681E0818712862296D783C683CB
:10072000DF91CF911F910F91FF90EF90DF9008958F
:10073000CE010E944A03C6CFFC0120812EBD9B0141
:100740002150310941F051810DB407FEFDCF4EB566
:100750005EBD4193F5CF61507109860F971F0DB4AF
:1007600007FEFDCF2EB5FC0120830895FC0121E09A
:10077000613499F49C01255B3F4F61E0AC014E5F11
:100780005F4F1586668717865487438735962E17E1
:100790003F07B9F7FC01158208953585631729F0E5
:1007A0002F5F35962031C9F70895622F0C944A03C4
:1007B000CF93DF93FC0167FD12C0283080F44423FF
:1007C00019F08581873059F0EF01A1E0B0E08D8507
:1007D000882349F111962596A031B105C1F780E033
:1007E00018C085E08A9FE0018B9FD00D1124CE0FA9
:1007F000DF1F442389F081E4888785818F5F8583AB
:1008000025E02A9FC0012B9F900D1124E80FF91FAE
:100810008085DF91CF91089581E08887F1CF27709F
:10082000687B622B0FC06623E1F26770660F660F6C
:10083000660F4423A1F3606485818F5F8583877091
:10084000687F682B25E02A9FC0012B9F900D112403
:10085000E80FF91F6087862FDCCFFC0121E06111D2
:1008600002C0069608953585631739F02F5F3596D7
:100870002031C9F790E080E00895069635E0239F87
:10088000800D911D1124089580E0089580E0089561
:1008900080E0089580E0089581E0089508952A9801
:1008A00008952A9A089508950F931F93CF93DF9385
:1008B00000D0CDB7DEB7182F062F80E591E00E945B
:1008C0000B010E944F04126019830A8362E070E0FA
:1008D000CE0101960E949C030E9451040F900F903C
:1008E000DF91CF911F910F9108958EBD00000DB43F
:1008F00007FEFDCF8EB50895FF920F931F93CF9300
:10090000DF93182FF62EEA0180E591E00E940B019B
:100910000E944F04812F82600E9475040F2D10E009
:10092000FF2021F0B801CE010E949C03C00FD11F0F
:100930000E945104CE01DF91CF911F910F91FF9042
:100940000895CF93C82F80E591E00E940B010E948B
:100950004F048C2F0E94750480E00E947504C82FFC
:100960000E9451048C2FCF9108958F929F92AF9245
:10097000BF92CF92DF92EF92FF920F931F93CF938C
:10098000DF93882E962E5A010E9423036B017C016F
:1009900028E8C20E23E1D21EE11CF11C10E000E0A9
:1009A000D0E0C0E098280E9423036C197D098E09CD
:1009B0009F0997FF1EC0692D80EF0E9454040E947A
:1009C00023036C197D098E099F0997FF09C088ECE4
:1009D0000E94A10487FFF3CF60E888EC0E945404D2
:1009E00088EF0E94A104C82FCF70C43081F0CE30B0
:1009F000B9F08C2FDF91CF911F910F91FF90EF9065
:100A0000DF90CF90BF90AF909F908F9008950F5F31
:100A10001F4FA114B10439F20A151B0521F6E9CFC5
:100A2000DF5FD33009F0BFCFE4CFAF92BF92CF9258
:100A3000DF92EF92FF920F931F93CF93DF93EC011E
:100A4000B62EA42E69010E942D047C0186EDE114CE
:100A5000F10409F447C0D701ED91FC91119787ED9E
:100A6000309709F43FC013969C9180E0981731F0BD
:100A70002081A21629F033968F5FF8CFF0E0E0E0F6
:100A8000D601ED93FC938BED309761F12281269591
:100A90002695203108F02FE081E090E0A0E0B0E062
:100AA00004C0880F991FAA1FBB1F2A95D2F7019770
:100AB000F801918380836B2D80EE0E94540488EDB1
:100AC0000E94A104D70114969C91682F697F9923F5
:100AD00029F0CA58DF4F68816260682B88ED0E9458
:100AE000540480E0DF91CF911F910F91FF90EF9020
:100AF000DF90CF90BF90AF90089588EF0E94A1043F
:100B0000807C8034B1F018F4882301F10895803896
:100B100019F0803CC9F0089588ED0E94A10481FD80
:100B20000DC069EC88ED0E94540482E0809364015A
:100B3000089588ED0E94A10481FDF3CF6BEC88ED50
:100B40000E94540483E0F2CF81E0F0CF61ED88EDA4
:100B50000E945404109264010895CF93DF93EC0136
:100B600088810E944402892B39F48981813021F4E3
:100B70001982DF91CF91089588810E9444020197E4
:100B800029F48981811102C081E0898380E0F1CF5D
:100B9000089590E080E00895CF92DF92FF920F9346
:100BA0001F93CF93DF93F62E01E0C82FD0E0CC0F38
:100BB000DD1FCD58D94F6E0188819981DC01ED91FF
:100BC000FC910280F381E02D2F2D40E060E009953B
:100BD000182F803E49F561E088EE0E94540466E6D5
:100BE00070E080E090E00E94F102F6018081918146
:100BF000DC01ED91FC910190F081E02D2F2D40E082
:100C000060E00995182F8D3041F58FEF800F83300C
:100C100088F061E088EE0E94540466E670E080E0AF
:100C200090E00E94F10210C08D3061F48FEF800FD0
:100C3000833050F464E670E080E090E00E94F102BE
:100C40000F5FBACF882389F2812FDF91CF911F9157
:100C50000F91FF90DF90CF9008958823A9F3D9CF0B
:100C6000CF93DF93EC0160E08E810E946D0261E022
:100C70008E810E946D0260E08E810E946D028BE881
:100C800091E00197F1F7DF91CF910895CF92DF9234
:100C9000EF92FF920F931F93CF93DF936C017C0130
:100CA00087E0E80EF11CD0E0C0E0062F10E0B801AC
:100CB0000C2E02C0759567950A94E2F76170F701F2
:100CC00081917F010E946D022196C430D10579F790
:100CD000C601DF91CF911F910F91FF90EF90DF90B0
:100CE000CF900C943006CF92DF92EF92FF920F9349
:100CF0001F93CF93DF93EC01F62E642F8C810E941B
:100D00006D028D818F3F19F060E00E946D020F2D02
:100D100010E08F8584FF25C06E0187E0C80ED11CCE
:100D2000F12CE12CB8010E2C02C0759567950A9440
:100D3000E2F76170F60181916F010E946D02FFEF91
:100D4000EF1AFF0A88E0E816F10461F7CE01DF919F
:100D5000CF911F910F91FF90EF90DF90CF900C9467
:100D60003006B80184E0759567958A95E1F7CE0164
:100D70000E9446066F2DCE01DF91CF911F910F91FA
:100D8000FF90EF90DF90CF900C94460640E0682FE4
:100D900083E096E00C947306CF93DF93613029F0E3
:100DA0009091120698609093120660931606109226
:100DB000170690E49093180680931906805C809340
:100DC0001A0661E0809107060E949B028091080646
:100DD0008F3F19F061E00E949B0261E0809109065B
:100DE0000E949B02C3E0D6E09E01235036408091D2
:100DF000120684FD0BC084E090E021962817390785
:100E000044F461E08E810E949B02EECF88E090E086
:100E1000F4CF8BE39DE00197F1F760E08091070646
:100E20000E946D0260E0809109060E946D0280912F
:100E300008068F3F19F060E00E946D028091120653
:100E400084FD39C063E083E096E00E944606CBE46F
:100E5000D6E4CE010197F1F763E083E096E00E94CB
:100E600046062197F1F763E083E096E00E9446068C
:100E700083E592E00197F1F762E083E096E00E945B
:100E800046068091120680620E94C60684E0809326
:100E900013068CE00E94C60681E00E94C6068BE322
:100EA0009FE10197F1F782E08093140686E0DF91DD
:100EB000CF910C94C60680620E94C6068BE496E42D
:100EC0000197F1F78091120680620E94C60683E5C1
:100ED00092E00197F1F78091120680620E94C606A7
:100EE000D0CF643008F063E090911606691710F0D7
:100EF0006FEF690FE62FF0E0ED5FF94F9489890FEE
:100F000080680C94C60641E00E94730681E090E080
:100F100008950F931F93CF93DF938C01D0E0C0E02F
:100F2000F801EC0FFD1F6491662339F041E083E086
:100F300096E00E9473062196F3CFCE01DF91CF9108
:100F40001F910F9108952F923F924F925F926F924F
:100F50007F928F929F92AF92BF92CF92DF92EF9249
:100F6000FF920F931F93CF93DF937B013A016901A7
:100F7000F901A080B180FB013180F901118210825A
:100F8000FB01828160E181FD60E288EE0E945404F1
:100F90002A2CA301F701608180E00E94B504582E3D
:100FA000F6E08F1310C088EF0E94A104F701928130
:100FB0009D7F84FF9260928360E191FD60E288EE04
:100FC0000E945404E6CF811150C088EC0E94A10415
:100FD00082FF5FC080E30E94A104482E8A151B0493
:100FE00011F008F0422CF60180819181E501C81BC7
:100FF000D90BD7FF02C0D0E0C0E0842C912C8C1616
:101000009D060CF4E40180E591E00E940B010E9432
:101010004F0488E00E947504AE0170E060E0C801F2
:101020000E948513209721F0BE01C8010E949C03F5
:101030000C0F1D1F0E94510464E088EC0E945404B0
:10104000F60180819181880E991E918280824314DD
:1010500020F08A149B0408F49CCF88EF0E94A1041E
:10106000F701928184FB91F99283852DDF91CF91D5
:101070001F910F91FF90EF90DF90CF90BF90AF90B6
:101080009F908F907F906F905F904F903F902F90A8
:10109000089580EF582EE9CF2F923F924F925F92A2
:1010A0006F927F928F929F92AF92BF92CF92DF9278
:1010B000EF92FF920F931F93CF93DF93CDB7DEB7DD
:1010C00063970FB6F894DEBF0FBECDBF3C01542E20
:1010D000422E302E1E861D861C861B868E01055FC5
:1010E0001F4F9E01235F3F4F40E00E941505F82EE1
:1010F0008111D0C059824A823B82EC821E821D82BD
:10110000D886CF82AE014F5F5F4F68E080E20E94D9
:101110007C044B855C8560E080E10E94B504811110
:1011200016C181149104B1F10D851E85F8018281EB
:1011300057FE36C082608283EE24E394C114D1044A
:1011400009F40AC1BA86A9864B855C856D857E85C2
:1011500084019E01275F3F4FC3010E94A307F82E21
:10116000F6E08F130EC088EF0E94A104ED85FE8586
:1011700085FB882780F98E25928180FB91F99283E7
:10118000DDCF811187C089859A85C81AD90A8A1549
:101190009B05A0F64B855C8557FED5C080EAD4C080
:1011A00081608283E1808FEF8E0D803408F0D1C0A2
:1011B0008B859C85988B8F870E9423031B012C01B4
:1011C000E8E82E0EE3E13E1E411C511CF80182812D
:1011D00060E880FF60E488EE0E945404F12C8E2DBC
:1011E00090E09A8B898BA114B10409F446C0C98898
:1011F000DA88AC14BD0408F46501CB8AA4016C2D17
:1012000080E10E947C046C2D88E30E945404F80164
:101210006081606280EF0E94540488EC0E94A10407
:1012200087FFFBCF60E888EC0E94540488EF0E949F
:10123000A1048F70F82EE12C712C612CFF2009F491
:1012400043C00E942303621973098409950997FF1B
:101250003BC0F6E0FF1609F462C02EE0F216C9F1B9
:1012600084E0F8120AC09FEF691A790AEF85F889BD
:10127000309799F1E615F70581F588EF0E94A104F2
:10128000F801928185FB90F992834B855C85FF2064
:1012900009F459C08F2D63960FB6F894DEBF0FBEC8
:1012A000CDBFDF91CF911F910F91FF90EF90DF9015
:1012B000CF90BF90AF909F908F907F906F905F90F6
:1012C0004F903F902F900895AC18BD088C0C9D1C3A
:1012D0008ACFE394F3E0EF1681F260E088E30E94A6
:1012E0005404F401608180E10E9454046B8988E316
:1012F0000E945404F8016081606280EF0E945404EF
:1013000088EC0E94A10487FFFBCF60E888EC0E9474
:10131000540488EF0E94A1048F70F82E8FCF88EFBD
:101320000E94A10485FB882780F921E08227F8012B
:10133000928180FB90F9928360E890FF60E488EEF0
:101340000E945404CACF80E860E00E94B504F82EE1
:10135000A1CF8AEDF82E9ECF4B855C85FF2009F446
:101360001DCF98CF8F929F92AF92BF92CF92DF9274
:10137000EF920F93CF93912C812CB12CA12CD12CD7
:10138000C12CE12C062F25E040E060E00E944C08D3
:10139000C82F6CE271E080E090E00E94F1028C2F97
:1013A000CF910F91EF90DF90CF90BF90AF909F9033
:1013B0008F9008954F925F926F927F928F929F923B
:1013C000AF92BF92CF92DF92EF92FF920F931F9353
:1013D000CF93DF93CDB7DEB7DA950FB6F894DEBFC3
:1013E0000FBECDBF3C01162FF42ECE0101964C014D
:1013F000A4E0AA2EB12CB4E0CB2ED12C02E0E02E3A
:10140000042F26E040E8D30112968D919C910E9412
:101410004C08811166C04B805C80B1E04B165B06C6
:1014200018F0412C55245394FE0131964F0152017E
:101430006201E2E0EE2E0F2D26E040E8612FD3019D
:1014400012968D919C910E944C0881114AC040E0F7
:10145000F401480C591CE415F50508F042C0508110
:101460009181943059F09530A1F0923021F495811A
:10147000D30115969C93E50FF11DEDCF9581913029
:1014800071F52681233059F5D30118969C9341E0DC
:10149000F2CF93819370923071F792814423D1F00F
:1014A00021E097FF22E0648130E0D901AA0FBB1F41
:1014B000A20FB31FA60DB71D9F7019969C93199785
:1014C0001A966C93D30116969C9116979F5F169669
:1014D0009C93D1CF23E097FDE6CF24E0E4CF40E01A
:1014E000CACFD3950FB6F894DEBF0FBECDBFDF9144
:1014F000CF911F910F91FF90EF90DF90CF90BF9011
:10150000AF909F908F907F906F905F904F900895D5
:101510002F923F924F925F926F927F928F929F9203
:10152000AF92BF92CF92DF92EF92FF920F931F93F1
:10153000CF93DF93CDB7DEB767970FB6F894DEBFD2
:101540000FBECDBFFC0181E88487158686858E7F1E
:101550008D7F868731E03787108A81898E7F8D7FE6
:10156000818B848109ED811113C0122F4F8BF62ED0
:101570003F0142805380D201ED91FC910190F081B6
:10158000E02D60E0C20109951C010097D9F406ED39
:10159000802F67960FB6F894DEBF0FBECDBFDF91E8
:1015A000CF911F910F91FF90EF90DF90CF90BF9060
:1015B000AF909F908F907F906F905F904F903F90F3
:1015C0002F900895FC010190F081E02DFE8BED8BB2
:1015D00007EDEF2BE9F29301275F3F4F3C8B2B8BFD
:1015E000DC0111963C932E9314961C93FE013196C8
:1015F0004F0182E1A82EB12C92E1C92ED12CEE240C
:10160000E39400E026E040E860E0D30112968D917B
:101610009C910E944C08082F89859A85F301E55A10
:10162000FF4F918380838B859C8532979183808344
:101630002D893E89F101318320830111ABC0D20194
:10164000ED91FC910280F381E02D2F8940E06F2D18
:10165000C2010995F301848304ED882309F498CF2E
:1016600098859287682F828193810E94B209082F02
:10167000D201ED91FC91D10114961C92882359F06E
:101680000480F581E02DD30114966C91C201099577
:10169000F30114827DCF0190F081E02DD3011496E7
:1016A0006C91C2010995009709F471CFFC01148374
:1016B000D30112968D919C91139714961C91EB89EE
:1016C000FC89EF2B09F465C0612F0E942D04FC01F9
:1016D000892B09F468C0FA8812832B893C893183ED
:1016E000208331E03383D30118961C9210E01F153C
:1016F00081F0412FF3016481C3010E94DA09082FB0
:10170000811148C0D30116968C91823010F41F5F6E
:10171000EECFF3018681823008F447C080858111C5
:1017200008C0828984878389858785898787868998
:10173000808BD30114961C911497612F12968D9172
:101740009C910E942D04FC01892B39F012832B8976
:101750003C893183208383E08383912C812CB12CBD
:10176000A12CD12CC12CE12CD30115960C911597ED
:1017700029E040E014966C91149712968D919C91FB
:101780000E944C08082F811105C081E0F301878376
:10179000FFCE08EDD301ED91FC910480F581E02DA1
:1017A000C3010995F5CE06EDF5CF0FEFF3CFCF923C
:1017B000DF92EF92FF920F931F93CF93DF93CDB7FA
:1017C000DEB7A1970FB6F894DEBF0FBECDBF182FBE
:1017D000E82EF12C0AE0E114F10409F049C08DEB88
:1017E00091E00E948907212F30E050E040E019A2EB
:1017F0008E010F5D1F4F8AE0C82ED12CE12CF12CF9
:10180000CA01B901A70196010E943513605DF80174
:1018100062938F01211531054105510589F73097F4
:1018200061F001900020E9F73197AF01401B510BA7
:10183000B80183E096E00E940E01E0911B0684E06F
:10184000E89FF0011124EC5FFE4F618180810E94CE
:101850007107A1960FB6F894DEBF0FBECDBFDF9122
:10186000CF911F910F91FF90EF90DF90CF9008954F
:1018700089E0E816F1040CF0B6CF8BEB91E00E9402
:101880008907F7010E9F70010F9FF00C1124F0CF14
:101890001F920F920FB60F9211242F933F934F93E5
:1018A0005F936F937F938F939F93AF93BF93EF93C8
:1018B000FF9385E691E00E948C01FF91EF91BF912B
:1018C000AF919F918F917F916F915F914F913F91D8
:1018D0002F910F900FBE0F901F9018951F920F928F
:1018E0000FB60F9211242F938F939F93EF93FF9333
:1018F000E0917501F09176018081E0917B01F0919A
:101900007C0182FD1BC0908180917E018F5F8F736F
:1019100020917F01821741F0E0917E01F0E0EB59C8
:10192000FE4F958F80937E01FF91EF919F918F9154
:101930002F910F900FBE0F901F9018958081F4CFBC
:101940001F920F920FB60F9211242F933F938F93F4
:101950009F93AF93BF938091530190915401A091B5
:101960005501B09156013091520123E0230F2D37DC
:1019700058F50196A11DB11D20935201809353018A
:1019800090935401A0935501B09356018091570153
:1019900090915801A0915901B0915A010196A11D51
:1019A000B11D8093570190935801A0935901B093B2
:1019B0005A01BF91AF919F918F913F912F910F90BD
:1019C0000FBE0F901F90189526E8230F0296A11DB9
:1019D000B11DD2CFCF93109268011092670188EEAB
:1019E00093E0A0E0B0E08093690190936A01A09336
:1019F0006B01B0936C0188E191E090936601809354
:101A0000650185EC90E0909372018093710184EC04
:101A100090E0909374018093730180EC90E0909338
:101A200076018093750181EC90E09093780180932A
:101A3000770182EC90E090937A018093790186ECB3
:101A400090E090937C0180937B0110927E01109234
:101A50007F01109280011092810183E18093FB0647
:101A600060E00E949B02C1E0C093FC0682E180938B
:101A7000F90660E00E949B02C093FA0680E1809321
:101A8000F70660E00E949B02C093F80681E1809314
:101A9000F50660E00E949B02C093F6068CE491E09C
:101AA00090931E0680931D0610922506C09326066D
:101AB000109227068FE196E09093240680932306E8
:101AC00010921F0688E0809320068CE38093210605
:101AD00010922206EDE1F6E081E02FE136E0158676
:101AE0008687178634872387359696E0E836F90788
:101AF000B1F71092930691E19093020226E331E050
:101B000030939506209394062DE136E030939706A6
:101B1000209396061092980680939A0610929B0640
:101B200010929C061092EC0610929D0688E080931D
:101B30009E0680919F0683708C6380939F0610920F
:101B4000A0061092A1068091A20683708460809303
:101B5000A2061092A3061092A4068091A506837097
:101B600084608093A5061092A6061092A706809125
:101B7000A806837084608093A8061092A90610922C
:101B8000AA068091AB06837084608093AB06E3E77E
:101B9000F6E090E080E021913191232B09F050C0D4
:101BA000880F991FFC01ED58F94F84E996E0918365
:101BB000808380EB8093F40610920606109205064F
:101BC0008AE291E0909304068093030687E0809375
:101BD00007068FEF8093080686E08093090685E06C
:101BE00080930A0684E080930B0683E080930C06C2
:101BF00082E080930D0610920E0610920F0610924E
:101C00001006109211061092120661E080E10E9407
:101C1000CC068AE291E0909304068093030610922A
:101C20001B0610921C06E3E0F2E090E080E0819356
:101C300091930196811522E09207C9F7CF910895FB
:101C400001968031910509F0A6CFB3CFCF93DF93F2
:101C5000CDB7DEB767970FB6F894DEBF0FBECDBF26
:101C6000789484B5826084BD84B5816084BD85B577
:101C7000826085BD85B5816085BD80916E00816083
:101C800080936E0010928100809181008260809329
:101C9000810080918100816080938100809180002B
:101CA0008160809380008091B10084608093B10056
:101CB0008091B00081608093B00080917A00846050
:101CC00080937A0080917A00826080937A0080917C
:101CD0007A00816080937A0080917A008068809396
:101CE0007A001092C100E0917501F091760182E0D6
:101CF0008083E0917101F09172011082E091730193
:101D0000F09174018FE3808310927D01E09179015D
:101D1000F0917A0186E08083E0917701F09178017B
:101D2000808180618083E0917701F09178018081EA
:101D300088608083E0917701F091780180818068EC
:101D40008083E0917701F091780180818F7D80839D
:101D500064E084E10E94CC0660E080E00E947107AC
:101D60008AEB90E00E94890762E080E00E947107A0
:101D700085EA90E00E94890763E080E00E94710795
:101D800080E990E00E94890780911306982F926065
:101D9000909313068A600E94C60680911306982FBE
:101DA00091609093130689600E94C606229A0E9451
:101DB00051041FB7F89480915B01811127C0E0EFB7
:101DC000F0E08491ECEDF0E09491E82FF0E0EE0F7C
:101DD000FF1FE853FF4FA591B491EC91E92321F443
:101DE00061E08AE00E946D0261E08AE00E949B024D
:101DF0008CB580618CBD8CB580648CBD61E08DE05C
:101E00000E949B0261E08BE00E949B0280915B013B
:101E10008F5F80935B011FBF229A0E94510421981B
:101E200068E188E80E94540460E288E70E94540454
:101E300060E088E70E94540410E000E088E60E9419
:101E4000A1040F5F1F4F80FF44C061EC88ED0E942A
:101E5000540460E680ED0E94540464E088EE0E9421
:101E6000540488EE0E94A10482FFFBCF0E947D05EE
:101E700060E288EC0E94540461E080E80E9454040F
:101E800068EC70E080E090E00E94F1021E0143E106
:101E9000240E311C0E94230383B1182F127081FD80
:101EA0000CC088EC0E94A10485FF03C00E947D0540
:101EB00010E2612F88EC0E9454048091640181300B
:101EC00069F080F0823009F468C08330A1F010E03E
:101ED00029C00F3F100709F0B1CFFFCF83E18093F6
:101EE0000202F5CF80910202807F803181F391E17F
:101EF00090930202ECCF11E080910202807F80314A
:101F000089F40E94230368537F4F8F4F9F4F609344
:101F10005C0170935D0180935E0190935F01A0E28C
:101F2000A093020293E7692E96E0792E7301F701E0
:101F3000819191917F01009739F0DC01ED91FC9145
:101F40000680F781E02D0995E3E9F6E0EE15FF053F
:101F500071F780910202803409F456C000F5803296
:101F6000E9F1803309F44AC0813109F05DC0109273
:101F70009306D3018D919D913D01009739F0DC01CD
:101F8000ED91FC910480F581E02D0995E614F704AC
:101F900081F782E18093020247C010E0ADCF813526
:101FA00009F4A3C1803809F4B3C18035E9F588ECA0
:101FB0000E94A10486FF38C081E5809302020E943E
:101FC00023036C5E7F4F8F4F9F4F60935C01709334
:101FD0005D0180935E0190935F0126C00E94230300
:101FE00000915C0110915D0120915E0130915F01D3
:101FF000601B710B820B930B97FD16C061E088EE9E
:102000000E94540480E4C6CF88EE0E94A10480FDA3
:102010000BC088ED0E94A104682F686088ED0E94C3
:102020005404B0E5B09302028BEF96E00E94AD0538
:10203000882309F43FC08091630190E0019683708A
:102040009927182F8093630180931B0681E00E94DB
:10205000C6068BE39FE10197F1F760E080E0123064
:1020600009F465C2133009F477C2113009F44AC289
:102070000E9471078DEA91E00E94890762E080E08A
:102080000E94710788E991E00E94890763E080E07F
:102090000E94710783E891E00E948907E0911B0686
:1020A00034E0E39FF0011124EC5FFE4F61818081F9
:1020B0000E94710789EF96E00E94AD058823E9F040
:1020C00020911B0630E080911C0690E00196F901FA
:1020D000E050FF4F608170E00E94571380931C0610
:1020E000F901EE0FFF1FE80FF91FEE0FFF1FEC5F66
:1020F000FE4F618180810E94710787EF96E00E9408
:10210000AD05882389F180916301813069F5809163
:102110001C06811129C02091620140E8249FC00162
:10212000112420916101280F392F311D220F331FF7
:10213000F901ED5FFD4F808191818038A1E09A0720
:102140000CF41FC28F7799272D5F3D4FF9019183C2
:10215000808397FF02C081589F4F880F892F881F67
:10216000990B8F5F0E94D70B85EF96E00E94AD051B
:10217000882381F180916301813061F580911C0693
:10218000811128C020916201F0E82F9FC001112425
:1021900020916101280F392F311D220F331FF901C2
:1021A000ED5FFD4F80819181803891050CF0ECC18D
:1021B00080589E4F2D5F3D4FD9018D939C9397FF83
:1021C00002C081589F4F880F892F881F990B8F5FFE
:1021D0000E94D70B80910202803909F022C28091BF
:1021E0009B06882309F41DC2E091EC068FEF8E0F49
:1021F0008F3308F0CFC1F0E0EC56F94F808D882383
:1022000009F4C5C1E091EC06AE2FB0E0AC56B94F71
:1022100058968C91A1E0AE0FB0E0AC56B94F5896ED
:102220009C919093F106A2E0AE0FB0E0AC56B94F8E
:1022300058962C912093F20634E03E0F3093EC0632
:10224000ED5FF0E0EC56F94F108D1093F306382F48
:102250003C70343021F48F708450843088F0892FA2
:10226000903F08F4807F803E59F008F0F0C1803A3A
:1022700039F008F0E3C1803819F0803909F0D1C194
:102280008091F406981B9093620120936101109352
:10229000600130E8939FF0011124E20FF11DEE0F71
:1022A000FF1FED5FFD4FE080F180B701F7FE02C038
:1022B00061587F4F660F672F661F770B7727605532
:1022C0007F4F85E691E00E94AE01C70160E870E0B3
:1022D0000E945713682F85E691E00E94AE01612F9E
:1022E00085E691E00E94AE019CC10E942303C0904C
:1022F0005C01D0905D01E0905E01F0905F016C198F
:102300007D098E099F0997FD8FCE80E88093020298
:102310001B8A88E08C8B8CE38D8B40902306509039
:102320002406309224062092230610932706FE01ED
:1023300031964F0102E1A02EB12C82E1C82ED12CA2
:10234000EE24E39400E026E040E860E08DE196E0D2
:102350000E944C08082F50922406409223068111B7
:1023600050C0C984DA84AB84BC844D809E80B3E7BE
:10237000EB2EB6E0FB2E512CD7018D919C9100974E
:1023800009F041C05394B2E0EB0EF11CE0E15E12A3
:10239000F3CFF30180819181009709F076C00F5F40
:1023A000F2E06F0E711C0031A1F78091230690912D
:1023B0002406892B09F459C01093270620E040E039
:1023C00060E08DE196E00E94D803F82E882309F49E
:1023D0004CC0682F8DE196E00E942D04009709F40F
:1023E00044C0FC0114836F2D8DE196E00E94B20978
:1023F000082F882309F484C06F2D8DE196E00E9498
:10240000B603802F2FC0DC01ED91FC910084F18593
:10241000E02D09958111B6CFF70180819181DC0112
:10242000ED91FC910088F189E02D692D09958823B3
:1024300009F4A8CFF70180819181DC01ED91FC9135
:102440000484F585E02DA501B6010995882379F06E
:10245000612F852D0E94CC05813D09F493CF8823FF
:1024600009F44EC0823D09F4DFCD80EA93CDF70137
:1024700080819181DC01ED91FC910684F785E02D4E
:10248000642D09958111E4CF7DCFDC01ED91FC91A4
:102490000084F185E02D0995811181CFF3018081C0
:1024A0009181DC01ED91FC910088F189E02D692D8D
:1024B0000995811109C0612F802F0E94CC05982FAA
:1024C000977F913D61F66BCFF30180819181DC01B3
:1024D000ED91FC910484F585E02DA501B6010995E7
:1024E00081115DCFF30180819181DC01ED91FC913F
:1024F0000684F785E02D642D09958823E1F24FCFFE
:1025000080E948CD0E94710788E791E00E94890721
:1025100062E080E00E94710786E691E00E948907F0
:1025200063E080E00E94710783E591E0B5CD0E94F1
:10253000710788E491E00E94890762E080E00E94D0
:10254000710787E391E00E94890763E080E00E94C1
:10255000710789E291E0A0CD0E9471078DE191E0C1
:102560000E94890762E080E00E9471078BE091E0A1
:102570000E94890763E080E00E9471078AEF90E083
:102580008BCD80589F4FE0CD8058910913CE818D1F
:10259000811138CE1092EC068091A10690E09F8BBD
:1025A0008E8BE0909606F09097064091A006609181
:1025B00098061C8A1B8A1A8219828E010F5F1F4F90
:1025C0009101C7010E94150581110CC049815A81F2
:1025D0006B897C890CEA16E09E012A5E3F4FC70199
:1025E0000E94A3072E893F892C33310540F4F9015D
:1025F000E455F94F10822355394FF90110828111AA
:1026000010C08091AC068111FDCD8091AD06811185
:10261000F9CD8091AE068111F5CD8091AF06811183
:10262000F1CD80E090E0892B09F434CC0E94780150
:10263000882309F42FCC0E9400002CCC803C09F4A4
:102640001FCE803D09F41CCE803B59F719CE8D3F3B
:1026500040F4883F08F014CE815F833008F410CE38
:10266000E0CF8E3F08F00CCEDCCFA1E21A2EAA1BE1
:10267000BB1BFD010DC0AA1FBB1FEE1FFF1FA21732
:10268000B307E407F50720F0A21BB30BE40BF50B2F
:10269000661F771F881F991F1A9469F760957095B8
:1026A000809590959B01AC01BD01CF01089597FBEA
:1026B000072E16F4009407D077FD09D00E946B1303
:1026C00007FC05D03EF4909581959F4F0895709535
:1026D00061957F4F0895AA1BBB1B51E107C0AA1F3C
:1026E000BB1FA617B70710F0A61BB70B881F991FB3
:1026F0005A95A9F780959095BC01CD010895EE0FEC
:10270000FF1F0590F491E02D0994DC0101C06D9349
:0C27100041505040E0F70895F894FFCFCE
:10271C0002020202000000000A0310030602060275
:10272C000602060200000000AE010E013B01FB0197
:10273C006C014A015E010000000083070E01C9050F
:10274C00C80500000000880A4A042F03460447030A
:10275C004E04440448044C04000000002D04D8032B
:02276C00B603B2
:00000001FF
